:020000040800F2
:1000000000A0002005AE0008EDC20008055600085B
:10001000EFC20008F1C20008F3C2000800000000AF
:10002000000000000000000000000000F5C2000811
:10003000F7C2000800000000F9C20008BD13000864
:1000400079AE000879AE000879AE000879AE0008F4
:1000500079AE000879AE000879AE000879AE0008E4
:1000600079AE000879AE000879AE000879AE0008D4
:1000700079AE000879AE0008A9170008CD1700086E
:10008000F11700081518000879AE000879AE0008CD
:10009000FBC2000879AE000879AE000879AE00080E
:1000A00029B6000835B6000841B60008F1B50008C9
:1000B000FDB5000805B6000811B6000879AE0008C5
:1000C00079AE000879AE000879AE000879AE000874
:1000D00079AE000845190008511900085D1900089B
:1000E0004DB6000879AE0008FFC2000879AE0008DE
:1000F00079AE000879AE00081DB6000879AE000898
:1001000000000000000000000000000079AE0008C0
:1001100079AE000879AE000879AE000879AE000823
:1001200079AE000879AE000879AE000879AE000813
:1001300079AE000879AE0008000000000000000061
:1001400079AE000879AE000879AE00080000000022
:10015000000000000000000000000000000000009F
:10016000000000000000000079AE000879AE000831
:1001700079AE000800000000000000000000000050
:080180000000000079AE000848
:1001880081F0004102E000BF83F0004330B54FEA40
:1001980041044FEA430594EA050F08BF90EA020FAD
:1001A8001FBF54EA000C55EA020C7FEA645C7FEA40
:1001B800655C00F0E2804FEA5454D4EB5555B8BF63
:1001C8006D420CDD2C4480EA020281EA030382EAD4
:1001D800000083EA010180EA020281EA0303362D66
:1001E80088BF30BD11F0004F4FEA01314FF4801C39
:1001F8004CEA113102D0404261EB410113F0004F4B
:100208004FEA03334CEA133302D0524263EB430301
:1002180094EA050F00F0A780A4F10104D5F1200E9F
:100228000DDB02FA0EFC22FA05F2801841F10001FA
:1002380003FA0EF2801843FA05F359410EE0A5F1CE
:1002480020050EF1200E012A03FA0EFC28BF4CF0FF
:10025800020C43FA05F3C01851EBE37101F00045B5
:1002680007D54FF0000EDCF1000C7EEB00006EEBC2
:100278000101B1F5801F1BD3B1F5001F0CD349084C
:100288005FEA30004FEA3C0C04F101044FEA4452A3
:1002980012F5800F80F09A80BCF1004F08BF5FEA2A
:1002A800500C50F1000041EB045141EA050130BD0A
:1002B8005FEA4C0C404141EB010111F4801FA4F1AD
:1002C8000104E9D191F0000F04BF01460020B1FA02
:1002D80081F308BF2033A3F10B03B3F120020CDA3A
:1002E8000C3208DD02F1140CC2F10C0201FA0CF018
:1002F80021FA02F10CE002F11402D8BFC2F1200C7D
:1003080001FA02F120FA0CFCDCBF41EA0C01904032
:10031800E41AA2BF01EB0451294330BD6FEA04047B
:100328001F3C1CDA0C340EDC04F11404C4F1200266
:1003380020FA04F001FA02F340EA030021FA04F378
:1003480045EA030130BDC4F10C04C4F1200220FACF
:1003580002F001FA04F340EA0300294630BD21FA0D
:1003680004F0294630BD94F0000F83F4801306BFD3
:1003780081F480110134013D4EE77FEA645C18BFC7
:100388007FEA655C29D094EA050F08BF90EA020F5E
:1003980005D054EA000C04BF1946104630BD91EA56
:1003A800030F1EBF0021002030BD5FEA545C05D159
:1003B8004000494128BF41F0004130BD14F5800498
:1003C8003CBF01F5801130BD01F0004545F0FE410C
:1003D80041F470014FF0000030BD7FEA645C1ABF41
:1003E800194610467FEA655C1CBF0B46024650EA78
:1003F800013406BF52EA033591EA030F41F40021A4
:1004080030BD00BF90F0000F04BF0021704730B529
:100418004FF4806404F132044FF000054FF00001FE
:1004280050E700BF90F0000F04BF0021704730B5BF
:100438004FF4806404F1320410F0004548BF404294
:100448004FF000013EE700BF42004FEAE2014FEAE9
:1004580031014FEA02701FBF12F07F4393F07F4FC4
:1004680081F06051704792F0000F14BF93F07F4FF6
:10047800704730B54FF4607401F0004521F0004139
:1004880020E700BF50EA010208BF704730B54FF0BF
:1004980000050AE050EA010208BF704730B511F0C4
:1004A800004502D5404261EB41014FF4806404F1FC
:1004B80032045FEA915C3FF4DCAE4FF003025FEA7E
:1004C800DC0C18BF03325FEADC0C18BF033202EB06
:1004D800DC02C2F1200300FA03FC20FA02F001FA60
:1004E80003FE40EA0E0021FA02F11444C1E600BFFF
:1004F80070B54FF0FF0C4CF4E06C1CEA11541DBFB2
:100508001CEA135594EA0C0F95EA0C0F00F0DEF87C
:100518002C4481EA030621EA4C5123EA4C5350EA61
:10052800013518BF52EA033541F4801143F48013B2
:1005380038D0A0FB02CE4FF00005E1FB02E506F043
:100548000042E0FB03E54FF00006E1FB03569CF098
:10055800000F18BF4EF0010EA4F1FF04B6F5007F9E
:1005680064F5407404D25FEA4E0E6D4146EB060610
:1005780042EAC62141EA55514FEAC52040EA5E5099
:100588004FEACE2EB4F1FD0C88BFBCF5E06F1ED843
:10059800BEF1004F08BF5FEA500E50F1000041EB7A
:1005A800045170BD06F0004646EA010140EA020027
:1005B80081EA0301B4EB5C04C2BFD4EB0C0541EA49
:1005C800045170BD41F480114FF0000E013C00F35E
:1005D800AB8014F1360FDEBF002001F0004170BD82
:1005E800C4F10004203C35DA0C341BDC04F114049B
:1005F800C4F1200500FA05F320FA04F001FA05F227
:1006080040EA020001F0004221F0004110EBD370F3
:1006180021FA04F642EB06015EEA430E08BF20EA1F
:10062800D37070BDC4F10C04C4F1200500FA04F3C2
:1006380020FA05F001FA04F240EA020001F0004154
:1006480010EBD37041F100015EEA430E08BF20EAC7
:10065800D37070BDC4F1200500FA05F24EEA020E0F
:1006680020FA04F301FA05F243EA020321FA04F03E
:1006780001F0004121FA04F220EA020000EBD370F5
:100688005EEA430E08BF20EAD37070BD94F0000FF5
:100698000FD101F00046400041EB010111F4801F29
:1006A80008BF013CF7D041EA060195F0000F18BFDA
:1006B800704703F00046520043EB030313F4801F16
:1006C80008BF013DF7D043EA0603704794EA0C0FD0
:1006D8000CEA135518BF95EA0C0F0CD050EA4106E6
:1006E80018BF52EA4306D1D181EA030101F0004163
:1006F8004FF0000070BD50EA410606BF104619468B
:1007080052EA430619D094EA0C0F02D150EA013696
:1007180013D195EA0C0F05D152EA03361CBF1046D7
:1007280019460AD181EA030101F0004141F0FE4176
:1007380041F470014FF0000070BD41F0FE4141F4FA
:10074800780170BD70B54FF0FF0C4CF4E06C1CEAFA
:1007580011541DBF1CEA135594EA0C0F95EA0C0FAF
:1007680000F0A7F8A4EB050481EA030E52EA03356A
:100778004FEA013100F088804FEA03334FF080558B
:1007880045EA131343EA12634FEA022245EA1115B8
:1007980045EA10654FEA00260EF000419D4208BF69
:1007A800964244F1FD0404F5407402D25B084FEA16
:1007B8003202B61A65EB03055B084FEA32024FF4C2
:1007C80080104FF4002CB6EB020E75EB030E22BF1F
:1007D800B61A754640EA0C005B084FEA3202B6EBDF
:1007E800020E75EB030E22BFB61A754640EA5C008E
:1007F8005B084FEA3202B6EB020E75EB030E22BF1E
:10080800B61A754640EA9C005B084FEA3202B6EB1E
:10081800020E75EB030E22BFB61A754640EADC00DD
:1008280055EA060E18D04FEA051545EA16754FEA3F
:1008380006164FEAC30343EA52734FEAC2025FEA5D
:100848001C1CC0D111F4801F0BD141EA00014FF0EC
:1008580000004FF0004CB6E711F4801F04BF0143BD
:100868000020B4F1FD0C88BFBCF5E06F3FF6AFAED9
:10087800B5EB030C04BFB6EB020C5FEA500C50F169
:10088800000041EB045170BD0EF0004E4EEA1131EC
:1008980014EB5C04C2BFD4EB0C0541EA045170BDF3
:1008A80041F480114FF0000E013C90E645EA060E37
:1008B8008DE60CEA135594EA0C0F08BF95EA0C0F65
:1008C8003FF43BAF94EA0C0F0AD150EA01347FF4AD
:1008D80034AF95EA0C0F7FF425AF104619462CE784
:1008E80095EA0C0F06D152EA03353FF4FDAE1046E7
:1008F800194622E750EA410618BF52EA43067FF438
:10090800C5AE50EA41047FF40DAF52EA43057FF4C7
:10091800EBAE12E74FF0FF3C06E000BF4FF0010CD2
:1009280002E000BF4FF0010C4DF804CD4FEA410C36
:100938007FEA6C5C4FEA430C18BF7FEA6C5C1BD003
:1009480001B050EA410C0CBF52EA430C91EA030F84
:1009580002BF90EA020F0020704710F1000F91EAE1
:10096800030F58BF994208BF90422CBFD8176FEAAF
:10097800E37040F0010070474FEA410C7FEA6C5C7D
:1009880002D150EA013C07D14FEA430C7FEA6C5C84
:10099800D6D152EA033CD3D05DF8040B704700BFB0
:1009A8008446104662468C461946634600E000BFFE
:1009B80001B5FFF7B7FF002848BF10F1000F01BDD0
:1009C8004DF808EDFFF7F4FF0CBF012000205DF89B
:1009D80008FB00BF4DF808EDFFF7EAFF34BF012020
:1009E80000205DF808FB00BF4DF808EDFFF7E0FFB9
:1009F80094BF012000205DF808FB00BF4DF808ED0A
:100A0800FFF7CEFF94BF012000205DF808FB00BF70
:100A18004DF808EDFFF7C4FF34BF012000205DF852
:100A280008FB00BF4FEA4102B2F1E04324BFB3F52F
:100A3800001CDCF1FE5C0DD901F0004C4FEAC0024D
:100A48004CEA5070B2F1004F40EB830008BF20F031
:100A58000100704711F0804F21D113F13872BCBFEB
:100A680001F00040704741F480114FEA5252C2F140
:100A78001802C2F1200C10FA0CF320FA02F018BF89
:100A880040F001004FEAC1234FEAD32303FA0CFCDC
:100A980040EA0C0023FA02F34FEA4303CCE77FEA6B
:100AA800625307D150EA01331EBF4FF0FE4040F4B5
:100AB8004000704701F0004040F0FE4040F4000064
:100AC800704700BF30B54FF4D8709BB009F058FBA1
:100AD800564809F0D1F8564B0F93564B10930823FC
:100AE800ADF84830802314934FF4807315934FF476
:100AF800806316932023002417934C4811944FF4D5
:100B080000530FA918931394199409F02DF9474825
:100B1800012109F054F93023009303238DF80430A0
:100B28004FF09040022369468DF805308DF8064055
:100B38008DF807400AF001F901213F4809F0D9FF73
:100B48000A2000F06AFC3C48214609F0C7FF3A48F1
:100B580009F0BFFF384809F0C9FF04460028F9D159
:100B68000A2000F05AFC02253348029402A9039493
:100B780004948DF81840059509F074FF4FF400535C
:100B8800089409940A940B940C940D942A4807939A
:100B9800082407A98DF8384009F046FF01210A46C4
:100BA8002548062309F0B2FF234801212A460623D7
:100BB80009F0ACFF204801210322062309F0A6FF13
:100BC8001D4801210422062309F0A0FF1A482946DE
:100BD8000522062309F09AFF0622134616482946DD
:100BE80009F094FF144829460722062309F08EFFCE
:100BF800114829462246062309F088FF0E4801219C
:100C080009F05EFF0C48012109F0F2FF0028F9D035
:100C18000948022109F0E4FF0121074809F0D7FF3C
:100C2800054809F0CFFF1BB030BD00BF08040240E3
:100C380040010050CC02002000010050074B1A88E8
:100C4800598811449A8812FA81F1DA8812FA81F3E4
:100C58009BB200EE103ABBEECF0A7047CC020020E0
:100C680073B506460D4600242B880122A2401A427D
:100C780018D00093EB78AA788DF80420012B03D0C4
:100C8800022B0CBF0223032392088DF8053002F0D3
:100C98000C020023304669468DF806308DF807208F
:100CA8000AF04BF80134102CDED102B070BD000000
:100CB80030B589B041F6FF73ADF804304FF090407D
:100CC800032301A98DF80630384DFFF7C9FF4FF609
:100CD800FF733748ADF8043001A9FFF7C1FF354865
:100CE80001A9FFF7BDFF0FCD02AC0FC495E80300C3
:100CF80009AD84E8030003AC54F8040C2146083419
:100D0800FFF7AEFFAC42F7D14FF09040002101222F
:100D18000AF062F801210A464FF090400AF05CF8A8
:100D28004FF09040022109220AF056F84FF0904007
:100D3800032109220AF050F84FF0904006210122C1
:100D48000AF04AF84FF09040072101220AF044F8CF
:100D58004FF09040082106220AF03EF84FF09040EC
:100D6800092106220AF038F84FF090400A2106229D
:100D78000AF032F80E48042102220AF02DF80C4835
:100D8800062102220AF028F80948072102220AF05F
:100D980023F80748082102220AF01EF8044809210E
:100DA80002220AF019F809B030BD00BF44ED00086E
:100DB80000040048000800482DE9F043494C89B078
:100DC8004FF48020012109F001FA20460D21052267
:100DD8000AF002F820460E21052209F0FDFF05223F
:100DE80020460F2109F0F8FF00264FF460434FF02A
:100DF800040802274FF00309204601A901930125A1
:100E08008DF808708DF809908DF80A608DF80B60E0
:100E180009F093FF0DEB08012046CDF804808DF80A
:100E280008508DF809908DF80A608DF80B5009F07C
:100E380084FF2046414604F5806409F0C9FF4FF459
:100E48008048204601A9CDF8048009F076FF2046A5
:100E5800414609F0BDFF4FF40048204601A9CDF8EE
:100E6800048009F06AFF2046414609F0B1FF4FF4BB
:100E78000058204601A9CDF8048009F05EFF2046FD
:100E8800194C414609F0A4FF204609F0B7FE4FF47B
:100E98008273ADF80E304FF4E063ADF810304FF4C4
:100EA8000073ADF816302823ADF818302046072314
:100EB80003A9ADF81C30ADF80C60ADF81270ADF8B0
:100EC8001450ADF81A6009F0CBFE20464FF480515B
:100ED80009F01EFF2046294609F00EFF284609B0F2
:100EE800BDE8F0830004004800380040034B1A882E
:100EF800013292B21A804FF0FF307047DC020020B6
:100F080038B5054640F2E9341048022109F00FFFD0
:100F180020B9013CA4B2002CF6D10EE00B482946BA
:100F280009F001FF40F2E9340848012109F0FFFE09
:100F380038B9013CA4B2002CF6D1FFF7D7FFC0B2F4
:100F480038BD0248BDE8384009F0EFBE003800401F
:100F58002DE9F04104460D46164676B31DB195F8C5
:100F68000080013501E04FF0FF0840F2E9371448EE
:100F7800022109F0DCFE20B9013FBFB2002FF6D1F3
:100F88000EE00F48414609F0CEFE40F2E9370C4822
:100F9800012109F0CCFE40B9013FBFB2002FF6D1C4
:100FA800FFF7A4FFC0B2BDE8F081054809F0BDFE17
:100FB8000CB120700134013ECFE70120BDE8F0817B
:100FC8000038004038B5274D04460021284609F06E
:100FD80093FE2B88102C9BB22CD009D8042C1DD042
:100FE800082C21D0022C36D123F038039BB232E0F2
:100FF800402C25D007D8202C2DD123F038039BB2C4
:1010080043F0200327E0802C20D0B4F5807F22D144
:1010180023F038039BB243F038031CE023F0380375
:101028009BB243F0080316E023F038039BB243F069
:10103800100310E023F038039BB243F018030AE0D2
:1010480023F038039BB243F0280304E023F038036D
:101058009BB243F03003034801210380BDE83840C8
:1010680009F04ABE00380040014B188880B270472A
:10107800DC020020014B00221A807047DC020020AD
:10108800054B98420CBF054B054B1A88013292B2AA
:101098001A800020704700BF00540040E002002082
:1010A800DE02002070B5414B98428AB0044621D137
:1010B8004FF48020012109F089F84FF40010012134
:1010C80009F09CF801214FF4003009F07FF8102056
:1010D80009F066F84FF090400921042209F07CFEDF
:1010E8004FF090400A21042209F076FE01A809F089
:1010F80065FE26E02E4B984255D14FF40030012171
:1011080009F064F84FF48000012109F077F8012113
:101118004FF4003009F05AF8264809F041F84FF02A
:1011280090400921042209F057FE4FF090400A210F
:10113800042209F051FE01A809F040FE204608F0FB
:1011480061FE03A808F0A8FE02238DF808300323E7
:1011580000258DF8093001264FF400734FF09040B8
:1011680001A901938DF80A608DF80B5009F0E5FD8F
:101178004FF4806301A94FF09040019309F0DDFD21
:1011880003A808F089FE0C4B0695204603A9049590
:101198000595079508950995039308F04DFE204697
:1011A800314608F084FE0AB070BD00BF005400400C
:1011B80000580040200000107A25E000FFF772BFB9
:1011C8002DE9F341394D1F464FF4204304460E469E
:1011D80090462B6020464FF4004108F08BFE28B162
:1011E8002868431E2B600028F4D151E04FF40053C7
:1011F800009320464FF080733146012208F060FECC
:101208004FF420432B602046022108F073FE28B9D2
:101218002868431E2B600028F5D139E02046414656
:1012280008F063FE4FF420432B602046802108F02D
:1012380061FE28B92A68531E2B60002AF5D127E0E1
:101248000023009320464FF000733146012208F036
:1012580037FE4FF420432B602046022108F04AFE57
:1012680028B92A68531E2B60002AF5D110E02046C1
:10127800394608F03AFE4FF420432B6020462021DF
:1012880008F038FE50B92B685A1E2A60002BF5D199
:10129800204602B0BDE8F041FFF7F2BE204620210B
:1012A80008F02EFE012002B0BDE8F081E402002023
:1012B8002DE9F7433E4DDDF828901F464FF42043B3
:1012C8000446884616462B6020464FF4004108F035
:1012D80011FE034628B12B685A1E2A60002BF3D151
:1012E80058E04FF40052009220464146012208F08F
:1012F800E7FD4FF420432B602046022108F0FAFD59
:1013080028B92B685A1E2A60002BF5D142E0012F1C
:1013180088BF46F080062046314608F0E6FD4FF4C7
:1013280020432B602046402108F0E4FD28B92B68B3
:101338005A1E2A60002BF5D12CE04FF4105300936D
:10134800204641463A464FF0007308F0B9FD0026A2
:10135800F3B29F424FF420432B6011D02046042162
:1013680008F0C8FD28B92B685A1E2A60002BF5D151
:1013780010E0204608F0BBFD09F806000136E7E753
:101388002046202108F0B6FD50B92B685A1E2A6065
:10139800002BF5D1204603B0BDE8F043FFF770BE3F
:1013A8002046202108F0ACFD012003B0BDE8F08301
:1013B800E4020020024B1A6801321A60704700BF2D
:1013C800E802002010B5094A094913688C681268B8
:1013D8009342F8D1074A106811684FF47A72504363
:1013E800001BB0FBF1F002FB030010BDE802002077
:1013F80010E000E0EC020020014B1868704700BFC5
:10140800E802002038B50446FFF7DCFF0546FFF781
:10141800D9FF401BA042FAD338BD10B504462CB101
:101428004FF47A70FFF7EEFF013CF8E710BD0000BB
:1014380070B54A4C90B04FF47003C4F8883001A8D6
:1014480008F060FD019B464AB3FBF2F3454A13607E
:10145800454B1A684FF47A73B2FBF3F2434B013AE7
:101468005A60F02284F8232000229A6007221A602A
:101478004FF4D87008F084FE4FF08050012108F036
:10148800A5FE0120014608F0A1FE0220012108F076
:101498009DFE4FF40030012108F098FE4FF48020A3
:1014A800012108F093FE4FF40020012108F08EFE80
:1014B8004FF48040012108F0A1FE0120014608F008
:1014C8009DFE0220012108F099FE0420012108F068
:1014D80095FE4FF40060012108F084FE4FF480303F
:1014E800012108F07FFE4FF40030012108F07AFE58
:1014F8004FF48020012108F075FE4FF4804001214F
:1015080008F070FE4FF40030012108F077FE012149
:101518004FF4802008F072FE08F094FE4FF4A060AB
:1015280008F06CFBFFF7C4FBFFF746FC0A25104CDC
:10153800A38A9BB283F48053A38219204FF4806658
:10154800FFF76BFF26851920FFF767FF013DA661AE
:10155800EDD14FF48053A36110B070BD00ED00E0F1
:1015680040420F00EC0200204001002010E000E0A3
:101578000004004808B540F2DB160B4B4FF48052CC
:1015880070439A61861E084CA38A9BB283F48053E9
:10159800A38230464FF48065FFF73FFF2585192069
:1015A800FFF73BFFA561EEE70004004810B1034BCD
:1015B800034A1A60034B044ADA60FEE7FC9F0020E6
:1015C800EFBEADDE00ED00E00400FA0503200BF0ED
:1015D800C9B803200BF0B4B810B504460021406B1D
:1015E80008F0EDFB626AA36A9A4204D02046BDE87F
:1015F80010400BF0B2B9012384F8443010BD00004C
:101608002C4B2D4A30B51A602C4A5A612C4A9A61E3
:101618004FF48072DA601A612A4A1A63143A5A63DC
:10162800294A1A65243285B0DA6404329A649860CB
:1016380002238DF80C3003238DF80D3000238DF82C
:101648000E308A074FF001030D468DF80F300FD585
:1016580004AC4FF4007344F8083D4FF09040092162
:10166800072209F0B9FB4FF09040214609F065FBCD
:10167800EB070FD504AC4FF4806344F8083D4FF0F6
:1016880090400A21072209F0A7FB4FF0904021461D
:1016980009F053FB0E238DF8043001A801238DF8BF
:1016A80005308DF806308DF8073008F0B1FA01489A
:1016B80005B030BDB006002088100108F0020020F7
:1016C800B005002058000240003801402E4B2F4A38
:1016D80030B51A608022DA601A612D4A5A612D4AA3
:1016E8009A612D4A1A6502F5DE326C321A63A2F548
:1016F800DE32483ADA6402F5DE325C325A63A2F529
:10170800DE3285B0583A9A64986002230D468DF807
:101718000C30002303218DF80E30AA074FF0010387
:101728008DF80D108DF80F300BD504AC082344F854
:10173800083D1A48072209F04FFB1848214609F0CE
:10174800FCFAEB070FD504AC4FF4004344F8083D0E
:101758004FF090400F21072209F03EFB4FF09040D8
:10176800214609F0EAFA11238DF8043000220123FA
:1017780001A88DF805308DF806208DF8073008F09F
:1017880047FA014805B030BD040700208810010859
:10179800F003002030050020004400400004004809
:1017A80008B54FF4005008F023FB0448002108F066
:1017B80006FB0348BDE80840FFF70EBF440002409F
:1017C800B006002008B54FF4003008F011FB0448BB
:1017D800002108F0F4FA0348BDE80840FFF7FCBE12
:1017E80058000240B006002008B54FF4001008F079
:1017F800FFFA0448002108F0E2FA0348BDE808406F
:10180800FFF7EABE6C0002400407002008B54FF05D
:10181800007008F0EDFA0448002108F0D0FA0348F7
:10182800BDE80840FFF7D8BE80000240040700204A
:1018380038B5026B036D0446DD69A2B9A80612D556
:10184800E26A1AB1988CC0B290470CE09B8CE269AE
:101858006169DBB28B54E269E3680132B2FBF3F1F0
:1018680003FB1123E361626BBAB9290615D5A36A94
:10187800616A8B420DD0A269206DD15C08F07BFEB5
:10188800A26A23690132B2FBF3F103FB1123A362BD
:1018980003E0206D054908F07AFE2B0705D5206D79
:1018A8000349BDE8384008F088BE38BD0701070085
:1018B800000303007FB51B4C1B4B23608023E360B0
:1018C80040232361194B6361194BA361194E1A4BCD
:1018D800A0600125236501A827238DF804308DF821
:1018E80005508DF806508DF8075008F091F93046EC
:1018F80007220B2109F070FA4FF4006302930223C8
:101908008DF80C3003238DF80D303046002302A9E2
:101918008DF80E308DF80F5009F00FFA204604B0FC
:1019280070BD00BF5807002088100108700400200F
:10193800F004002000040048004800400148FFF778
:1019480077BF00BFB00600200148FFF771BF00BF96
:10195800040700200148FFF76BBF00BF58070020AD
:1019680010B54D4CB4F8A6002DED068B20B9D4F86F
:10197800A830002B00F08680484B00221A7000B275
:10198800FEF750FD42A3D3E90023FEF7B1FD002284
:10199800434BFEF7D7FEFFF745F808EE900AB4F977
:1019A800A800FEF73FFD3AA3D3E90023FEF7A0FD08
:1019B80000223B4BFEF7C6FEFFF734F808EE100A8C
:1019C800B4F9AA00FEF72EFD31A3D3E90023FEF7F0
:1019D8008FFD334B0022FEF7B5FEFFF723F8B0EE7C
:1019E800680A0AEE900A0AF0F1FFB0EE409AB0EEEB
:1019F800680A0BF071F8F0EE409AB0EE480A0AF067
:101A0800E5FFF0EE408AB0EE480A0BF065F8B0EE5C
:101A1800408AB0EE6A0A0AF0D9FFB0EE40AAB0EEEA
:101A28006A0A0BF059F820EE097A69EE8A7AF0EE24
:101A3800475AE7EE885A1B4B2AEE096A69EE806A14
:101A4800C3ED035AF0EE465AE6EEC85AE7EE087AB6
:101A5800E6EE486A2AEE28AA28EEC00A69EEE89A55
:101A680068EE898A83ED00AA83ED010A83ED028A74
:101A7800C3ED045AC3ED059AC3ED066AC3ED077AB0
:101A8800C3ED088ABDEC068B10BD00BFAFF3008024
:101A9800182D4454FB210940341300200000002075
:101AA80000806640AC07002038B5B0F90030224C01
:101AB8002DED048B08EE903AB0F9023094ED030A4C
:101AC800D4ED007A09EE103AB8EEC99AF8EEE88A31
:101AD800B0F9043029EE000A08EE103AA7EEA80A79
:101AE8000546B8EEC88AD4ED067AA7EE880A0AF049
:101AF800A9FF94ED040AD4ED017A288029EE000AA2
:101B0800A7EEA80AD4ED077AA7EE880A0AF09AFF8A
:101B180094ED050AD4ED027A688029EE000AA7EE52
:101B2800A80AD4ED087AA7EE880A0AF08BFFBDEC64
:101B3800048BA88038BD00BFAC070020013A072AF3
:101B480030D8DFE802F004080F14191E2226038893
:101B58000B80438803E043880B8003885B424B80FB
:101B680083881EE003885B420B804388F6E743883E
:101B78005B420B800388F2E703885B420B80438853
:101B88000CE043880B80038808E003880B804388B7
:101B980003E043885B420B8003885B424B80838869
:101BA8005B428B80034B1B7813B90846FFF77CBF59
:101BB800704700BF00000020F8B5194C237806468E
:101BC800274683B9174DFFF717FC2A68323290422F
:101BD80009D301232370144B4FF480621A85FFF751
:101BE8000BFC2860F8BD3B78C3B10E4CFFF704FC32
:101BF80023683344984211D3094B00221A700A4BC8
:101C08004FF480629A61FFF7F7FB084B20601A785F
:101C18000AB1013A1A70064B01221A70F8BD00BFCA
:101C2800D1070020D8070020000400485E0B0020E0
:101C3800D207002073B5234D8DF807302B788DF827
:101C4800062002AA1A448DF804008DF8051012F82F
:101C5800042C443AD2B20A2A2CD81B49022B31F858
:101C6800124003D814B12046FFF7A6FF2B78022BA9
:101C78000BD9164B1E68FFF7BFFB001B864204D228
:101C8800104A00231370124A1370124B1A78012A53
:101C98001A4600D09CB92B78022B02D80949013387
:101CA8000B70002313700C4A13700C4B4FF48062B6
:101CB8009A6104E0022B4FF03204D4D9D6E702B07F
:101CC80070BD00BFD307002064ED0008D8070020CE
:101CD8005E0B0020D2070020D10700200004004836
:101CE8002DE9F041404F414D7B7B064603B101236E
:101CF8004FF400702B7001F0C9F93D4CF8B13D4B21
:101D08003D481B8890F8B82019B202EB820E714545
:101D180013DDDFF8ECE09EF801E0BEF1000F0AD019
:101D280090F8B900024402EB82024FF0010E914292
:101D380084F800E001DD0222227003B9237020201C
:101D480001F084F960B1BA7A2C4B12B9264AD27ADA
:101D580022B12B4AD27A0AB9012200E000221A7075
:101D68002378022B02D14C204E211DE0012B07D1F4
:101D78004D2153204C220B46BDE8F041FFF75ABFD6
:101D88001E4B1B78012B03D1532001464E2205E040
:101D98002B78012B04D15320014602464D23EBE753
:101DA800042E03D153204D210A460AE0022E03D106
:101DB800532001464D2204E0012E04D153204D2129
:101DC8004E224423D8E70F4B1B7823B13220BDE8BD
:101DD800F041FFF7F1BE0C4A13700C4B4FF48062D0
:101DE8009A61BDE8F08100BFAA170020D007002043
:101DF800D4070020EC0A002064120020DC07002031
:101E08003A1700205E0B0020D1070020000400488C
:101E180070B50646B6FBF2F40846154614B12046DE
:101E2800FFF7F6FF05FB1464024B1B5D00F8013B4E
:101E380070BD00BFFCEE000810B50278202A0346EA
:101E480000F10100F9D0092AF7D02D2A03D1034661
:101E5800BFEE000A04E02B2A08BF0346B7EE000ACB
:101E68009FED377A1A46134612F8011BA1F130008C
:101E7800C4B2092C0AD805EE900AF8EEE57AF2EE1B
:101E8800046AE7EE267AB0EE677AECE72E2915D1D8
:101E9800F2EE047AF0EE676A134612F8011B303945
:101EA800C8B209280AD805EE901AB8EEE56A86EE97
:101EB800276A67EEA67A37EE067AEDE71A7802F017
:101EC800DF02452A34D15A782D2A02D10233012261
:101ED80004E02B2A14BF013302330022013B002106
:101EE80013F8010F3038C4B2092C03D80A2404FBB4
:101EF8000101F5E7B1F59A7F34BF0B464FF49A73A9
:101F08001946F7EE007A072905D9DFED0E6A083978
:101F180067EEA67AF7E703F007032BB1F2EE046A3F
:101F280067EEA67A013BF8E722B1C7EE277A03E00D
:101F3800F7EE007A67EE277A20EE270A10BD00BF79
:101F48000000000020BCBE4C10B5441E14F8011F50
:101F580021B1034B186909F021FAF7E710BD00BF5A
:101F6800101700200148FFF7EFBF00BF21EF00085E
:101F780010B50748FFF7E8FF0024064B0648E1586C
:101F88001A190C34526806F0F7F9C02CF5D110BDB7
:101F98004FEF000820EE000865EF000838B5FFF79E
:101FA8002BFA1F4B1A881F4B4FF47A7190FBF1F1F3
:101FB8001B781D4806F0E0F901F062F81B4B196820
:101FC8001B4B0546B1FBF3F11A4806F0D5F900247E
:101FD800E3B2194A52F8231049B1012202FA03F375
:101FE8002B4202D0154806F0C7F90134F0E7022069
:101FF80001F02CF838B1124B12481A78124B53F8EA
:10200800221006F0B9F91148FFF79EFF104B11484E
:1020180019884FF45A72BDE8384006F0ADB900BFD0
:1020280092170020180000206DEF000840010020E2
:1020380040420F00ABEF000854FD0008C9EF00084C
:10204800C60E0020CDEF0008E0EE000878F2000888
:10205800760B0020D7EF000838B50C6805462046F7
:102068000CF0A1FC214602462868BDE838400CF077
:10207800A3BC000008B50948FFF766FF012100204E
:1020880000F0D6FF0648FFF75FFF0A20FFF7C5F903
:102098000020BDE80840FFF789BA00BFF9EF000843
:1020A80003F000087FB504460CF07DFC082824D115
:1020B80000231F49E25C09681144497801F00301D3
:1020C800022908BF203AE2540133082BF1D1002538
:1020D800665D184831460CF059FC28B10135601985
:1020E80031460CF053FC18B11348FFF72DFF1CE0E4
:1020F800082DEDD1204600F087FE1048FFF724FF99
:1021080000230F4A1A4404A992F8CD200A44094929
:10211800595C02F80C1C0133082BF2D10023094842
:102128008DF80C3001A906F027F904B070BD00BF86
:10213800640200204806010812F0000832F0000886
:102148003413002068EF000808B501F05DFB01308A
:102158000CBF03480348BDE80840FFF7F5BE00BFC1
:1021680047F000086DF000082DE9F04105460CF035
:102178001AFC044601F030F906468CB92948FFF7E5
:10218800E3FE294B53F8241041B10123A340334205
:1021980002D0264806F0F0F80134F2E7244821E09E
:1021A8002846244922460CF007FC58B92248234CFB
:1021B800FFF7CAFE54F8041F0029EFD01B4806F0A9
:1021C800DBF8F7E72B782D2B03BF013504F1FF343B
:1021D8004FF001084FF000080026134B53F8267003
:1021E80027B91748BDE8F041FFF7AEBE2846394683
:1021F80022460CF0E1FB98B90120B040B8F1000F7D
:1022080003D001F0E1F80F4802E000F049FF0E4862
:10221800FFF79AFE39460D48BDE8F04106F0ACB824
:102228000136DAE78BF000087CED0008C9EF0008FA
:1022380078F2000856FB00089EF0000878ED0008C8
:10224800B3F00008CDF00008D7F0000868EF0008E8
:1022580010B504460848FFF777FE084A00231370B4
:10226800074A1360074A137004F0C2FB2046BDE812
:102278001040FFF7FFBE00BFE0F00008DE070020B7
:1022880010080020DD07002008B50848FFF75CFEAD
:10229800012000F00DFF0648FFF756FE0A20FFF761
:1022A800BCF80020BDE80840FFF780B9F8F0000846
:1022B80005F00008F8B507460CF075FB044638B978
:1022C8001A4B1B485A791B4B013A53F8221028E045
:1022D8003846194922460CF06FFB60B91748184C6C
:1022E800FFF732FE54F8041F19B1164806F044F8F7
:1022F800F8E7154805E000250E4B53F8256026B988
:102308001248BDE8F840FFF71FBE3846314622465E
:102318000CF052FB01350028EED1044B0C485D71DE
:102328003146BDE8F84006F027B800BF3413002056
:1023380013F10008C4ED000856FB000827F1000857
:10234800C0ED0008C9EF000878F200083AF100086B
:1023580052F1000810B5044620460CF024FB10F09A
:10236800FF0F07D10B4B0C4893F86413BDE81040DE
:1023780006F002B820460CF0BFFA022808D8054B30
:10238800064C83F864030020014600F051FEE3E7A1
:1023980010BD00BF3413002064F1000888F4000861
:1023A80070B504460CF0FFFA08B9204830E0204622
:1023B8001F490CF04FFB00242646254678B12CB166
:1023C800012C06D10CF098FA064602E00CF094FABB
:1023D80005461749002001340CF03CFBEEE7072DB9
:1023E80005D914480821BDE8704005F0C5BF012C87
:1023F80008DC114B114833F915202946BDE8704017
:1024080005F0BABFA6F57A73B3F57A7F04D90C48FC
:10241800BDE8704005F0B0BF0A482946324605F0CD
:10242800ABFF054B23F8156070BD00BF7AF10008BB
:1024380052F40008B4F100084E180020DAF1000840
:10244800F2F1000814F2000838B505460CF0ABFAB2
:10245800C0B268B90446124B124803EB4403214644
:10246800B3F84620013405F087FF152CF3D138BDA9
:1024780028460CF041FA142804460BDC2021284693
:102488000CF084FA0CF038FA054B03EB4404A4F87A
:10249800460038BD04481521BDE8384005F06CBF3A
:1024A800641200202DF2000839F20008931E232B35
:1024B80028BF0A22031E10B50C4603DA2D2001F8A6
:1024C800010B5842FFF7A4FC00230370204610BDFF
:1024D80030B52DED028B87B0B0EE408A00210C227A
:1024E800044603A80CF03DFAB5EEC08ADFED2B7A5E
:1024F800F1EE10FACCBF38EE278A38EE678ADFEDA6
:10250800287A28EE278A6946BDEEC88A0A2218EE7C
:10251800105A85EAE570A0EBE570FFF7C7FF002DBC
:10252800ACBF20232D2368468DF80C300CF03BFA05
:10253800012807D130238DF80D308DF80E308DF835
:102548000F300CE0022805D130238DF80D308DF8BE
:102558000E3004E0032804BF30238DF80D3069469F
:1025680003A80CF006FA03A80CF01DFA0338C5B24C
:102578002A4603A920460CF041FA00236355204659
:1025880008490CF0F6F903A9204629440CF0F1F9A2
:10259800204607B0BDEC028B30BD00BF6F12033A76
:1025A80000007A4410F0000837B5037904460D4658
:1025B800052B37D8DFE803F003060A0D11148368EA
:1025C800197830E0836893F900102CE08368198843
:1025D80029E08368B3F9001025E08368196822E0D0
:1025E8008368684693ED000AFFF772FF01461348B7
:1025F80005F0C2FE05B3D4ED037A6846B8EEE70AE3
:10260800FFF766FF01460E4805F0B6FE94ED040A92
:102618006846B8EEC00AFFF75BFF0146084805F0B8
:10262800ABFE09E00021074805F0A6FE25B10648E3
:10263800E168226905F0A0FE03B030BDD4EF0008C0
:10264800D3EF000863F200085FF200082DE9F843B1
:102658002DED028B05460CF0A6F94F4E074620B12A
:10266800012817D12B782A2B14D14C48FFF76CFC82
:10267800002431594A4805F07FFE30193946FFF7E2
:1026880093FF4848FFF760FC143440F6D4039C429B
:10269800EFD17DE028463D210CF078F900285FD085
:1026A800441C20460CF028F981462046FFF7C4FB5D
:1026B8000027B0EE408A14247C4356F80480404634
:1026C8000CF071F94146024628460CF075F90028CD
:1026D8003CD1314B1C4494ED037AF8EEC77AB4EE42
:1026E800E78AF1EE10FA2FDB94ED047AF8EEC77A58
:1026F800B4EEE78AF1EE10FA26D82279052A18BF37
:1027080008EE109A18EE103A052A11D8DFE802F000
:1027180003030606090DA268137009E0A268138076
:1027280006E0A26882ED008A02E0A36883ED008AD1
:1027380041461D4805F020FEBDEC028B20460021D5
:10274800BDE8F843FFF730BF184803E00137712FA1
:10275800B1D11748BDEC028BBDE8F843FFF7F4BBD5
:1027680004463759294638460CF05AF958B10C48EE
:10277800394605F001FE084800212044FFF714FF00
:102788000848FFF7E1FB143440F6D4039C42E8D133
:10279800BDEC028BBDE8F88374FD000866F2000802
:1027A80045F3000878F200087BF2000886F200087A
:1027B800ABF2000870B52DED048B5C4C5C4884B01E
:1027C80005F0DAFD5B48FFF73FFE62795A4B5B483C
:1027D800013A264653F8221005F0CEFDD4ED047ACE
:1027E800F5EE407AF1EE10FA5FD01834002514EDBA
:1027F800028AB5EE408AF1EE10FA52D001355048FF
:1028080054ED019A94ED009AD4ED018A294605F019
:10281800B3FDB5EEC08AF1EE10FA02D5494805F0CD
:10282800ABFDB0EE480A6846FFF752FE014646483F
:1028380005F0A2FDF5EEC09AF1EE10FA02D5414876
:1028480005F09AFDB0EE690A6846FFF741FE0146B9
:102858003D4805F091FDB5EEC09AF1EE10FA02D5AB
:10286800384805F089FDB0EE490A6846FFF730FEA2
:102878000146354805F080FDF5EEC08AF1EE10FA04
:1028880002D5304805F078FDB0EE680A6846FFF7D3
:102898001FFE01462D4805F06FFD082D04F11004B8
:1028A800A5D12B48691C05F067FD00F095FD294C62
:1028B800054654F8041F19B1274805F05DFDF8E7EF
:1028C8000C46264B53F8241041B10123A3402B4258
:1028D80002D0234805F050FD0134F2E7731804AA2A
:1028E80093F8CD3013441F4A8A5C03F8102C013149
:1028F8000829F3D100241C488DF80840694605F0E2
:102908003BFD1A4D1A48615905F036FD281900217A
:10291800FFF74AFE1748FFF717FB143440F6D403B5
:102928009C42EED104B0BDEC048B70BD3413002082
:10293800C8F2000888F40008C4ED0008F8F200089E
:1029480003F3000852F40008D4EF000868EF000809
:102958000BF3000878ED00081DF300087CED000873
:102968002BF300084806010838F3000874FD000836
:1029780041F3000878F20008F0B589B004460CF07D
:1029880012F8C5B2002D72D17F48804CFFF7DCFAEF
:1029980054ED027AF5EE407AF1EE10FA2CD00135BA
:1029A80029467B4805F0E8FC14ED020A04A8FFF765
:1029B8008FFD0146774805F0DFFC14ED010A04A8F5
:1029C800FFF786FD0146734805F0D6FC94ED000A32
:1029D80004A8FFF77DFD01466E4805F0CDFC94ED97
:1029E800010A04A8FFF774FD01466B4805F0C4FC12
:1029F800082D04F11004CBD1DFED687A684BB0EEF6
:102A0800677AF0EE676A0022AA4203F110030DDA32
:102A180013ED045A53ED035A13ED026A013276EEB0
:102A2800856A77EEA57A37EE067AEDE75D48CDED53
:102A3800016ACDED027A8DED037AFFF785FA00245D
:102A480008AB234413ED077ADFED577A574B584804
:102A5800B0EEC77AB4EEE77AF1EE10FAD8BF1846AE
:102A68000434FFF771FA0C2CEAD1524874E020467E
:102A7800514905220BF0A0FF38B9504B03441030E0
:102A8800002280281A61F8D17BE020464C490422B4
:102A98000BF092FF0546204605BB20210BF076FF80
:102AA80000286ED0461C30460BF07DFF2C460746AA
:102AB800444B53F824500DB943484DE0304629465D
:102AC800FAB20BF079FF38B9204604F035F83F48E0
:102AD800294605F051FC4CE00134E9E70BF00CFF06
:102AE800461E072E074648DC204620210BF04EFFE5
:102AF800054650B1451C2846FFF79EF92F4B03EBBE
:102B0800071787ED000A012400E004462846202123
:102B18000BF03CFF054648B1451C2846FFF78CF9E9
:102B2800264B03EB061383ED050A013428462021C2
:102B38000BF02CFF054648B1451C2846FFF77CF9E9
:102B48001E4B03EB061383ED060A013428462021A9
:102B58000BF01CFF18B91E48FFF7F6F911E0013019
:102B6800FFF76AF9154B032C03EB061686ED070AE7
:102B7800F1D11848FFF700FF03E01748082105F0D6
:102B8800FBFB09B0F0BD00BF53F300084C13002055
:102B98007EF3000884F3000868EF000800000000D6
:102BA8004813002088F300080AD7233C4FF3000895
:102BB8004BF3000878F2000897F30008341300205C
:102BC8009DF30008C4ED00083AF10008A2F30008DC
:102BD800B5F3000888F40008EFF300082DE9F04782
:102BE800694B1A7886B0984642B90123674888F835
:102BF8000030FFF7A9F96648FFF7A6F9654D28697F
:102C080008F0DCFBA946002800F0BB802869624C6C
:102C180008F0DAFB0928014601D03F2853D10027E4
:102C2800D4F800A05D4E3D46BAF1000F05D05C48CF
:102C3800316852460BF0C0FE10B9374605B9354623
:102C4800584B0C369E42EFD3CDB1D5F800E0D7F8FB
:102C580000C053461EF803601CF80300B04201D0C0
:102C680023600CE05A1C4E4930B92D2B04D820267D
:102C7800CE542260885402E0CE541346EAE7236813
:102C88001BB1BD4201D1554612E04748FFF75CF938
:102C9800BD4209D855F80C0BFFF756F9D9F81000C2
:102CA800092108F07BFBF3E73948FFF74DF90025C8
:102CB80023689D42A2DA3A4BD9F81000595D08F012
:102CC8006DFB0135F4E723682BB9042836D1344865
:102CD800FFF7BEFA55E00C2801D1344889E70A29E4
:102CE80001D00D2944D132482D4DFFF72DF9226826
:102CF8002A4903950023AB5404932E4B009303A851
:102D080010220C230BF0FCFD064638B100680BF0CE
:102D18004AFE0130B3682844984702E02648FFF786
:102D280013F91F48002130220BF01BFE00232360FB
:102D380098F80030002B7FF45EAF22E00C28CCD04E
:102D48007F2903D15AE72F2B3FF658AFA1F1200274
:102D5800D2B25E2A3FF652AF13B920293FF44EAFE4
:102D68005A1C22600E4A2869D15408F017FB45E71F
:102D78007F29E8D1013B0A4A23600021D1540F483A
:102D88003AE706B0BDE8F087DD07002017F4000831
:102D98004FF40008101700201008002020EE00084B
:102DA800DE070020E0EE000854F4000859F400089B
:102DB80078F200086120000864F4000885F400082F
:102DC8000F4B1A78412A17D15A88B2F55A7F13D176
:102DD8001A79BE2A10D193F86623EF2A4FF0000023
:102DE8000CD113F8012B5040064A9342F9D1D0F187
:102DF800010038BF0020704700207047704700BFAF
:102E080000F8030868FB030870B50546441E14F86B
:102E1800011F61B1064E30460BF0B8FD0028F6D010
:102E2800861B04483044631B80F8CD30EFE770BD43
:102E3800480601083413002008B5FFF7C1FF10B990
:102E48000A20FEF797FB0C4B0C4918464FF45A72B0
:102E58000BF07EFD90F86423022A84BF002280F8DC
:102E6800642390F86413D02202FB0101F431044872
:102E78000BF06EFD08BD00BF3413002000F80308F6
:102E8800641200202DE9F0472E4890F82050C47FA6
:102E9800002303FB03F11939694301F6C4115943AF
:102EA80040F6C412614391FBF2F1274A22F813104D
:102EB8000133072BEDD1254A90F82130B2F8906004
:102EC800B2F892A090F822E0C3F1640903EB830CF6
:102ED8005C425FFA89F94FEA4C0CCEF16408C6EB04
:102EE8000A0AA4B20022A1B20FB2002F04DC002902
:102EF80014BF1D46012500E04D4611FB01F101FB01
:102F08000EF115FB05F591FBF5F545440A217D43C6
:102F180095FBF1F565442DB24FF47A7105FB0AF57E
:102F280095FBF1F50A493544555202320A34182AFC
:102F3800A4B2D8D1007802F0F9FFBDE8F04700F05C
:102F4800C5BB00BF641200203018002034130020D5
:102F58005817002008B5FFF76FFFBDE80840FFF7D6
:102F680091BF0000F8B52E4B41221A704FF45A72E7
:102F78005A80BE221A71EF2283F866230022074680
:102F880083F867231E4641B193F864032549D0228C
:102F980002FB0030F4300BF0DBFC00221346B15C7E
:102FA8000132B2F55A7F83EA0103F8D11C4A0025A1
:102FB80082F8673307F04EF9342007F061F91A48B0
:102FC80007F08AF9042815D1174C331903F178430F
:102FD800A3F57E332046196807F09CF9042805D02C
:102FE800013507F045F9032DE4D103E00F4B043414
:102FF8009C42EAD107F03CF9032D02D0FFF7E0FE2E
:1030080010B90A20FEF7B6FAFFF7A4FF37B10F2070
:1030180014210122BDE8F84002F0EABCF8BD00BF67
:10302800341300206412002000F8030868FB03082A
:1030380038B505460C46FEF7CCFA28462146FFF778
:1030480091FFBDE83840FEF7C1BA0000034B1B688A
:1030580018420CBF00200120704700BF1408002050
:10306800024B1A6810431860704700BF140800200C
:10307800024B1A6822EA0000186070471408002002
:10308800014B1868704700BF14080020034B9B6869
:1030980018420CBF00200120704700BF34130020E5
:1030A800024B9A6810439860704700BF34130020A1
:1030B8002DE9F3470446FFF783FE10B1002C00F01A
:1030C8007081B94AB94D10685168B94C6B4603C351
:1030D8004FF45A72002128460BF043FC0021D022FD
:1030E80020460BF03EFC4FF0410A032302206B718F
:1030F80085F800A0FFF7D4FF0820FFF7D1FF4FF4B1
:103108001673A5F8B030FA23A5F8B2302A23A5F82B
:10311800AE304FF4FA73A5F8B630202385F8B430F2
:103128006E2385F8C9302B2385F8CA30212385F80A
:10313800CB3040F24C43A5F8D83040F26C73A5F878
:10314800DA3040F27E43A5F8903040F23A73002618
:103158004FF0010840F2DC51A5F892304FF4C872E4
:103168004FF47A73A5F8D61085F86463A5F8B860AB
:10317800A5F8BA60A5F8BC6085F8A26085F8A360D8
:1031880085F8A460A5F8A660A5F8A860A5F8AA60C7
:1031980085F8AD6085F8AC8085F8CC6085F8D56099
:1031A80085F8EE6085F8EF6085F8F06085F8DC60FA
:1031B80085F8DD6085F8DE80A5F89430A5F89E20B6
:1031C8004FF4E132C5F8E4204FF4165240F27E5332
:1031D800C5F8E82040F6AC521E20A5F89630AA8122
:1031E80040F2EA531722A5F89830E07240F2B4533F
:1031F80062752073A2750B2055222827A5F89A30EE
:10320800E27032232D2260714FF0080E1420A5F8C9
:103218009C30A5F8A03062732371A07184F810E087
:1032280085F8E06085F8E16085F8EC6085F8ED6088
:10323800AE7385F8DF6026706770A770E675A673B1
:103248002676E6736676A27684F82130042384F81D
:103258002E30152384F83130564B6363564B607417
:103268004FF00E0E5020A363544B84F807E0E0762D
:103278004FF0640E5A20E363514B20724FF00A0955
:1032880084F81CE0E0774FF0780E23644D4884F80A
:103298001290192384F84530677284F80AE0227581
:1032A80084F81E8084F820A084F8236084F82460C1
:1032B80084F82560E18484F822606685A6852685E1
:1032C80084F82F7084F8307084F84480FFF79CFDF0
:1032D8004FF44873A4F87430C82384F8B9304FF415
:1032E8009663A4F8BA3040F2D933A4F8BC3084F815
:1032F800706084F8716084F8727084F8738084F860
:10330800766084F8B89023464FF47F72A4F878204A
:103318004FF4FA62A4F87A2040F2DC52A4F87C2038
:103328001DF8062084F87E200136082E04F10804D2
:10333800EAD1012283F8BE2083F8BF2083F8C02099
:10334800C82183F8C6206422A3F8C210A3F8C820B5
:1033580014214FF4967283F8C410A3F8CA201E21D2
:10336800282283F8C510A3F8CC20522385F86533AA
:103378000023EA1810330021802B1161F9D10024B1
:103388002819F4300A49D022D0340BF0E1FAB4F508
:103398001C7FF5D10020014602B0BDE8F047FFF7D9
:1033A80047BE02B0BDE8F0875CED0008341300208A
:1033B800641200209A99193FF6287C3F3D0A773F0E
:1033C8000000A04051060108024B9A6822EA00005A
:1033D8009860704734130020014B9868704700BF0D
:1033E8003413002010B5044C002320702361FEF72D
:1033F80003F8606110BD00BFA016002007EE100A98
:10340800F8EEC77A9FED0A0A9FED0A7AF5EEC07AC0
:10341800F1EE10FAD8BFF1EE677A87EE800A08B5A8
:1034280020EE070A09F0D2FA034B83ED000A08BD23
:103438008096184B35FA8E3C0400002010B5121AFD
:1034480007EE902A5B1A2DED028BF8EEE78A07EE5D
:10345800903A184B059CB8EEE78AD3ED007A28EE2F
:10346800278A28EE080AA8EEA80A09F077FDDFEDFA
:10347800127A049B20EE270AF0EE480AFCEEC07A86
:10348800B1EE680AC3ED007A09F0C2FBDFED0B7AF2
:103498009FED0B7AE0EE077ABDEC028BFDEEE77A42
:1034A80017EE903A002BBCBF03F50C43A033236002
:1034B80010BD00BF040000202C7D8E3F00A00C46EC
:1034C800A00CB34507EE900AB8EEE77AD2ED017A80
:1034D80027EE277AD1ED007AE7EE007A10B5C1ED34
:1034E800007A92ED037AF1EE476AFDEEE77AFDEE97
:1034F800E66ABDEEC77A0C4617EE102A17EE900A58
:1035080016EE901A05F090FC07EE100AF8EEC77A4E
:10351800C4ED007AFDEEE77A17EE900A10BD0000C0
:1035280030B5002213460E49CC5C0D469CB12E2CBA
:1035380004D1013378B11D4400242C54C95C0A24F9
:103548006243A1F13004092C9CBF303A52180E2B6B
:1035580003D80133E7E7104630BD002030BD00BF77
:1035680065090020F8B52C4B2C4C93F8E03013B1CA
:10357800012B0AD04CE06278294B03EB0213294A4D
:103588005968506807F025FF3FE0264D686807F046
:1035980025FF2E4600283BD02378012B1ED1FDF7AE
:1035A8002BFF6369C31A632B064633D92369042B9F
:1035B80012D81B4F686807EB0313596807F009FF17
:1035C8006378686807EB0317B96807F0ECFE2369AE
:1035D8006661013323611BE0022017E023693BB9D0
:1035E80062780F4B686803EB0213596807F0F1FE25
:1035F80023690A4D8B2B08D80B4A7068D15C07F0F9
:10360800CDFE2B6901332B6102E00320FFF7EAFEB0
:1036180000236360F8BD00BF34130020A01600200B
:10362800C0070108101700203407010810B50B4C1B
:10363800E37A8BB10A4B1B78042B0DD9094A0A4B44
:10364800106852685A601860FFF7D8FE074B1A884E
:10365800074B1A800123237310BD00BF3A170020BF
:10366800EE170020D0170020A01700200C1700200C
:10367800D408002010B5002213460E480E4C002135
:1036880019520E4819520E4814441952002020604D
:103698006160A0600B4C1444023320606160A0603C
:1036A800094C1444042B20606160A06002F11402EC
:1036B800E3D110BD720B00208C08002054170020A5
:1036C8007017002044080020100900202B4BDFED64
:1036D8002C7A58792B4AD97B07EE100AB8EE477A2C
:1036E800987987EE277AF2EE046A82ED007A07EE7F
:1036F800101AB8EE477A2449D16087EE277A82ED0E
:10370800017A07EE100AB8EE477A204A187CD16091
:1037180087EE267A82ED007A07EE100AB8EE477A2D
:10372800987E87EE277A06EE100A82ED017AB8EEC7
:10373800466A9FED177AD87986EE076A82ED026AA3
:1037480006EE100AB8EE466A124A587CDB7ED16053
:10375800C6EE266AC2ED006A06EE900AF8EE666AC0
:10376800C6EEA77AC2ED017A07EE903AF8EE677ACC
:1037780087EE877A82ED027A704700BF64120020D4
:103788000000C842B80800200000FA44EC080020F5
:1037980000007A447C080020F7B5074600200E4652
:1037A800FFF720FE4FF48070FFF770FC08B3124D4E
:1037B8006E70FDF721FE114BA86093F8E0300024ED
:1037C800A3426C600CBF01250325FFF77FFF0C4B5C
:1037D800009403EB061638462B462146726808F01B
:1037E800D3FF084B5860012003B0BDE8F040FFF755
:1037F800F9BD03B0F0BD00BFA016002034130020AF
:10380800C007010810170020F8B5194B1B78032BC7
:103818002AD1184B4FF480529A619A61164C60680D
:1038280007F0CCFD60B1134D606827684FF48056EF
:103838002E8507F0C9FD0146384607F0AFFDAE6199
:1038480020680D4E07F0BAFD0028E7D0094C4FF468
:10385800805596E88100258507F0B6FD0146384673
:1038680007F09CFDA561D9E74FF0FF30F8BD00BF18
:10387800A0160020000400481017002073B51A4C49
:10388800036823600B686360184D0068184EFFF7E3
:10389800B5FD184B009395E8030094E80C000196D9
:1038A800FFF7CCFD60686968134A33681360411AF2
:1038B80007EE901A1149206891ED007A2968104A9C
:1038C800F8EEE77A411A67EE877A1160FDEEE77A3B
:1038D800C2ED017A0B4A13600B4BB3F8C8200B4BAF
:1038E8001A8002B070BD00BFDC080020D01700208D
:1038F8003C09002048090020D808002004000020C6
:103908008009002054090020641200207409002056
:1039180044F25063984203DDA0F50C40A03870478C
:10392800034B9842BCBF00F50C40A030704700BF65
:10393800B0B9FFFF264BF0B51D68024600F110072D
:1039480014782B1911465E7806F00406013206F049
:10395800FF036EB1BA42F3D10020F0BD1BB103EBF7
:1039680083035B00DBB210F8012B303A1344DBB25F
:103978000A1A022AF2DC002281420AD91AB102EBA1
:1039880082025200D2B210F8016B303E3244D2B2F9
:10399800F2E72E2C0FD14C1C042000210A2671437B
:1039A8002678AF197F787F0702D530390134314442
:1039B8000138F3D100E0002106484243642000FBAF
:1039C800012106240448B1FBF4F100FB0310F0BD0B
:1039D8006402002040420F0080969800000000001A
:1039E8002DE9F04F984B2DED048B5B688BB0C3B974
:1039F800964C2378013B032B00F22686DFE813F070
:103A0800EA05EA050406ED05606807F0DDFC904B61
:103A180093F8E030012B044600F0D98008D3022B3C
:103A280006D0894C606807F0C9FC0028ECD1DFE7B4
:103A3800242C07D1874A00231370874A1370874ABA
:103A48001370C0E02C2C01D02A2C7FD1824E814FDC
:103A58003278834B3D7800209854824AB5B919785A
:103A68001570472968D15978502965D1997847291F
:103A780040F0D985D978472940F0D5851979412969
:103A880040F0D1850121117000F0CDBD1278012AD6
:103A98003AD1022D05D11846FFF74CFF724B18603A
:103AA8004AE0032D07D11B78532B45D16E4B1A687A
:103AB80052421A6040E0042D05D11846FFF73AFF3C
:103AC800694B586038E0052D07D11B78572B33D147
:103AD800654B5A6852425A602EE0062D07D11A7873
:103AE800624B302A94BF00220122DA7224E0072DAB
:103AF80004D1FFF715FD5E4B18701DE0092D1BD191
:103B0800FFF70EFD5B4B16E0022A15D1072D0CD1ED
:103B18000120FFF705FD41F218434FF47A7258432C
:103B2800B0FBF2F3544A138006E0082D04D10120BB
:103B3800FFF7F6FC514B1880013500232A2C3D7005
:103B4800337037D14E4B01221A703CE00D2C4C4B90
:103B580001D00A2C24D11A78F2B141490878497861
:103B6800A0F13002D2B2092A84BFA0F13702D2B242
:103B780002F00F021001A1F13002D2B2092A84BF6B
:103B8800A1F13702D2B2354902F00F020244097896
:103B9800D2B28C1A62426241002119707AB912E0DD
:103BA8002D490A780E2A03D8501C08702C498C54C9
:103BB8001B7843B9294B1A7854401C7003E0294BF1
:103BC8001B78012B00D0002303F0010357E12D4B94
:103BD80019780022082900F25181DFE801F00A056E
:103BE8001119275F7C95A000622801D1022205E007
:103BF8001A70B52C40F042811A7801321A703DE1F2
:103C080003221A70204B1870204B1870204B0BE0C1
:103C18001E4904221A701E4B0A7818782244D2B220
:103C28000A7002441A701B4B1C7027E117490522C1
:103C38001A70174B0A7818782244D2B20A700244D4
:103C48001A70154B1C8019E110170020A0160020CF
:103C58003413002089090020C8080020D608002055
:103C680065090020E4080020D01700203A1700203A
:103C7800EE1700204C17002074170020D40B0020EA
:103C8800380900200C09002058090020C908002024
:103C9800CA08002040080020D208002062490622F5
:103CA8001A70624B0A7818782244D2B20A70024419
:103CB8001A705F4B1A8802EB0424A4B2B4F5007F93
:103CC80001D81C8003E000221A805A4B1A705A4A05
:103CD80000231380D3E05448544A017815782144CE
:103CE800C9B201702944117053490A88C72A9CBF78
:103CF80052488454013292B20A804D49098891424F
:103D080040F0BC80072279E708221A70464B1B78DE
:103D1800834200F0B380474A00231370AFE01A7063
:103D2800424B1B78834240F0A980454B1B78062BF9
:103D380039D004D8022B12D0032B24D09EE0122BAA
:103D480044D0302B40F09A803C4B1A793D4B102AD6
:103D580088BF10221A701978384A002344E0374B7C
:103D6800394A59685160996811601A694FF47A7331
:103D780092FBF3F2354B1A80354B1A78354BDA72D1
:103D88000122354B20E02D4A537913F0010303D06B
:103D98001379D81E434243412D4A1370002B38D162
:103DA8002C4AD37235E0254BDA7A12F0010203D09F
:103DB8009A7AD11E4A424A4125490A700AB92549C8
:103DC800CA7293F82F20254B1A7022E01B4B244906
:103DD8005A690A809A6942F2107392FBF3F2214BF6
:103DE8001A800122204BEFE78B4202F10C0210DA15
:103DF8001E4812F8044C1C541D4812F8034C1C545D
:103E08001C4812F8014C1C541B4814781C540133EC
:103E1800EAE711490B788BB3134B1A7872B3002277
:103E28001A700A7001232AE0C9080020CA08002075
:103E3800D20800200C090020B40800208C090020BA
:103E480040080020EF170020D01700204C17002052
:103E5800640900203A170020D0080020EE1700203F
:103E680074170020D40B00205909002028170020BF
:103E7800BF170020D8170020201800200023002B8F
:103E88003FF4CFAD934CA368E360FDF7B5FAA060AB
:103E98002020FFF7E5F8904B904C1A78012A0CBFC8
:103EA800002201221A70E37A002B3FF4BAAD8C4B42
:103EB8001B78042B7FF6B5AD637803B92373227B97
:103EC80012B90BB1FFF7B2FB864B874D1A784FF04A
:103ED800050E013292FBFEFE0EEB8E0ECEEB020EAD
:103EE80083F800E0814B1B780293814B03EB8E0E25
:103EF8000023804A80499858DFF840827F4E585006
:103F080090FBF8F1995103EB830A7D4EDFF830926C
:103F180006FB010053F809705EF80A604EF80A00C3
:103F2800BF1B42F2107C90FBFCFC0526384443F88A
:103F3800090090FBF6F008FB01017248195002983D
:103F48001FFA8CFC012803EB020B25F802CF16465A
:103F580006D1ACF1020CBCF5797F98BFCBF8001004
:103F68000433082BC5D1684F684DFDF745FA3B6807
:103F7800C01A07EE100AF8EE477A9FED657AC7EE89
:103F8800877AA846C5ED007AFDF736FAD5ED007AAE
:103F98003860FDEEE77A06AA17EE903A012BA8BF23
:103FA800012307EE103AF8EEC77A5A4BC5ED007AAE
:103FB800009207AA019296E803000CCBFFF73EFA9D
:103FC800069A554907986423B2FBF3F20A80534ACC
:103FD80090FBF3F31380237B0BB90B8013805049BC
:103FE800504B0A78002A3DD0D5ED007A30681A681F
:103FF8007768DFF850E1B7EE007AC7EE277A821AC1
:104008004FF0020C07EE102AB8EEC77A5A6827EE6E
:10401800277ABA1ABDEEC77A17EE109A07EE102A59
:10402800414AB8EEC77AD2ED006A404A27EE267AAE
:10403800B2F9020067EE277AFDEEE77A17EE907A7A
:1040480000FA87F7B2F9000000FA89F097FBFCF74D
:1040580090FBFCF0BFB280B2AEF80270AEF8000080
:104068005780108001220A703068716859601860A2
:10407800237A23B9194BDB79002B3FF4D2AC2C4CB3
:10408800DFF8C4A02B4FCDF800A0019794E80C00EE
:10409800FFF7D4F961687268274B8A1A07EE902AED
:1040A800214A216892ED007A3268F8EEE77A8A1A96
:1040B8001A600E4A67EE877A92F90020FDEEE77AD9
:1040C800012AC3ED017A994640D0022A00F0FE8009
:1040D800A7E400BFA0160020350B00203A170020E7
:1040E800EE170020880900204A090020560B0020FE
:1040F80018080020D01700205C09002000090020C3
:10410800806967FF70080020E8080020FC0800208C
:1041180000007A44A01700209C170020A817002050
:10412800500900207809002004000020CC08002055
:10413800DC0800203C0900208009002080969800B7
:10414800400900200809002048090020944F002653
:1041580059F81600934BDFF884C2934C59F816208F
:1041680098ED000ADFF878A207EE900AB8EEE77A31
:10417800D3ED007A36F80C3067EE277A3946FDEE33
:10418800E77A17EE900AC01A884B80B2F05200B254
:1041980007EE900AB8EEE77AD4ED007ACDF80CC0B5
:1041A80067EE277A1044FDEEE77A224617EE905A1A
:1041B800FFF788F9ADB2D8ED008A97ED028A94ED41
:1041C800029A59F816B0284426F80A0018EE900A00
:1041D800FCF73AF9044618EE100A0D46FCF734F9D4
:1041E800734BCDE9040193F8C40007EE100AB8EE4A
:1041F800477A17EE100AFCF727F967A3D3E90023DB
:10420800FCF776F902460B4600206A49FCF79AFA51
:1042180022462B46FBF7BAFF02460B4620462946A4
:10422800FCF790FA7B68C3EB0B0307EE103AF8EE45
:10423800C77A0446C7EEA88A0D4678EEC88A18EEF3
:10424800900AFCF701F902460B4620462946FCF77E
:104258004FF90B460246DDE90401FBF797FFFCF72F
:10426800E1FB07EE900A69EE277A3861FDEEE77AFE
:10427800B860C7F804B017EE900A4F494FF4FA62D5
:1042880004F0D2FDDDF80CC04C4936F80C3031335F
:104298009BB2622B36F80A3098BF0020184480B2CF
:1042A80026F80A0040F6B83200B204F0BDFD444BCF
:1042B8002AF806000A2202FB0633023657F8142BA6
:1042C8001A60042E7FF444AFFFF7ABBB384BDAF823
:1042D8000060B3F9CA8073089845A8BF9846394B5F
:1042E8001A881FFA88F80FFA88F011B288420EDD92
:1042F80095ED007ADFED347A67EE277AFDEEE77AFE
:1043080017EE908A90441FFA88F8A3F800802F4B84
:104318003C681F68E71B3846FFF7FAFA002841F2A5
:10432800931201DD904201E043429342CCBF002347
:1043380001239FED278A274D002B53D007EE907A53
:10434800B8EEE70A20EE080A08F0C6FB07EE106A86
:10435800F8EE477A204B194920EE270A40F6B83282
:10436800BDEEC00A10EE100A80B2188000B204F048
:104378005BFD48F6A0432044984203DDA0F50C40BD
:10438800A03804E00028BCBF00F50C40A03028602D
:1043980029E000BFAFF30080182D4454FB211940D9
:1043A80044080020B8080020EC0800206C08002011
:1043B800641200200000F03F30F8FFFF48F4FFFFD0
:1043C80010090020740900200000C8425409002088
:1043D800D3023739D80800207808002008090020BF
:1043E800701700202C602B689D4FC3F50C532833A1
:1043F80007EE103AF8EEC77A002627EE888AB0EE64
:10440800480A08F0E3FA8DED090AB0EE480A08F008
:1044180063FB8DED080A934A934CB25E9349944D21
:10442800DFF888A207EE902A0FFA88F20AA807EEAA
:10443800102A00EB460353ED026AB8EEC77AF8EE8D
:10444800E77A4FF47A72D6EE877AFDEEE77A17EEBE
:10445800900A80B2305300B204F0E6FC80B23053C8
:1044680000B207EE900AB8EEE77AD5ED007A9AED39
:10447800000A67EE277A2A46FDEEE77A394617EEF4
:1044880090CA1FFA8CFCCDF80CC0FFF71BF8DAEDC8
:10449800008A97ED028A36F9049095ED029ADFF8C2
:1044A80010A2834618EE900AFBF7CEFF044618EEDA
:1044B800100A0D46FBF7C8FFCDE904019AF8C400BD
:1044C80007EE100AB8EE477A17EE100AFBF7BCFFA2
:1044D80061A3D3E90023FCF70BF802460B46002042
:1044E8006449FCF72FF922462B46FBF74FFE02469C
:1044F8000B4620462946FCF725F97B68C3EB0903E0
:1045080007EE103AF8EEC77A0446C7EEA88A0D46B9
:1045180078EEC88A18EE900AFBF796FF02460B461B
:1045280020462946FBF7E4FF0B460246DDE9040175
:10453800FBF72CFEFCF776FA07EE900A69EE277A6D
:10454800DDF80CC03861FDEEE77AB86017EE900A26
:10455800E344494CC7F80490584480B2305340F6BD
:10456800B83200B2454904F05FFC454BA0530A221B
:1045780002FB0633023657F8142B1A60042E5346F2
:104588007FF449AF93F8C62032B13E4A11686422DD
:1045980091FBF2F13C4A11803C4AB3F8C2301268F0
:1045A8009A420ED93A4B18683A4B1B68C01AFFF763
:1045B800AFF942F210730028B8BF404298427FF723
:1045C80030AA354B01221A70344B1A882E4B1A80A8
:1045D800FFF727BAFEF7C6FF36E06368013363606A
:1045E80063780133DBB20522B3FBF2F202EB8202FD
:1045F8009B1A6370FCF700FF294AA0600023137020
:10460800284A0120D3720BE0FCF7F6FEA36840F6B7
:10461800C412C01A904217D92020FEF729FD0420A1
:10462800FEF7E0FE10E09B781F49522B7FF484AA26
:10463800CB784D2B7FF480AA0B79432B7FF47CAA8F
:1046480002231370FFF778BA0BB0BDEC048BBDE8FA
:10465800F08F00BFAFF30080182D4454FB211940A0
:1046680010090020080900206C08002018FCFFFF32
:104678007C0800200000F03F7017002048F4FFFF7E
:1046880044080020D8080020881700204809002086
:104698003C09002054090020560B0020D4080020B3
:1046A800EE1700203A17002065090020FC080020BA
:1046B80064120020AFF3008038B5334D2DED048B24
:1046C800D5ED008AB0EE680A044608F07FF9B0EE2E
:1046D800408AB0EE680A08F0FFF995ED019AF0EE0D
:1046E800408AB0EE490A08F071F9F0EE409AB0EE4F
:1046F800490A08F0F1F9D4ED017AD4ED026A67EEBF
:10470800A80AB0EE407A60EE870A28EEE60A66EE5E
:10471800876A94ED007AE7EE290AA7EE880AE6EEA2
:10472800880A08F075FADFED197A60EE277A17EE35
:10473800900AFBF789FE12A3D3E90023FCF702F8DD
:10474800134B044618680D46FBF77EFE02460B46DF
:1047580020462946FBF71AFD00220E4BFBF7F2FF15
:10476800FCF760F900EE100A08F06CF9BDEC048B58
:1047780083B21A0444BF00F5B4739BB218B238BDB3
:10478800182D4454FB210940B00A00200000E144E0
:10479800880A00200000244038B5434C0820258DA5
:1047A800FEF754FC414BC8B129B2642291FBF2F0E8
:1047B80002FB101212B207EE102AF8EEC76A07EED3
:1047C800100AF8EEC77A9FED3A7AE6EE877AB2EEEB
:1047D800047A67EE877AC3ED007A01E000221A6056
:1047E80094F84500334DFBF71DFE29A3D3E90023B8
:1047F800FBF77EFEFCF716F900EE100A08F0E6F863
:104808002B8807EE903AF8EEE77A27EE800A08F050
:1048180019F92D889FED287A284B07EE905AF8EE63
:10482800E77A1880C7EE277A254B9FED267AC7EEE0
:10483800877A9FED257AC3ED007AB4F8743007EED5
:10484800903AF8EEE77A87EE277A17EE100AFBF728
:10485800FBFD11A3D3E90023FBF74AFEFCF7E2F8BE
:104868001A4B1860206CFBF7EFFD0DA3D3E900236A
:10487800FBF73EFE0B46024615490020FBF762FF98
:10488800FCF7D0F8134B186038BD00BFAFF30080B9
:10489800399D52A246DF913F3B597E90A9E781405E
:1048A800182D4454FB21094064120020880A002076
:1048B8008988883C3C0100200AE81C41E40A002061
:1048C800D016002000401C4600006144F416002069
:1048D8000000E03FFC16002090ED010A90ED007A00
:1048E800D0ED027A20EE000A38B5A7EE070A044692
:1048F8000D46A7EEA70A08F031FBB5EE400AF1EE27
:1049080010FA11D0D4ED007AC7EE807AC5ED007A9E
:10491800D4ED017AC7EE807AC5ED017AD4ED027A3A
:1049280087EE800A85ED020A38BD38B52DED0A8B71
:1049380091ED008A90ED00AAD0ED01AA90ED029ABF
:10494800B0EE480A04460D4608F040F8F0EE409AEA
:10495800B0EE480A08F0C0F895ED018AB0EE40BA0A
:10496800B0EE480A08F032F8F0EE408AB0EE480A95
:1049780008F0B2F895ED02CAB0EE408AB0EE4C0AE3
:1049880008F024F8F0EE40BAB0EE4C0A08F0A4F8AB
:104998006BEE005A2BEEA97AB0EE655AA7EE485A8C
:1049A800A5EEC87A20EE296A6BEE2B7A2AEE877A72
:1049B80028EEC00AF0EE466AE7EE886AAAEE007AA8
:1049C800E6EE087A6BEEA8BAA9EE277A6BEE687A5B
:1049D8006AEEA66A6AEEA77AEAEE2B6AEAEE087A27
:1049E80068EEA98AE9EE056AE9EE287ABDEC0A8B39
:1049F800C4ED006A84ED017AC4ED027A38BD000086
:104A08002DE9F04106EE900A2DED028B5E4BDFEDAD
:104A18005F7A5F4DB8EE668A86B028EE278AD3EDB6
:104A2800007AF1EE677ACDED007AD3ED017A594B31
:104A3800B3F90030F1EE677ACDED017A07EE903ADE
:104A4800F8EEE77A0746F1EE677A17EE900AFBF779
:104A5800FBFC4BA3D3E90023FBF74AFDFBF7E2FF7E
:104A68004D4B0290B3F9002007EE902AB3F90220CB
:104A7800B3F90430F8EEE77A03A8CDED037A07EE30
:104A8800902AF8EEE77A6946CDED047A07EE903A77
:104A9800F8EEE77ACDED057AFFF747FF95F8443051
:104AA800DDED057A012B1BD13C4B5A783C4B72B992
:104AB8001A68402192FBF1F1511A07EE101AB8EE6C
:104AC800C77A37EE277ABDEEC77A83ED007A1A687F
:104AD800402392FBF3F306EE903AB8EEE67A05E04F
:104AE800304B1B8807EE103AB8EEC77A2E4B2F4E84
:104AF8002F4C9DED030AD4F8008077EEC77A93ED2A
:104B0800007ACDED057A38EE077AD6ED007A88EE90
:104B1800078A9DED057A37EE677AE8EE077AC6EDE3
:104B2800007A07F08FFF95F8301004F085F99DEDB5
:104B3800040A40442060D4F8048007F083FF95F805
:104B4800301004F079F996ED000A40446060D4F81A
:104B5800088007F077FF95F82F1004F06DF9154BD2
:104B68001A6817441F60144B1A6840440132A06049
:104B78001A6006B0BDEC028BBDE8F081AFF300808F
:104B8800399D52A246DF913FB00A0020BD378635D5
:104B9800641200200C170020EC1600203A170020A1
:104BA800700A00203C010020FC160020DC0A0020CE
:104BB800C4160020D80A0020E80A0020AFF30080BD
:104BC8002DE9F0472DED028B84B004F077F8022030
:104BD800FEF73CFAC24DC34C002800F0578103F0A1
:104BE8004FFFFCF7EFFBC04BC04F1968C04A186075
:104BF800C1EB000A07EE90AABE4997F82E00B8EE5E
:104C0800676AD1ED037A002326EE276A19460DF16B
:104C1800040E0EEB430635F903E007EE90EAF8EED2
:104C2800E77A67EE867AC6ED007AB34EE0B107EE12
:104C3800900AB8EEE77AF7EE006A86EE877A34F9DA
:104C480003E007EE90EAF8EEE77A67EE877A36EE49
:104C5800C77AD2ED006AE6EE877AC2ED007AFDEEF9
:104C6800E77A17EE90EA01E034F803E026F803E06B
:104C780036F803E00233062B1EFB0E1102F1040284
:104C8800C5D19E4B9E481B88DFF8A08264246143EF
:104C98005B4391FBF3F4493CA4B201A9FFF745FE3D
:104CA8003B2C974C68D9974BD4ED020AB3F90030E6
:104CB80094ED010A944EDFF8809207EE903AF8EEF0
:104CC800E77A924BF4EEE70AF1EE10FAD4BF00222D
:104CD80001225A7307F09CFF94ED027AD4ED017A11
:104CE80086ED000A27EE070A94ED008AA7EEA70AC8
:104CF80008F034F9B1EE488AF0EE400AB0EE480AFE
:104D080007F086FF306886ED010AFBF79DFB70A36C
:104D1800D3E90023FBF7ECFBFBF784FE00EE100A57
:104D280007F090FEA9F800007068FBF78DFB68A3F8
:104D3800D3E90023FBF7DCFBFBF774FE00EE100A57
:104D480007F080FEA9F802000820FEF77FF9002886
:104D580045D06F4801A9FFF7E8FDB8F8B2806C4A62
:104D680007EE108AB8EE477AF7EE007A37EE276A30
:104D7800002387EE866A1FE0B8F8B01007EE101A15
:104D8800B8EE477AF7EE007A37EE276A224687EEC2
:104D9800866A002336F903E00233062B07EE90EA11
:104DA800D2ED006AF8EEE77AE6EE877A67EE866A71
:104DB800E2EC016AEED176E75649D2ED006A595E17
:104DC80007EE901AF8EEE77A0233E6EE877A062BBA
:104DD80067EE866AE2EC016AEED14D4808E04E487B
:104DE80001A9FFF7A2FD4C480146FFF775FD4A48A7
:104DF800FFF762FC494B18805046FFF701FE97F811
:104E08007630002B45D094ED010AD4ED007A94ED6C
:104E1800028A434C20EE000AA7EEA70AA8EE080A69
:104E280008F09CF888EE000ADFED3E7AB4EEE70A57
:104E3800F1EE10FA02D8002323802AE007F08AFE58
:104E4800394BD3ED007A20EE270A07F0FBFDB0F5C9
:104E5800617FA8BF4FF46170FBF7E4FA1EA3D3E9A2
:104E68000023FBF76FFCFBF7DDFD00EE100A07F0EF
:104E780033FE1E4B93F8763007EE903AF8EEE77A59
:104E880027EE800A07F0DEFD208002E020806080A7
:104E9800A080264B5B79012B254B0DD1254AB5F90E
:104EA80004001488022114FB0101032091FBF0F196
:104EB80089B29980118001E0AA889A802A881A808C
:104EC8006A885A8004B0BDEC028BBDE8F08700BF49
:104ED8003B597E90A9E78140A2EB0FE5DD1696408D
:104EE800BC160020D41600206C0A00206412002092
:104EF8008C0A002080180020EC1600203C010020BD
:104F080000170020E40A0020B00A00203A17002009
:104F1800B80A0020E01600200C0000200C17002022
:104F2800820A00208FC2753CF4160020341300203A
:104F38007C0A0020AC0A0020780A0020AFF3008029
:104F4800044A0023136053609360034A1360034AC2
:104F580013607047C4160020E80A0020D80A002011
:104F68002DE9F0472DED048BFCF72CFABE4B1A689F
:104F7800C2EB000A46F2A712924540F2FC81BB4EF2
:104F880018603388DFF86093B94C9FEDBA9ADFF860
:104F98005C83DFEDB98AB94DB94FB7EE008A4BB3E0
:104FA800B84994F83130D9F800000A68DFEDB60A3C
:104FB800013BB0FBF3F0082392FBF3FECEEB0202B9
:104FC800024492FBF3F306EE103AB8EEC60A0A6002
:104FD80080EE090A07F01EFE00232B603B60338831
:104FE800013B338038EE400A20EE280ABDEEC00AA5
:104FF80088ED000A94F83130D9F80020DFEDA20AD4
:10500800A24E013BB2FBF3F306EE903AB8EE660A05
:1050180080EE090A07F0FEFD38EE400A20EE280A65
:1050280007F010FDD8F80030D4ED0D7A96ED006A3F
:10503800C01A06EE900AB8EEE60A78EE676AB8EE8D
:10504800C67A20EE260AA7EE270A07F0FBFC904B4B
:10505800B3F90010B3F902200029B8BF4942002A69
:10506800B8BF52429142A8BF0A468A4992B20A8002
:1050780012B2FA2A9846884B03DD4FF0FF321A60C5
:1050880013E093ED007A07EE902AF8EEC76AB8EEBF
:10509800E77ADFED827A37EEC77A26EE877AC7EEAF
:1050A800277AFDEEE77AC3ED007A1B687C495A1E21
:1050B800C62A03D8C01A0860336025E00968002BA7
:1050C800C1EB000030601FDDC3F5967107EE101AC2
:1050D800DFED747A7449B8EEC77A06EE103A87EEB7
:1050E800277A6A4BF8EEC66A06EE100AF8EEC67A18
:1050F80038EE476A81ED007A67EE867AE6EE877ABF
:10510800FDEEE77AC3ED007A684BDFED695AD3ED1F
:10511800007A684B94ED0F6AD3ED026A664B93ED03
:10512800007A664BF8EEE66AB8EEC77AF8EE677A68
:10513800C6EE878AC62A93ED007AD5ED006A3368F1
:1051480028EE877A67EEA55A27EE277AB6EE005A38
:1051580066EEA57A27EE055A36EE877AE5EE257AC9
:10516800D7ED005A85ED007A77EEA55A07EE903A0A
:10517800B8EEE75A78EE467A65EE277AE5EE867A53
:10518800C7ED007A88BFFDEEE77A4D4F94BF3B60CC
:10519800C7ED007AFFF7D4FE4A4A336811689FEDDD
:1051A8004A7A1360591A07EE901A06EE10AAF8EE1A
:1051B800E77A40F2DC5267EE877AB8EE467A4349DE
:1051C800C7EE877AFDEEE77A17EE900A03F02CFE19
:1051D8000A2103F031FED4ED0E7A95ED007A06EE41
:1051E800900A38EE678AB8EEE60A20EE080AA7EEBB
:1051F800270A85ED000A07F025FC0521064603F07D
:105208001BFEB8F80020324B324D186002F21F32F4
:1052180092B240F23E639A42DFF8D48000F2A58051
:105228001B4A528802F21F3292B29A4200F29D80C3
:10523800294B1B78002B5DD1284B294918683B68FE
:105248004FF4FA72C01A03F0EFFD0A2103F0F4FDDF
:10525800074B24491B798022584390FBF2F04FF406
:10526800967203F0E1FD47E0740A0020CC0E00209E
:105278006412002080E6C547D048874A680A0020A3
:10528800640A0020E00A0020B1DC423E980A0020AF
:10529800780A0020F8160020080000200000614469
:1052A800CC0A00200000C842600A0020D80A00206A
:1052B800BD378635C4160020E80A0020D016002025
:1052C800DC160020D40A00200024744924FAFFFFC9
:1052D800D00A0020C40A0020AA0A0020E8160020EC
:1052E8000CFEFFFFD4FEFFFFC80A0020840A00203E
:1052F8005C0A0020224B1868871BA07A2149224E9D
:105308002023784390FBF3F04FF4967203F08CFD62
:1053180033682860207D1D491D4A07FB0030306036
:1053280003F082FDA47F98ED007A306007EE904A82
:1053380038EE877AF8EEE77A2B6867EE877A9FED82
:10534800157A67EE877A42F20406FDEEE77A90FB5B
:10535800F6F61E4417EE900A6FF0950196222E601D
:1053680003F062FD301A286001E000232B60C8EDCD
:10537800008A012000E00020BDEC048BBDE8F08726
:10538800A00A0020D4FEFFFF580A0020E0FCE6FF38
:10539800200319000000003B30B58A4C87B000207C
:1053A800FDF786FEFDF7D6FDA07B003018BF012073
:1053B800FCF73EF8FCF7D4FA0F20FDF751FE4FF446
:1053C8000040FDF763FE10B17F48FBF7F7FE05F0DC
:1053D80083FD7E4D286003F01BFA0120FDF736FEA1
:1053E80010B90320FCF7C6F80023794A40F2DE51D1
:1053F80099520233242BF8D1764B774A1A60082049
:105408002875FDF743FEB8B194F8D530042B13D8AE
:10541800DFE803F00303070B0F006E4803F02AF9D7
:105428000AE06C4803F01AF806E06A4803F0A0F9AD
:1054380002E0684802F0D0FF4FF40060FDF726FE56
:1054480010B1664803F0DEFC4FF48070FDF71EFED5
:1054580078B1AB68614A624894F8E110002B08BF44
:105468001046EB6802F57442002B18BF1046FEF791
:1054780093F902F049F801F0D3FAFFF78DF994F89F
:10548800CC3033B103F0F702012A02D18DF8043091
:1054980004E000238DF8043084F8CC3001A8FBF731
:1054A80011FB63790E2B01D0082B01D1012300E0F9
:1054B80000234FF480708DF80C30FDF7E7FD08B934
:1054C800002308E00820FDF7E1FD0028F8D0AB68CC
:1054D800003318BF01234FF480308DF80730FDF7F3
:1054E800D5FD8DF808000120FDF7D0FD18B908207A
:1054F800FDF7CCFD00E0012000F001008DF805006B
:105508000820FDF7C3FD8DF806004FF40040FDF7B5
:10551800BDFD8DF804002020FDF7B8FD20B96379A2
:10552800591F4B424B4100E001238DF80930AB7DF8
:105538008DF80B3063795A1E534253418DF80A3067
:10554800B4F89E30ADF80E30B4F8A030ADF8103095
:105558004FF480404FF47A73ADF81230FDF796FDA2
:1055680020B1184BB3F89A30ADF81230BDF80E30B0
:10557800B3F5FA7F84BF0023ADF81230B4F8D63003
:10558800ADF81430174B01A8B3F8BC30ADF816309D
:1055980005F034FEFBF716FF134B18606379052BF3
:1055A80003D1124B4FF4C8721A80114B4FF47A7220
:1055B8001A80104BC8221A800F4B01225A7300F030
:1055C800C3FCFCE7341300200058004010170020EB
:1055D800F6170020600B0020715E000800440040B0
:1055E8000048004064120020200B00205C0E0020C0
:1055F800C80E0020CC0E00203A17002008B5064B34
:10560800B3F9940001F044FB044B4FF480521A851F
:105618004FF480621A85FEE7341300200004004826
:10562800024B5A780AB100225A7070473A17002084
:105638002DE9F04F854BB3F90220B3F9003087B05C
:10564800002AB8BF5242002BB8BF5B4200249A42DE
:10565800B8BF1A4604922546A04627460394A24698
:105668002646DFF800B29BF803301BB99BF80430DC
:10567800002B3FD0022E3DD0754B7449B3F8B620AD
:10568800744B485F5B5FDFF8E091514203EB4000E9
:1056980003F0CAFB704B99F81C2035F903C005EBE1
:1056A8000903CCEB0000B3F92A3000EB030C99F89E
:1056B8000800CDF808C000FB0CF064236FF004016B
:1056C800514390FBF3F002EB820203F0ADFB634B16
:1056D800DDF808C062498246E0580293604442F20D
:1056E800107203F0A1FB029BE05099F81230584366
:1056F800001303909BF8033023B15A4B1B790BB965
:10570800022E3CD1584BDFF844B1DFF870813BF9E9
:105718000570564906EB030907EB870099F8013035
:10572800000190FBF3F0524BEA5E801A54F808200F
:10573800029310444FF47A5203F076FB029B48F828
:105748000400EB5E002BB8BF5B42B3F5207F08DC9A
:10575800022E09D1BBF90430002BB8BF5B42642B81
:1057680002DD002348F8043058F804207D2392FB1A
:10577800F3F899F80B3003FB08F84FEAA818394BEF
:105788001A79B2B1022E14D0049BDDF81090DDF81E
:105798000CC0C3F5FA7209FB08F07B4302FB0A331D
:1057A8004FF4FA7102FB0C0293FBF1F392FBF1F256
:1057B80008E0DB780BB1022E02D142463B4601E0FD
:1057C800039A53462A49DFF8B8B0685A294935F987
:1057D8000BC0715C25F80B000FFA80F90591DFF812
:1057E800A4B0CCEB0901DFF8A0C0009154F80B90ED
:1057F80054F80C1089440099894454F80C1044F862
:105808000B10009944F80C10DFF880C016F80CC093
:105818000CFB09F14FF0200CDDF8149091FBFCF122
:10582800521A10FB09F06FF04F0190FBF1F003449E
:10583800013611481344032E2B5204F1040405F1D8
:1058480002057FF40EAF07B0BDE8F08F8A1700207D
:1058580034130020720B0020780A0020840B0020EB
:10586800F0D8FFFF3A1700206412002080C1FFFF24
:105878007C0A00201D18002096170020F00A00203E
:10588800360B0020640B0020480B00201A1800205B
:105898002DE9F84F002425462746022F464EDFF80B
:1058A800408107D196F82430B8F904201B335343BC
:1058B8005B1130E0414B38F90500EB5E4049184474
:1058C8004FF4FA7203F0B0FA3E4B7219EB5EB2F97C
:1058D8002A20C01A831807EE103AF8EEC77AB2EEFB
:1058E800047AC7EE877A384AD378FDEEE77A17EE5E
:1058F800901A6BB996F8233038F9050012791B33E2
:1059080043431B113AB1B27C514303EB212302E01C
:10591800337A4B431B112D4ADFF8C8A035F90280B2
:10592800DFF8C490BAF8000029493E44C8EB0308E0
:10593800F27A54F8093096F801B000FB08F0C0126A
:1059480002FB00304FF4001244F8090003F06CFA2F
:10595800204BDFF898C0E15844F80380BAF80030CB
:1059680044F809004FF6FF721B09B2FBF3F3C1EBD1
:1059780008015943184B54F80C200BFB08FB54F84A
:10598800038044F80C804FEAEB1B89110BEB603B5A
:105998004244707DE1500A445043104B01370BEBF1
:1059A8002020032FE85204F1040405F102057FF4D6
:1059B80074AFBDE8F88F00BF64120020720B00209E
:1059C8000CFEFFFF780A00203A1700207C0A00200E
:1059D8000000E0FF280B0020040B00209617002091
:1059E8008A170020760B0020F00A0020100B0020F8
:1059F8002DE9F0478046894692460026F3B2534582
:105A080017D20025EBB243450ED20B4CA38A9BB2AA
:105A180083F480534FF48067A38248462785FBF7B9
:105A2800FCFC0135A761EDE73C20FBF7F6FC0136ED
:105A3800E4E7BDE8F08700BF000400480B4B1A8874
:105A48000B4B52B99A7842B15A786AB901225A7006
:105A5800084B1A88084B1A8070475B7823B90220D4
:105A6800FF210122FFF7C4BF704700BFC80E002006
:105A78003A1700200C170020F4170020000000003F
:105A88002DE9F04FB24BB3F90600B24B2DED028B66
:105A9800DA8C904285B00FDBB0F5FA6F93F82540A9
:105AA80007DA811A4C43A2F5FA6294FBF2F46434E3
:105AB80003E0C4F1640400E06424A74A93F8237067
:105AC800B2F8D61092F9AC200091524292B293F8F3
