:020000040800F2
:1000000000A00020E5AB000855C30008CD5400084F
:1000100057C3000859C300085BC300080000000074
:100020000000000000000000000000005DC30008A8
:100030005FC300080000000061C3000899120008B7
:1000400059AC000859AC000859AC000859AC00087C
:1000500059AC000859AC000859AC000859AC00086C
:1000600059AC000859AC000859AC000859AC00085C
:1000700059AC000859AC000885160008A9160008FC
:10008000CD160008F116000859AC000859AC00085C
:1000900063C3000859AC000859AC000859AC00080B
:1000A00009B4000815B4000821B40008D1B3000851
:1000B000DDB30008E5B30008F1B3000859AC00084F
:1000C00059AC000859AC000859AC000859AC0008FC
:1000D00059AC0008211800082D180008391800082C
:1000E0002DB4000859AC000867C3000859AC0008DB
:1000F00059AC000859AC0008FDB3000859AC000821
:1001000000000000000000000000000059AC0008E2
:1001100059AC000859AC000859AC000859AC0008AB
:1001200059AC000859AC000859AC000859AC00089B
:1001300059AC000859AC00080000000000000000A5
:1001400059AC000859AC000859AC00080000000088
:10015000000000000000000000000000000000009F
:10016000000000000000000059AC000859AC000875
:1001700059AC000800000000000000000000000072
:080180000000000059AC00086A
:1001880081F0004102E000BF83F0004330B54FEA40
:1001980041044FEA430594EA050F08BF90EA020FAD
:1001A8001FBF54EA000C55EA020C7FEA645C7FEA40
:1001B800655C00F0E2804FEA5454D4EB5555B8BF63
:1001C8006D420CDD2C4480EA020281EA030382EAD4
:1001D800000083EA010180EA020281EA0303362D66
:1001E80088BF30BD11F0004F4FEA01314FF4801C39
:1001F8004CEA113102D0404261EB410113F0004F4B
:100208004FEA03334CEA133302D0524263EB430301
:1002180094EA050F00F0A780A4F10104D5F1200E9F
:100228000DDB02FA0EFC22FA05F2801841F10001FA
:1002380003FA0EF2801843FA05F359410EE0A5F1CE
:1002480020050EF1200E012A03FA0EFC28BF4CF0FF
:10025800020C43FA05F3C01851EBE37101F00045B5
:1002680007D54FF0000EDCF1000C7EEB00006EEBC2
:100278000101B1F5801F1BD3B1F5001F0CD349084C
:100288005FEA30004FEA3C0C04F101044FEA4452A3
:1002980012F5800F80F09A80BCF1004F08BF5FEA2A
:1002A800500C50F1000041EB045141EA050130BD0A
:1002B8005FEA4C0C404141EB010111F4801FA4F1AD
:1002C8000104E9D191F0000F04BF01460020B1FA02
:1002D80081F308BF2033A3F10B03B3F120020CDA3A
:1002E8000C3208DD02F1140CC2F10C0201FA0CF018
:1002F80021FA02F10CE002F11402D8BFC2F1200C7D
:1003080001FA02F120FA0CFCDCBF41EA0C01904032
:10031800E41AA2BF01EB0451294330BD6FEA04047B
:100328001F3C1CDA0C340EDC04F11404C4F1200266
:1003380020FA04F001FA02F340EA030021FA04F378
:1003480045EA030130BDC4F10C04C4F1200220FACF
:1003580002F001FA04F340EA0300294630BD21FA0D
:1003680004F0294630BD94F0000F83F4801306BFD3
:1003780081F480110134013D4EE77FEA645C18BFC7
:100388007FEA655C29D094EA050F08BF90EA020F5E
:1003980005D054EA000C04BF1946104630BD91EA56
:1003A800030F1EBF0021002030BD5FEA545C05D159
:1003B8004000494128BF41F0004130BD14F5800498
:1003C8003CBF01F5801130BD01F0004545F0FE410C
:1003D80041F470014FF0000030BD7FEA645C1ABF41
:1003E800194610467FEA655C1CBF0B46024650EA78
:1003F800013406BF52EA033591EA030F41F40021A4
:1004080030BD00BF90F0000F04BF0021704730B529
:100418004FF4806404F132044FF000054FF00001FE
:1004280050E700BF90F0000F04BF0021704730B5BF
:100438004FF4806404F1320410F0004548BF404294
:100448004FF000013EE700BF42004FEAE2014FEAE9
:1004580031014FEA02701FBF12F07F4393F07F4FC4
:1004680081F06051704792F0000F14BF93F07F4FF6
:10047800704730B54FF4607401F0004521F0004139
:1004880020E700BF50EA010208BF704730B54FF0BF
:1004980000050AE050EA010208BF704730B511F0C4
:1004A800004502D5404261EB41014FF4806404F1FC
:1004B80032045FEA915C3FF4DCAE4FF003025FEA7E
:1004C800DC0C18BF03325FEADC0C18BF033202EB06
:1004D800DC02C2F1200300FA03FC20FA02F001FA60
:1004E80003FE40EA0E0021FA02F11444C1E600BFFF
:1004F80070B54FF0FF0C4CF4E06C1CEA11541DBFB2
:100508001CEA135594EA0C0F95EA0C0F00F0DEF87C
:100518002C4481EA030621EA4C5123EA4C5350EA61
:10052800013518BF52EA033541F4801143F48013B2
:1005380038D0A0FB02CE4FF00005E1FB02E506F043
:100548000042E0FB03E54FF00006E1FB03569CF098
:10055800000F18BF4EF0010EA4F1FF04B6F5007F9E
:1005680064F5407404D25FEA4E0E6D4146EB060610
:1005780042EAC62141EA55514FEAC52040EA5E5099
:100588004FEACE2EB4F1FD0C88BFBCF5E06F1ED843
:10059800BEF1004F08BF5FEA500E50F1000041EB7A
:1005A800045170BD06F0004646EA010140EA020027
:1005B80081EA0301B4EB5C04C2BFD4EB0C0541EA49
:1005C800045170BD41F480114FF0000E013C00F35E
:1005D800AB8014F1360FDEBF002001F0004170BD82
:1005E800C4F10004203C35DA0C341BDC04F114049B
:1005F800C4F1200500FA05F320FA04F001FA05F227
:1006080040EA020001F0004221F0004110EBD370F3
:1006180021FA04F642EB06015EEA430E08BF20EA1F
:10062800D37070BDC4F10C04C4F1200500FA04F3C2
:1006380020FA05F001FA04F240EA020001F0004154
:1006480010EBD37041F100015EEA430E08BF20EAC7
:10065800D37070BDC4F1200500FA05F24EEA020E0F
:1006680020FA04F301FA05F243EA020321FA04F03E
:1006780001F0004121FA04F220EA020000EBD370F5
:100688005EEA430E08BF20EAD37070BD94F0000FF5
:100698000FD101F00046400041EB010111F4801F29
:1006A80008BF013CF7D041EA060195F0000F18BFDA
:1006B800704703F00046520043EB030313F4801F16
:1006C80008BF013DF7D043EA0603704794EA0C0FD0
:1006D8000CEA135518BF95EA0C0F0CD050EA4106E6
:1006E80018BF52EA4306D1D181EA030101F0004163
:1006F8004FF0000070BD50EA410606BF104619468B
:1007080052EA430619D094EA0C0F02D150EA013696
:1007180013D195EA0C0F05D152EA03361CBF1046D7
:1007280019460AD181EA030101F0004141F0FE4176
:1007380041F470014FF0000070BD41F0FE4141F4FA
:10074800780170BD70B54FF0FF0C4CF4E06C1CEAFA
:1007580011541DBF1CEA135594EA0C0F95EA0C0FAF
:1007680000F0A7F8A4EB050481EA030E52EA03356A
:100778004FEA013100F088804FEA03334FF080558B
:1007880045EA131343EA12634FEA022245EA1115B8
:1007980045EA10654FEA00260EF000419D4208BF69
:1007A800964244F1FD0404F5407402D25B084FEA16
:1007B8003202B61A65EB03055B084FEA32024FF4C2
:1007C80080104FF4002CB6EB020E75EB030E22BF1F
:1007D800B61A754640EA0C005B084FEA3202B6EBDF
:1007E800020E75EB030E22BFB61A754640EA5C008E
:1007F8005B084FEA3202B6EB020E75EB030E22BF1E
:10080800B61A754640EA9C005B084FEA3202B6EB1E
:10081800020E75EB030E22BFB61A754640EADC00DD
:1008280055EA060E18D04FEA051545EA16754FEA3F
:1008380006164FEAC30343EA52734FEAC2025FEA5D
:100848001C1CC0D111F4801F0BD141EA00014FF0EC
:1008580000004FF0004CB6E711F4801F04BF0143BD
:100868000020B4F1FD0C88BFBCF5E06F3FF6AFAED9
:10087800B5EB030C04BFB6EB020C5FEA500C50F169
:10088800000041EB045170BD0EF0004E4EEA1131EC
:1008980014EB5C04C2BFD4EB0C0541EA045170BDF3
:1008A80041F480114FF0000E013C90E645EA060E37
:1008B8008DE60CEA135594EA0C0F08BF95EA0C0F65
:1008C8003FF43BAF94EA0C0F0AD150EA01347FF4AD
:1008D80034AF95EA0C0F7FF425AF104619462CE784
:1008E80095EA0C0F06D152EA03353FF4FDAE1046E7
:1008F800194622E750EA410618BF52EA43067FF438
:10090800C5AE50EA41047FF40DAF52EA43057FF4C7
:10091800EBAE12E74FF0FF3C06E000BF4FF0010CD2
:1009280002E000BF4FF0010C4DF804CD4FEA410C36
:100938007FEA6C5C4FEA430C18BF7FEA6C5C1BD003
:1009480001B050EA410C0CBF52EA430C91EA030F84
:1009580002BF90EA020F0020704710F1000F91EAE1
:10096800030F58BF994208BF90422CBFD8176FEAAF
:10097800E37040F0010070474FEA410C7FEA6C5C7D
:1009880002D150EA013C07D14FEA430C7FEA6C5C84
:10099800D6D152EA033CD3D05DF8040B704700BFB0
:1009A8008446104662468C461946634600E000BFFE
:1009B80001B5FFF7B7FF002848BF10F1000F01BDD0
:1009C8004DF808EDFFF7F4FF0CBF012000205DF89B
:1009D80008FB00BF4DF808EDFFF7EAFF34BF012020
:1009E80000205DF808FB00BF4DF808EDFFF7E0FFB9
:1009F80094BF012000205DF808FB00BF4DF808ED0A
:100A0800FFF7CEFF94BF012000205DF808FB00BF70
:100A18004DF808EDFFF7C4FF34BF012000205DF852
:100A280008FB00BF4FEA4102B2F1E04324BFB3F52F
:100A3800001CDCF1FE5C0DD901F0004C4FEAC0024D
:100A48004CEA5070B2F1004F40EB830008BF20F031
:100A58000100704711F0804F21D113F13872BCBFEB
:100A680001F00040704741F480114FEA5252C2F140
:100A78001802C2F1200C10FA0CF320FA02F018BF89
:100A880040F001004FEAC1234FEAD32303FA0CFCDC
:100A980040EA0C0023FA02F34FEA4303CCE77FEA6B
:100AA800625307D150EA01331EBF4FF0FE4040F4B5
:100AB8004000704701F0004040F0FE4040F4000064
:100AC800704700BF30B54FF4D8709BB009F062FA98
:100AD800564809F039F8564B0F93564B1093082394
:100AE800ADF84830802314934FF4807315934FF476
:100AF800806316932023002417934C4811944FF4D5
:100B080000530FA918931394199409F095F84748BE
:100B1800012109F0BCF83023009303238DF8043039
:100B28004FF09040022369468DF805308DF8064055
:100B38008DF8074009F0FBFF01213F4809F0D3FE7B
:100B48000A2000F0D8FB3C48214609F0C1FE3A488B
:100B580009F0B9FE384809F0C3FE04460028F9D167
:100B68000A2000F0C8FB02253348029402A9039426
:100B780004948DF81840059509F06EFE4FF4005363
:100B8800089409940A940B940C940D942A4807939A
:100B9800082407A98DF8384009F040FE01210A46CB
:100BA8002548062309F0ACFE234801212A460623DE
:100BB80009F0A6FE204801210322062309F0A0FE21
:100BC8001D4801210422062309F09AFE1A482946E5
:100BD8000522062309F094FE0622134616482946E4
:100BE80009F08EFE144829460722062309F088FEDC
:100BF800114829462246062309F082FE0E480121A3
:100C080009F058FE0C48012109F0ECFE0028F9D043
:100C18000948022109F0DEFE0121074809F0D1FE4A
:100C2800054809F0C9FE1BB030BD00BF08040240EA
:100C380040010050C802002000010050074B1A88EC
:100C4800598811449A8812FA81F1DA8812FA81F3E4
:100C58009BB200EE103ABBEECF0A7047C8020020E4
:100C680073B506460D4600242B880122A2401A427D
:100C780018D00093EB78AA788DF80420012B03D0C4
:100C8800022B0CBF0223032392088DF8053002F0D3
:100C98000C020023304669468DF806308DF807208F
:100CA80009F045FF0134102CDED102B070BD000000
:100CB80070B53C4C86B041F6FF73032501A94FF08F
:100CC8009040ADF804308DF80650FFF7C9FF4FF695
:100CD800FF73204601A9ADF80430FFF7C1FF01A951
:100CE8003148FFF7BDFF314B0FCB06AE06E90F00C9
:100CF80003A90298FFF7B4FF049805A9FFF7B0FF0E
:100D08004FF090400021012209F056FF01210A46C8
:100D18004FF0904009F050FF4FF090400221092217
:100D280009F04AFF29464FF09040092209F044FF94
:100D38004FF090400621012209F03EFF4FF090400D
:100D48000721012209F038FF4FF0904008210622C0
:100D580009F032FF4FF090400921062209F02CFFDC
:100D68004FF090400A21062209F026FF2046042170
:100D7800022209F021FF20460621022209F01CFF69
:100D880020460721022209F017FF204608210222E7
:100D980009F012FF20460921022209F00DFF06B0D2
:100DA80070BD00BF0004004800080048ACED000812
:100DB8002DE9F043494C89B04FF48020012109F016
:100DC800FFF820460D21052209F0F6FE20460E21E7
:100DD800052209F0F1FE052220460F2109F0ECFE5C
:100DE80000264FF460434FF0040802274FF0030930
:100DF800204601A9019301258DF808708DF8099006
:100E08008DF80A608DF80B6009F091FE0DEB080172
:100E18002046CDF804808DF808508DF809908DF89B
:100E28000A608DF80B5009F082FE2046414604F511
:100E3800806409F0BDFE4FF48048204601A9CDF832
:100E4800048009F074FE2046414609F0B1FE4FF4D3
:100E58000048204601A9CDF8048009F068FE204624
:100E6800414609F0A5FE4FF40058204601A9CDF8E7
:100E7800048009F05CFE2046194C414609F098FEB2
:100E8800204609F0B5FD4FF48273ADF80E304FF4EB
:100E9800E063ADF810304FF40073ADF81630282336
:100EA800ADF818302046072303A9ADF81C30ADF87B
:100EB8000C60ADF81270ADF81450ADF81A6009F076
:100EC800C9FD20464FF4805109F01CFE20462946F2
:100ED80009F00CFE284609B0BDE8F083000400487C
:100EE80000380040034B1A88013292B21A804FF042
:100EF800FF307047D802002038B5054640F2E93483
:100F08001048022109F00DFE20B9013CA4B2002CC2
:100F1800F6D10EE00B48294609F0FFFD40F2E9340E
:100F28000848012109F0FDFD38B9013CA4B2002CA4
:100F3800F6D1FFF7D7FFC0B238BD0248BDE8384048
:100F480009F0EDBD003800402DE9F04104460D469A
:100F5800164676B31DB195F80080013501E04FF0D3
:100F6800FF0840F2E9371448022109F0DAFD20B9F8
:100F7800013FBFB2002FF6D10EE00F48414609F0FD
:100F8800CCFD40F2E9370C48012109F0CAFD40B90F
:100F9800013FBFB2002FF6D1FFF7A4FFC0B2BDE8F2
:100FA800F081054809F0BBFD0CB120700134013E09
:100FB800CFE70120BDE8F0810038004038B5274D63
:100FC80004460021284609F091FD2B88102C9BB27D
:100FD8002CD009D8042C1DD0082C21D0022C36D1B5
:100FE80023F038039BB232E0402C25D007D8202CC0
:100FF8002DD123F038039BB243F0200327E0802C47
:1010080020D0B4F5807F22D123F038039BB243F07F
:1010180038031CE023F038039BB243F0080316E0C2
:1010280023F038039BB243F0100310E023F0380399
:101038009BB243F018030AE023F038039BB243F055
:10104800280304E023F038039BB243F0300303483D
:1010580001210380BDE8384009F048BD0038004050
:10106800014B188880B27047D8020020014B00223B
:101078001A807047D8020020054B98420CBF054BD8
:10108800054B1A88013292B21A800020704700BFBF
:1010980000540040DC020020DA0200202DE9F34170
:1010A800394D1F464FF4204304460E4690462B60A8
:1010B80020464FF4004108F027FE28B12868431E57
:1010C8002B600028F4D151E04FF4005300932046E0
:1010D8004FF080733146012208F0FCFD4FF42043A5
:1010E8002B602046022108F00FFE28B92868431E0D
:1010F8002B600028F5D139E02046414608F0FFFD75
:101108004FF420432B602046802108F0FDFD28B9CC
:101118002A68531E2B60002AF5D127E0002300938C
:1011280020464FF000733146012208F0D3FD4FF4FA
:1011380020432B602046022108F0E6FD28B92A68E2
:10114800531E2B60002AF5D110E02046394608F0DE
:10115800D6FD4FF420432B602046202108F0D4FD13
:1011680050B92B685A1E2A60002BF5D1204602B0D0
:10117800BDE8F041FFF780BF2046202108F0CAFDF6
:10118800012002B0BDE8F081E00200202DE9F7431C
:101198003E4DDDF828901F464FF42043044688460C
:1011A80016462B6020464FF4004108F0ADFD03467B
:1011B80028B12B685A1E2A60002BF3D158E04FF44F
:1011C8000052009220464146012208F083FD4FF468
:1011D80020432B602046022108F096FD28B92B6891
:1011E8005A1E2A60002BF5D142E0012F88BF46F035
:1011F80080062046314608F082FD4FF420432B60DC
:101208002046402108F080FD28B92B685A1E2A6024
:10121800002BF5D12CE04FF41053009320464146A3
:101228003A464FF0007308F055FD0026F3B29F428E
:101238004FF420432B6011D02046042108F064FDB0
:1012480028B92B685A1E2A60002BF5D110E02046D9
:1012580008F057FD09F806000136E7E72046202187
:1012680008F052FD50B92B685A1E2A60002BF5D1A0
:10127800204603B0BDE8F043FFF7FEBE204620211C
:1012880008F048FD012003B0BDE8F083E00200202B
:10129800024B1A6801321A60704700BFE40200204E
:1012A80010B5094A094913688C6812689342F8D145
:1012B800074A106811684FF47A725043001BB0FB5C
:1012C800F1F002FB030010BDE402002010E000E092
:1012D800E8020020014B1868704700BFE4020020B4
:1012E80038B50446FFF7DCFF0546FFF7D9FF401B7A
:1012F800A042FAD338BD10B504462CB14FF47A7029
:10130800FFF7EEFF013CF8E710BD000070B54A4C4E
:1013180090B04FF47003C4F8883001A808F0FCFCC2
:10132800019B464AB3FBF2F3454A1360454B1A68E2
:101338004FF47A73B2FBF3F2434B013A5A60F0224E
:1013480084F8232000229A6007221A604FF4D8708C
:1013580008F020FE4FF08050012108F031FE0120F6
:10136800014608F02DFE0220012108F029FE4FF465
:101378000030012108F024FE4FF48020012108F0FC
:101388001FFE4FF40020012108F01AFE4FF48040A0
:10139800012108F02DFE0120014608F029FE022057
:1013A800012108F025FE0420012108F021FE4FF458
:1013B8000060012108F010FE4FF48030012108F090
:1013C8000BFE4FF40030012108F006FE4FF4802098
:1013D800012108F001FE4FF48040012108F0FCFDD6
:1013E8004FF40030012108F003FE01214FF4802062
:1013F80008F0FEFD08F020FE4FF4A06008F066FB40
:10140800FFF756FCFFF7D4FC0A25104CA38A9BB2C1
:1014180083F48053A38219204FF48066FFF76BFF93
:1014280026851920FFF767FF013DA661EDD14FF42E
:101438008053A36110B070BD00ED00E040420F0082
:10144800E80200203C01002010E000E00004004811
:1014580008B540F2DB160B4B4FF4805270439A618B
:10146800861E084CA38A9BB283F48053A38230461D
:101478004FF48065FFF73FFF25851920FFF73BFFF5
:10148800A561EEE70004004810B1034B034A1A6057
:10149800034B044ADA60FEE7FC9F0020EFBEADDE96
:1014A80000ED00E00400FA0503200BF08FB90320DB
:1014B8000BF07AB910B504460021406B08F0E7FB41
:1014C800626AA36A9A4204D02046BDE810400BF035
:1014D80078BA012384F8443010BD00002C4B2D4A03
:1014E80030B51A602C4A5A612C4A9A614FF48072BE
:1014F800DA601A612A4A1A63143A5A63294A1A6541
:10150800243285B0DA6404329A64986002238DF834
:101518000C3003238DF80D3000238DF80E308A0728
:101528004FF001030D468DF80F300FD504AC4FF482
:10153800007344F8083D4FF090400921072209F054
:101548003BFB4FF09040214609F0F1FAEB070FD52D
:1015580004AC4FF4806344F8083D4FF090400A21F2
:10156800072209F029FB4FF09040214609F0DFFAE5
:101578000E238DF8043001A801238DF805308DF86D
:1015880006308DF8073008F0ABFA014805B030BDD9
:10159800AC050020E0100108A80600206C0400201B
:1015A80058000240003801402E4B2F4A30B51A60CF
:1015B8008022DA601A612D4A5A612D4A9A612D4AB1
:1015C8001A6502F5DE326C321A63A2F5DE32483A49
:1015D800DA6402F5DE325C325A63A2F5DE3285B097
:1015E800583A9A64986002230D468DF80C3000230F
:1015F80003218DF80E30AA074FF001038DF80D1066
:101608008DF80F300BD504AC082344F8083D1A4870
:10161800072209F0D1FA1848214609F088FAEB07A1
:101628000FD504AC4FF4004344F8083D4FF0904008
:101638000F21072209F0C0FA4FF09040214609F027
:1016480076FA11238DF804300022012301A88DF8C1
:1016580005308DF806208DF8073008F041FA01486A
:1016680005B030BD00060020E0100108EC020020A3
:10167800EC030020004400400004004808B54FF483
:10168800005008F01DFB0448002108F000FB034847
:10169800BDE80840FFF70EBF44000240AC0500203B
:1016A80008B54FF4003008F00BFB0448002108F09F
:1016B800EEFA0348BDE80840FFF7FCBE58000240B8
:1016C800AC05002008B54FF4001008F0F9FA0448FA
:1016D800002108F0DCFA0348BDE80840FFF7EABE3D
:1016E8006C0002400006002008B54FF0007008F0BA
:1016F800E7FA0448002108F0CAFA0348BDE80840A0
:10170800FFF7D8BE800002400006002038B5026B03
:10171800036D0446DD69A2B9A80612D5E26A1AB1BA
:10172800988CC0B290470CE09B8CE2696169DBB28F
:101738008B54E269E3680132B2FBF3F103FB112336
:10174800E361626BBAB9290615D5A36A616A8B424F
:101758000DD0A269206DD15C08F007FEA26A23694A
:101768000132B2FBF3F103FB1123A36203E0206D06
:10177800054908F006FE2B0705D5206D0349BDE88D
:10178800384008F014BE38BD070107000003030005
:101798007FB51B4C1B4B23608023E36040232361F0
:1017A800194B6361194BA361194E1A4BA0600125AF
:1017B800236501A827238DF804308DF805508DF88E
:1017C80006508DF8075008F08BF9304607220B2198
:1017D80009F0F2F94FF40063029302238DF80C30FC
:1017E80003238DF80D303046002302A98DF80E3002
:1017F8008DF80F5009F09BF9204604B070BD00BF6A
:1018080054060020E01001086C0300206C0500203D
:1018180000040048004800400148FFF777BF00BFB8
:10182800AC0500200148FFF771BF00BF000600208B
:101838000148FFF76BBF00BF5406002000000000FE
:1018480010B54D4CB4F8A6002DED068B20B9D4F890
:10185800A830002B00F08680484B00221A7000B296
:10186800FEF7E0FD42A3D3E90023FEF741FE002284
:10187800434BFEF767FFFFF7D5F808EE900AB4F977
:10188800A800FEF7CFFD3AA3D3E90023FEF730FE08
:1018980000223B4BFEF756FFFFF7C4F808EE100A8C
:1018A800B4F9AA00FEF7BEFD31A3D3E90023FEF781
:1018B8001FFE334B0022FEF745FFFFF7B3F8B0EEEB
:1018C800680A0AEE900A0BF0B5F8B0EE409AB0EE4E
:1018D800680A0BF035F9F0EE409AB0EE480A0BF0C2
:1018E800A9F8F0EE408AB0EE480A0BF029F9B0EEFC
:1018F800408AB0EE6A0A0BF09DF8B0EE40AAB0EE4E
:101908006A0A0BF01DF920EE097A69EE8A7AF0EE80
:10191800475AE7EE885A1B4B2AEE096A69EE806A35
:10192800C3ED035AF0EE465AE6EEC85AE7EE087AD7
:10193800E6EE486A2AEE28AA28EEC00A69EEE89A76
:1019480068EE898A83ED00AA83ED010A83ED028A95
:10195800C3ED045AC3ED059AC3ED066AC3ED077AD1
:10196800C3ED088ABDEC068B10BD00BFAFF3008045
:10197800182D4454FB2109402413002000000020A6
:1019880000806640A807002038B5B0F90030224C26
:101998002DED048B08EE903AB0F9023094ED030A6D
:1019A800D4ED007A09EE103AB8EEC99AF8EEE88A52
:1019B800B0F9043029EE000A08EE103AA7EEA80A9A
:1019C8000546B8EEC88AD4ED067AA7EE880A0BF069
:1019D8006DF894ED040AD4ED017A288029EE000A06
:1019E800A7EEA80AD4ED077AA7EE880A0BF05EF8EE
:1019F80094ED050AD4ED027A688029EE000AA7EE74
:101A0800A80AD4ED087AA7EE880A0BF04FF8BDECC7
:101A1800048BA88038BD00BFA8070020013A072A18
:101A280030D8DFE802F004080F14191E22260388B4
:101A38000B80438803E043880B8003885B424B801C
:101A480083881EE003885B420B804388F6E743885F
:101A58005B420B800388F2E703885B420B80438874
:101A68000CE043880B80038808E003880B804388D8
:101A780003E043885B420B8003885B424B8083888A
:101A88005B428B80034B1B7813B90846FFF77CBF7A
:101A9800704700BF00000020F8B5194C23780646AF
:101AA800274683B9174DFFF715FC2A683232904252
:101AB80009D301232370144B4FF480621A85FFF772
:101AC80009FC2860F8BD3B78C3B10E4CFFF702FC57
:101AD80023683344984211D3094B00221A700A4BE9
:101AE8004FF480629A61FFF7F5FB084B20601A7883
:101AF8000AB1013A1A70064B01221A70F8BD00BFEC
:101B0800CE070020D407002000040048610B002005
:101B1800CF07002073B5234D8DF807302B788DF84B
:101B2800062002AA1A448DF804008DF8051012F850
:101B3800042C443AD2B20A2A2CD81B49022B31F879
:101B4800124003D814B12046FFF7A6FF2B78022BCA
:101B58000BD9164B1E68FFF7BDFB001B864204D24B
:101B6800104A00231370124A1370124B1A78012A74
:101B78001A4600D09CB92B78022B02D809490133A8
:101B88000B70002313700C4A13700C4B4FF48062D7
:101B98009A6104E0022B4FF03204D4D9D6E702B0A0
:101BA80070BD00BFD0070020C4ED0008D407002096
:101BB800610B0020CF070020CE070020000400485A
:101BC8002DE9F041404F414D7B7B064603B101238F
:101BD8004FF400702B7001F0C9F93D4CF8B13D4B42
:101BE8003D481B8890F8B82019B202EB820E714567
:101BF80013DDDFF8ECE09EF801E0BEF1000F0AD03B
:101C080090F8B900024402EB82024FF0010E9142B3
:101C180084F800E001DD0222227003B9237020203D
:101C280001F084F960B1BA7A2C4B12B9264AD27AFB
:101C380022B12B4AD27A0AB9012200E000221A7096
:101C48002378022B02D14C204E211DE0012B07D115
:101C58004D2153204C220B46BDE8F041FFF75ABFF7
:101C68001E4B1B78012B03D1532001464E2205E061
:101C78002B78012B04D15320014602464D23EBE774
:101C8800042E03D153204D210A460AE0022E03D127
:101C9800532001464D2204E0012E04D153204D214A
:101CA8004E224423D8E70F4B1B7823B13220BDE8DE
:101CB800F041FFF7F1BE0C4A13700C4B4FF48062F1
:101CC8009A61BDE8F08100BF9A170020CD07002077
:101CD800D1070020EC0A002054120020CC07002075
:101CE8002A170020610B0020CE07002000040048BE
:101CF80070B50646B6FBF2F40846154614B1204600
:101D0800FFF7F6FF05FB1464024B1B5D00F8013B6F
:101D180070BD00BF5CEF000810B50278202A0346AA
:101D280000F10100F9D0092AF7D02D2A03D1034682
:101D3800BFEE000A04E02B2A08BF0346B7EE000AEC
:101D48009FED377A1A46134612F8011BA1F13000AD
:101D5800C4B2092C0AD805EE900AF8EEE57AF2EE3C
:101D6800046AE7EE267AB0EE677AECE72E2915D1F9
:101D7800F2EE047AF0EE676A134612F8011B303966
:101D8800C8B209280AD805EE901AB8EEE56A86EEB8
:101D9800276A67EEA67A37EE067AEDE71A7802F038
:101DA800DF02452A34D15A782D2A02D10233012282
:101DB80004E02B2A14BF013302330022013B002127
:101DC80013F8010F3038C4B2092C03D80A2404FBD5
:101DD8000101F5E7B1F59A7F34BF0B464FF49A73CA
:101DE8001946F7EE007A072905D9DFED0E6A08399A
:101DF80067EEA67AF7E703F007032BB1F2EE046A61
:101E080067EEA67A013BF8E722B1C7EE277A03E02E
:101E1800F7EE007A67EE277A20EE270A10BD00BF9A
:101E28000000000020BCBE4C10B5441E14F8011F71
:101E380021B1034B186909F0A1F9F7E710BD00BFFC
:101E4800001700200148FFF7EFBF00BF81EF00082F
:101E580010B50748FFF7E8FF0024064B0648E1588D
:101E68001A190C34526806F0EBF9C02CF5D110BDE4
:101E7800AFEF000880EE0008C5EF000838B5FFF79F
:101E880029FA1F4B1A881F4B4FF47A7190FBF1F116
:101E98001B781D4806F0D4F901F062F81B4B19684D
:101EA8001B4B0546B1FBF3F11A4806F0C9F90024AB
:101EB800E3B2194A52F8231049B1012202FA03F396
:101EC8002B4202D0154806F0BBF90134F0E7022096
:101ED80001F02CF838B1124B12481A78124B53F80B
:101EE800221006F0ADF91148FFF79EFF104B11487C
:101EF80019884FF45A72BDE8384006F0A1B900BFFE
:101F08008217002019000020CDEF00083C010020B6
:101F180040420F000BF00008B4FD000829F000084B
:101F2800C20E00202DF0000840EF0008D8F200088B
:101F3800820B002037F0000838B50C6805462046AB
:101F48000CF065FD214602462868BDE838400CF0D3
:101F580067BD000008B50948FFF766FF01210020AA
:101F680000F0D6FF0648FFF75FFF0A20FFF7C3F926
:101F78000020BDE80840FFF787BA00BF59F0000805
:101F880063F000087FB504460CF041FD082824D111
:101F980000231F49E25C09681144497801F00301F4
:101FA800022908BF203AE2540133082BF1D1002559
:101FB800665D184831460CF01DFD28B101356019E1
:101FC80031460CF017FD18B11348FFF72DFF1CE040
:101FD800082DEDD1204600F087FE1048FFF724FFBA
:101FE80000230F4A1A4404A992F8CD200A4409494B
:101FF800595C02F80C1C0133082BF2D10023094864
:102008008DF80C3001A906F01BF904B070BD00BFB3
:1020180060020020A806010872F0000892F000088B
:1020280024130020C8EF000808B501F05DFB01305B
:102038000CBF03480348BDE80840FFF7F5BE00BFE2
:10204800A7F00008CDF000082DE9F04105460CF096
:10205800DEFC044601F030F906468CB92948FFF742
:10206800E3FE294B53F8241041B10123A340334226
:1020780002D0264806F0E4F80134F2E7244821E0CB
:102088002846244922460CF0CBFC58B92248234C58
:10209800FFF7CAFE54F8041F0029EFD01B4806F0CA
:1020A800CFF8F7E72B782D2B03BF013504F1FF3468
:1020B8004FF001084FF000080026134B53F8267024
:1020C80027B91748BDE8F041FFF7AEBE28463946A4
:1020D80022460CF0A5FC98B90120B040B8F1000FD9
:1020E80003D001F0E1F80F4802E000F049FF0E4884
:1020F800FFF79AFE39460D48BDE8F04106F0A0B852
:102108000136DAE7EBF00008DCED000829F00008FA
:10211800D8F20008B6FB0008FEF00008D8ED000869
:1021280013F100082DF1000837F10008C8EF000886
:1021380010B504460848FFF777FE084A00231370D5
:10214800074A1360074A137004F0B6FB2046BDE83F
:102158001040FFF7FFBE00BF40F10008D90700207C
:102168000C080020D807002008B50848FFF75CFED7
:10217800012000F00DFF0648FFF756FE0A20FFF782
:10218800BAF80020BDE80840FFF77EB958F100080A
:1021980065F00008F8B507460CF039FC044638B974
:1021A8001A4B1B485A791B4B013A53F8221028E066
:1021B8003846194922460CF033FC60B91748184CC8
:1021C800FFF732FE54F8041F19B1164806F038F824
:1021D800F8E7154805E000250E4B53F8256026B9A9
:1021E8001248BDE8F840FFF71FBE38463146224680
:1021F8000CF016FC01350028EED1044B0C485D713B
:102208003146BDE8F84006F01BB800BF2413002093
:1022180073F1000824EE0008B6FB000887F10008F7
:1022280020EE000829F00008D8F200089AF100080A
:10223800B2F1000810B5044620460CF0E8FB10F097
:10224800FF0F07D10B4B0C4893F86413BDE81040FF
:1022580005F0F6BF20460CF083FB022808D8054B92
:10226800064C83F864030020014600F051FEE3E7C2
:1022780010BD00BF24130020C4F10008E8F40008D2
:1022880070B504460CF0C3FB08B9204830E020467E
:102298001F490CF013FC00242646254678B12CB1C2
:1022A800012C06D10CF05CFB064602E00CF058FB52
:1022B80005461749002001340CF000FCEEE7072D15
:1022C80005D914480821BDE8704005F0B9BF012CB4
:1022D80008DC114B114833F915202946BDE8704038
:1022E80005F0AEBFA6F57A73B3F57A7F04D90C482A
:1022F800BDE8704005F0A4BF0A482946324605F0FB
:102308009FFF054B23F8156070BD00BFDAF1000888
:10231800B2F4000814F200083E1800203AF200084F
:1023280052F2000874F2000838B505460CF06FFB4D
:10233800C0B268B90446124B124803EB4403214665
:10234800B3F84620013405F07BFF152CF3D138BDD6
:1023580028460CF005FB142804460BDC20212846EF
:102368000CF048FB0CF0FCFA054B03EB4404A4F812
:10237800460038BD04481521BDE8384005F060BF67
:10238800541200208DF2000899F20008931E232BA6
:1023980028BF0A22031E10B50C4603DA2D2001F8C7
:1023A800010B5842FFF7A4FC00230370204610BD20
:1023B80030B52DED028B87B0B0EE408A00210C229B
:1023C800044603A80CF001FBB5EEC08ADFED2B7ABA
:1023D800F1EE10FACCBF38EE278A38EE678ADFEDC7
:1023E800287A28EE278A6946BDEEC88A0A2218EE9E
:1023F800105A85EAE570A0EBE570FFF7C7FF002DDE
:10240800ACBF20232D2368468DF80C300CF0FFFA62
:10241800012807D130238DF80D308DF80E308DF856
:102428000F300CE0022805D130238DF80D308DF8DF
:102438000E3004E0032804BF30238DF80D306946C0
:1024480003A80CF0CAFA03A80CF0E1FA0338C5B2E5
:102458002A4603A920460CF005FB002363552046B5
:1024680008490CF0BAFA03A9204629440CF0B5FA39
:10247800204607B0BDEC028B30BD00BF6F12033A97
:1024880000007A4470F0000837B5037904460D4619
:10249800052B37D8DFE803F003060A0D111483680B
:1024A800197830E0836893F900102CE08368198864
:1024B80029E08368B3F9001025E08368196822E0F1
:1024C8008368684693ED000AFFF772FF01461348D8
:1024D80005F0B6FE05B3D4ED037A6846B8EEE70A10
:1024E800FFF766FF01460E4805F0AAFE94ED040AC0
:1024F8006846B8EEC00AFFF75BFF0146084805F0DA
:102508009FFE09E00021074805F09AFE25B106481C
:10251800E168226905F094FE03B030BD34F000088C
:1025280033F00008C3F20008BFF200082DE9F843B1
:102538002DED028B05460CF06AFA4F4E074620B186
:10254800012817D12B782A2B14D14C48FFF76CFCA3
:10255800002431594A4805F073FE30193946FFF70F
:1025680093FF4848FFF760FC143440F6D4039C42BC
:10257800EFD17DE028463D210CF03CFA00285FD0E1
:10258800441C20460CF0ECF981462046FFF7C4FBBA
:102598000027B0EE408A14247C4356F80480404655
:1025A8000CF035FA4146024628460CF039FA002864
:1025B8003CD1314B1C4494ED037AF8EEC77AB4EE63
:1025C800E78AF1EE10FA2FDB94ED047AF8EEC77A79
:1025D800B4EEE78AF1EE10FA26D82279052A18BF58
:1025E80008EE109A18EE103A052A11D8DFE802F022
:1025F80003030606090DA268137009E0A268138098
:1026080006E0A26882ED008A02E0A36883ED008AF2
:1026180041461D4805F014FEBDEC028B2046002102
:10262800BDE8F843FFF730BF184803E00137712FC2
:10263800B1D11748BDEC028BBDE8F843FFF7F4BBF6
:1026480004463759294638460CF01EFA58B10C484A
:10265800394605F0F5FD084800212044FFF714FF2E
:102668000848FFF7E1FB143440F6D4039C42E8D154
:10267800BDEC028BBDE8F883D4FD0008C6F2000863
:10268800A5F30008D8F20008DBF20008E6F200081B
:102698000BF3000870B52DED048B5C4C5C4884B0DE
:1026A80005F0CEFD5B48FFF73FFE62795A4B5B4869
:1026B800013A264653F8221005F0C2FDD4ED047AFB
:1026C800F5EE407AF1EE10FA5FD01834002514EDDB
:1026D800028AB5EE408AF1EE10FA52D00135504820
:1026E80054ED019A94ED009AD4ED018A294605F03B
:1026F800A7FDB5EEC08AF1EE10FA02D5494805F0FB
:102708009FFDB0EE480A6846FFF752FE014646486C
:1027180005F096FDF5EEC09AF1EE10FA02D54148A3
:1027280005F08EFDB0EE690A6846FFF741FE0146E6
:102738003D4805F085FDB5EEC09AF1EE10FA02D5D8
:10274800384805F07DFDB0EE490A6846FFF730FECF
:102758000146354805F074FDF5EEC08AF1EE10FA31
:1027680002D5304805F06CFDB0EE680A6846FFF700
:102778001FFE01462D4805F063FD082D04F11004E5
:10278800A5D12B48691C05F05BFD00F095FD294C8F
:10279800054654F8041F19B1274805F051FDF8E71C
:1027A8000C46264B53F8241041B10123A3402B4279
:1027B80002D0234805F044FD0134F2E7731804AA57
:1027C80093F8CD3013441F4A8A5C03F8102C01316A
:1027D8000829F3D100241C488DF80840694605F003
:1027E8002FFD1A4D1A48615905F02AFD28190021B4
:1027F800FFF74AFE1748FFF717FB143440F6D403D7
:102808009C42EED104B0BDEC048B70BD24130020B3
:1028180028F30008E8F4000824EE000858F300083C
:1028280063F30008B2F4000834F00008C8EF0008A9
:102838006BF30008D8ED00087DF30008DCED000814
:102848008BF30008A806010898F30008D4FD0008D7
:10285800A1F30008D8F20008F0B589B004460CF0DE
:10286800D6F8C5B2002D72D17F48804CFFF7DCFA4C
:1028780054ED027AF5EE407AF1EE10FA2CD00135DB
:1028880029467B4805F0DCFC14ED020A04A8FFF792
:102898008FFD0146774805F0D3FC14ED010A04A822
:1028A800FFF786FD0146734805F0CAFC94ED000A5F
:1028B80004A8FFF77DFD01466E4805F0C1FC94EDC4
:1028C800010A04A8FFF774FD01466B4805F0B8FC3F
:1028D800082D04F11004CBD1DFED687A684BB0EE17
:1028E800677AF0EE676A0022AA4203F110030DDA54
:1028F80013ED045A53ED035A13ED026A013276EED2
:10290800856A77EEA57A37EE067AEDE75D48CDED74
:10291800016ACDED027A8DED037AFFF785FA00247E
:1029280008AB234413ED077ADFED577A574B584825
:10293800B0EEC77AB4EEE77AF1EE10FAD8BF1846CF
:102948000434FFF771FA0C2CEAD1524874E020469F
:10295800514905220CF064F838B9504B0344103043
:10296800002280281A61F8D17BE020464C490422D5
:102978000CF056F80546204605BB20210CF03AF825
:1029880000286ED0461C30460CF041F82C4607460D
:10299800444B53F824500DB943484DE0304629467E
:1029A800FAB20CF03DF838B9204604F029F83F484F
:1029B800294605F045FC4CE00134E9E70BF0D0FF6F
:1029C800461E072E074648DC204620210CF012F848
:1029D800054650B1451C2846FFF79EF92F4B03EBDF
:1029E800071787ED000A012400E004462846202145
:1029F8000CF000F8054648B1451C2846FFF78CF94D
:102A0800264B03EB061383ED050A013428462021E3
:102A18000BF0F0FF054648B1451C2846FFF77CF946
:102A28001E4B03EB061383ED060A013428462021CA
:102A38000BF0E0FF18B91E48FFF7F6F911E0013076
:102A4800FFF76AF9154B032C03EB061686ED070A08
:102A5800F1D11848FFF700FF03E01748082105F0F7
:102A6800EFFB09B0F0BD00BFB3F300083C13002032
:102A7800DEF30008E4F30008C8EF000800000000D7
:102A880038130020E8F300080AD7233CAFF3000806
:102A9800ABF30008D8F20008F7F30008241300206D
:102AA800FDF3000824EE00089AF1000802F400087B
:102AB80015F40008E8F400084FF400082DE9F04781
:102AC800694B1A7886B0984642B90123674888F856
:102AD8000030FFF7A9F96648FFF7A6F9654D2869A0
:102AE80008F05CFBA946002800F0BB802869624C0E
:102AF80008F05AFB0928014601D03F2853D1002786
:102B0800D4F800A05D4E3D46BAF1000F05D05C48F0
:102B1800316852460BF084FF10B9374605B935467F
:102B2800584B0C369E42EFD3CDB1D5F800E0D7F81C
:102B380000C053461EF803601CF80300B04201D0E1
:102B480023600CE05A1C4E4930B92D2B04D820269E
:102B5800CE542260885402E0CE541346EAE7236834
:102B68001BB1BD4201D1554612E04748FFF75CF959
:102B7800BD4209D855F80C0BFFF756F9D9F81000E3
:102B8800092108F0FBFAF3E73948FFF74DF900256A
:102B980023689D42A2DA3A4BD9F81000595D08F033
:102BA800EDFA0135F4E723682BB9042836D1344807
:102BB800FFF7BEFA55E00C2801D1344889E70A2905
:102BC80001D00D2944D132482D4DFFF72DF9226847
:102BD8002A4903950023AB5404932E4B009303A872
:102BE80010220C230BF0C0FE064638B100680BF02B
:102BF8000EFF0130B3682844984702E02648FFF7E3
:102C080013F91F48002130220BF0DFFE0023236058
:102C180098F80030002B7FF45EAF22E00C28CCD06F
:102C28007F2903D15AE72F2B3FF658AFA1F1200295
:102C3800D2B25E2A3FF652AF13B920293FF44EAF05
:102C48005A1C22600E4A2869D15408F097FA45E7C1
:102C58007F29E8D1013B0A4A23600021D1540F485B
:102C68003AE706B0BDE8F087D807002077F40008F7
:102C7800AFF40008001700200C08002080EE0008C0
:102C8800D907002040EF0008B4F40008B9F40008A0
:102C9800D8F20008411F0008C4F40008E5F4000851
:102CA8000F4B1A78412A17D15A88B2F55A7F13D197
:102CB8001A79BE2A10D193F86623EF2A4FF0000044
:102CC8000CD113F8012B5040064A9342F9D1D0F1A8
:102CD800010038BF0020704700207047704700BFD0
:102CE80000F8030868FB030870B50546441E14F88D
:102CF800011F61B1064E30460BF07CFE0028F6D06D
:102D0800861B04483044631B80F8CD30EFE770BD64
:102D1800A80601082413002008B5FFF7C1FF10B961
:102D28000A20FEF795FB0C4B0C4918464FF45A72D3
:102D38000BF042FE90F86423022A84BF002280F838
:102D4800642390F86413D02202FB0101F431044893
:102D58000BF032FE08BD00BF2413002000F8030862
:102D6800541200202DE9F0472E4890F82050C47FD7
:102D7800002303FB03F11939694301F6C4115943D0
:102D880040F6C412614391FBF2F1274A22F813106E
:102D98000133072BEDD1254A90F82130B2F8906025
:102DA800B2F892A090F822E0C3F1640903EB830C17
:102DB8005C425FFA89F94FEA4C0CCEF16408C6EB25
:102DC8000A0AA4B20022A1B20FB2002F04DC002923
:102DD80014BF1D46012500E04D4611FB01F101FB22
:102DE8000EF115FB05F591FBF5F545440A217D43E8
:102DF80095FBF1F565442DB24FF47A7105FB0AF5A0
:102E080095FBF1F50A493544555202320A34182A1D
:102E1800A4B2D8D1007802F0EDFFBDE8F04700F089
:102E2800C5BB00BF54120020201800202413002026
:102E38004817002008B5FFF76FFFBDE80840FFF707
:102E480091BF0000F8B52E4B41221A704FF45A7208
:102E58005A80BE221A71EF2283F8662300220746A1
:102E680083F867231E4641B193F864032549D022AD
:102E780002FB0030F4300BF09FFD00221346B15CDA
:102E88000132B2F55A7F83EA0103F8D11C4A0025C2
:102E980082F8673307F0D8F8342007F0EBF81A48BF
:102EA80007F014F9042815D1174C331903F17843A6
:102EB800A3F57E332046196807F026F9042805D0C3
:102EC800013507F0CFF8032DE4D103E00F4B0434AC
:102ED8009C42EAD107F0C6F8032D02D0FFF7E0FEC6
:102EE80010B90A20FEF7B4FAFFF7A4FF37B10F2094
:102EF80014210122BDE8F84002F0DEBCF8BD00BF95
:102F0800241300205412002000F8030868FB03086B
:102F180038B505460C46FEF7CAFA28462146FFF79B
:102F280091FFBDE83840FEF7BFBA0000034B1B68AD
:102F380018420CBF00200120704700BF1008002075
:102F4800024B1A6810431860704700BF1008002031
:102F5800024B1A6822EA0000186070471008002027
:102F6800014B1868704700BF10080020034B9B688E
:102F780018420CBF00200120704700BF2413002016
:102F8800024B9A6810439860704700BF24130020D2
:102F98002DE9F3470446FFF783FE10B1002C00F03B
:102FA8007081B94AB94D10685168B94C6B4603C372
:102FB8004FF45A72002128460BF007FD0021D02259
:102FC80020460BF002FD4FF0410A032302206B71EB
:102FD80085F800A0FFF7D4FF0820FFF7D1FF4FF4D2
:102FE8001673A5F8B030FA23A5F8B2302A23A5F84D
:102FF800AE304FF4FA73A5F8B630202385F8B43014
:103008006E2385F8C9302B2385F8CA30212385F82B
:10301800CB3040F24C43A5F8D83040F26C73A5F899
:10302800DA3040F27E43A5F8903040F23A73002639
:103038004FF0010840F2DC51A5F892304FF4C87205
:103048004FF47A73A5F8D61085F86463A5F8B860CC
:10305800A5F8BA60A5F8BC6085F8A26085F8A360F9
:1030680085F8A460A5F8A660A5F8A860A5F8AA60E8
:1030780085F8AD6085F8AC8085F8CC6085F8D560BA
:1030880085F8EE6085F8EF6085F8F06085F8DC601B
:1030980085F8DD6085F8DE80A5F89430A5F89E20D7
:1030A8004FF4E132C5F8E4204FF4165240F27E5353
:1030B800C5F8E82040F6AC521E20A5F89630AA8143
:1030C80040F2EA531722A5F89830E07240F2B45360
:1030D80062752073A2750B2055222827A5F89A300F
:1030E800E27032232D2260714FF0080E1420A5F8EB
:1030F8009C30A5F8A03062732371A07184F810E0A9
:1031080085F8E06085F8E16085F8EC6085F8ED60A9
:10311800AE7385F8DF6026706770A770E675A673D2
:103128002676E6736676A27684F82130042384F83E
:103138002E30152384F83130564B6363564B607438
:103148004FF00E0E5020A363544B84F807E0E0764E
:103158004FF0640E5A20E363514B20724FF00A0976
:1031680084F81CE0E0774FF0780E23644D4884F82B
:103178001290192384F84530677284F80AE02275A2
:1031880084F81E8084F820A084F8236084F82460E2
:1031980084F82560E18484F822606685A685268502
:1031A80084F82F7084F8307084F84480FFF79CFD11
:1031B8004FF44873A4F87430C82384F8B9304FF436
:1031C8009663A4F8BA3040F2D933A4F8BC3084F836
:1031D800706084F8716084F8727084F8738084F881
:1031E800766084F8B89023464FF47F72A4F878206C
:1031F8004FF4FA62A4F87A2040F2DC52A4F87C205A
:103208001DF8062084F87E200136082E04F10804F3
:10321800EAD1012283F8BE2083F8BF2083F8C020BA
:10322800C82183F8C6206422A3F8C210A3F8C820D6
:1032380014214FF4967283F8C410A3F8CA201E21F3
:10324800282283F8C510A3F8CC20522385F86533CB
:103258000023EA1810330021802B1161F9D10024D2
:103268002819F4300A49D022D0340BF0A5FBB4F564
:103278001C7FF5D10020014602B0BDE8F047FFF7FA
:1032880047BE02B0BDE8F087BCED0008241300205B
:10329800541200209A99193FF6287C3F3D0A773F3F
:1032A8000000A040B1060108024B9A6822EA00001B
:1032B8009860704724130020014B9868704700BF3E
:1032C8002413002010B5044C002320702361FEF75E
:1032D80001F8606110BD00BF9016002007EE100ACB
:1032E800F8EEC77A9FED0A0A9FED0A7AF5EEC07AE2
:1032F800F1EE10FAD8BFF1EE677A87EE800A08B5CA
:1033080020EE070A09F096FB034B83ED000A08BD7F
:103318008096184B35FA8E3C0400002010B5121A1E
:1033280007EE902A5B1A2DED028BF8EEE78A07EE7E
:10333800903A184B059CB8EEE78AD3ED007A28EE50
:10334800278A28EE080AA8EEA80A09F03BFEDFED56
:10335800127A049B20EE270AF0EE480AFCEEC07AA7
:10336800B1EE680AC3ED007A09F086FCDFED0B7A4E
:103378009FED0B7AE0EE077ABDEC028BFDEEE77A63
:1033880017EE903A002BBCBF03F50C43A033236023
:1033980010BD00BF040000202C7D8E3F00A00C460D
:1033A800A00CB34507EE900AB8EEE77AD2ED017AA1
:1033B80027EE277AD1ED007AE7EE007A10B5C1ED55
:1033C800007A92ED037AF1EE476AFDEEE77AFDEEB8
:1033D800E66ABDEEC77A0C4617EE102A17EE900A79
:1033E80016EE901A05F088FC07EE100AF8EEC77A78
:1033F800C4ED007AFDEEE77A17EE900A10BD0000E2
:1034080030B5002213460E49CC5C0D469CB12E2CDB
:1034180004D1013378B11D4400242C54C95C0A241A
:103428006243A1F13004092C9CBF303A52180E2B8C
:1034380003D80133E7E7104630BD002030BD00BF98
:10344800D2080020F8B52C4B2C4C93F8E03013B17F
:10345800012B0AD04CE06278294B03EB0213294A6E
:103468005968506807F0A5FE3FE0264D686807F0E8
:10347800A5FE2E4600283BD02378012B1ED1FDF750
:1034880029FF6369C31A632B064633D92369042BC2
:1034980012D81B4F686807EB0313596807F089FEB9
:1034A8006378686807EB0317B96807F06CFE23694F
:1034B8006661013323611BE0022017E023693BB9F1
:1034C80062780F4B686803EB0213596807F071FEC6
:1034D80023690A4D8B2B08D80B4A7068D15C07F01A
:1034E8004DFE2B6901332B6102E00320FFF7EAFE52
:1034F80000236360F8BD00BF24130020901600204D
:1035080020080108001700209407010810B50B4C8B
:10351800E37A8BB10A4B1B78042B0DD9094A0A4B65
:10352800106852685A601860FFF7D8FE074B1A886F
:10353800074B1A800123237310BD00BF2A170020F0
:10354800DE170020C017002090170020FC1600206E
:10355800D008002010B5002213460E480E4C00215A
:1035680019520E4819520E4814441952002020606E
:103578006160A0600B4C1444023320606160A0605D
:10358800094C1444042B20606160A06002F114020D
:10359800E3D110BD7E0B00208808002044170020CE
:1035A8006017002040080020200900202B4BDFED89
:1035B8002C7A58792B4AD97B07EE100AB8EE477A4D
:1035C800987987EE277AF2EE046A82ED007A07EEA0
:1035D800101AB8EE477A2449D16087EE277A82ED2F
:1035E800017A07EE100AB8EE477A204A187CD160B3
:1035F80087EE267A82ED007A07EE100AB8EE477A4F
:10360800987E87EE277A06EE100A82ED017AB8EEE8
:10361800466A9FED177AD87986EE076A82ED026AC4
:1036280006EE100AB8EE466A124A587CDB7ED16074
:10363800C6EE266AC2ED006A06EE900AF8EE666AE1
:10364800C6EEA77AC2ED017A07EE903AF8EE677AED
:1036580087EE877A82ED027A704700BF5412002005
:103668000000C842B40800200000FA44FC0800200A
:1036780000007A4478080020F7B5074600200E4677
:10368800FFF720FE4FF48070FFF770FC08B3124D6F
:103698006E70FDF71FFE114BA86093F8E030002410
:1036A800A3426C600CBF01250325FFF77FFF0C4B7D
:1036B800009403EB061638462B462146726809F03B
:1036C80097F8084B5860012003B0BDE8F040FFF7B9
:1036D800F9BD03B0F0BD00BF9016002024130020F0
:1036E8002008010800170020F8B5194B1B78032B98
:1036F8002AD1184B4FF480529A619A61164C60682F
:1037080007F04CFD60B1134D606827684FF4805690
:103718002E8507F049FD0146384607F02FFDAE61BA
:1037280020680D4E07F03AFD0028E7D0094C4FF409
:10373800805596E88100258507F036FD0146384614
:1037480007F01CFDA561D9E74FF0FF30F8BD00BFB9
:1037580090160020000400480017002073B51A4C8A
:10376800036823600B686360184D0068184EFFF704
:10377800B5FD184B009395E8030094E80C000196FA
:10378800FFF7CCFD60686968134A33681360411A13
:1037980007EE901A1149206891ED007A2968104ABD
:1037A800F8EEE77A411A67EE877A1160FDEEE77A5C
:1037B800C2ED017A0B4A13600B4BB3F8C8200B4BD0
:1037C8001A8002B070BD00BFE8080020C0170020B2
:1037D800500900205C090020E408002004000020B3
:1037E800800900206009002054120020720900207E
:1037F80044F25063984203DDA0F50C40A0387047AE
:10380800034B9842BCBF00F50C40A030704700BF86
:10381800B0B9FFFF264BF0B51D68024600F110074E
:1038280014782B1911465E7806F00406013206F06A
:10383800FF036EB1BA42F3D10020F0BD1BB103EB18
:1038480083035B00DBB210F8012B303A1344DBB280
:103858000A1A022AF2DC002281420AD91AB102EBC2
:1038680082025200D2B210F8016B303E3244D2B21A
:10387800F2E72E2C0FD14C1C042000210A2671439C
:103888002678AF197F787F0702D530390134314463
:103898000138F3D100E0002106484243642000FBD0
:1038A800012106240448B1FBF4F100FB0310F0BD2C
:1038B8006002002040420F0080969800000000003F
:1038C8002DE9F04F984B2DED048B5B688BB0C3B995
:1038D800964C2378013B032B00F22686DFE813F091
:1038E800EA05EA050406ED05606807F05DFC904B03
:1038F80093F8E030012B044600F0D98008D3022B5E
:1039080006D0894C606807F049FC0028ECD1DFE755
:10391800242C07D1874A00231370874A1370874ADB
:103928001370C0E02C2C01D02A2C7FD1824E814FFD
:103938003278834B3D7800209854824AB5B919787B
:103948001570472968D15978502965D19978472940
:1039580040F0D985D978472940F0D585197941298A
:1039680040F0D1850121117000F0CDBD1278012AF7
:103978003AD1022D05D11846FFF74CFF724B18605B
:103988004AE0032D07D11B78532B45D16E4B1A689B
:1039980052421A6040E0042D05D11846FFF73AFF5D
:1039A800694B586038E0052D07D11B78572B33D168
:1039B800654B5A6852425A602EE0062D07D11A7894
:1039C800624B302A94BF00220122DA7224E0072DCC
:1039D80004D1FFF715FD5E4B18701DE0092D1BD1B2
:1039E800FFF70EFD5B4B16E0022A15D1072D0CD10F
:1039F8000120FFF705FD41F218434FF47A7258434E
:103A0800B0FBF2F3544A138006E0082D04D10120DC
:103A1800FFF7F6FC514B1880013500232A2C3D7026
:103A2800337037D14E4B01221A703CE00D2C4C4BB1
:103A380001D00A2C24D11A78F2B141490878497882
:103A4800A0F13002D2B2092A84BFA0F13702D2B263
:103A580002F00F021001A1F13002D2B2092A84BF8C
:103A6800A1F13702D2B2354902F00F0202440978B7
:103A7800D2B28C1A62426241002119707AB912E0FE
:103A88002D490A780E2A03D8501C08702C498C54EA
:103A98001B7843B9294B1A7854401C7003E0294B12
:103AA8001B78012B00D0002303F0010357E12D4BB5
:103AB80019780022082900F25181DFE801F00A058F
:103AC8001119275F7C95A000622801D1022205E028
:103AD8001A70B52C40F042811A7801321A703DE113
:103AE80003221A70204B1870204B1870204B0BE0E3
:103AF8001E4904221A701E4B0A7818782244D2B242
:103B08000A7002441A701B4B1C7027E117490522E2
:103B18001A70174B0A7818782244D2B20A700244F5
:103B28001A70154B1C8019E1001700209016002010
:103B3800241300207C090020C40800206908002004
:103B4800D2080020F0080020C01700202A17002003
:103B5800DE1700203C17002064170020DC0B002033
:103B6800480900201C09002064090020C50800201D
:103B7800C60800203C080020CE0800206249062222
:103B88001A70624B0A7818782244D2B20A7002443A
:103B98001A705F4B1A8802EB0424A4B2B4F5007FB4
:103BA80001D81C8003E000221A805A4B1A705A4A26
:103BB80000231380D3E05448544A017815782144EF
:103BC800C9B201702944117053490A88C72A9CBF99
:103BD80052488454013292B20A804D490988914270
:103BE80040F0BC80072279E708221A70464B1B7800
:103BF800834200F0B380474A00231370AFE01A7085
:103C0800424B1B78834240F0A980454B1B78062B1A
:103C180039D004D8022B12D0032B24D09EE0122BCB
:103C280044D0302B40F09A803C4B1A793D4B102AF7
:103C380088BF10221A701978384A002344E0374B9D
:103C4800394A59685160996811601A694FF47A7352
:103C580092FBF3F2354B1A80354B1A78354BDA72F2
:103C68000122354B20E02D4A537913F0010303D08C
:103C78001379D81E434243412D4A1370002B38D183
:103C88002C4AD37235E0254BDA7A12F0010203D0C0
:103C98009A7AD11E4A424A4125490A700AB92549E9
:103CA800CA7293F82F20254B1A7022E01B4B244927
:103CB8005A690A809A6942F2107392FBF3F2214B17
:103CC8001A800122204BEFE78B4202F10C0210DA36
:103CD8001E4812F8044C1C541D4812F8034C1C547E
:103CE8001C4812F8014C1C541B4814781C5401330E
:103CF800EAE711490B788BB3134B1A7872B3002299
:103D08001A700A7001232AE0C5080020C60800209E
:103D1800CE0800201C090020B00800208C090020D3
:103D28003C080020DF170020C01700203C170020A7
:103D3800700900202A170020CC080020DE17002078
:103D480064170020DC0B00206509002018170020EC
:103D5800AF170020C8170020101800200023002BE0
:103D68003FF4CFAD934CA368E360FDF7B3FAA060CE
:103D78002020FFF7E5F8904B904C1A78012A0CBFE9
:103D8800002201221A70E37A002B3FF4BAAD8C4B63
:103D98001B78042B7FF6B5AD637803B92373227BB8
:103DA80012B90BB1FFF7B2FB864B874D1A784FF06B
:103DB800050E013292FBFEFE0EEB8E0ECEEB020ECE
:103DC80083F800E0814B1B780293814B03EB8E0E46
:103DD8000023804A80499858DFF840827F4E585027
:103DE80090FBF8F1995103EB830A7D4EDFF830928E
:103DF80006FB010053F809705EF80A604EF80A00E5
:103E0800BF1B42F2107C90FBFCFC0526384443F8AB
:103E1800090090FBF6F008FB01017248195002985E
:103E28001FFA8CFC012803EB020B25F802CF16467B
:103E380006D1ACF1020CBCF5797F98BFCBF8001025
:103E48000433082BC5D1684F684DFDF743FA3B682A
:103E5800C01A07EE100AF8EE477A9FED657AC7EEAA
:103E6800877AA846C5ED007AFDF734FAD5ED007AD1
:103E78003860FDEEE77A06AA17EE903A012BA8BF44
:103E8800012307EE103AF8EEC77A5A4BC5ED007ACF
:103E9800009207AA019296E803000CCBFFF73EFABE
:103EA800069A554907986423B2FBF3F20A80534AED
:103EB80090FBF3F31380237B0BB90B8013805049DD
:103EC800504B0A78002A3DD0D5ED007A30681A6840
:103ED8007768DFF850E1B7EE007AC7EE277A821AE2
:103EE8004FF0020C07EE102AB8EEC77A5A6827EE90
:103EF800277ABA1ABDEEC77A17EE109A07EE102A7B
:103F0800414AB8EEC77AD2ED006A404A27EE267ACF
:103F1800B2F9020067EE277AFDEEE77A17EE907A9B
:103F280000FA87F7B2F9000000FA89F097FBFCF76E
:103F380090FBFCF0BFB280B2AEF80270AEF80000A1
:103F48005780108001220A703068716859601860C3
:103F5800237A23B9194BDB79002B3FF4D2AC2C4CD4
:103F6800DFF8C4A02B4FCDF800A0019794E80C000F
:103F7800FFF7D4F961687268274B8A1A07EE902A0E
:103F8800214A216892ED007A3268F8EEE77A8A1AB7
:103F98001A600E4A67EE877A92F90020FDEEE77AFA
:103FA800012AC3ED017A994640D0022A00F0FE802A
:103FB800A7E400BF901600207C0B00202A170020E1
:103FC800DE17002088090020F60800200B0B0020CF
:103FD80014080020C01700206809002010090020DC
:103FE800806967FF6C080020F40800200C09002095
:103FF80000007A44901700208C17002098170020A2
:10400800680800207409002004000020C808002067
:10401800E8080020500900208009002080969800B8
:1040280054090020180900205C090020944F00263C
:1040380059F81600934BDFF884C2934C59F81620B0
:1040480098ED000ADFF878A207EE900AB8EEE77A52
:10405800D3ED007A36F80C3067EE277A3946FDEE54
:10406800E77A17EE900AC01A884B80B2F05200B275
:1040780007EE900AB8EEE77AD4ED007ACDF80CC0D6
:1040880067EE277A1044FDEEE77A224617EE905A3B
:10409800FFF788F9ADB2D8ED008A97ED028A94ED62
:1040A800029A59F816B0284426F80A0018EE900A21
:1040B800FCF7CAF9044618EE100A0D46FCF7C4F9D5
:1040C800734BCDE9040193F8C40007EE100AB8EE6B
:1040D800477A17EE100AFCF7B7F967A3D3E900236C
:1040E800FCF706FA02460B4600206A49FCF72AFB51
:1040F80022462B46FCF74AF802460B46204629463C
:10410800FCF720FB7B68C3EB0B0307EE103AF8EED5
:10411800C77A0446C7EEA88A0D4678EEC88A18EE14
:10412800900AFCF791F902460B4620462946FCF70F
:10413800DFF90B460246DDE90401FCF727F8FCF736
:1041480071FC07EE900A69EE277A3861FDEEE77A8E
:10415800B860C7F804B017EE900A4F494FF4FA62F6
:1041680004F0CAFDDDF80CC04C4936F80C30313388
:104178009BB2622B36F80A3098BF0020184480B2F0
:1041880026F80A0040F6B83200B204F0B5FD444BF8
:104198002AF806000A2202FB0633023657F8142BC7
:1041A8001A60042E7FF444AFFFF7ABBB384BDAF844
:1041B8000060B3F9CA8073089845A8BF9846394B80
:1041C8001A881FFA88F80FFA88F011B288420EDDB3
:1041D80095ED007ADFED347A67EE277AFDEEE77A1F
:1041E80017EE908A90441FFA88F8A3F800802F4BA6
:1041F8003C681F68E71B3846FFF7FAFA002841F2C7
:10420800931201DD904201E043429342CCBF002368
:1042180001239FED278A274D002B53D007EE907A74
:10422800B8EEE70A20EE080A08F08AFC07EE106AE2
:10423800F8EE477A204B194920EE270A40F6B832A3
:10424800BDEEC00A10EE100A80B2188000B204F069
:1042580053FD48F6A0432044984203DDA0F50C40E6
:10426800A03804E00028BCBF00F50C40A03028604E
:1042780029E000BFAFF30080182D4454FB211940FA
:1042880040080020B4080020FC0800204A0900204B
:10429800541200200000F03F30F8FFFF48F4FFFF01
:1042A80020090020720900200000C842600900208F
:1042B800D3023739E40800207408002018090020C8
:1042C800601700202C602B689D4FC3F50C532833D2
:1042D80007EE103AF8EEC77A002627EE888AB0EE85
:1042E800480A08F0A7FB8DED090AB0EE480A08F065
:1042F80027FC8DED080A934A934CB25E9349944D7E
:10430800DFF888A207EE902A0FFA88F20AA807EECB
:10431800102A00EB460353ED026AB8EEC77AF8EEAE
:10432800E77A4FF47A72D6EE877AFDEEE77A17EEDF
:10433800900A80B2305300B204F0DEFC80B23053F1
:1043480000B207EE900AB8EEE77AD5ED007A9AED5A
:10435800000A67EE277A2A46FDEEE77A394617EE15
:1043680090CA1FFA8CFCCDF80CC0FFF71BF8DAEDE9
:10437800008A97ED028A36F9049095ED029ADFF8E3
:1043880010A2834618EE900AFCF75EF8044618EE71
:10439800100A0D46FCF758F8CDE904019AF8C40054
:1043A80007EE100AB8EE477A17EE100AFCF74CF839
:1043B80061A3D3E90023FCF79BF802460B460020D3
:1043C8006449FCF7BFF922462B46FBF7DFFE02469D
:1043D8000B4620462946FCF7B5F97B68C3EB090371
:1043E80007EE103AF8EEC77A0446C7EEA88A0D46DB
:1043F80078EEC88A18EE900AFCF726F802460B46B3
:1044080020462946FCF774F80B460246DDE904010C
:10441800FBF7BCFEFCF706FB07EE900A69EE277A6D
:10442800DDF80CC03861FDEEE77AB86017EE900A47
:10443800E344494CC7F80490584480B2305340F6DE
:10444800B83200B2454904F057FC454BA0530A2244
:1044580002FB0633023657F8142B1A60042E534613
:104468007FF449AF93F8C62032B13E4A11686422FE
:1044780091FBF2F13C4A11803C4AB3F8C230126811
:104488009A420ED93A4B18683A4B1B68C01AFFF784
:10449800AFF942F210730028B8BF404298427FF744
:1044A80030AA354B01221A70344B1A882E4B1A80C9
:1044B800FFF727BAFEF7C6FF36E06368013363608B
:1044C80063780133DBB20522B3FBF2F202EB82021E
:1044D8009B1A6370FCF7FEFE294AA0600023137044
:1044E800284A0120D3720BE0FCF7F4FEA36840F6DB
:1044F800C412C01A904217D92020FEF729FD0420C3
:10450800FEF7E0FE10E09B781F49522B7FF484AA47
:10451800CB784D2B7FF480AA0B79432B7FF47CAAB0
:1045280002231370FFF778BA0BB0BDEC048BBDE81B
:10453800F08F00BFAFF30080182D4454FB211940C1
:1045480020090020180900204A09002018FCFFFF54
:10455800780800200000F03F6017002048F4FFFFB3
:1045680040080020E4080020781700205C0900209B
:1045780050090020600900200B0B0020D008002003
:10458800DE1700202A170020D20800200C0900207E
:1045980054120020AFF3008038B5334D2DED048B55
:1045A800D5ED008AB0EE680A044608F043FAB0EE8A
:1045B800408AB0EE680A08F0C3FA95ED019AF0EE69
:1045C800408AB0EE490A08F035FAF0EE409AB0EEAB
:1045D800490A08F0B5FAD4ED017AD4ED026A67EE1B
:1045E800A80AB0EE407A60EE870A28EEE60A66EE80
:1045F800876A94ED007AE7EE290AA7EE880AE6EEC4
:10460800880A08F039FBDFED197A60EE277A17EE91
:10461800900AFBF719FF12A3D3E90023FCF792F8DD
:10462800134B044618680D46FBF70EFF02460B466F
:1046380020462946FBF7AAFD00220E4BFCF782F81C
:10464800FCF7F0F900EE100A08F030FABDEC048B24
:1046580083B21A0444BF00F5B4739BB218B238BDD4
:10466800182D4454FB210940B00A00200000E14401
:10467800840A00200000244038B5434C0820258DCA
:10468800FEF754FC414BC8B129B2642291FBF2F009
:1046980002FB101212B207EE102AF8EEC76A07EEF4
:1046A800100AF8EEC77A9FED3A7AE6EE877AB2EE0C
:1046B800047A67EE877AC3ED007A01E000221A6077
:1046C80094F84500334DFBF7ADFE29A3D3E9002349
:1046D800FBF70EFFFCF7A6F900EE100A08F0AAF99E
:1046E8002B8807EE903AF8EEE77A27EE800A08F072
:1046F800DDF92D889FED287A284B07EE905AF8EEC1
:10470800E77A1880C7EE277A254B9FED267AC7EE01
:10471800877A9FED257AC3ED007AB4F8743007EEF6
:10472800903AF8EEE77A87EE277A17EE100AFBF749
:104738008BFE11A3D3E90023FBF7DAFEFCF772F92D
:104748001A4B1860206CFBF77FFE0DA3D3E90023FA
:10475800FBF7CEFE0B46024615490020FBF7F2FF99
:10476800FCF760F9134B186038BD00BFAFF3008049
:10477800399D52A246DF913F3B597E90A9E781407F
:10478800182D4454FB21094054120020840A0020AB
:104798008988883C380100200AE81C41E80A002082
:1047A800C016002000401C4600006144E4160020AA
:1047B8000000E03FEC16002090ED010A90ED007A31
:1047C800D0ED027A20EE000A38B5A7EE070A0446B3
:1047D8000D46A7EEA70A08F0F5FBB5EE400AF1EE84
:1047E80010FA11D0D4ED007AC7EE807AC5ED007AC0
:1047F800D4ED017AC7EE807AC5ED017AD4ED027A5C
:1048080087EE800A85ED020A38BD38B52DED0A8B92
:1048180091ED008A90ED00AAD0ED01AA90ED029AE0
:10482800B0EE480A04460D4608F004F9F0EE409A46
:10483800B0EE480A08F084F995ED018AB0EE40BA66
:10484800B0EE480A08F0F6F8F0EE408AB0EE480AF2
:1048580008F076F995ED02CAB0EE408AB0EE4C0A3F
:1048680008F0E8F8F0EE40BAB0EE4C0A08F068F943
:104878006BEE005A2BEEA97AB0EE655AA7EE485AAD
:10488800A5EEC87A20EE296A6BEE2B7A2AEE877A93
:1048980028EEC00AF0EE466AE7EE886AAAEE007AC9
:1048A800E6EE087A6BEEA8BAA9EE277A6BEE687A7C
:1048B8006AEEA66A6AEEA77AEAEE2B6AEAEE087A48
:1048C80068EEA98AE9EE056AE9EE287ABDEC0A8B5A
:1048D800C4ED006A84ED017AC4ED027A38BD0000A7
:1048E8002DE9F04106EE900A2DED028B5E4BDFEDCF
:1048F8005F7A5F4DB8EE668A86B028EE278AD3EDD8
:10490800007AF1EE677ACDED007AD3ED017A594B52
:10491800B3F90030F1EE677ACDED017A07EE903AFF
:10492800F8EEE77A0746F1EE677A17EE900AFBF79A
:104938008BFD4BA3D3E90023FBF7DAFDFCF772F8F4
:104948004D4B0290B3F9002007EE902AB3F90220EC
:10495800B3F90430F8EEE77A03A8CDED037A07EE51
:10496800902AF8EEE77A6946CDED047A07EE903A98
:10497800F8EEE77ACDED057AFFF747FF95F8443072
:10498800DDED057A012B1BD13C4B5A783C4B72B9B3
:104998001A68402192FBF1F1511A07EE101AB8EE8D
:1049A800C77A37EE277ABDEEC77A83ED007A1A68A0
:1049B800402392FBF3F306EE903AB8EEE67A05E070
:1049C800304B1B8807EE103AB8EEC77A2E4B2F4EA5
:1049D8002F4C9DED030AD4F8008077EEC77A93ED4B
:1049E800007ACDED057A38EE077AD6ED007A88EEB2
:1049F800078A9DED057A37EE677AE8EE077AC6ED05
:104A0800007A08F053F895F8301004F07DF99DED20
:104A1800040A40442060D4F8048008F047F895F868
:104A2800301004F071F996ED000A40446060D4F843
:104A3800088008F03BF895F82F1004F065F9154B3D
:104A48001A6817441F60144B1A6840440132A0606A
:104A58001A6006B0BDEC028BBDE8F081AFF30080B0
:104A6800399D52A246DF913FB00A0020BD378635F6
:104A780054120020FC160020DC1600202A17002003
:104A88005C0A002038010020EC160020D80A00201B
:104A9800B4160020D40A0020A80A0020AFF3008032
:104AA8002DE9F0472DED028B84B004F06FF8022059
:104AB800FEF73CFAC24DC34C002800F0578103F0C2
:104AC80047FFFCF7EDFBC04BC04F1968C04A1860A0
:104AD800C1EB000A07EE90AABE4997F82E00B8EE7F
:104AE800676AD1ED037A002326EE276A19460DF18D
:104AF800040E0EEB430635F903E007EE90EAF8EEF4
:104B0800E77A67EE867AC6ED007AB34EE0B107EE33
:104B1800900AB8EEE77AF7EE006A86EE877A34F9FB
:104B280003E007EE90EAF8EEE77A67EE877A36EE6A
:104B3800C77AD2ED006AE6EE877AC2ED007AFDEE1A
:104B4800E77A17EE90EA01E034F803E026F803E08C
:104B580036F803E00233062B1EFB0E1102F10402A5
:104B6800C5D19E4B9E481B88DFF8A0826424614310
:104B78005B4391FBF3F4493CA4B201A9FFF745FE5E
:104B88003B2C974C68D9974BD4ED020AB3F9003007
:104B980094ED010A944EDFF8809207EE903AF8EE11
:104BA800E77A924BF4EEE70AF1EE10FAD4BF00224E
:104BB80001225A7308F060F894ED027AD4ED017A74
:104BC80086ED000A27EE070A94ED008AA7EEA70AE9
:104BD80008F0F8F9B1EE488AF0EE400AB0EE480A5B
:104BE80008F04AF8306886ED010AFBF72DFC70A33F
:104BF800D3E90023FBF77CFCFBF714FF00EE100A57
:104C080007F054FFA9F800007068FBF71DFC68A3C3
:104C1800D3E90023FBF76CFCFBF704FF00EE100A56
:104C280007F044FFA9F802000820FEF77FF90028E2
:104C380045D06F4801A9FFF7E8FDB8F8B2806C4A83
:104C480007EE108AB8EE477AF7EE007A37EE276A51
:104C5800002387EE866A1FE0B8F8B01007EE101A36
:104C6800B8EE477AF7EE007A37EE276A224687EEE3
:104C7800866A002336F903E00233062B07EE90EA32
:104C8800D2ED006AF8EEE77AE6EE877A67EE866A92
:104C9800E2EC016AEED176E75649D2ED006A595E38
:104CA80007EE901AF8EEE77A0233E6EE877A062BDB
:104CB80067EE866AE2EC016AEED14D4808E04E489C
:104CC80001A9FFF7A2FD4C480146FFF775FD4A48C8
:104CD800FFF762FC494B18805046FFF701FE97F832
:104CE8007630002B45D094ED010AD4ED007A94ED8E
:104CF800028A434C20EE000AA7EEA70AA8EE080A8B
:104D080008F060F988EE000ADFED3E7AB4EEE70AB3
:104D1800F1EE10FA02D8002323802AE007F04EFFB4
:104D2800394BD3ED007A20EE270A07F0BFFEB0F525
:104D3800617FA8BF4FF46170FBF774FB1EA3D3E932
:104D48000023FBF7FFFCFBF76DFE00EE100A07F0EF
:104D5800F7FE1E4B93F8763007EE903AF8EEE77AB6
:104D680027EE800A07F0A2FE208002E02080608003
:104D7800A080264B5B79012B254B0DD1254AB5F92F
:104D880004001488022114FB0101032091FBF0F1B7
:104D980089B29980118001E0AA889A802A881A80AD
:104DA8006A885A8004B0BDEC028BBDE8F08700BF6A
:104DB8003B597E90A9E78140A2EB0FE5DD169640AE
:104DC800AC160020C4160020C00A0020541200208F
:104DD800640A002070180020DC160020380100202A
:104DE800F0160020E80A0020B00A00202A17002048
:104DF800DC0A0020D01600200C000020FC16002041
:104E0800BC0A00208FC2753CE41600202413002041
:104E1800700A0020A60A0020760A0020AFF300805E
:104E2800044A0023136053609360034A1360034AE3
:104E380013607047B4160020A80A0020D40A002086
:104E48002DE9F0472DED048BFCF72AFABE4B1A68C2
:104E5800C2EB000A46F2A712924540F2FC81BB4E13
:104E680018603388DFF86093B94C9FEDBA9ADFF881
:104E78005C83DFEDB98AB94DB94FB7EE008A4BB301
:104E8800B84994F83130D9F800000A68DFEDB60A5D
:104E9800013BB0FBF3F0082392FBF3FECEEB0202DA
:104EA800024492FBF3F306EE103AB8EEC60A0A6023
:104EB80080EE090A07F0E2FE00232B603B6033888E
:104EC800013B338038EE400A20EE280ABDEEC00AC6
:104ED80088ED000A94F83130D9F80020DFEDA20AF5
:104EE800A24E013BB2FBF3F306EE903AB8EE660A27
:104EF80080EE090A07F0C2FE38EE400A20EE280AC2
:104F080007F0D4FDD8F80030D4ED0D7A96ED006A9C
:104F1800C01A06EE900AB8EEE60A78EE676AB8EEAE
:104F2800C67A20EE260AA7EE270A07F0BFFD904BA7
:104F3800B3F90010B3F902200029B8BF4942002A8A
:104F4800B8BF52429142A8BF0A468A4992B20A8023
:104F580012B2FA2A9846884B03DD4FF0FF321A60E6
:104F680013E093ED007A07EE902AF8EEC76AB8EEE0
:104F7800E77ADFED827A37EEC77A26EE877AC7EED0
:104F8800277AFDEEE77AC3ED007A1B687C495A1E42
:104F9800C62A03D8C01A0860336025E00968002BC8
:104FA800C1EB000030601FDDC3F5967107EE101AE3
:104FB800DFED747A7449B8EEC77A06EE103A87EED8
:104FC800277A6A4BF8EEC66A06EE100AF8EEC67A39
:104FD80038EE476A81ED007A67EE867AE6EE877AE0
:104FE800FDEEE77AC3ED007A684BDFED695AD3ED41
:104FF800007A684B94ED0F6AD3ED026A664B93ED25
:10500800007A664BF8EEE66AB8EEC77AF8EE677A89
:10501800C6EE878AC62A93ED007AD5ED006A336812
:1050280028EE877A67EEA55A27EE277AB6EE005A59
:1050380066EEA57A27EE055A36EE877AE5EE257AEA
:10504800D7ED005A85ED007A77EEA55A07EE903A2B
:10505800B8EEE75A78EE467A65EE277AE5EE867A74
:10506800C7ED007A88BFFDEEE77A4D4F94BF3B60ED
:10507800C7ED007AFFF7D4FE4A4A336811689FEDFE
:105088004A7A1360591A07EE901A06EE10AAF8EE3B
:10509800E77A40F2DC5267EE877AB8EE467A4349FF
:1050A800C7EE877AFDEEE77A17EE900A03F024FE42
:1050B8000A2103F029FED4ED0E7A95ED007A06EE6A
:1050C800900A38EE678AB8EEE60A20EE080AA7EEDC
:1050D800270A85ED000A07F0E9FC0521064603F0DA
:1050E80013FEB8F80020324B324D186002F21F321E
:1050F80092B240F23E639A42DFF8D48000F2A58073
:105108001B4A528802F21F3292B29A4200F29D80E4
:10511800294B1B78002B5DD1284B294918683B681F
:105128004FF4FA72C01A03F0E7FD0A2103F0ECFD10
:10513800074B24491B798022584390FBF2F04FF427
:10514800967203F0D9FD47E0C40A0020C00E002083
:105158005412002080E6C547D048874A600A0020DC
:10516800880A0020540A0020B1DC423E7C0A002054
:10517800760A0020E816002008000020000061449C
:10518800C80A00200000C842980A0020D40A00205B
:10519800BD378635B4160020A80A0020C0160020A6
:1051A800CC160020D00A00200024744924FAFFFFFE
:1051B800CC0A00209C0A0020EA0A0020D816002009
:1051C8000CFEFFFFD4FEFFFFAC0A0020800A00207F
:1051D800580A0020224B1868871BA07A2149224EC2
:1051E8002023784390FBF3F04FF4967203F084FD8C
:1051F80033682860207D1D491D4A07FB0030306058
:1052080003F07AFDA47F98ED007A306007EE904AAB
:1052180038EE877AF8EEE77A2B6867EE877A9FEDA3
:10522800157A67EE877A42F20406FDEEE77A90FB7C
:10523800F6F61E4417EE900A6FF0950196222E603E
:1052480003F05AFD301A286001E000232B60C8EDF6
:10525800008A012000E00020BDEC048BBDE8F08747
:10526800B80A0020D4FEFFFF8C0A0020E0FCE6FF0D
:10527800200319000000003B30B5854C854D87B0F0
:105288000020FDF785FEFDF7D5FDA07B003018BF97
:105298000120FCF73BF8FCF7D3FA0F20FDF750FE8E
:1052A80005F00AFD286003F017FA0120FDF73EFE1D
:1052B80010B90320FCF7CCF80023774A40F2DE51FE
:1052C80099520233242BF8D1744B754A1A6008207E
:1052D8002875FDF74BFEB8B194F8D530042B13D8D8
:1052E800DFE803F00303070B0F006C4803F026F90F
:1052F8000AE06A4803F016F806E0684803F09CF9EB
:1053080002E0664802F0CCFF4FF40060FDF72EFE85
:1053180010B1644803F0DEFC4FF48070FDF726FE00
:1053280078B1AB685F4A604894F8E110002B08BF79
:105338001046EB6802F57442002B18BF1046FEF7C2
:105348009BF902F045F801F0CFFAFFF795F994F8C8
:10535800CC3033B103F0F702012A02D18DF80430C2
:1053680004E000238DF8043084F8CC3001A8FBF762
:10537800A9FB63790E2B01D0082B01D1012300E092
:1053880000234FF480708DF80C30FDF7EFFD08B95D
:10539800002308E00820FDF7E9FD0028F8D0AB68F5
:1053A800003318BF01234FF480308DF80730FDF724
:1053B800DDFD8DF808000120FDF7D8FD18B908209B
:1053C800FDF7D4FD00E0012000F001008DF8050094
:1053D8000820FDF7CBFD00238DF8060020208DF86E
:1053E8000430FDF7C3FD20B96379591F4B424B4187
:1053F80000E001238DF80930AB7D8DF80B3063791F
:105408005A1E534253418DF80A30B4F89E30ADF815
:105418000E30B4F8A030ADF810304FF480404FF49F
:105428007A73ADF81230FDF7A1FD20B1184BB3F82F
:105438009A30ADF81230BDF80E30B3F5FA7F84BF5C
:105448000023ADF81230B4F8D630ADF81430174B4D
:1054580001A8B3F8BC30ADF8163005F0BFFDFBF776
:105468001FFF134B18606379052B03D1114B4FF4C1
:10547800C8721A80104B4FF47A721A800F4BC822E8
:105488001A800F4B01225A7300F0C2FCFCE700BFE0
:105498002413002000170020E6170020640B0020CA
:1054A800395D0008004400400048004054120020C4
:1054B8005C0B00205C0E0020C80E0020C00E0020EF
:1054C8002A17002008B5064BB3F9940001F044FBF5
:1054D800044B4FF480521A854FF480621A85FEE718
:1054E8002413002000040048024B5A780AB1002215
:1054F8005A7070472A1700202DE9F04F854BB3F9F1
:105508000220B3F9003087B0002AB8BF5242002BFE
:10551800B8BF5B4200249A42B8BF1A460492254697
:10552800A04627460394A2462646DFF800B29BF819
:1055380003301BB99BF80430002B3FD0022E3DD01E
:10554800754B7449B3F8B620744B485F5B5FDFF85E
:10555800E091514203EB400003F0CEFB704B99F809
:105568001C2035F903C005EB0903CCEB0000B3F9A7
:105578002A3000EB030C99F80800CDF808C000FBAE
:105588000CF064236FF00401514390FBF3F002EB3D
:10559800820203F0B1FB634BDDF808C06249824622
:1055A800E0580293604442F2107203F0A5FB029B9C
:1055B800E05099F812305843001303909BF80330D9
:1055C80023B15A4B1B790BB9022E3CD1584BDFF84B
:1055D80044B1DFF870813BF90570564906EB0309C1
:1055E80007EB870099F80130000190FBF3F0524B6C
:1055F800EA5E801A54F80820029310444FF47A5255
:1056080003F07AFB029B48F80400EB5E002BB8BF5E
:105618005B42B3F5207F08DC022E09D1BBF90430C8
:10562800002BB8BF5B42642B02DD002348F804302E
:1056380058F804207D2392FBF3F899F80B3003FB0C
:1056480008F84FEAA818394B1A79B2B1022E14D0CB
:10565800049BDDF81090DDF80CC0C3F5FA7209FB65
:1056680008F07B4302FB0A334FF4FA7102FB0C0289
:1056780093FBF1F392FBF1F208E0DB780BB1022E19
:1056880002D142463B4601E0039A53462A49DFF8D5
:10569800B8B0685A294935F90BC0715C25F80B0078
:1056A8000FFA80F90591DFF8A4B0CCEB0901DFF817
:1056B800A0C0009154F80B9054F80C10894400993C
:1056C800894454F80C1044F80B10009944F80C1055
:1056D800DFF880C016F80CC00CFB09F14FF0200C65
:1056E800DDF8149091FBFCF1521A10FB09F06FF0F1
:1056F8004F0190FBF1F00344013611481344032E87
:105708002B5204F1040405F102057FF40EAF07B033
:10571800BDE8F08F7A170020241300207E0B0020AC
:10572800760A00208C0B0020F0D8FFFF2A170020F3
:105738005412002080C1FFFF700A00200D180020BD
:1057480086170020F00A0020200B0020680B00209C
:10575800340B00200A1800202DE9F84F00242546B4
:105768002746022F464EDFF8408107D196F82430AD
:10577800B8F904201B3353435B1130E0414B38F92F
:105788000500EB5E404918444FF4FA7203F0B4FA8E
:105798003E4B7219EB5EB2F92A20C01A831807EE45
:1057A800103AF8EEC77AB2EE047AC7EE877A384A2A
:1057B800D378FDEEE77A17EE901A6BB996F8233096
:1057C80038F9050012791B3343431B113AB1B27CF7
:1057D800514303EB212302E0337A4B431B112D4A3B
:1057E800DFF8C8A035F90280DFF8C490BAF80000E5
:1057F80029493E44C8EB0308F27A54F8093096F870
:1058080001B000FB08F0C01202FB00304FF4001298
:1058180044F8090003F070FA204BDFF898C0E1580B
:1058280044F80380BAF8003044F809004FF6FF72D4
:105838001B09B2FBF3F3C1EB08015943184B54F8A9
:105848000C200BFB08FB54F8038044F80C804FEA4B
:10585800EB1B89110BEB603B4244707DE1500A441D
:105868005043104B01370BEB2020032FE85204F173
:10587800040405F102057FF474AFBDE8F88F00BF9A
:10588800541200207E0B00200CFEFFFF760A002039
:105898002A170020700A00200000E0FF4C0B0020AF
:1058A8000C0B0020861700207A170020820B00209E
:1058B800F00A0020FC0A00202DE9F04780468946BE
:1058C80092460026F3B2534517D20025EBB2434562
:1058D8000ED20B4CA38A9BB283F480534FF480679B
:1058E800A38248462785FBF706FD0135A761EDE74A
:1058F8003C20FBF700FD0136E4E7BDE8F08700BF78
:10590800000400480B4B1A880B4B52B99A7842B1E5
:105918005A786AB901225A70084B1A88084B1A80BB
:1059280070475B7823B90220FF210122FFF7C4BF2B
:10593800704700BFC80E00202A170020FC16002060
:10594800E4170020000000002DE9F04FB24BB3F936
:105958000600B24B2DED028BDA8C904285B00FDB3E
:10596800B0F5FA6F93F8254007DA811A4C43A2F58F
:10597800FA6294FBF2F4643403E0C4F1640400E0D6
:105988006424A74A93F82370B2F8D61092F9AC2091
:105998000091524292B293F8705093F8716093F864
:1059A800243002920021019703930A469A4BDDF8AE
:1059B800008031F903C0C8EB0C0303F2F31E40F278
:1059C800E637BE4503D8002BB8BF5B4201E04FF471
:1059D800FA73022ADFF854822CD025B1AB42CCBF2F
:1059E800C5EB03030023642793FBF7FEDFF878A2D7
:1059F8006FF0630B3AF81E900BFB0E3B0EF1010E95
:105A08003AF91EA00FFA89FECEEB0A0E0EFB0BFE2A
:105A18009EFBF7FECE4428F801E0DDF8048003FB86
:105A280008FE804B9EFBF3F33B449BB2634393FB1E
:105A3800F7F714E026B1B342CCBFC6EB030300234B
:105A4800DDF808E003FB0EF7A8F80470039F002BAD
:105A5800B8BF5B427B43734F93FBF7F764376F4BD9
:105A6800DFF8088202EB030E64239EF8019007FB1F
:105A780009F999FBF3F902F808909EF80B90DFF802
:105A8800F0819EF815E007FB09F999FBF3F907FB8C
:105A98000EF702F80890DDF8008097FBF3F3624FE9
:105AA800C445D355614F02DA7B5A5B427B520132BF
:105AB800032A01F102017FF479AF594E5B4CB6F825
:105AC800D8104FF4FA6203F017F9B6F8D8304FF44B
