:020000040800F2
:1000000000000220C1D40108E9EB0108B51601087F
:10001000F5EB0108FDEB010805EC0108000000000C
:100020000000000000000000000000000DEC0108CE
:1000300019EC01080000000025EC0108119A0008E5
:1000400079D5010879D5010879D5010879D5010854
:1000500079D5010879D5010879D5010879D5010844
:1000600079D5010879D5010879D5010879D5010834
:1000700079D5010879D5010879D5010879D5010824
:1000800079D5010879D5010879D5010879D5010814
:1000900079D5010879D5010879D5010879D5010804
:1000A00079D5010879D5010879D501087DE40108E1
:1000B0008DE401089DE40108ADE40108F18E00081B
:1000C000E58E000879D5010879D5010879D50108B0
:1000D00079D501080DA0000829A0000845A0000856
:1000E000DDE4010879D5010831EC010879D5010872
:1000F00079D5010879D50108CDE4010879D5010841
:1001000079D5010879D50108BDE4010879D5010840
:1001100079D5010879D5010879D5010879D5010883
:1001200079D5010879D5010879D5010879D5010873
:1001300079D5010879D5010879D5010879D5010863
:1001400079D5010879D5010879D5010865EC010850
:1001500079D5010879D5010879D5010879D5010843
:10016000098F0008FD8E000879D5010879D50108AE
:1001700079D5010879D5010879D5010879D5010823
:0801800079D5010879D50108C9
:1080000081F0004102E000BF83F0004330B54FEA49
:1080100041044FEA430594EA050F08BF90EA020FB6
:108020001FBF54EA000C55EA020C7FEA645C7FEA49
:10803000655C00F0E2804FEA5454D4EB5555B8BF6C
:108040006D420CDD2C4480EA020281EA030382EADD
:10805000000083EA010180EA020281EA0303362D6F
:1080600088BF30BD11F0004F4FEA01314FF4801C42
:108070004CEA113102D0404261EB410113F0004F54
:108080004FEA03334CEA133302D0524263EB43030B
:1080900094EA050F00F0A780A4F10104D5F1200EA9
:1080A0000DDB02FA0EFC22FA05F2801841F1000104
:1080B00003FA0EF2801843FA05F359410EE0A5F1D8
:1080C00020050EF1200E012A03FA0EFC28BF4CF009
:1080D000020C43FA05F3C01851EBE37101F00045BF
:1080E00007D54FF0000EDCF1000C7EEB00006EEBCC
:1080F0000101B1F5801F1BD3B1F5001F0CD3490856
:108100005FEA30004FEA3C0C04F101044FEA4452AC
:1081100012F5800F80F09A80BCF1004F08BF5FEA33
:10812000500C50F1000041EB045141EA050130BD13
:108130005FEA4C0C404141EB010111F4801FA4F1B6
:108140000104E9D191F0000F04BF01460020B1FA0B
:1081500081F308BF2033A3F10B03B3F120020CDA43
:108160000C3208DD02F1140CC2F10C0201FA0CF021
:1081700021FA02F10CE002F11402D8BFC2F1200C86
:1081800001FA02F120FA0CFCDCBF41EA0C0190403C
:10819000E41AA2BF01EB0451294330BD6FEA040485
:1081A0001F3C1CDA0C340EDC04F11404C4F1200270
:1081B00020FA04F001FA02F340EA030021FA04F382
:1081C00045EA030130BDC4F10C04C4F1200220FAD9
:1081D00002F001FA04F340EA0300294630BD21FA17
:1081E00004F0294630BD94F0000F83F4801306BFDD
:1081F00081F480110134013D4EE77FEA645C18BFD1
:108200007FEA655C29D094EA050F08BF90EA020F67
:1082100005D054EA000C04BF1946104630BD91EA5F
:10822000030F1EBF0021002030BD5FEA545C05D162
:108230004000494128BF41F0004130BD14F58004A1
:108240003CBF01F5801130BD01F0004545F0FE4115
:1082500041F470014FF0000030BD7FEA645C1ABF4A
:10826000194610467FEA655C1CBF0B46024650EA81
:10827000013406BF52EA033591EA030F41F40021AD
:1082800030BD00BF90F0000F04BF0021704730B533
:108290004FF4806404F132044FF000054FF0000108
:1082A00050E700BF90F0000F04BF0021704730B5C9
:1082B0004FF4806404F1320410F0004548BF40429E
:1082C0004FF000013EE700BF42004FEAE2014FEAF3
:1082D00031014FEA02701FBF12F07F4393F07F4FCE
:1082E00081F06051704792F0000F14BF93F07F4F00
:1082F000704730B54FF4607401F0004521F0004143
:1083000020E700BF50EA010208BF704730B54FF0C8
:1083100000050AE050EA010208BF704730B511F0CD
:10832000004502D5404261EB41014FF4806404F105
:1083300032045FEA915C3FF4DCAE4FF003025FEA87
:10834000DC0C18BF03325FEADC0C18BF033202EB0F
:10835000DC02C2F1200300FA03FC20FA02F001FA69
:1083600003FE40EA0E0021FA02F11444C1E600BF08
:1083700070B54FF0FF0C4CF4E06C1CEA11541DBFBB
:108380001CEA135594EA0C0F95EA0C0F00F0DEF886
:108390002C4481EA030621EA4C5123EA4C5350EA6B
:1083A000013518BF52EA033541F4801143F48013BC
:1083B00038D0A0FB02CE4FF00005E1FB02E506F04D
:1083C0000042E0FB03E54FF00006E1FB03569CF0A2
:1083D000000F18BF4EF0010EA4F1FF04B6F5007FA8
:1083E00064F5407404D25FEA4E0E6D4146EB06061A
:1083F00042EAC62141EA55514FEAC52040EA5E50A3
:108400004FEACE2EB4F1FD0C88BFBCF5E06F1ED84C
:10841000BEF1004F08BF5FEA500E50F1000041EB83
:10842000045170BD06F0004646EA010140EA020030
:1084300081EA0301B4EB5C04C2BFD4EB0C0541EA52
:10844000045170BD41F480114FF0000E013C00F367
:10845000AB8014F1360FDEBF002001F0004170BD8B
:10846000C4F10004203C35DA0C341BDC04F11404A4
:10847000C4F1200500FA05F320FA04F001FA05F230
:1084800040EA020001F0004221F0004110EBD370FD
:1084900021FA04F642EB06015EEA430E08BF20EA29
:1084A000D37070BDC4F10C04C4F1200500FA04F3CC
:1084B00020FA05F001FA04F240EA020001F000415E
:1084C00010EBD37041F100015EEA430E08BF20EAD1
:1084D000D37070BDC4F1200500FA05F24EEA020E19
:1084E00020FA04F301FA05F243EA020321FA04F048
:1084F00001F0004121FA04F220EA020000EBD370FF
:108500005EEA430E08BF20EAD37070BD94F0000FFE
:108510000FD101F00046400041EB010111F4801F32
:1085200008BF013CF7D041EA060195F0000F18BFE3
:10853000704703F00046520043EB030313F4801F1F
:1085400008BF013DF7D043EA0603704794EA0C0FD9
:108550000CEA135518BF95EA0C0F0CD050EA4106EF
:1085600018BF52EA4306D1D181EA030101F000416C
:108570004FF0000070BD50EA410606BF1046194694
:1085800052EA430619D094EA0C0F02D150EA0136A0
:1085900013D195EA0C0F05D152EA03361CBF1046E1
:1085A00019460AD181EA030101F0004141F0FE4180
:1085B00041F470014FF0000070BD41F0FE4141F404
:1085C000780170BD70B54FF0FF0C4CF4E06C1CEA04
:1085D00011541DBF1CEA135594EA0C0F95EA0C0FB9
:1085E00000F0A7F8A4EB050481EA030E52EA033574
:1085F0004FEA013100F088804FEA03334FF0805595
:1086000045EA131343EA12634FEA022245EA1115C1
:1086100045EA10654FEA00260EF000419D4208BF72
:10862000964244F1FD0404F5407402D25B084FEA1F
:108630003202B61A65EB03055B084FEA32024FF4CB
:1086400080104FF4002CB6EB020E75EB030E22BF28
:10865000B61A754640EA0C005B084FEA3202B6EBE8
:10866000020E75EB030E22BFB61A754640EA5C0097
:108670005B084FEA3202B6EB020E75EB030E22BF27
:10868000B61A754640EA9C005B084FEA3202B6EB28
:10869000020E75EB030E22BFB61A754640EADC00E7
:1086A00055EA060E18D04FEA051545EA16754FEA49
:1086B00006164FEAC30343EA52734FEAC2025FEA67
:1086C0001C1CC0D111F4801F0BD141EA00014FF0F6
:1086D00000004FF0004CB6E711F4801F04BF0143C7
:1086E0000020B4F1FD0C88BFBCF5E06F3FF6AFAEE3
:1086F000B5EB030C04BFB6EB020C5FEA500C50F173
:10870000000041EB045170BD0EF0004E4EEA1131F5
:1087100014EB5C04C2BFD4EB0C0541EA045170BDFC
:1087200041F480114FF0000E013C90E645EA060E40
:108730008DE60CEA135594EA0C0F08BF95EA0C0F6E
:108740003FF43BAF94EA0C0F0AD150EA01347FF4B6
:1087500034AF95EA0C0F7FF425AF104619462CE78D
:1087600095EA0C0F06D152EA03353FF4FDAE1046F0
:10877000194622E750EA410618BF52EA43067FF441
:10878000C5AE50EA41047FF40DAF52EA43057FF4D1
:10879000EBAE12E74FF0FF3C06E000BF4FF0010CDC
:1087A00002E000BF4FF0010C4DF804CD4FEA410C40
:1087B0007FEA6C5C4FEA430C18BF7FEA6C5C1BD00D
:1087C00001B050EA410C0CBF52EA430C91EA030F8E
:1087D00002BF90EA020F0020704710F1000F91EAEB
:1087E000030F58BF994208BF90422CBFD8176FEAB9
:1087F000E37040F0010070474FEA410C7FEA6C5C87
:1088000002D150EA013C07D14FEA430C7FEA6C5C8D
:10881000D6D152EA033CD3D05DF8040B704700BFB9
:108820008446104662468C461946634600E000BF07
:1088300001B5FFF7B7FF002848BF10F1000F01BDD9
:108840004DF808EDFFF7F4FF0CBF012000205DF8A4
:1088500008FB00BF4DF808EDFFF7EAFF34BF012029
:1088600000205DF808FB00BF4DF808EDFFF7E0FFC2
:1088700094BF012000205DF808FB00BF4DF808ED13
:10888000FFF7CEFF94BF012000205DF808FB00BF7A
:108890004DF808EDFFF7C4FF34BF012000205DF85C
:1088A00008FB00BF4FEA4102B2F1E04324BFB3F539
:1088B000001CDCF1FE5C0DD901F0004C4FEAC00257
:1088C0004CEA5070B2F1004F40EB830008BF20F03B
:1088D0000100704711F0804F21D113F13872BCBFF5
:1088E00001F00040704741F480114FEA5252C2F14A
:1088F0001802C2F1200C10FA0CF320FA02F018BF93
:1089000040F001004FEAC1234FEAD32303FA0CFCE5
:1089100040EA0C0023FA02F34FEA4303CCE77FEA74
:10892000625307D150EA01331EBF4FF0FE4040F4BE
:108930004000704701F0004040F0FE4040F400006D
:10894000704700BF80B483B000AF78600C37BD467D
:108950005DF8047B704700BF80B483B000AF03466E
:10896000FB71002318460C37BD465DF8047B704749
:10897000B0B58AB000AF57480D21002210F0B2FD0B
:1089800054480E21002210F0ADFD41F6FF73BB8369
:108990000323BB7707F11C034E48194600F0A4F8E7
:1089A0004FF6FF73BB8307F11C034B48194600F0D9
:1089B0009BF807F11C034948194600F095F807F1A8
:1089C0001C034748194600F08FF8464B3C1D1D46D6
:1089D0000FCD0FC495E8030084E80300032387F854
:1089E000233000237B6212E07B6ADB0007F1280260
:1089F000134453F8242C391D7B6ADB000B440433E9
:108A00001046194600F070F87B6A01337B6297F8D4
:108A100023207B6A9A42E7D82E480A21012210F0CF
:108A200061FD2E480621032210F05CFD2B48072132
:108A3000032210F057FD29480821032210F052FDAF
:108A400024480F21012210F04DFD2348032101226B
:108A500010F048FD1F480021022210F043FD1D4880
:108A60000121022210F03EFD1B480421022210F0D9
:108A700039FD19480521022210F034FD1648002165
:108A8000022210F02FFD14480121022210F02AFDCD
:108A900011480E21092210F025FD0F480E21032256
:108AA00010F020FD0C480821032210F01BFD0A489D
:108AB0000921032210F016FD08480921042210F0B4
:108AC00011FD04480821042210F00CFD2837BD4692
:108AD000B0BD00BF00000240000402400008024098
:108AE000000C02405418020880B588B000AF7860CE
:108AF00039600023FB6141E0FB69012202FA03F3C4
:108B00007B613B681B881A467B691340002B32D07F
:108B10003B681B88FB603B689B783B740123FB76BA
:108B20003B68DB78013B032B13D801A252F823F0FA
:108B3000418B0008478B00084D8B0008418B0008D3
:108B40000123FB7605E00023FB7602E00223FB769F
:108B500000BFFB7E7B740023BB743B689B789B0843
:108B6000DBB203F00C03DBB2FB7407F10C03786893
:108B7000194610F00DFCFB690133FB61FB690F2BFB
:108B8000BAD92037BD4680BD80B588B000AF344823
:108B90000521052210F0A6FC31480621052210F01F
:108BA000A1FC2F480721052210F09CFCE023BB61AB
:108BB00002233B7702237B770023BB770023FB77DD
:108BC00007F118032648194610F0E2FB0423BB61A5
:108BD00001233B7702237B770023BB770123FB77BD
:108BE00007F118031F48194610F0D2FB1D48042155
:108BF00010F05CFC1023BB6107F118031A481946FA
:108C000010F0C6FB1848102110F050FC174812F065
:108C1000C1F80023BB804FF48273FB8000233B81AB
:108C200002237B810123BB814FF40073FB81282346
:108C30003B8200237B820723BB823B1D0B481946E6
:108C400012F014F90948002112F090F907480121A7
:108C500012F050F9012318462037BD4680BD00BFF1
:108C600000000240000402400008024000300140C1
:108C700080B400AF064B1B889BB201339AB2044B01
:108C80001A804FF0FF331846BD465DF8047B7047ED
:108C90003C03002080B584B000AF0346FB714FF465
:108CA0007A73FB8109E0FB895A1EFA81002B04D1FB
:108CB000FFF7DEFF0346DBB226E01548022112F083
:108CC00075F90346002BEED0FB799BB2104819468C
:108CD00012F03EF94FF47A73FB8109E0FB895A1ECA
:108CE000FA81002B04D1FFF7C3FF0346DBB20BE090
:108CF0000748012112F05AF90346002BEED0044830
:108D000012F018F90346DBB218461037BD4680BD95
:108D10000030014080B586B000AFF860B9607A607D
:108D200046E0BB68002B04D0BB685A1CBA601B78B5
:108D300000E0FF237B754FF47A73FB8209E0FB8A26
:108D40005A1EFA82002B04D1FFF792FF0346DBB2D2
:108D500034E01C48022112F029F90346002BEED022
:108D60007B7D9BB21748194612F0F2F84FF47A73E4
:108D7000FB8209E0FB8A5A1EFA82002B04D1FFF71E
:108D800077FF0346DBB219E00E48012112F00EF91D
:108D90000346002BEED00B4812F0CCF803467B754F
:108DA000FB68002B04D0FB685A1CFA607A7D1A70AD
:108DB0007B685A1E7A60002BB3D1012318461837FE
:108DC000BD4680BD0030014080B584B000AF034691
:108DD000FB803748002112F08DF8354B1B88FB8152
:108DE000FB88102B2CD0102B06DC042B16D0082B64
:108DF0001DD0022B0DD050E0402B33D0402B02DC95
:108E0000202B26D049E0802B35D0B3F5807F3BD096
:108E100043E0FB8923F03803FB813EE0FB8923F02C
:108E20003803FB81FB8943F00803FB8135E0FB89B4
:108E300023F03803FB81FB8943F01003FB812CE016
:108E4000FB8923F03803FB81FB8943F01803FB8186
:108E500023E0FB8923F03803FB81FB8943F02003E7
:108E6000FB811AE0FB8923F03803FB81FB8943F087
:108E70002803FB8111E0FB8923F03803FB81FB8988
:108E800043F03003FB8108E0FB8923F03803FB81CA
:108E9000FB8943F03803FB8100BF054BFA891A8038
:108EA0000348012112F026F81037BD4680BD00BFEF
:108EB0000030014080B400AF034B1B889BB21846C2
:108EC000BD465DF8047B70473C03002080B400AFD2
:108ED000034B00221A80BD465DF8047B704700BF3B
:108EE0003C03002080B500AF00F05CF980BD00BFFE
:108EF00080B500AF00F0CEF980BD00BF80B500AFF7
:108F000000F050F980BD00BF80B500AF00F0C2F99D
:108F100080BD00BF80B500AF074B1B889BB20133FB
:108F20009AB2054B1A80054B1B68184600F01AFCD4
:108F30000023184680BD00BF4403002040030020EA
:108F400080B584B000AF7860F970BA707B7047F27A
:108F50003053FB60FB785B00DAB2374B1A70374B4B
:108F6000BA781A70364B01221A70364B00221A70EA
:108F7000354BBA691A60354BBA691A60344B7A7846
:108F80001A70344B01221A70334B00221A707B681E
:108F90009B889BB203F40073002B25D17B681B8850
:108FA0009BB203F48073002B18D100BF7B681B8831
:108FB0009BB203F40073002B05D0FB68013BFB6000
:108FC000FB68002BF2D1FB68002B03D1FFF7A2FF57
:108FD00003462DE07868012111F0FEF978684FF41E
:108FE0004071012211F076FA47F23053FB6000BF66
:108FF000184B1B78DBB2002B05D0FB68013BFB60F4
:10900000FB68002BF4D1FB68002B03D1FFF782FF34
:1090100003460DE0104B1B78DBB2002B0CBF002386
:109020000123DBB283F00103DBB203F00103DBB207
:1090300018461037BD4680BD480300204903002074
:109040004B0300204C030020500300205403002059
:109050004A030020470300204603002080B584B067
:1090600002AF7860F970BA707B70FA78BB78791CBF
:109070000091786811461A460123FFF761FF034605
:1090800018460837BD4680BD80B584B000AF786013
:10909000F970BA707B7047F23053FB60FB785B006D
:1090A000DAB2374B1A70374BBA781A70364B002247
:1090B0001A70364B01221A70354BBA691A60354B5B
:1090C000BA691A60344B7A781A70344B01221A70DC
:1090D000334B00221A707B689B889BB203F40073A9
:1090E000002B25D17B681B889BB203F48073002B77
:1090F00018D100BF7B681B889BB203F40073002B60
:1091000005D0FB68013BFB60FB68002BF2D1FB68DC
:10911000002B03D1FFF7FEFE03462DE07868012106
:1091200011F05AF978684FF44071012211F0D2F928
:1091300047F23053FB6000BF184B1B78DBB2002BAB
:1091400005D0FB68013BFB60FB68002BF4D1FB689A
:10915000002B03D1FFF7DEFE03460DE0104B1B781A
:10916000DBB2002B0CBF00230123DBB283F0010331
:10917000DBB203F00103DBB218461037BD4680BDF9
:1091800048030020490300204B0300204C0300202B
:1091900054030020500300204A030020470300200E
:1091A0004603002080B582B000AF374B1B689B8A16
:1091B0009BB27B607B6803F47063002B02D0334B5F
:1091C00001221A707B6803F4E063002B4BD02E4B16
:1091D0001B681B8B2C4B1B6818464FF480610022C8
:1091E00011F078F97B6803F40073002B3BD1264B18
:1091F0001B681B889BB203F40073002B33D1224BF6
:109200001B681B889BB203F48073002B1DD000BF2A
:109210001D4B1B681B889BB203F48073002BF7D196
:10922000194B1B681846012111F0F6F800BF164BC8
:109230001B681B889BB203F40073002BF7D1124B01
:109240001B68184600F08EFA0DE00F4B1B6818469D
:10925000012111F0E1F80C4B1B6818464FF44071E6
:10926000002211F037F9084B1B68074A1268928AEE
:1092700092B222F4706292B29A82054B00221A7066
:109280000837BD4680BD00BF4003002046030020D4
:109290004703002090B583B000AF984B1B689B8AB2
:1092A0009BB2FB71FB7903F00103002B51D0934B70
:1092B0001B68924A1268128892B222F4006292B23B
:1092C0001A808E4B1B681846012111F0E3F88C4B75
:1092D00000221A708B4B1B78DBB2002B25D08A4BF7
:1092E0001B78002B04D1894B1B78DBB2FF2B1CD1E0
:1092F000854B01221A70864B1B78DBB2022B09D1F9
:109300007E4B1B687D4A1268128892B242F400625A
:1093100092B21A80794B1A687E4B1B78DBB21046EA
:109320001946012211F098F8E8E1744B1A68794B5C
:109330001B78DBB210461946002211F08DF8734BF2
:109340001B78DBB2FF2B00F0D9816D4BFF221A7026
:10935000D4E1FB7903F00203002B6FD0BFF35F8FE2
:109360006B4B1B78DBB2012B25D1664B1B78DBB234
:10937000002B20D0644B1B78002B1CD05F4B1B684C
:109380001846002111F086F8BFF35F8F5B4B1B6816
:109390001B8B5A4B1B681846012111F03DF85E4BA0
:1093A00001221A70554B1B6818464FF48061012248
:1093B00011F090F841E0514B1B681B8BBFF35F8F9E
:1093C000534B1B78DBB2022B17D14E4B1B78DBB211
:1093D000002B12D04C4B1B78002B0ED0474B1B6838
:1093E0001846002111F056F8444B1B6818464FF4FC
:1093F0008061002211F06EF81FE0454B1B78DBB254
:10940000032B11D13F4B1B78DBB2002B0CD03E4B12
:109410001B78002B08D0394B1B6818464FF480612D
:10942000002211F057F808E0344B1B6818464FF43F
:109430008061012211F04EF860E15FE1FB7903F0F9
:109440000403002B00F0D480334B01221A702D4B03
:109450001B78DBB2002B00F095802B4B1B78002B88
:1094600000F090802A4B1B78DBB2022B3BD9234BB8
:109470001B681846002111F00DF8284B1A68204B84
:109480001B78DBB219460131C8B21D4908705BB2C6
:1094900013441A4A1268128A92B2D2B21A70174B47
:1094A0001B681846012110F0B7FF1B4B01221A70F0
:1094B0001A4B1A68124B1B78DBB219460131C8B23D
:1094C0000F4908705BB213440C4A1268128A92B2B8
:1094D000D2B21A70094B1B6818464FF48061012202
:1094E00010F0F8FF7AE00C4B1B78002B18D0034BE0
:1094F0001B681846012110F08FFF17E04003002081
:10950000580300204C030020590300204903002089
:109510004A030020480300205A030020540300207F
:10952000854B1B681846012110F056FF834B1A68C3
:10953000834B1B78DBB219460131C8B280490870F1
:109540005BB213447C4A1268128A92B2D2B21A7089
:109550007A4B1A687A4B1B78DBB219460131C8B2D4
:10956000774908705BB21344734A1268128A92B248
:10957000D2B21A70724B1B78DBB20133DAB2704B85
:109580001A702BE06F4B1B78002B04D16E4B1B78AD
:10959000DBB2002B18D06D4B1B78002B06D0664B2E
:1095A0001B681846012110F037FF05E0624B1B686D
:1095B0001846012110F010FF614B1B78DBB201331C
:1095C000DAB25F4B1A7009E05B4B1B681846012149
:1095D00010F002FF5B4B01221A70FFE700BF564BF1
:1095E0001B681B889BB203F48073002BF7D185E0C6
:1095F000FB7903F04003002B34D0504B1A68504BDA
:109600001B78DBB219460131C8B24D4908705BB214
:109610001344494A1268128A92B2D2B21A704C4B61
:109620001B78DBB21A46464B1B785BB203339A4277
:1096300007D1414B1B6818464FF48061002210F09F
:1096400049FF434B1B78DBB21A463D4B1B785BB29C
:109650009A4253D13A4B1B78DBB20133DAB2384B22
:109660001A704BE0FB795BB2002B47DA344B1B7866
:109670005BB2B3F1FF3F22D02F4B1A68354B19680C
:109680002F4B1B78DBB218460130C4B22C48047053
:109690005BB20B441B78DBB213822D4B1B78DBB221
:1096A0001A46274B1B785BB29A4227D1224B1B6884
:1096B00018464FF48061002210F00CFF1EE0204B92
:1096C0001B78DBB20133DAB21D4B1A701A4B1B68E0
:1096D000214A1278D2B21A82204B1B78DBB2002BBF
:1096E00004D11B4B1B78DBB2002B07D1124B1B683C
:1096F00018464FF48061002210F0ECFE104B1B78EE
:109700005AB2134B1B78DBB201339A4211D10D4B85
:1097100000221A700D4B1B78002B07D0064B1B68DC
:1097200018464FF44071002210F0D4FE0C4B00227A
:109730001A700C37BD4690BD400300205403002032
:1097400058030020590300204B0300205A03002037
:109750004A03002050030020490300204C0300204E
:109760004703002080B588B000AF78604FF4807365
:109770003B810323FB721223BB7207F108033148BC
:109780001946FFF7B1F94FF400733B810323FB72D5
:109790001223BB7207F108032B481946FFF7A4F9FF
:1097A0002948092104220FF09DFE264808210422A1
:1097B0000FF098FE254B7A681A6000F04BF8234BA7
:1097C0001B68184610F0CEFC07F10C03184610F089
:1097D000C5FD1E4B1B6818464FF44071002210F067
:1097E00079FE00233B824BF6FF737B824FF480436C
:1097F0003B83174BFB60154B1B681846012110F08B
:10980000CBFD124B1A6807F10C031046194610F0F5
:10981000E3FC49233B7700237B770023BB770123BD
:10982000FB7707F11C03184611F006F948233B7734
:1098300000237B7707F11C03184611F0FDF8203751
:10984000BD4680BD000002400008024040030020E9
:10985000801A060080B582B000AF4FF480733B8061
:109860000323FB701123BB703B4636481946FFF7B4
:109870003BF94FF400733B800323FB701123BB7053
:109880003B4631481946FFF72FF92E4B4FF48072B3
:109890005A832D4B4FF400725A830023FB711AE058
:1098A00002E00A2000F0C6F9264B1B6903F480731E
:1098B000002BF6D0234B4FF480721A830A2000F05D
:1098C000B9F9204B4FF480725A830A2000F0B2F9A4
:1098D000FB790133FB71FB79072BE1D91A4B4FF46C
:1098E00000721A830A2000F0A5F9164B4FF480721B
:1098F0001A830A2000F09EF9124B4FF480725A83AB
:109900000A2000F097F9104B4FF400725A834FF47D
:1099100080733B800323FB701223BB703B460948D6
:109920001946FFF7E1F84FF400733B800323FB7007
:109930001223BB703B4604481946FFF7D5F8083799
:10994000BD4680BD000002400008024080B483B0E4
:1099500000AF03463960FB7197F90730002B0BDA33
:109960000D49FB7903F00F03043B3A68D2B21201B0
:10997000D2B20B441A7609E0084997F907303A68E1
:10998000D2B21201D2B20B4483F800230C37BD4689
:109990005DF8047B704700BF00ED00E000E100E0EF
:1099A00080B582B000AF78607B68B3F1807F01D36F
:1099B000012311E00A4B7A6822F07F42013A5A6093
:1099C0004FF0FF300F21FFF7C1FF054B00229A60D7
:1099D000034B07221A60002318460837BD4680BD96
:1099E00010E000E080B584B000AF3B46184610F0B0
:1099F00095FD3A68044BA3FB02139A0C034B1A60C3
:109A00001037BD4680BD00BF83DE1B435C030020D2
:109A100080B400AF044B1B685A1C034B1A60BD4650
:109A20005DF8047B704700BF60030020B0B400AF56
:109A30000D4B1C680D4B9D680B4B1B689C42F7D16E
:109A40004FF47A7303FB04F2094B1B684FF47A71ED
:109A500001FB03F3591B064B1B68B1FBF3F31344E3
:109A60001846BD46B0BC70476003002010E000E01F
:109A70005C03002080B400AF034B1B681846BD4652
:109A80005DF8047B704700BF6003002080B584B0A0
:109A900000AF0346FB714D4B4FF47002C3F88820B2
:109AA0004B4B4B4A126842F001021A60484B0022AD
:109AB0009A60474A464B1B6823F0847323F4803333
:109AC0001360434B434A5A60414B414A126822F4A7
:109AD00080221A603E4B0022DA600EF091FC3B4B74
:109AE0004FF000629A60FFF77DFF3B4B1A683B4BDB
:109AF000A3FB02139B091846FFF752FF0120012127
:109B000010F0B4FD0220012110F0B0FD042001216D
:109B100010F0ACFD4FF48050012110F001FE012047
:109B2000012110F0FDFD0120012110F0DBFD0220DC
:109B3000012110F0D7FD0420012110F0D3FD4FF4D6
:109B40000000012110F0CEFD0820012110F0CAFD17
:109B50000220012110F0E4FD4FF40030012110F04B
:109B6000DFFD4FF48020012110F0DAFD40200121BB
:109B700010F0B8FD10F02EFE4FF4A06010F04AFF78
:109B8000FEF7F6FEFFF700F80023FB6014E0144B2D
:109B9000134A526982F400525A61192000F05EF8AB
:109BA000104B10221A83192000F058F80D4B102288
:109BB0005A83FB680133FB60FB68092BE7DD084B28
:109BC0004FF400525A831037BD4680BD00ED00E0CF
:109BD000003802401030002474010020D34D621080
:109BE000000802400000024080B582B000AF03468A
:109BF000FB710E4B4FF400525A830C4B0B4A5269C7
:109C000082F400525A61FB7940F2DB1202FB03F34B
:109C1000023B184600F022F8054B10221A83192047
:109C200000F01CF8024B10225A83E6E700080240BD
:109C30000000024080B584B000AF7860FFF7F6FE08
:109C4000F86000BFFFF7F2FE0246FB68D21A7B689D
:109C50009A42F7D31037BD4680BD00BF80B582B0B1
:109C600000AF786003E04FF47A70FFF7E3FF7B68A2
:109C70005A1E7A60002BF6D10837BD4680BD00BF62
:109C800080B483B000AF0346FB71FB79002B02D098
:109C9000054B064A1A60064B064ADA600C37BD4689
:109CA0005DF8047B704700BFFCFF0120EFBEADDE16
:109CB00000ED00E00400FA0580B500AF032015F0C8
:109CC000ABFA80BD80B500AF032015F093FA80BDDC
:109CD00080B586B000AF78600B46FB702B4B7B6184
:109CE0007B692B4A1A607B697A689A607B69294A8A
:109CF0005A617B69284A9A617B694FF48072DA6005
:109D00007B694FF480721A617B69244A9A6402234A
:109D10003B7302237B730023BB730123FB73FB782C
:109D200003F00203002B0CD04023BB601C4806212B
:109D300007220FF0D7FB07F10803194819460FF067
:109D400027FBFB7803F00103002B0CD08023BB60C2
:109D50001348072107220FF0C5FB07F1080310483D
:109D600019460FF015FB25233B7401237B74012357
:109D7000BB740123FB7407F11003184610F05CFE5E
:109D80007B6918461837BD4680BD00BF64030020BC
:109D900060460208480400204805002000100140E9
:109DA0000004024080B586B000AF78600B46FB70BF
:109DB000234B7B617B69234A1A607B697A689A60CE
:109DC0007B698022DA607B6980221A617B691E4A86
:109DD0005A617B691D4A9A617B691D4A9A64022314
:109DE0003B7302237B730023BB730123FB73FB785C
:109DF00003F00203002B0CD00423BB6015480221A2
:109E000007220FF06FFB07F10803124819460FF005
:109E1000BFFAFB7803F00103002B0CD00823BB60D2
:109E20000C48032107220FF05DFB07F108030948E6
:109E300019460FF0ADFA7B6918461837BD4680BD4C
:109E4000B00300206046020848060020C806002033
:109E5000004400400000024080B584B000AF78604C
:109E60007B689B6C1B889BB2FB60FB6803F0200344
:109E7000002B24D07B68DB6A002B09D07B68DB6A6F
:109E80007A68926C928892B2D2B21046984716E0E5
:109E90007B685A697B68DB6913447A68926C9288A4
:109EA00092B2D2B21A707B68DB6901337A68D268E9
:109EB000B3FBF2F102FB01F29A1A7B68DA61FB68EC
:109EC00003F08003002B27D07B689A6A7B685B6A6B
:109ED0009A4219D07B689A6C7B6899697B689B6A07
:109EE0000B441B78DBB21046194610F0DDFE7B6890
:109EF0009B6A01337A681269B3FBF2F102FB01F24B
:109F00009A1A7B689A6207E07B689B6C184640F25D
:109F10002771002210F0DAFEFB6803F00803002B23
:109F200006D07B689B6C18464FF4587110F016FFF2
:109F30001037BD4680BD00BF80B586B000AF7860E9
:109F40000B46FB702B4B7B617B692B4A1A607B694C
:109F50007A689A607B698022DA607B6940221A61A4
:109F60007B69264A5A617B69254A9A617B69254A41
:109F70009A6427233B7401237B740123BB74012360
:109F8000FB7407F11003184610F056FD02233B73D3
:109F900002237B730023BB730123FB73FB7803F065
:109FA0000203002B0DD04FF48063BB6016480A21DA
:109FB00007220FF097FA07F10803134819460FF02C
:109FC000E7F9FB7803F00103002B0DD04FF4006399
:109FD000BB600D480B2107220FF084FA07F108033C
:109FE000094819460FF0D4F97B6918461837BD4661
:109FF00080BD00BFFC030020604602084807002027
:10A00000C8070020004800400004024080B582B02C
:10A0100000AF044B7B607868FFF71EFF0837BD4632
:10A0200080BD00BF6403002080B582B000AF044B48
:10A030007B607868FFF710FF0837BD4680BD00BF22
:10A04000B003002080B582B000AF044B7B6078681D
:10A05000FFF702FF0837BD4680BD00BFFC030020AC
:10A0600080B58EB000AF784BB3F81631002B0AD113
:10A07000754BB3F81831002B05D1734BB3F81A3177
:10A08000002B00D1DDE0714B00221A706E4BB3F84B
:10A0900016311BB207EE903AB8EEE77ADFED6C7A34
:10A0A00027EE277ADFED6B7AC7EE277AC7ED0D7AB8
:10A0B000654BB3F818311BB207EE903AB8EEE77A69
:10A0C000DFED637A27EE277ADFED627AC7EE277A33
:10A0D000C7ED0C7A5C4BB3F81A311BB207EE903A1D
:10A0E000B8EEE77ADFED5A7A27EE277ADFED597A74
:10A0F000C7EE277AC7ED0B7A97ED0D0A15F0F2F946
:10A1000087ED0A0A97ED0D0A15F072FA87ED090A34
:10A1100097ED0C0A15F0E6F987ED080A97ED0C0AA1
:10A1200015F066FA87ED070A97ED0B0A15F0DAF9D4
:10A1300087ED060A97ED0B0A15F05AFA87ED050A26
:10A1400097ED067AD7ED0A7A67EE277AC7ED047A9B
:10A1500097ED067AD7ED087A67EE277AC7ED037A8E
:10A1600097ED057AD7ED0A7A67EE277AC7ED027A7E
:10A1700097ED097AD7ED067A67EE277AC7ED017A6F
:10A1800097ED097AD7ED057A67EE277AC7ED007A61
:10A19000314BFA681A60D7ED087AB1EE677AD7EDDD
:10A1A000057A67EE277A2C4BC3ED017A2A4BFA69C0
:10A1B0009A6097ED017AD7ED077A27EE277AD7EDE7
:10A1C000027A77EE277A244BC3ED037A97ED007A73
:10A1D000D7ED077A67EE277A97ED047A77EE677AFC
:10A1E0001D4BC3ED047AD7ED097AB1EE677AD7ED4E
:10A1F000087A67EE277A184BC3ED057A97ED047A53
:10A20000D7ED077A67EE277A97ED007A77EE677ACF
:10A21000114BC3ED067A97ED027AD7ED077A27EE58
:10A22000277AD7ED017A77EE277A0B4BC3ED077AC1
:10A2300097ED087AD7ED0A7A67EE277A064BC3EDD9
:10A24000087A3837BD4680BDE814002000000020A1
:10A25000DB0F4940000034430808002090B585B06A
:10A2600000AF78607B681B88FB817B685B88BB8163
:10A270007B689B887B81464B93ED007AB7F90E3063
:10A2800006EE103AF8EEC67A27EE277A404BD3ED69
:10A29000036AB7F90C3006EE103AF8EEC67A66EEAD
:10A2A000A77A37EE277A3A4BD3ED066AB7F90A3028
:10A2B00006EE103AF8EEC67A66EEA77A77EE277ABF
:10A2C000B0EE670A15F04AF903469AB27B681A8025
:10A2D0007B689C1C2E4B93ED017AB7F90E3006EE8D
:10A2E000903AF8EEE67A27EE277A294BD3ED046A06
:10A2F000B7F90C3006EE103AF8EEC67A66EEA77A99
:10A3000037EE277A224BD3ED076AB7F90A3006EE0B
:10A31000103AF8EEC67A66EEA77A77EE277AB0EEB4
:10A32000670A15F01BF903469BB223807B681C1D4E
:10A33000174B93ED027AB7F90E3006EE903AF8EE2D
:10A34000E67A27EE277A124BD3ED056AB7F90C307F
:10A3500006EE103AF8EEC67A66EEA77A37EE277A5E
:10A360000B4BD3ED086AB7F90A3006EE103AF8EE57
:10A37000C67A66EEA77A77EE277AB0EE670A15F00E
:10A38000EDF803469BB223801437BD4690BD00BF55
:10A390000808002080B584B000AFF860B9601346AB
:10A3A000FB71FB79013B072B00F2C48001A252F83C
:10A3B00023F000BFD5A30008F3A3000819A40008E8
:10A3C00049A4000871A40008A1A40008C9A40008B9
:10A3D000FBA40008FB681A88BB681A80BB680233BC
:10A3E000FA6852881A80BB680433FA6892881A8027
:10A3F000A1E0FB685A88BB681A80BB680233FA6820
:10A40000128892B2524292B292B21A80BB6804335E
:10A41000FA6892881A808EE0FB681B889BB25B42C8
:10A420009BB29AB2BB681A80BB680233FA680232E8
:10A43000128892B2524292B292B21A80BB6804332E
:10A44000FA6892881A8076E0FB6802331B889BB218
:10A450005B429BB29AB2BB681A80BB680233FA684F
:10A4600012881A80BB680433FA6892881A8062E006
:10A47000FB681B889BB25B429BB29AB2BB681A8096
:10A48000BB680233FA6852881A80BB680433FA68E2
:10A490000432128892B2524292B292B21A804AE0C8
:10A4A000FB685A88BB681A80BB680233FA68128856
:10A4B0001A80BB680433FA680432128892B252429E
:10A4C00092B292B21A8036E0FB681A88BB681A8092
:10A4D000BB680233FA680232128892B2524292B2D8
:10A4E00092B21A80BB680433FA680432128892B2BE
:10A4F000524292B292B21A801DE0FB6802331B886E
:10A500009BB25B429BB29AB2BB681A80BB680233B3
:10A51000FA68128892B2524292B292B21A80BB6822
:10A520000433FA680432128892B2524292B292B262
:10A530001A8000E000BF064B1B7883F00103DBB2FA
:10A54000002B02D0B868FFF789FE1037BD4680BDEA
:10A550000000002080B584B000AF0346FB710023EB
:10A56000FB734A4B1B78FA799A4200D38BE0FB7954
:10A570000C2B00F2878001A252F823F0B1A500084D
:10A580003FA6000831A6000823A600084DA6000833
:10A59000F3A50008F3A500085BA600086FA6000855
:10A5A0004DA6000807A6000815A60008D5A50008B6
:10A5B000364B0D221A70FFF75DFA0246344B1A60D3
:10A5C000344B10225A83344B00221A70334B002232
:10A5D0001A6053E0324B1B78002B00D053E02F4B16
:10A5E000304A1A60294BFA791A702D4B01221A70E1
:10A5F00044E02A4B2C4A1A60244BFA791A70244BF7
:10A6000000221A603AE0254B284A1A601F4BFA795B
:10A610001A7033E0214B264A1A601C4BFA791A70E3
:10A620002CE01E4B234A1A60184BFA791A7025E069
:10A630001A4B214A1A60154BFA791A701EE0174B13
:10A640001E4A1A60114BFA791A7017E0134B1C4A14
:10A650001A600E4BFA791A7010E0104B194A1A6002
:10A660000A4BFA791A700A4B00221A6006E00B4B6B
:10A67000154A1A60054BFA791A7000BF134B002275
:10A680001A8000E000BF1037BD4680BD01000020E9
:10A6900038080020000002402C080020300800206C
:10A6A0003C080020BC2F0208902F0208CC2F020883
:10A6B000D42F02089C2F0208982F02088C2F020822
:10A6C000942F0208B02F0208882F020834080020B7
:10A6D00080B500AF254B5B7B002B06D0244B1B784D
:10A6E000082B02D90820FFF735FF214B1B780D2BD3
:10A6F00003D0204B1B68002B00D136E01E4B1B788B
:10A70000002B17D1FFF7B6F902461C4B1B689A4283
:10A7100010D3194B01221A70164B1A68184B1B885C
:10A7200013441B78002B02D0164B10221A8300F022
:10A730002BF81AE0104B1B78002B16D0FFF79AF974
:10A7400002460E4B1B689A420FD30B4B00221A7025
:10A75000084B1A680A4B1B8813441B78002B02D045
:10A76000084B10225A8300F00FF880BDCC1A00204D
:10A7700001000020300800202C08002038080020AC
:10A78000340800200000024080B500AF1A4B1A6860
:10A790001A4B1B8813441B78FE2B03D1174B002246
:10A7A0001A8028E0144B1A68144B1B8813441B783A
:10A7B000FF2B09D1124B0D221A70124B10225A8313
:10A7C000114B00221A7016E0FFF754F901460A4BAC
:10A7D0001A680A4B1B8813441B781A4613469B00C1
:10A7E00013445B00CA18094B1A60044B1B880133E1
:10A7F0009AB2024B1A8080BD300800203408002035
:10A8000001000020000002402C0800203808002031
:10A8100080B584B000AFF860B9607A60FA687B6890
:10A82000B2FBF3F3002B09D0FA687B68B2FBF3F3B9
:10A830001846B9687A68FFF7EBFFB860FB687A687A
:10A84000B3FBF2F2796801FB02F29B1A044AD25C74
:10A85000BB681A70BB68013318461037BD4680BD0F
:10A860007824020880B584B000AFF860B9607A60DF
:10A870007B68012B02DD7B68242B01DD0A237B60D2
:10A88000FB68002B10DABB682D221A70FB68594256
:10A89000BB685A1C7B68084611461A46FFF7B8FF8A
:10A8A000034600221A7009E0FA687B681046B9680E
:10A8B0001A46FFF7ADFF034600221A70BB68184620
:10A8C0001037BD4680BD00BF80B489B000AF78604E
:10A8D0000023FB6102E07B6801337B607B681B78AF
:10A8E000202BF8D07B681B78092BF4D04FF07E53D7
:10A8F000BB617B681B782D2B05D16B4BBB617B68E3
:10A9000001337B6006E07B681B782B2B02D17B68D0
:10A9100001337B604FF000037B6113E097ED057A14
:10A92000F2EE047A27EE277A7B681B78303B06EE3E
:10A93000903AF8EEE67A77EE277AC7ED057A7B68EB
:10A9400001337B607B681B782F2B03D97B681B78D6
:10A95000392BE3D97B681B782E2B29D1534BFB6015
:10A960007B6801337B601BE07B681B78303B07EE24
:10A97000903AB8EEE77AD7ED037AC7EE277A97EDEB
:10A98000057A77EE277AC7ED057A97ED037AF2EE2E
:10A99000047A67EE277AC7ED037A7B6801337B6020
:10A9A0007B681B782F2B03D97B681B78392BDBD96D
:10A9B0004FF07E533B617B681B78652B03D07B682F
:10A9C0001B78452B54D17B6801337B600023FB61EE
:10A9D0007B681B782D2B05D10123FB617B6801333C
:10A9E0007B6006E07B681B782B2B02D17B680133F0
:10A9F0007B600023BB600DE0BA6813469B001344E4
:10AA00005B001A467B681B781344303BBB607B6855
:10AA100001337B607B681B782F2B03D97B681B7805
:10AA2000392BE9D9BB68B3F59A7F03D94FF49A73F0
:10AA3000BB600BE00AE097ED047ADFED1D7A67EE6C
:10AA4000277AC7ED047ABB68083BBB60BB68072B5D
:10AA5000F1D80AE097ED047AF2EE047A67EE277AED
:10AA6000C7ED047ABB68013BBB60BB68002BF1D12A
:10AA7000FB69002B06D097ED057AD7ED047AC7EE77
:10AA8000277A05E097ED057AD7ED047A67EE277A05
:10AA900097ED067A67EE877AB0EE670A2437BD46EF
:10AAA0005DF8047B704700BF000080BF00002041BC
:10AAB00020BCBE4C80B58CB000AF87ED010A386079
:10AAC00007F10C0300221A60043300221A600433D9
:10AAD00000221A600433554BFB62D7ED017AF5EE84
:10AAE000C07AF1EE10FA08DD97ED017ADFED507AC9
:10AAF00077EE277AC7ED017A07E097ED017ADFED6F
:10AB00004C7A77EE677AC7ED017A97ED017ADFED3F
:10AB1000497A67EE277AFDEEE77A17EE903ABB6244
:10AB2000BB6A83EAE372A2EBE37207F118031046F3
:10AB300019460A22FFF796FEBB6A002B02DB202390
:10AB40003B7301E02D233B7307F11803184616F001
:10AB5000B6FC0346012B0ED130237B733023BB732D
:10AB60003023FB7307F10C0207F118031046194656
:10AB700016F08BFC2FE007F11803184616F09FFC27
:10AB80000346022B0CD130237B733023BB7307F1B8
:10AB90000C0207F118031046194616F076FC1AE06D
:10ABA00007F11803184616F08AFC0346032B0AD156
:10ABB00030237B7307F10C0207F118031046194686
:10ABC00016F063FC07E007F10C0207F118031046CA
:10ABD000194616F05AFC07F10C03184616F06FFCE4
:10ABE0000346DBB2033B87F8273097F8273007F19D
:10ABF0000C02386811461A4616F08CFC97F827307C
:10AC00003A68134400221A703868F96A16F03DFC5D
:10AC100097F8273007F10C0213443868194616F0EC
:10AC200034FC3B6818463037BD4680BDA02402087E
:10AC30006F12033A00007A4480B500AF014801F07A
:10AC40008DFA80BDA4240208B0B584B000AF78604E
:10AC500039607B68FB603B68BB60FB681D68BB6854
:10AC60001C68BB681B68184616F029FC034628467A
:10AC700021461A4616F02CFC034618461037BD46EE
:10AC8000B0BD00BF80B586B000AF786000233B61E7
:10AC9000786816F014FC0346FB73FB7B002B14D181
:10ACA00000237B610DE01A4A7B6920335B0013446B
:10ACB000DB88184879691A460CF0E8F97B6901339A
:10ACC0007B617B69172BEEDD1EE07B68BB60B8689B
:10ACD00016F09EFB78617B69172B11DC78682021C8
:10ACE00016F0E0FBB860B86816F092FB38613B697B
:10ACF0009AB207497B6920335B000B44DA8003E09A
:10AD0000054818210CF0C2F91837BD4680BD00BFB8
:10AD1000E4130020AC240208B824020880B58EB0E9
:10AD200000AF786000233B630023FB62786816F075
:10AD3000C6FB034687F8273097F82730002B40F0F2
:10AD4000CD80974801F00AFA00237B6364E0954ABE
:10AD50007B6B01331B011344D3ED007AF5EE407A8F
:10AD6000F1EE10FA00D15AE0FB6A0133FB627B6B13
:10AD700001338D4819460CF089F98A4A7B6B0133FF
:10AD80001B011344D3ED007A07F11403B0EE670AF8
:10AD90001846FFF78FFE0346844819460CF076F9F3
:10ADA000804A7B6B01331B011344D3ED017A07F119
:10ADB0001403B0EE670A1846FFF77CFE03467B4893
:10ADC00019460CF063F9774A7B6B1B011344183367
:10ADD000D3ED007A07F11403B0EE670A1846FFF7C7
:10ADE00069FE0346714819460CF050F96D4A7B6BB9
:10ADF0001B0113441833D3ED017A07F11403B0EEAD
:10AE0000670A1846FFF756FE0346694819460CF0D4
:10AE10003DF97B6B01337B637B6B072B97DD4FF039
:10AE200000033B613B69FB60FB68BB6000237B6305
:10AE300029E097ED027A5B4A7B6B01331B011344D7
:10AE4000D3ED017A77EE277AC7ED027A97ED037A90
:10AE5000544A7B6B1B0113441833D3ED007A77EE11
:10AE6000277AC7ED037A97ED047A4E4A7B6B1B0174
:10AE700013441833D3ED017A77EE277AC7ED047ABD
:10AE80007B6B01337B637A6BFB6A9A42D1DB494867
:10AE900001F064F900237B6319E07B6B9B0007F1F1
:10AEA00038021344303BD3ED007AB0EEE77ADFEDA1
:10AEB000427AB4EEE77AF1EE10FA01DD3F4B00E0A2
:10AEC0003F4B184601F04AF97B6B01337B637B6B88
:10AED000022BE2DD3B4801F041F904E178683A4990
:10AEE000052216F0F5FA0346002B11D100237B63EF
:10AEF0000AE02C4A7B6B01331B0113444FF0000224
:10AF00001A607B6B01337B637B6B072BF1DDEAE01F
:10AF100078682E49042216F0DBFA0346002B5FD135
:10AF20007868202116F0BEFAB862BB6A002B00F0E8
:10AF3000DA80BB6A0133BB62B86A16F0C0FA034616
:10AF400087F8273000237B63214B7A6B53F822303C
:10AF5000002B03D11F4801F001F920E01C4B7A6B54
:10AF600053F8222097F82730B86A11461A4616F08F
:10AF7000AFFA0346002B0ED1786B08F05BFE144B42
:10AF80007A6B53F82230144819460CF07FF81348B6
:10AF9000FFF7C4FE03E07B6B01337B63D4E7A2E0E1
:10AFA000E0240208E81400200C25020814250208F9
:10AFB00018250208202502080AD7233C302502085C
:10AFC00034250208382502083C25020844250208D9
:10AFD000DC2F02084C250208642502080C1A02081E
:10AFE0007B68BB62B86A16F013FA78637B6B013B2F
:10AFF0007B637B6B072B72DCB86A202116F052FA58
:10B00000B862BB6A002B11D0BB6A0133BB62B86A5D
:10B01000FFF75AFCF0EE407A344A7B6B01331B0198
:10B020001344C3ED007A3B6B01333B63B86A2021C4
:10B0300016F038FAB862BB6A002B11D0BB6A013334
:10B04000BB62B86AFFF740FCF0EE407A274A7B6BA0
:10B0500001331B011344C3ED017A3B6B01333B63A6
:10B06000B86A202116F01EFAB862BB6A002B11D014
:10B07000BB6A0133BB62B86AFFF726FCF0EE407A88
:10B080001A4A7B6B1B0113441833C3ED007A3B6BE8
:10B0900001333B63B86A202116F004FAB862BB6A38
:10B0A000002B11D0BB6A0133BB62B86AFFF70CFCFE
:10B0B000F0EE407A0D4A7B6B1B0113441833C3ED4D
:10B0C000017A3B6B01333B633B6B042B03D0084895
:10B0D00001F044F807E00748FFF720FE03E00648C8
:10B0E00008210BF0D3FF3837BD4680BDE81400209F
:10B0F000782502080C1A0208B425020890B591B010
:10B1000000AF786000237B63786816F0D8F90346B7
:10B1100087F82B3097F82B30002B7CD1A7480BF009
:10B12000B5FFA7480BF0B2FF0023FB636CE0A54915
:10B13000FA6B1346DB009B1A0B4490339B78002B71
:10B1400000D164E0FB6B01339F4819460BF09EFF72
:10B150009C49FA6B1346DB009B1A0B4490331B7817
:10B1600001339A4819460BF091FF9649FA6B134642
:10B17000DB009B1A0B4490335B78013393481946EC
:10B180000BF084FF8F49FA6B1346DB009B1A0B44CC
:10B1900090339B785BB28D4819460BF077FF894955
:10B1A000FA6B1346DB009B1A0B449033DB7887481D
:10B1B00019460BF06BFF8349FA6B1346DB009B1AB1
:10B1C0000B4490331B795BB2804819460BF05EFF4D
:10B1D0007C49FA6B1346DB009B1A0B4490335B7976
:10B1E0005BB27A4819460BF051FF7649FA6B134669
:10B1F000DB009B1A0B4490339B79754819460BF082
:10B2000045FFFB6B0133FB63FB6B0F2B8FDD71483D
:10B210000BF03CFF3FE278686F49052216F058F9C1
:10B220000346002B18D16D480021702216F025F935
:10B230000023FB630CE06A49FA6B13469B0013443E
:10B240005B000B4480330022DA80FB6B0133FB632D
:10B25000FB6B072BEFDD1EE278686249042216F0D3
:10B2600037F90346002B3FD17868202116F01AF9F0
:10B27000B863BB6B002B00F00E82BB6B0133BB636A
:10B28000B86B16F01CF9034687F82B300023FB63DC
:10B29000554BFA6B53F82230002B03D153480BF077
:10B2A000F5FE20E0504BFA6B53F8222097F82B3034
:10B2B000B86B11461A4616F00BF90346002B0ED157
:10B2C000F86B08F043FC484BFA6B53F822304848BF
:10B2D00019460BF0DBFE4748FFF710FF03E0FB6B5E
:10B2E0000133FB63D4E7D6E178684349092216F0BD
:10B2F000EFF80346002B40F013817868202116F008
:10B30000D1F8B863B86B16F0DAF8034687F82B303B
:10B3100097F82B30002B4BD138480BF0B7FE38484C
:10B320000BF0B4FE0023FB6208E0FB6A01333548F2
:10B3300019460BF0ABFEFB6A0133FB62FB6A0B2B79
:10B34000F3DD24480BF0A2FE00233B632CE03B6BB3
:10B3500001332D4819460BF099FE0023FB621AE0D9
:10B360001F493A6B13469B0013445B000B44803328
:10B37000DB881A46FB6A42FA03F303F00103002B51
:10B3800001D0224B00E0224B224819460BF07EFEF2
:10B39000FB6A0133FB62FB6A0B2BE1DD0D480BF00E
:10B3A00075FE3B6B01333B633B6B072BCFDD72E1DB
:10B3B000B86B194916F0DAF8B86341E0DC250208E9
:10B3C00044260208E81400200C250208A4260208DE
:10B3D000A8260208382502083C2502087815002016
:10B3E000E413002044250208DC2F02084C25020843
:10B3F000642502080C1A0208B0260208BC260208BE
:10B400000C27020810270208182702081C27020828
:10B4100020270208242702082C2702087C6B631CC3
:10B420007B63B86B15F0F4FF0246A30007F14001FF
:10B430000B4443F8382C0020984916F097F8B8636D
:10B44000BB6B002B02D07B6B022BE7DDBB6B002BB1
:10B4500002D17B6B032B03D091480BF017FE1AE14E
:10B46000BB68002B55DDBB68082B52DCFB68002B4A
:10B470004FDDFB680C2B4CDC3B69B3F1FF3F02D086
:10B480003B69012B45D1BB68013BBB60FB68013BBD
:10B49000FB603B69B3F1FF3F1CD1BA68B9688148D2
:10B4A0000B469B000B445B0003448033DB8899B25E
:10B4B000FB68012000FA03F39BB20B439BB299B2E5
:10B4C000784813469B0013445B00034480330A46CC
:10B4D000DA8021E0BA68B96872480B469B000B44D9
:10B4E0005B0003448033DB8899B2FB68012000FADB
:10B4F00003F39BB2DB439BB20B409BB299B269480A
:10B5000013469B0013445B00034480330A46DA80F1
:10B5100002E065480BF0BAFD6448FFF7EFFDBAE0C2
:10B5200078685E4916F022F8B86311E07C6B631C02
:10B530007B63B86B15F06CFF0246A30007F1400176
:10B540000B4443F8382C0020544916F00FF8B86328
:10B55000BB6B002B02D07B6B072BE7DDBB6B002B9B
:10B5600002D17B6B082B03D051480BF08FFD92E08A
:10B57000BB68013BFB63FB6B002BC0F28980FB6B5C
:10B580000F2B00F38580FB68002B40F38180FB6864
:10B59000082B7DDC3B69002B7ADD3B690C2B77DCCB
:10B5A0007B6913F1640F73DB7B69642B70DCBB690F
:10B5B000002B6DDBBB69FF2B6ADCFB69002B67DBB3
:10B5C000FB69642B64DC3B6A002B61DB3B6A642B08
:10B5D0005EDCFA693B6A9A425ADA7B6A002B57DBD7
:10B5E0007B6A032B54DCFB68DBB2013BD9B23148E8
:10B5F000FA6B1346DB009B1A034490330A461A7019
:10B600003B69DBB2013BD9B22A48FA6B1346DB0037
:10B610009B1A034490330A465A707B69D9B2254875
:10B62000FA6B1346DB009B1A034490330A469A7068
:10B63000BB69D9B21F48FA6B1346DB009B1A03445F
:10B6400090330A46DA70FB69D9B21A48FA6B13468E
:10B65000DB009B1A034490330A461A713B6AD9B245
:10B660001448FA6B1346DB009B1A034490330A46D6
:10B670005A717B6AD9B20F48FA6B1346DB009B1AEA
:10B68000034490330A469A710B48FFF737FD02E0F6
:10B6900005480BF0FBFC4437BD4690BD2C27020843
:10B6A00030270208E41300206C270208B0260208A5
:10B6B00090270208E81400200C1A020880B582B016
:10B6C00000AF7860084800F049FD012001F062FBFE
:10B6D000064800F043FD0A20FEF7C0FA0020FEF7FE
:10B6E000CFFA0837BD4680BDF427020810280208AB
:10B6F00080B58EB000AF7860002000F0B3FF9A48AC
:10B700000BF0C4FC9948FFF7BDFA994B5B795A1EC0
:10B71000984B53F82230984819460BF0B7FC944BDD
:10B72000D3ED047AF5EE407AF1EE10FA00F097804E
:10B7300000237B6389E08E4A7B6B01331B0113443A
:10B74000D3ED007AF5EE407AF1EE10FA00D180E008
:10B75000874A7B6B01331B0113441B68FB62844ADD
:10B760007B6B01331B0113445B68BB62804A7B6BBC
:10B770001B01134418331B687B627D4A7B6B1B01E2
:10B78000134418335B683B627B6B01337B4819467B
:10B790000BF07CFCD7ED0B7AF5EEC07AF1EE10FAE7
:10B7A00002D577480BF072FC07F1080397ED0B0AFE
:10B7B0001846FFF77FF90346724819460BF066FCFE
:10B7C000D7ED0A7AF5EEC07AF1EE10FA02D56C48A0
:10B7D0000BF05CFC07F1080397ED0A0A1846FFF727
:10B7E00069F90346674819460BF050FCD7ED097A12
:10B7F000F5EEC07AF1EE10FA02D561480BF046FC86
:10B8000007F1080397ED090A1846FFF753F90346B5
:10B810005C4819460BF03AFCD7ED087AF5EEC07A91
:10B82000F1EE10FA02D556480BF030FC07F1080390
:10B8300097ED080A1846FFF73DF9034652481946A6
:10B840000BF024FC7B6B01337B637B6B072B7FF757
:10B8500072AF7B6B01334D4819460BF017FC444B1C
:10B8600093F89230002B78D000237B636CE0404942
:10B870007A6B1346DB009B1A0B4490339B78002BAA
:10B8800000D164E07B6B0133414819460BF0FEFBAD
:10B8900037497A6B1346DB009B1A0B4490331B78B5
:10B8A00001333C4819460BF0F1FB31497A6B1346E2
:10B8B000DB009B1A0B4490335B7801333548194603
:10B8C0000BF0E4FB2A497A6B1346DB009B1A0B440E
:10B8D00090339B785BB22F4819460BF0D7FB244975
:10B8E0007A6B1346DB009B1A0B449033DB782948B4
:10B8F00019460BF0CBFB1E497A6B1346DB009B1AF3
:10B900000B4490331B795BB2224819460BF0BEFB07
:10B9100017497A6B1346DB009B1A0B4490335B7913
:10B920005BB21C4819460BF0B1FB11497A6B134608
:10B93000DB009B1A0B4490339B79174819460BF098
:10B94000A5FB7B6B01337B637B6B0F2B8FDD7B6BED
:10B950000133124819460BF099FB00237B6342E048
:10B9600000233B6339E000BF202802080C1A0208BC
:10B97000E8140020DC2F0208502802085C28020886
:10B980002C270208642802081825020868280208E3
:10B990007C28020888280208A82602088C280208A9
:10B9A00053497A6B13469B0013445B000B4480336E
:10B9B000DB881A463B6B42FA03F303F00103002BCA
:10B9C00008D07B6B5A1C3B6B01334A4811461A4620
:10B9D0000BF05CFB3B6B01333B633B6B0B2BDFDD05
:10B9E0007B6B01337B637B6B072BB9DD01F030FD93
:10B9F000F86100237B63404B7A6B53F82230002BB5
:10BA000003D100BF00237B630BE03B4B7A6B53F801
:10BA100022303A4819460BF039FB7B6B01337B63CC
:10BA2000E9E7354B7A6B53F82230002B03D100BF86
:10BA300000237B6326E001227B6B02FA03F31A46A4
:10BA4000FB691340002B07D02B4B7A6B53F8223045
:10BA50002B4819460BF01AFB7B6B01337B63E0E745
:10BA6000284A7B6B134403F5A0739B7826497A6BB5
:10BA70000A44127807F138010B4403F8302C7B6B31
:10BA800001337B637B6B072BEADD07F108027B6BDD
:10BA9000134400221A7007F108031C4819460BF0E2
:10BAA000F5FA00237B631DE07A6B13469B00134479
:10BAB0009B00174A1344BB6115497A6B13469B00E0
:10BAC00013449B000B441B68124819460BF0DEFA26
:10BAD000B869002100F06CFB0F4800F03FFB7B6B66
:10BAE00001337B637B6B892BDEDD3837BD4680BD40
:10BAF000E4130020A028020838300208BC280208FD
:10BB0000CC280208E8140020543C0208DC28020873
:10BB10008C310208E82802083825020880B582B076
:10BB200000AF7860094800F019FB094B00221A7039
:10BB3000084B00221A60084B00221A7007F0DEFF43
:10BB4000786800F0EFFA0837BD4680BDF428020897
:10BB500040080020700800203D08002080B586B015
:10BB600000AF7860786815F0AAFC386101F070FCCD
:10BB7000B8603B69002B24D14B4800F0EFFA00235A
:10BB80007B614A4B7A6953F82230002B04D100BF05
:10BB9000474800F0E3FA83E07B69012202FA03F3ED
:10BBA0001A46BB681340002B07D0404B7A6953F804
:10BBB0002230404819460BF069FA7B6901337B61FA
:10BBC000DFE778683C493A6915F082FC0346002BB0
:10BBD0001BD13A4800F0C2FA00237B61334B7A69EB
:10BBE00053F82230002B04D100BF314800F0B6FAE0
:10BBF00056E02E4B7A6953F822302E4819460BF046
:10BC000045FA7B6901337B61E8E70023FB737B68BE
:10BC10001B782D2B07D10123FB737B6801337B60DD
:10BC20003B69013B3B6100237B61204B7A6953F800
:10BC30002230002B03D1224800F090FA30E01B4B59
:10BC40007A6953F82230786819463A6915F040FC51
:10BC50000346002B20D1FB7B002B0AD07B690122FD
:10BC600002FA03F3184601F0D5FB164800F076FA05
:10BC700009E07B69012202FA03F3184601F0B8FBE0
:10BC8000114800F06BFA094B7A6953F822300F48DB
:10BC900019460BF0FBF903E07B6901337B61C4E7D4
:10BCA0001837BD4680BD00BF0C2902083830020895
:10BCB0003825020820290208242902082C29020814
:10BCC00044290208602902086C2902081825020884
:10BCD00080B582B000AF786002F032FA0346B3F16B
:10BCE000FF3F03D1044800F039FA02E0034800F0B6
:10BCF00035FA0837BD4680BD78290208A029020818
:10BD000080B584B000AF78600023FB60114800F07C
:10BD100025FA0023FB6016E00F49FA6813465B0022
:10BD200013449B000B4419680B48FA6813465B00E8
:10BD300013449B0003445B6808481A460BF0A6F9BD
:10BD4000FB680133FB60FB68102BE5D91037BD465B
:10BD500080BD00BFC0290208C0300208D8290208EF
:10BD600080B588B000AF7860786815F0A8FBB8613E
:10BD7000BB69082B4BD10023FB611AE07A68FB6991
:10BD80001A447968FB690B441B78FB75354B1968BD
:10BD9000FB7D01330B441B7803F00303022B02D11C
:10BDA000FB7D203B00E0FB7DDBB21370FB690133C0
:10BDB000FB61FB69072BE1D90023FB6121E07A6875
:10BDC000FB6913441B782848194615F06BFB0346A2
:10BDD000002B12D0FB6901337A681A447968FB6939
:10BDE0000B441B781046194615F05CFB0346002BEC
:10BDF00003D1FB690133FB6103E01C4800F0AEF99D
:10BE00002CE0FB69072BDAD9786800F0A7FD184809
:10BE100000F0A4F90023FB6111E0164AFB6913440A
:10BE200003F5A0739B781049FA690A44127807F168
:10BE300020010B4403F8142CFB690133FB61FB69FF
:10BE4000072BEAD907F10C02FB69134400221A7090
:10BE500007F10C03084819460BF018F92037BD46C6
:10BE600080BD00BFD4020020543C0208E029020833
:10BE7000002A0208E81400201825020880B584B0C2
:10BE800000AF7860786815F01AFB0346BB60BB68AA
:10BE9000002B0AD1424B5B795A1E424B53F8223099
:10BEA000414819460BF0F2F876E0BB6878683F49E4
:10BEB0001A4615F00DFB0346002B1BD13C4800F041
:10BEC0004DF90023FB60374BFA6853F82230002B02
:10BED00004D100BF374800F041F95DE0314BFA680A
:10BEE00053F82230344819460BF0D0F8FB68013380
:10BEF000FB60E8E70023FB602A4BFA6853F8223026
:10BF0000002B03D12D4800F029F945E0254BFA68B4
:10BF100053F82220BB68786811461A4615F0D8FA03
:10BF20000346002B34D1FB68DBB20133DAB21C4B81
:10BF30005A711C4BFA6853F82230214819460BF00D
:10BF4000A5F8174B5B79082B03D0154B5B790E2BAB
:10BF50001DD11C4B322283F825201A4B002283F876
:10BF60002020184B1E221A71164B14229A73154B5F
:10BF70002D221A76134B32229A76124B1E22DA7138
:10BF8000104B14225A740F4B2D22DA7604E003E092
:10BF9000FB680133FB60AFE71037BD4680BD00BFD3
:10BFA000E8140020DC2F0208182A020824290208BD
:10BFB0002C2A020838250208202902084C250208EC
:10BFC000402A0208E413002080B588B000AF7860F2
:10BFD0000023FB610023BB6100237B6100233B61E5
:10BFE000786815F06CFA0346FB60FB68002B03D100
:10BFF0002B480BF04BF850E078682A4915F0B6FA58
:10C00000386117E07B69002B02D0012B05D009E0D5
:10C01000386915F0FDF9F86104E0386915F0F8F9B0
:10C02000B86100BF7B6901337B6100201D4915F0B9
:10C030009DFA38613B69002BE4D1FB69002B02DBE0
:10C04000FB69072B04DD184808210BF01FF824E0DA
:10C050007B69012B0ADC154BFA6933F812301BB2ED
:10C060001348F9691A460BF011F816E0BB69B3F5ED
:10C070007A7F03DBBB69B3F5FA6F03DD0D480BF084
:10C0800005F80AE00C48F969BA690AF0FFFFBB69D4
:10C0900099B2064BFA6923F812102037BD4680BDCD
:10C0A000542A02082C270208902A0208781B002034
:10C0B000B82A0208D02A0208F42A020880B584B0FF
:10C0C00000AF7860786815F0FAF90346FB73FB7BE4
:10C0D000002B07D1104B93F88034104819460AF012
:10C0E000D5FF15E0786815F093F9B860BB68002BB0
:10C0F0000EDBBB68022B0BDCBB68DAB2064B83F8A5
:10C1000080240020002100F031FE0548FFF7D6FF13
:10C110001037BD4680BD00BFE8140020102B020878
:10C120000C1A020880B582B000AF7860094800F0B0
:10C1300015F80020012100F019FE074800F00EF864
:10C140000A20FDF78BFD0020FDF79AFD0837BD465C
:10C1500080BD00BF282B0208342B020880B582B0B6
:10C1600000AF786009E0084B1A697B68591C796058
:10C170001B781046194611F02FFF7B681B78002BA7
:10C18000F1D10837BD4680BD241A002080B582B0A9
:10C1900000AF0346FB71054B1A69FB79104619463F
:10C1A00011F01AFF0837BD4680BD00BF241A0020D9
:10C1B00080B586B000AF7860396000237B617B6812
:10C1C0001B79052B61D801A252F823F0E5C10008C4
:10C1D000EFC10008FBC1000805C2000811C2000839
:10C1E0001BC200087B689B681B787B614DE07B6805
:10C1F0009B681B785BB27B6147E07B689B681B8810
:10C200007B6142E07B689B681B881BB27B613CE0E2
:10C210007B689B681B687B6137E07B689B68D3ED1C
:10C22000007A07F10C03B0EE670A1846FEF742FCED
:10C2300003461F4819460AF029FF3B68002B34D0FB
:10C240007B68DB6807EE103AF8EEC77A07F10C035B
:10C25000B0EE670A1846FEF72DFC0346154819464E
:10C260000AF014FF7B681B6907EE103AF8EEC77AF4
:10C2700007F10C03B0EE670A1846FEF71BFC0346F5
:10C280000C4819460AF002FF0FE00B4879690AF0E2
:10C29000FDFE3B68002B08D07B68DA687B681B6971
:10C2A000064811461A460AF0F1FE1837BD4680BD11
:10C2B00064280208442B020818270208482B0208A9
:10C2C00080B483B000AF786039607B681B79052B40
:10C2D00024D801A252F823F0F1C20008F1C20008EC
:10C2E000FDC20008FDC2000809C3000813C300080E
:10C2F0007B689B683A68D2B21A700FE07B689B68D3
:10C300003A6892B21A8009E07B689B683A681A60C2
:10C3100004E07B689B683A681A6000BF0C37BD4632
:10C320005DF8047B704700BF90B58BB000AF7860BC
:10C3300000233B620023FB614FF00003BB61786880
:10C3400015F0BDF878617B69002B06D07B69012B65
:10C350002BD17B681B782A2B27D17C48FFF7FEFE68
:10C3600000237B621DE07A6A13469B0013449B0006
:10C37000774A13443B6176497A6A13469B0013441B
:10C380009B000B441B68734819460AF07FFE38690E
:10C390007969FFF70DFF7048FFF7E0FE7B6A013314
:10C3A0007B627B6A892BDED9CCE078683D2115F071
:10C3B00079F838623B6A002B00F091803B6A0133C8
:10C3C0003B627B69013B7B61386A15F021F8F861BB
:10C3D000386AFEF779FA87ED060A00237B6277E078
:10C3E0007A6A13469B0013449B00594A13443B61ED
:10C3F00057497A6A13469B0013449B000B441C6800
:10C4000053497A6A13469B0013449B000B441B68F4
:10C41000184615F054F80346786821461A4615F078
:10C4200057F80346002B50D149497A6A13469B00BE
:10C4300013449B000B4408335B6807EE903AB8EE58
:10C44000E77AD7ED067AB4EEE77AF1EE10FA38D84B
:10C450003F497A6A13469B0013449B000B441033F8
:10C460001B6807EE903AB8EEE77AD7ED067AB4EE9D
:10C47000E77AF1EE10FA24DB35497A6A13469B001D
:10C4800013449B000B441B79052B02D1BB69FB6055
:10C4900001E0FB69FB603869F968FFF711FF2C497F
:10C4A0007A6A13469B0013449B000B441B682B487D
:10C4B00019460AF0EBFD38690021FFF779FE00BF4D
:10C4C00040E02748FFF74AFE3CE07B6A01337B628D
:10C4D0007B6A892B84D92348FFF740FE32E0002392
:10C4E0007B622CE01A497A6A13469B0013449B0036
:10C4F0000B441B681846796815F01EF80346002B9C
:10C500001AD07A6A13469B0013449B00104A1344C6
:10C510003B610F497A6A13469B0013449B000B440E
:10C520001B680C4819460AF0B1FD38690021FFF775
:10C530003FFE0948FFF712FE7B6A01337B627B6A8C
:10C54000892BCFD92C37BD4690BD00BF502B020898
:10C550008C310208682B020838250208702B02086B
:10C560007C2B0208A42B020880B584B000AF786051
:10C57000FDF780FA03462C4A82FB03129211DB1767
:10C58000D11A2A4B1B881A46294B1B7829480AF0D6
:10C590007DFD00F00BFFB860274B1A68274BA3FB0B
:10C5A00002139B0C264819460AF070FD0023FB730A
:10C5B000FA7B244B53F82230002B07D100BF022016
:10C5C00000F0BAFE0346002B1FD014E0FB7B0122D3
:10C5D00002FA03F31A46BB681340002B07D0FA7B1C
:10C5E000184B53F82230184819460AF04FFDFB7BD0
:10C5F0000133FB73DCE7154B1B781A46144B53F8D9
:10C600002230144819460AF041FD1348FFF7A6FDF1
:10C61000124B1B881248194640F284420AF036FD3C
:10C620001037BD4680BD00BFD34D6210B01A002048
:10C6300030000020C42B02087401002083DE1B435D
:10C64000042C02088430020820290208A20E0020CF
:10C65000A4300208242C0208382502087C0B002094
:10C66000302C020880B582B000AF78600248FFF736
:10C6700075FD0837BD4680BD542C020890B58DB0BD
:10C6800002AF914B1B78002B08D18F4B01221A70FF
:10C690008E48FFF763FDFEF7CFFA4DE14CE18C4B7E
:10C6A0001B69184611F0B8FC0346FB75FB7D092B8E
:10C6B00003D0FB7D3F2B40F0998000233B62002399
:10C6C000FB61844B1B68BB61834B7B621AE0814B2F
:10C6D0001B68002B0CD07B6A1A687E4B1B687F4856
:10C6E00011461A4614F0F4FE0346002B00D006E073
:10C6F0003B6A002B01D17B6A3B627B6AFB617B6AF0
:10C700000C337B627A6A764B9A42E0D33B6A002B09
:10C7100038D03B6A1A686F4B1B6813441A78FB6960
:10C7200019686C4B1B680B441B789A4200D029E0B7
:10C730003B6A1A68674B1B6813441B78002B11D1A6
:10C74000644B1B682D2B0DD8624B1B68591C614A2A
:10C750001160624A2021D1545E4B1B685F4A002160
:10C76000D1540FE05B4B1B683A6A1168594A126852
:10C770000A441178594AD154564B1B685A1C554BE0
:10C780001A60C6E7534B1B68002B03D03A6AFB695B
:10C790009A4219D05348FFF7E1FC3B6A7B620AE0FA
:10C7A0007B6A1B681846FFF7D9FC0920FFF7EEFCEF
:10C7B0007B6A0C337B627A6AFB699A42F0D9FEF796
:10C7C0003BFA0023BB610AE009E0444ABB69134419
:10C7D0001B781846FFF7DAFCBB690133BB613D4BA0
:10C7E0001B681A46BB699A42EFDCA5E0394B1B680F
:10C7F000002B06D1FB7D042B03D13848FFF78EF9BF
:10C80000A3E0FB7D0C2B05D13748FFF7A7FCFEF713
:10C8100013FA91E02F4B1B68002B40D0FB7D0A2BB5
:10C8200002D0FB7D0D2B3AD100233B612F48FFF74F
:10C8300095FC284B1B68294A0021D154274B7B606B
:10C840000023BB603B1D2A4A009218462249112250
:10C850000C2314F0E1FD38613B69002B0DD03B69DE
:10C860009C683B691B68184614F029FE03465A1C55
:10C870001A4B13441846A04702E01E48FFF76EFC0F
:10C8800016480021302214F0F8FD124B00221A60E5
:10C890000D4B1B78002B58D0FEF7CEF94CE0FB7DFA
:10C8A0007F2B2BD10B4B1B68002B45D0094B1B68F2
:10C8B0005A1E084B1A60074B1B68084A0021D154C6
:10C8C0000D48FFF74BFC37E03D080020842C0208A0
:10C8D000241A002070080020C03002084008002000
:10C8E0008C310208BC2C0208C42C0208382502082E
:10C8F00049AC0008D02C0208F42C0208144B1B6829
:10C900002F2B19D8FB7D1F2B16D9FB7D7E2B13D81F
:10C910000F4B1B68002B03D1FB7D202B00D10BE0BC
:10C920000B4B1B68591C0A4A11600A4AF97DD15405
:10C93000FB7D1846FFF72AFC074B1B69184611F0D0
:10C940005BFB0346002B7FF4AAAE2C37BD4690BD9F
:10C950007008002040080020241A002080B584B010
:10C9600000AF78607B68FB6017E0FB681B780E48BF
:10C97000194614F097FDB860BB68002B0AD0BA685E
:10C98000094BD31AF9687A688A1AD2B207490B445C
:10C9900083F84221FB680133FB60FB681B78002BA6
:10C9A000E3D11037BD4680BD543C0208E814002096
:10C9B00080B485B000AF1C4B7B600023FB727B68AA
:10C9C0001A7849239A4201D0002327E07B685A88CD
:10C9D00040F284439A4208D17B681B79BE2B04D174
:10C9E0007B6893F88234EF2B01D0002316E07B683C
:10C9F000FB6007E0FB681A78FB7A5340FB72FB6828
:10CA00000133FB607B6803F28442FB689A42F1D8F1
:10CA1000FB7A002B01D0002300E0012318461437D5
:10CA2000BD465DF8047B704700000E0880B500AF7E
:10CA3000FFF7BEFF0346002B02D10A20FDF7D4F812
:10CA4000154A164B11461A4640F2844308461146D1
:10CA50001A4614F009FD104B93F88034022B03D9C9
:10CA60000D4B002283F880240B4B93F880341A4638
:10CA700013469B0113449B0003F5B872064B134405
:10CA80000433074A11461A464FF48273084611468A
:10CA90001A4614F0E9FC80BDE814002000000E08DE
:10CAA000E4130020F0B583B000AF0023FB7120E059
:10CAB000FA79544B93F82030F979F87900FB01F1B9
:10CAC000193901FB03F303F6C413F97901FB03F3EE
:10CAD0004C49C97F01FB03F34B4981FB03018912D8
:10CAE000DB17CB1A99B2494B23F81210FB790133AB
:10CAF000FB71FB79062BDBD90023FB7174E0FB791A
:10CB00009BB21A46920013445B009AB23D4B93F8D5
:10CB10002130D31A9BB2BB800123BB71B7F904301B
:10CB2000002B05DD374B93F82130C3F16403BB7153
:10CB3000B7F90430002B03DA324B93F82130BB7184
:10CB4000FA79304B93F82130194689000B445B0089
:10CB500099B2B7F904302B4890F82200C0F1640470
:10CB6000284890F82200B7F90450B7F9046006FB92
:10CB700005F505FB00F5B879BE7906FB00F095FBDD
:10CB8000F0F0204400FB03F3214880FB03C0801039
:10CB9000DB17C31A9BB20B449BB299B21D4B23F80F
:10CBA0001210FA791C4BB3F800111B4BB3F8023189
:10CBB0001846194BB3F80031C31AFC79154830F800
:10CBC000140000B200FB03F3144880FB03C0801183
:10CBD000DB17C31A9BB20B449BB299B20D4B23F8DF
:10CBE0001210FB790133FB71FB790B2B87D9054BB5
:10CBF0001B78184605F084FC01F0EEF90C37BD46B1
:10CC0000F0BD00BFE4130020AD8BDB68581B002093
:10CC100067666666701A0020E8140020D34D621023
:10CC200080B500AFFFF702FFFFF73CFF80BD00BFFC
:10CC300080B588B000AF02460B46FA71BB71002385
:10CC4000FB7600233B614922454B1A70444B40F26E
:10CC500084425A80424BBE221A71414BEF2283F824
:10CC600082243F4B002283F88324BB79002B16D00B
:10CC70003B4B93F880341A4613469B0113449B00A8
:10CC800003F5B872364B13441A1D364B11461A463B
:10CC90004FF48273084611461A4614F0E5FB304BF8
:10CCA0007B6107E07B691A78FB7E5340FB767B69EA
:10CCB00001337B617A692C4B9A42F3D3284BFA7E7D
:10CCC00083F883240DF094FDF3200DF049FE5820E5
:10CCD00002210DF0B1FD0346082B26D10023FB6194
:10CCE0001EE0FB6903F1006303F56023F9691C4A48
:10CCF0000A441268184611460DF0FEFD0346FB7308
:10CD0000FB7B082B09D00DF089FD3B6901333B61AA
:10CD10003B69022B00DCD5E707E0FB690433FB61CC
:10CD2000FA6940F283439A42DBD90DF077FD3B6903
:10CD3000032B04D0FFF73CFE0346002B02D10A2050
:10CD4000FCF752FFFFF76CFFFB79002B04D00F209C
:10CD50001421012204F0C6FC2037BD4680BD00BF6F
:10CD6000E8140020E41300206C19002080B582B084
:10CD700000AF02460B46FA71BB71FCF7A3FFFA79CC
:10CD8000BB7910461946FFF753FFFCF795FF0837AC
:10CD9000BD4680BD80B582B000AF0346FB71FFF792
:10CDA00007FE0346002B02D0FB79002B05D000F0D4
:10CDB00007F800200021FFF7D9FF0837BD4680BDE6
:10CDC00080B584B000AFC84A3B1D1068516803C3EA
:10CDD000C648002140F2844214F04FFBC4480021B1
:10CDE0004FF4827214F049FB4922C04B1A70BF4BBA
:10CDF00003225A7100F020FB022000F0F9FA012012
:10CE000000F0F6FAB94B002283F88024B74B4FF4B8
:10CE10001672A3F82221B54BFA22A3F82421B34BB2
:10CE20002A22A3F82021B14B0022A3F82A21AF4BDC
:10CE30000022A3F82C21AD4B0022A3F82E21AB4BEE
:10CE4000002283F81321A94B002283F81421A74B59
:10CE5000002283F81521A54B0022A3F81621A34B2D
:10CE60000022A3F81821A14B0022A3F81A219F4BFE
:10CE7000002283F81D219D4B002283F81E219B4B2D
:10CE80004FF4FA72A3F82821984B012283F81C2151
:10CE9000964B202283F82621944B4FF4C872A3F8B6
:10CEA0003821924B6E2283F83D21904B2B2283F840
:10CEB0003E218E4B212283F83F218C4B232283F885
:10CEC00040218A4B002283F84121884B002283F8BD
:10CED0004A21864B002283F84B21844B002283F8A1
:10CEE0006E21824B002283F86F21804B002283F851
:10CEF00070217E4B40F2DC52A3F84E217B4B40F276
:10CF00004C42A3F85021794B40F26C72A3F85221A5
:10CF1000764B002283F85421744B012283F855216B
:10CF2000724B012283F85621704B40F27E42A3F8E7
:10CF300000216E4B40F23A72A3F802216B4B4FF482
:10CF40007A72A3F80421694B40F27E52A3F80621BD
:10CF5000664B40F2EA52A3F80821644B40F2B45207
:10CF6000A3F80A21614B3222A3F80C215F4B4FF446
:10CF7000C872A3F80E215D4B3222A3F810215B4B3F
:10CF8000052283F83621594B002283F85E21574B46
:10CF9000002283F85F21554B4FF4E132C3F864213E
:10CFA000524B4FF41652C3F86821504B002283F8BD
:10CFB0006C214E4B002283F86D214C4B40F6AC5255
:10CFC0009A814A4B00229A73484B002283F85721DA
:10CFD000464B40F6FF72A3F85A21454B00221A70C7
:10CFE000434B28225A70424B1E22DA72404B1722C2
:10CFF0005A753F4B28229A703D4B1E221A733C4BA8
:10D0000017229A753A4B5522DA70394B2D225A73F2
:10D01000374B0022DA75364B32221A71344B00221C
:10D020009A73334B00221A76314B0B225A71304BD4
:10D030000022DA732E4B00225A762D4B14229A715D
:10D040002B4B08221A742A4B2D229A76284B0E223B
:10D05000DA71274B14225A74254B5022DA76244B6E
:10D060005A221A72224B0A229A74214B64221A778E
:10D070001F4B28225A721E4B78229A721C4B2D226B
:10D080001A751B4B01229A77194B5A22DA77184BE3
:10D09000412283F82020164B002283F82320144BD2
:10D0A000002283F82420124B002283F82520104B05
:10D0B00040F2DC52DA840E4B322283F821200C4BF2
:10D0C000002283F822200A4B00225A85084B0022B6
:10D0D0009A85074B00221A85054B042283F82E20DF
:10D0E000034B282206E000BF042D0208E8140020AC
:10D0F000E413002083F82F20884B282283F8302067
:10D10000864B152283F83120844B854A5A63834B22
:10D11000844A9A63814B844ADA63804B834A1A6457
:10D120007E4B012283F844207C4B192283F8452052
:10D130007F48FFF713FC794B002283F87620774B6A
:10D14000002283F87720754B282283F87820734BD0
:10D15000012283F87920714B002283F87C206F4BE9
:10D160004FF44872A3F87A206C4B0A2283F8CE2041
:10D170006A4BC82283F8CF20684B4FF49662A3F81D
:10D18000D020664B40F2D932A3F8D2200023FB60B6
:10D1900031E06249FA6813469B0013445B000B447C
:10D1A00078334FF47F72DA805C49FA6813469B004B
:10D1B00013445B000B4478334FF4FA621A815749E9
:10D1C000FA6813469B0013445B000B44783340F22B
:10D1D000DC525A813A1DFB68134419784F48FA68AB
:10D1E00013469B0013445B00034478330A461A73CA
:10D1F000FB680133FB60FB68072BCADD474B01224C
:10D2000083F8D420454B012283F8D520434B0122DB
:10D2100083F8D620414BC822A3F8D8203F4B1422D4
:10D2200083F8DA203D4B1E2283F8DB203B4B0122A2
:10D2300083F8DC20394B6422A3F8DE20374B4FF40F
:10D240009672A3F8E020354B2822A3F8E220334B56
:10D250004FF07C52C3F8E420304B4FF07C52C3F8BF
:10D26000E8202E4B1422A3F8EE202C4B0F22A3F81B
:10D27000F0202A4B0F22A3F8F220284B0F22A3F80C
:10D28000F420264B40F26C72A3F8F620234B40F2B8
:10D29000DC52A3F8F820214B40F21452A3F8FA20F4
:10D2A0001E4B0822A3F8FC201C4B4FF07E52C3F803
:10D2B0000021204B522283F881240023FB600AE0E6
:10D2C0001C4AFB6801331B0113444FF000021A6033
:10D2D000FB680133FB60FB68072BF1DD0023FB607B
:10D2E00016E0FA6813469B0113449B0003F5B872DD
:10D2F000104B13441A1D094B11461A464FF4827302
:10D30000084611461A4614F0AFF8FB680133FB607B
:10D31000FB68022BE5DD1037BD4680BDE41300201D
:10D320009A99193FF6287C3F3D0A773F0000A040BC
:10D33000F82C0208E814002080B483B000AF7860B5
:10D34000074B1A687B681340002B0CBF0023012396
:10D35000DBB218460C37BD465DF8047B704700BF52
:10D360007408002080B483B000AF7860054B1A6861
:10D370007B681A43034B1A600C37BD465DF8047B8B
:10D38000704700BF7408002080B483B000AF78609D
:10D390007B68DA43044B1B681A40034B1A600C3756
:10D3A000BD465DF8047B70477408002080B400AF70
:10D3B000034B1B681846BD465DF8047B704700BFF1
:10D3C0007408002080B483B000AF7860074B9A687F
:10D3D0007B681340002B0CBF00230123DBB21846EF
:10D3E0000C37BD465DF8047B704700BFE814002091
:10D3F00080B483B000AF7860054B9A687B681A43AD
:10D40000034B9A600C37BD465DF8047B704700BF44
:10D41000E814002080B483B000AF7860054B9A68B0
:10D420007B68DB431A40034B9A600C37BD465DF8BE
:10D43000047B7047E814002080B400AF034B002247
:10D440009A60BD465DF8047B704700BFE814002079
:10D4500080B400AF034B9B681846BD465DF8047B63
:10D46000704700BFE814002080B582B000AF0346CB
:10D47000FB71084BFA791A70064B0022DA61FCF74F
:10D48000F9FA0246034B5A62024B00221A6208372D
:10D49000BD4680BD9C19002080B586B002AF786083
:10D4A0000B46FB700323FB730020FFF7DDFF4FF4F7
:10D4B0008070FFF787FF034683F00103DBB2002B88
:10D4C00000D04EE0284BFA785A70FCF7D3FA0246A7
:10D4D000254B9A60244B00225A60244B93F85E310E
:10D4E000002B01D10123FB7300F076FDFB78204A6D
:10D4F0001B0113445A68FB7B0021009178680021CE
:10D5000011F0DCFE02461B4B5A600120FFF7ACFF16
:10D51000164B93F860315BB2042B03DD134B0022F2
:10D5200083F86021114B93F860315BB2B3F1FF3F98
:10D5300010D00E4B93F860315AB213465B0013447F
:10D540005B001A460C4B13440C481946062213F094
:10D550008BFF06E00A4A0B4B03CB106051601B881F
:10D5600013811037BD4680BD9C190020E8140020AF
:10D57000603C0208241A0020383D02080E000020FA
:10D580000A000020583D020880B500AF074B5A68DA
:10D59000074B5B7807491B010B445B681046194633
:10D5A00010F048FD0420FFF75FFF80BD241A002023
:10D5B0009C190020603C020880B582B000AF6D4B22
:10D5C0005B68184610F044FD034683F00103DBB2AC
:10D5D000002B00D0CBE0684B1B78022B66D0032BCE
:10D5E00074D0012B40F0C380FCF744FA3860624BE2
:10D5F0005B6A3A68D31A632B00D8B8E05E4BDB69EC
:10D60000042B4FDC0820FFF7DDFE0346002B27D05C
:10D610004020FFF7D7FE0346002B21D0574B93F84D
:10D620004C31002B1CD1544BDB69554A1B01134470
:10D630005B68B3F5964F13D90023FB710DE0FB79BE
:10D640004F4A1B0113445B68B3F5964F02D1FA7938
:10D65000494BDA61FB790133FB71FB79042BEED97D
:10D66000444B5A68444BDB6945491B010B445B68DA
:10D670001046194610F0DEFC3E4B5A683E4B5B7874
:10D680003F491B010B4408331B681046194610F034
:10D690008DFC394BDB695A1C374BDA61364B3A68E3
:10D6A0005A6264E00220FFF7DFFE60E0314B5A6807
:10D6B000314B5B7832491B010B445B6810461946BD
:10D6C00010F0B8FC0320FFF7CFFE50E02A4B1B6997
:10D6D000012B17D0022B45D0002B00D047E0264B62
:10D6E0001A6A284B53F83220234B5A61224B1B6A8B
:10D6F000244ADB0013445A681F4B9A611E4B0122D7
:10D700001A6133E01C4BDA691B4B9B699A4211DAB0
:10D71000184B5A68184B5969174BDB690B441B7837
:10D720001046194610F058FC134BDB695A1C124B7B
:10D73000DA6116E0104B1B6A5A1C0F4B1A620E4B33
:10D740000022DA610C4B1A6A0E4B53F83230002B70
:10D7500003D1094B02221A6103E0074B00221A6130
:10D7600004E003E00420FFF77FFE00BF00BF08379E
:10D77000BD4680BD241A00209C190020E81400201A
:10D78000603C0208643D020880B500AF0C4B93F882
:10D790005E31032B10D801A252F823F0ADD7000858
:10D7A000B3D70008B9D70008B9D70008FFF7ECFED7
:10D7B00002E0FFF701FF00BF024B00225A6080BD6C
:10D7C000E81400209C19002080B500AF364B5B6840
:10D7D000002B11D008E0344B5B68184610F01CFC9D
:10D7E0000346184600F074F92F4B5B68184610F09A
:10D7F00003FC0346002BEED12C4B1B78052B52D893
:10D8000001A151F823F000BFA7D8000821D80008D3
:10D8100021D8000821D8000885D8000827D800089A
:10D82000FFF7B2FF3FE0214B5B685A1C1F4B5A6069
:10D830001F4B93F86131002B12D01C4B5B780133E6
:10D84000DAB21A4B5A70194B5A781A4BA3FB0213CF
:10D8500099080B469B000B44D31ADAB2134B5A704B
:10D86000FCF708F90246114B9A60134B00221A701C
:10D87000124B0022DA720D4B00221A610120FFF7D1
:10D88000F3FD10E0FCF7F6F80246084B9B68D21A4D
:10D8900040F6C4139A4205D92020FFF775FD0520F4
:10D8A000FFF7E2FD00BF80BD241A00209C19002074
:10D8B000E8140020CDCCCCCC121B0020501A002044
:10D8C00080B582B000AF0346FB71124B93F85E3116
:10D8D000032B19D801A252F823F000BFEDD800089D
:10D8E000F9D80008EDD8000805D90008FB791846DA
:10D8F00001F0E2F9034608E0FB79184601F0D4FB99
:10D90000034602E0002300E0002318460837BD4626
:10D9100080BD00BFE814002080B483B000AF786001
:10D9200039607B6807EE903AB8EEE77A3B68D3ED52
:10D93000007A67EE277AFDEEE77A17EE903A1846FE
:10D940000C37BD465DF8047B704700BF80B584B0DE
