:020000040800F2
:100000000000022075300108113F01087DD300086F
:10001000133F0108153F0108173F010800000000C9
:10002000000000000000000000000000193F01086F
:100030001B3F0108000000001D3F0108FD93000860
:100040002D3101082D3101082D3101082D31010814
:100050002D3101082D3101082D3101082D31010804
:100060002D3101082D3101082D3101082D310108F4
:100070002D3101082D3101082D3101082D310108E4
:100080002D3101082D3101082D3101082D310108D4
:100090002D3101082D3101082D3101082D310108C4
:1000A0002D3101082D3101082D31010819390108C0
:1000B000253901082D390108393901083190000826
:1000C000619200082D3101082D3101082D31010800
:1000D0002D31010895980008A1980008AD980008F6
:1000E0005D3901082D310108213F01082D3101083A
:1000F0002D3101082D310108513901082D31010838
:100100002D3101082D310108453901082D31010833
:100110002D3101082D3101082D3101082D31010843
:100120002D3101082D3101082D3101082D31010833
:100130002D3101082D3101082D3101082D31010823
:100140002D3101082D3101082D310108513F0108E1
:100150002D3101082D3101082D3101082D31010803
:1001600035900008659200082D3101082D310108F5
:100170002D3101082D3101082D3101082D310108E3
:080180002D3101082D310108A9
:1080000081F0004102E000BF83F0004330B54FEA49
:1080100041044FEA430594EA050F08BF90EA020FB6
:108020001FBF54EA000C55EA020C7FEA645C7FEA49
:10803000655C00F0E2804FEA5454D4EB5555B8BF6C
:108040006D420CDD2C4480EA020281EA030382EADD
:10805000000083EA010180EA020281EA0303362D6F
:1080600088BF30BD11F0004F4FEA01314FF4801C42
:108070004CEA113102D0404261EB410113F0004F54
:108080004FEA03334CEA133302D0524263EB43030B
:1080900094EA050F00F0A780A4F10104D5F1200EA9
:1080A0000DDB02FA0EFC22FA05F2801841F1000104
:1080B00003FA0EF2801843FA05F359410EE0A5F1D8
:1080C00020050EF1200E012A03FA0EFC28BF4CF009
:1080D000020C43FA05F3C01851EBE37101F00045BF
:1080E00007D54FF0000EDCF1000C7EEB00006EEBCC
:1080F0000101B1F5801F1BD3B1F5001F0CD3490856
:108100005FEA30004FEA3C0C04F101044FEA4452AC
:1081100012F5800F80F09A80BCF1004F08BF5FEA33
:10812000500C50F1000041EB045141EA050130BD13
:108130005FEA4C0C404141EB010111F4801FA4F1B6
:108140000104E9D191F0000F04BF01460020B1FA0B
:1081500081F308BF2033A3F10B03B3F120020CDA43
:108160000C3208DD02F1140CC2F10C0201FA0CF021
:1081700021FA02F10CE002F11402D8BFC2F1200C86
:1081800001FA02F120FA0CFCDCBF41EA0C0190403C
:10819000E41AA2BF01EB0451294330BD6FEA040485
:1081A0001F3C1CDA0C340EDC04F11404C4F1200270
:1081B00020FA04F001FA02F340EA030021FA04F382
:1081C00045EA030130BDC4F10C04C4F1200220FAD9
:1081D00002F001FA04F340EA0300294630BD21FA17
:1081E00004F0294630BD94F0000F83F4801306BFDD
:1081F00081F480110134013D4EE77FEA645C18BFD1
:108200007FEA655C29D094EA050F08BF90EA020F67
:1082100005D054EA000C04BF1946104630BD91EA5F
:10822000030F1EBF0021002030BD5FEA545C05D162
:108230004000494128BF41F0004130BD14F58004A1
:108240003CBF01F5801130BD01F0004545F0FE4115
:1082500041F470014FF0000030BD7FEA645C1ABF4A
:10826000194610467FEA655C1CBF0B46024650EA81
:10827000013406BF52EA033591EA030F41F40021AD
:1082800030BD00BF90F0000F04BF0021704730B533
:108290004FF4806404F132044FF000054FF0000108
:1082A00050E700BF90F0000F04BF0021704730B5C9
:1082B0004FF4806404F1320410F0004548BF40429E
:1082C0004FF000013EE700BF42004FEAE2014FEAF3
:1082D00031014FEA02701FBF12F07F4393F07F4FCE
:1082E00081F06051704792F0000F14BF93F07F4F00
:1082F000704730B54FF4607401F0004521F0004143
:1083000020E700BF50EA010208BF704730B54FF0C8
:1083100000050AE050EA010208BF704730B511F0CD
:10832000004502D5404261EB41014FF4806404F105
:1083300032045FEA915C3FF4DCAE4FF003025FEA87
:10834000DC0C18BF03325FEADC0C18BF033202EB0F
:10835000DC02C2F1200300FA03FC20FA02F001FA69
:1083600003FE40EA0E0021FA02F11444C1E600BF08
:1083700070B54FF0FF0C4CF4E06C1CEA11541DBFBB
:108380001CEA135594EA0C0F95EA0C0F00F0DEF886
:108390002C4481EA030621EA4C5123EA4C5350EA6B
:1083A000013518BF52EA033541F4801143F48013BC
:1083B00038D0A0FB02CE4FF00005E1FB02E506F04D
:1083C0000042E0FB03E54FF00006E1FB03569CF0A2
:1083D000000F18BF4EF0010EA4F1FF04B6F5007FA8
:1083E00064F5407404D25FEA4E0E6D4146EB06061A
:1083F00042EAC62141EA55514FEAC52040EA5E50A3
:108400004FEACE2EB4F1FD0C88BFBCF5E06F1ED84C
:10841000BEF1004F08BF5FEA500E50F1000041EB83
:10842000045170BD06F0004646EA010140EA020030
:1084300081EA0301B4EB5C04C2BFD4EB0C0541EA52
:10844000045170BD41F480114FF0000E013C00F367
:10845000AB8014F1360FDEBF002001F0004170BD8B
:10846000C4F10004203C35DA0C341BDC04F11404A4
:10847000C4F1200500FA05F320FA04F001FA05F230
:1084800040EA020001F0004221F0004110EBD370FD
:1084900021FA04F642EB06015EEA430E08BF20EA29
:1084A000D37070BDC4F10C04C4F1200500FA04F3CC
:1084B00020FA05F001FA04F240EA020001F000415E
:1084C00010EBD37041F100015EEA430E08BF20EAD1
:1084D000D37070BDC4F1200500FA05F24EEA020E19
:1084E00020FA04F301FA05F243EA020321FA04F048
:1084F00001F0004121FA04F220EA020000EBD370FF
:108500005EEA430E08BF20EAD37070BD94F0000FFE
:108510000FD101F00046400041EB010111F4801F32
:1085200008BF013CF7D041EA060195F0000F18BFE3
:10853000704703F00046520043EB030313F4801F1F
:1085400008BF013DF7D043EA0603704794EA0C0FD9
:108550000CEA135518BF95EA0C0F0CD050EA4106EF
:1085600018BF52EA4306D1D181EA030101F000416C
:108570004FF0000070BD50EA410606BF1046194694
:1085800052EA430619D094EA0C0F02D150EA0136A0
:1085900013D195EA0C0F05D152EA03361CBF1046E1
:1085A00019460AD181EA030101F0004141F0FE4180
:1085B00041F470014FF0000070BD41F0FE4141F404
:1085C000780170BD70B54FF0FF0C4CF4E06C1CEA04
:1085D00011541DBF1CEA135594EA0C0F95EA0C0FB9
:1085E00000F0A7F8A4EB050481EA030E52EA033574
:1085F0004FEA013100F088804FEA03334FF0805595
:1086000045EA131343EA12634FEA022245EA1115C1
:1086100045EA10654FEA00260EF000419D4208BF72
:10862000964244F1FD0404F5407402D25B084FEA1F
:108630003202B61A65EB03055B084FEA32024FF4CB
:1086400080104FF4002CB6EB020E75EB030E22BF28
:10865000B61A754640EA0C005B084FEA3202B6EBE8
:10866000020E75EB030E22BFB61A754640EA5C0097
:108670005B084FEA3202B6EB020E75EB030E22BF27
:10868000B61A754640EA9C005B084FEA3202B6EB28
:10869000020E75EB030E22BFB61A754640EADC00E7
:1086A00055EA060E18D04FEA051545EA16754FEA49
:1086B00006164FEAC30343EA52734FEAC2025FEA67
:1086C0001C1CC0D111F4801F0BD141EA00014FF0F6
:1086D00000004FF0004CB6E711F4801F04BF0143C7
:1086E0000020B4F1FD0C88BFBCF5E06F3FF6AFAEE3
:1086F000B5EB030C04BFB6EB020C5FEA500C50F173
:10870000000041EB045170BD0EF0004E4EEA1131F5
:1087100014EB5C04C2BFD4EB0C0541EA045170BDFC
:1087200041F480114FF0000E013C90E645EA060E40
:108730008DE60CEA135594EA0C0F08BF95EA0C0F6E
:108740003FF43BAF94EA0C0F0AD150EA01347FF4B6
:1087500034AF95EA0C0F7FF425AF104619462CE78D
:1087600095EA0C0F06D152EA03353FF4FDAE1046F0
:10877000194622E750EA410618BF52EA43067FF441
:10878000C5AE50EA41047FF40DAF52EA43057FF4D1
:10879000EBAE12E74FF0FF3C06E000BF4FF0010CDC
:1087A00002E000BF4FF0010C4DF804CD4FEA410C40
:1087B0007FEA6C5C4FEA430C18BF7FEA6C5C1BD00D
:1087C00001B050EA410C0CBF52EA430C91EA030F8E
:1087D00002BF90EA020F0020704710F1000F91EAEB
:1087E000030F58BF994208BF90422CBFD8176FEAB9
:1087F000E37040F0010070474FEA410C7FEA6C5C87
:1088000002D150EA013C07D14FEA430C7FEA6C5C8D
:10881000D6D152EA033CD3D05DF8040B704700BFB9
:108820008446104662468C461946634600E000BF07
:1088300001B5FFF7B7FF002848BF10F1000F01BDD9
:108840004DF808EDFFF7F4FF0CBF012000205DF8A4
:1088500008FB00BF4DF808EDFFF7EAFF34BF012029
:1088600000205DF808FB00BF4DF808EDFFF7E0FFC2
:1088700094BF012000205DF808FB00BF4DF808ED13
:10888000FFF7CEFF94BF012000205DF808FB00BF7A
:108890004DF808EDFFF7C4FF34BF012000205DF85C
:1088A00008FB00BF4FEA4102B2F1E04324BFB3F539
:1088B000001CDCF1FE5C0DD901F0004C4FEAC00257
:1088C0004CEA5070B2F1004F40EB830008BF20F03B
:1088D0000100704711F0804F21D113F13872BCBFF5
:1088E00001F00040704741F480114FEA5252C2F14A
:1088F0001802C2F1200C10FA0CF320FA02F018BF93
:1089000040F001004FEAC1234FEAD32303FA0CFCE5
:1089100040EA0C0023FA02F34FEA4303CCE77FEA74
:10892000625307D150EA01331EBF4FF0FE4040F4BE
:108930004000704701F0004040F0FE4040F400006D
:10894000704700BF704773B506460D4600242B885C
:108950000122A2401A421AD0EA780093022AAB7888
:108960008DF8043004D0032A0CBF0222012200E05B
:1089700000229B088DF8052003F00C0300223046EE
:1089800069468DF806208DF8073008F0F8FC0134B0
:10899000102CDCD102B070BD30B54A484A4D89B0C8
:1089A0000D21002208F02FFD002246480E2108F07C
:1089B0002AFD41F6FF73ADF804304248032301A9B4
:1089C0008DF80630FFF7BFFF4FF6FF733F48ADF855
:1089D000043001A9FFF7B7FF3D4801A9FFF7B3FF36
:1089E0003C4801A9FFF7AFFF0FCD02AC0FC495E8DB
:1089F000030009AD84E8030003AC54F8040C2146DD
:108A00000834FFF7A0FFAC42F7D12E480A2101221B
:108A100008F0F9FC2E480621032208F0F4FC2C484B
:108A20000721032208F0EFFC29480821032208F05F
:108A3000EAFC24480F21012208F0E5FC2348032129
:108A4000012208F0E0FC1F480021022208F0DBFCB4
:108A50001C480121022208F0D6FC1C4804210222F5
:108A600008F0D1FC19480521022208F0CCFC174877
:108A70000021022208F0C7FC14480121022208F05C
:108A8000C2FC12480E21092208F0BDFC0F480E213D
:108A9000032208F0B8FC0D480821032208F0B3FCBB
:108AA0000A480921032208F0AEFC094809210422E2
:108AB00008F0A9FC03480821042208F0A4FC09B02E
:108AC00030BD00BF00000240CC6601080004024037
:108AD00000080240000C02402DE9F041374DDFF85C
:108AE000E480052188B028460A4608F08CFC284618
:108AF0000621052208F087FC05222846072108F0F8
:108B000082FC0024E02302270426284601A90193C1
:108B100001258DF808708DF809708DF80A408DF8E0
:108B20000B4008F02CFC0DEB0601404601968DF839
:108B300008508DF809708DF80A408DF80B5008F038
:108B40001EFC4046314608F5806808F058FC1026A7
:108B5000404601A9019608F012FC3146184E4046E5
:108B600008F04DFC304609F0BBF94FF48273ADF8C4
:108B70000E304FF40073ADF816302823ADF81830DE
:108B80003046072303A9ADF81C30ADF80C40ADF812
:108B90001040ADF81270ADF81450ADF81A4009F05D
:108BA000F7F93046214609F023FA3046294609F004
:108BB0000EFA284608B0BDE8F08100BF0000024070
:108BC0000030014000040240034B1A88013292B287
:108BD0001A804FF0FF307047E002002038B505469C
:108BE00040F2E9341048022109F00EFA20B9013CA4
:108BF000A4B2002CF6D10EE00B48294609F0F6F994
:108C000040F2E9340848012109F0FEF930B9013C8D
:108C1000A4B2002CF6D1FFF7D7FF02E0024809F01A
:108C2000E2F9C0B238BD00BF003001402DE9F0418B
:108C300004460D4616467EB31DB195F800800135F9
:108C400001E04FF0FF0840F2E9371548022109F032
:108C5000DBF920B9013FBFB2002FF6D10EE010487A
:108C6000414609F0C3F940F2E9370D48012109F006
:108C7000CBF940B9013FBFB2002FF6D1FFF7A4FFF7
:108C8000C0B2BDE8F081064809F0ADF9C0B20CB140
:108C900020700134013ECEE70120BDE8F08100BF25
:108CA0000030014038B5274D04460021284609F020
:108CB0008EF92B88102C9BB22CD009D8042C1DD0F7
:108CC000082C21D0022C36D123F038039BB232E09D
:108CD000402C25D007D8202C2DD123F038039BB26F
:108CE00043F0200327E0802C20D0B4F5807F22D1F0
:108CF00023F038039BB243F038031CE023F0380321
:108D00009BB243F0080316E023F038039BB243F014
:108D1000100310E023F038039BB243F018030AE07D
:108D200023F038039BB243F0280304E023F0380318
:108D30009BB243F03003034801210380BDE8384073
:108D400009F045B900300140014B188880B27047E6
:108D5000E0020020014B00221A807047E002002050
:108D60002DE9F0418C4C2068878ABFB2FBB2DD0749
:108D700036D5038823F400631B041B0C03800121F8
:108D800008F0AAFE854B00221A70854A12781D460B
:108D9000844BC2B1844A117819B984490978FF29F2
:108DA00011D101211170824A1278022A05D122685C
:108DB000118889B241F4006111801978206801227C
:108DC00008F082FE0DE119782068002208F07CFE90
:108DD000764B1B78FF2B00F00481FF232B7000E102
:108DE00003F0020202F0FF01002A3AD0BFF35F8FC6
:108DF0006F4B1A78012A14D1694A12788AB16A4AEB
:108E0000127872B1002108F067FEBFF35F8F20680F
:108E10000121038B08F04CFE664B206801221A707A
:108E2000B6E0028BBFF35F8F1A78022A0AD15C4A40
:108E300012783AB15C4A127822B1002108F04CFE57
:108E40002068C9E01B78032B07D1554B1B7823B151
:108E5000554B1B78002B40F0BF804FF480610122FE
:108E6000BDE003F0040202F0FF0C002A5AD04C4B84
:108E7000DFF840811A784C4B012688F80060002A00
:108E80003AD01A78002A37D0494B444D1B784A4FC4
:108E9000022B1ED908F020FE2B7820683A68991919
:108EA0002970018A5BB2C9B2D154314608F000FE84
:108EB0002B7820683A6888F8006099192970018A2F
:108EC0005BB2C9B2D1544FF48061324608F010FE53
:108ED00023E0314608F0ECFD29783A68CBB248B27D
:108EE00021680E8AF6B21654581C098A40B2C9B2DB
:108EF000033311542B7010E01B78012113B92F4B51
:108F00001B782BB108F0D4FD244B1A78013203E012
:108F100008F0C2FD244B01221A7022681388D9057B
:108F2000FCD45EE003F0400303F0FF021B4D204E33
:108F3000E3B12978204B078A1A684B1C49B2FFB26B
:108F40005754DBB22B7032785BB203339A4204D1B0
:108F50004FF48061624608F0CBFD2B7831785AB22D
:108F600091423ED10D4A013313703AE03B0638D5A9
:108F70002B7859B24F1C25D0114F3F68795CC9B28C
:108F800001330182DBB231782B705BB2994228D178
:108F90004FF4806123E000BFFC020020E4020020C7
:108FA000F802002001030020F0020020E602002069
:108FB000E7020020E8020020F4020020E502002081
:108FC000EC020020134B2A701B78DBB20382124B99
:108FD0001B780BB9337823B94FF48061002208F075
:108FE00087FD0E4B0E4A1B7892F9002001339A42FE
:108FF0000DD10C4B00221A700B4B1B7823B120684B
:109000004FF4407108F074FD084B00221A70BDE85F
:10901000F08100BFE6020020F8020020E7020020F5
:10902000E4020020F0020020E802002000030020FB
:10903000FFF796BEFFF794BE2DE9F0475E4C5F4FF9
:1090400086B04FF48079032682461225204601A976
:10905000ADF804908DF806508DF80760FFF773FCAB
:109060008DF80650564D8DF807604FF4007828466D
:1090700001A9ADF80480FFF766FC28460921042207
:1090800008F0C1F920460422082108F0BCF9204666
:10909000C7F800A002A94FF0110AADF808908DF8AA
:1090A0000B608DF80AA0FFF74EFC284602A9ADF828
:1090B00008808DF80B608DF80AA0FFF744FCA4F837
:1090C0001A90A5F81A800824A9463B4D2B69DB05A8
:1090D00003D40A2000F0BAF9F7E74FF480760A20AB
:1090E0002E8300F0B3F9013C6E830A2000F0AEF944
:1090F00014F0FF04E9D14FF40078A9F818800A2091
:1091000000F0A4F92E830A2000F0A0F96E830A2053
:1091100000F09CF9A9F81A802846ADF808604FF0D5
:109120000309122602A98DF80B908DF80A60FFF74B
:109130000AFC02A92248ADF808808DF80B908DF842
:109140000A60FFF700FC386808F0F0FB02A808F09E
:1091500089FC224638684FF4407108F0C9FC4BF690
:10916000FF73ADF80E304FF48043ADF8143038681B
:10917000144B02930121ADF80C4008F081FC02A9C8
:10918000386808F001FC49238DF800306846012357
:109190008DF803308DF801408DF8024008F0E2FDB3
:1091A000482368468DF800308DF8014008F0DAFD5C
:1091B00006B0BDE8F08700BF00000240FC020020BE
:1091C00000080240801A060037B5224C2068838AC6
:1091D0009BB20193019B13F4706F02D01E4B0122CE
:1091E0001A70019B13F4E06F28D04FF480610022C5
:1091F000038B08F07DFC019B98051FD42068038831
:1092000099051BD4058805F48075ADB265B1038856
:10921000DA05FCD4012108F04BFC206803889B058B
:10922000FCD4FFF709FF09E0012108F041FC094BDC
:109230004FF4407118682A4608F05AFC2268938A55
:1092400023F470631B041B0C9382044B00221A70DE
:1092500003B030BDFC020020E90200200003002022
:10926000FFF7B2BFFFF7B0BF08B5054B1A88013250
:1092700092B21A80034B1868FFF7DEFE002008BD8B
:10928000E2020020FC02002070B54900214DC9B265
:10929000297021490A70214A01251570204A0021B0
:1092A0001170204A0446049810601F4A10601F4A3B
:1092B00013701F4A1F4B15701970A18811F4007F9D
:1092C00016461D4615D12388D9050CD447F23053D4
:1092D0002288920502D5013BFAD112E08BB12046DB
:1092E000012108F0D9FB20464FF44071012208F01B
:1092F000FFFB47F23053327812B1013BFBD100E063
:109300001BB9BDE87040FFF7AFBF287880F00100BF
:1093100070BD00BF01030020E6020020E50200202E
:10932000F8020020EC020020F4020020E7020020F6
:1093300000030020E90200201FB504AC04F8013D41
:1093400001230094FFF7A0FF04B010BD70B54900E1
:10935000214DC9B2297021490A70214A002111709A
:10936000204A01251570204A0446049810601F4ABF
:1093700010601F4A13701F4A1F4B15701970A18887
:1093800011F4007F16461D4615D12388D9050CD44B
:1093900047F230532288920502D5013BFAD112E000
:1093A0008BB12046012108F077FB20464FF4407135
:1093B000012208F09DFB47F23053327812B1013B95
:1093C000FBD100E01BB9BDE87040FFF74DBF287826
:1093D00080F0010070BD00BF01030020E602002004
:1093E000E5020020F8020020F4020020EC02002038
:1093F000E702002000030020E9020020024B1A6867
:1094000001321A60704700BF0403002010B5094AFA
:10941000094913688C6812689342F8D1074A1068AA
:1094200011684FF47A725043001BB0FBF1F002FB5D
:10943000030010BD0403002010E000E0080300203A
:10944000014B1868704700BF0403002038B504467C
:10945000FFF7DCFF0546FFF7D9FF401BA042FAD318
:1094600038BD10B504462CB14FF47A70FFF7EEFF0B
:10947000013CF8E710BD0000F0B54A4C4FF4700312
:10948000C4F88830484B1A68002542F001021A607F
:109490009D601A6822F0847222F480321A60434A76
:1094A0005A601A6822F4802285B01A60DD6007F0E5
:1094B00071FB4FF00063A360684608F023FB009B3C
:1094C0003B4AB3FBF2F33B4A13603B4B1A684FF441
:1094D0007A73B2FBF3F2394B013A5A60F02284F806
:1094E0002320012007229D6001461A6008F044FBFA
:1094F0000220012108F040FB0420012108F03CFB80
:109500004FF48050012108F05BFB0120014608F078
:1095100057FB0120014608F047FB0220012108F01B
:1095200043FB0420012108F03FFB4FF40000012120
:1095300008F03AFB0820012108F036FB0220012147
:1095400008F03EFB4FF40030012108F039FB4FF4E6
:109550008020012108F034FB0121402008F024FB89
:1095600008F052FB4FF4A06008F0F2FBFFF714FA8A
:10957000FFF7B2FA0A25124C124E636983F40053C6
:10958000636119201027FFF76CFF37831920FFF75D
:1095900068FF013D7783EED14FF40053638305B03C
:1095A000F0BD00BF00ED00E00038024010300024A4
:1095B00040420F00080300203C01002010E000E0C2
:1095C000000802400000024080B50B4E40F2DB175D
:1095D0004FF4005378437383871E7369074C83F4F9
:1095E0000053736138461025FFF73BFF2583192090
:1095F000FFF737FF6583F0E70008024000000240F4
:1096000010B1034B034A1A60034B044ADA607047F7
:10961000FCFF0120EFBEADDE00ED00E00400FA0526
:1096200003200AF03DBE03200AF030BE30B5254BC2
:10963000254A1A60254A5A61254A9A614FF4807278
:1096400085B0DA601A61234A9A64986002238DF823
:109650000C308DF80D3000238DF80E308A074FF056
:1096600001030D468DF80F300CD504AC402344F8AF
:10967000083D19480621072207F0C5FE1648214675
:1096800007F07DFEEB070CD504AC8023072144F8DE
:10969000083D11480A4607F0B6FE0F48214607F07C
:1096A0006EFE25238DF8043001A801238DF80530C6
:1096B0008DF806308DF8073008F054FB014805B0EE
:1096C00030BD00BFCC060020FC8901084C050020FD
:1096D0004C04002000100140000402401C4B37B530
:1096E0001C4A1A608022DA601A611B4A5A611B4ABE
:1096F0009A611B4A9A6400220D468DF806200122C9
:1097000002218DF80720AA0798608DF804108DF8C3
:1097100005100BD502AC042244F8082D114807228D
:1097200007F071FE0F48694607F029FEEB070CD5DC
:1097300002AC08230B4844F8083D0321072207F038
:1097400062FE0848694607F01AFE014803B030BDC2
:1097500018070020FC8901084C0300204C0600205B
:10976000004400400000024038B5836C1D88ADB253
:10977000A906044612D5C26A1AB19888C0B29047A9
:109780000CE09B88C2694169DBB28B54C269C36833
:109790000132B2FBF3F103FB1123C3612A0617D593
:1097A000A36A626A93420DD0A269A06CD15C08F0F2
:1097B00073FBA26A23690132B2FBF3F103FB1123AD
:1097C000A36205E0A06C40F22771002208F068FB5C
:1097D0002B0706D5A06C4FF45871BDE8384008F04F
:1097E00077BB38BD254B264A30B51A608022DA6037
:1097F00040221A61234A5A61234A9A6185B0234A5A
:10980000986001249A6401A827230D468DF804303E
:109810008DF805408DF806408DF8074008F0A2FA53
:1098200002238DF80C308DF80D30AA074FF000039D
:109830008DF80E308DF80F400DD504AC4FF48063D9
:1098400044F8083D12480A21072207F0DCFD1048C1
:10985000214607F094FDEB070DD504AC4FF40063EF
:1098600044F8083D0A480B21072207F0CCFD0848C0
:10987000214607F084FD014805B030BD6407002093
:10988000FC890108CC0300200C03002000480040A4
:10989000000402400148FFF767BF00BFCC0600206C
:1098A0000148FFF761BF00BF180700200148FFF71C
:1098B0005BBF00BF6407002008B5414BB3F8A6208A
:1098C0002DED068B1AB9D3F8A810002974D012B266
:1098D00008EE902A9FED3B7ADFED3B7AB3F9A820A2
:1098E000B3F9AA303949F8EEE88A08EE102A68EE92
:1098F000878AB8EEC88AC8EEA78A0020087028EECA
:10990000078A0AEE903A88EE278AF8EEEAAAB0EEC5
:10991000680A2AEE877AC7EE27AA0AF01DFDB0EE84
:10992000409AB0EE680A0AF09DFDF0EE409AB0EE63
:10993000480A0AF011FDF0EE408AB0EE480A0AF03B
:1099400091FDB0EE408AB0EE6A0A0AF005FDB0EE75
:1099500040AAB0EE6A0A0AF085FD20EE097A69EEA7
:109960008A7AF0EE475AE7EE885A194B2AEE096ACE
:1099700069EE806AC3ED035AF0EE465AE6EEC85A25
:10998000E7EE087AE6EE486A2AEE28AA28EEC00A30
:1099900069EEE89A68EE898A83ED00AA83ED010AF0
:1099A00083ED028AC3ED045AC3ED059AC3ED066A3E
:1099B000C3ED077AC3ED088ABDEC068B08BD00BF76
:1099C0008C130020DB0F49400000344300000020CE
:1099D000B007002038B5B0F90030224C2DED048BD3
:1099E00008EE903AB0F9023094ED030AD4ED007A13
:1099F00009EE103AB8EEC99AF8EEE88AB0F90430E8
:109A000029EE000A08EE103AA7EEA80A0546B8EEBD
:109A1000C88AD4ED067AA7EE880A0AF0D9FC94ED3C
:109A2000040AD4ED017A288029EE000AA7EEA80ADC
:109A3000D4ED077AA7EE880A0AF0CAFC94ED050A6D
:109A4000D4ED027A688029EE000AA7EEA80AD4EDC8
:109A5000087AA7EE880A0AF0BBFCBDEC048BA8804C
:109A600038BD00BFB0070020013A072A30D8DFE830
:109A700002F004080F14191E222603880B80438865
:109A800003E043880B8003885B424B8083881EE0A1
:109A900003885B420B804388F6E743885B420B8078
:109AA0000388F2E703885B420B8043880CE043881D
:109AB0000B80038808E003880B80438803E0438819
:109AC0005B420B8003885B424B8083885B428B80C8
:109AD000034B1B7813B90846FFF77CBF704700BFE4
:109AE00000000020F8B5184C2378064627467BB9BD
:109AF000164DFFF7A5FC2A683232904208D30123A5
:109B00002370134B10221A83FFF79AFC2860F8BDCC
:109B10003B78BBB10D4CFFF793FC2368334498426C
:109B200010D3094B00221A70094B10225A83FFF7F9
:109B300087FC084B20601A780AB1013A1A70064B6C
:109B400001221A70F8BD00BFD5070020DC070020F5
:109B5000000002409E0B0020D607002073B5224D66
:109B60008DF807302B788DF8062002AA1A448DF85C
:109B700004008DF8051012F8042C443AD2B20A2AD7
:109B80002BD81A49022B31F8124003D814B12046C1
:109B9000FFF7A8FF2B78022B0BD9154B1E68FFF798
:109BA0004FFC001B864204D20F4A00231370114A57
:109BB0001370114B1A78012A1A4600D094B92B78E9
:109BC000022B02D8084901330B70002313700B4A93
:109BD00013700B4B10225A8304E0022B4FF0320417
:109BE000D5D9D7E702B070BDD7070020EC660108D1
:109BF000DC0700209E0B0020D6070020D5070020A0
:109C0000000002402DE9F0413F4F404D7B7B06466E
:109C100003B101234FF400702B7001F0C7F93C4CE5
:109C2000F8B13C4B3C481B8890F8B82019B202EBC5
:109C3000820E714513DDDFF8E8E09EF801E0BEF129
:109C4000000F0AD090F8B900024402EB82024FF0F4
:109C5000010E914284F800E001DD0222227003B976
:109C60002370202001F082F960B1BA7A2B4B12B92F
:109C7000254AD27A22B12A4AD27A0AB9012200E0D0
:109C800000221A702378022B02D14C204E211DE0B5
:109C9000012B07D14D2153204C220B46BDE8F0414A
:109CA000FFF75CBF1D4B1B78012B03D153200146EE
:109CB0004E2205E02B78012B04D1532001460246A9
:109CC0004D23EBE7042E03D153204D210A460AE031
:109CD000022E03D1532001464D2204E0012E04D16F
:109CE00053204D214E224423D8E70E4B1B7823B13D
:109CF0003220BDE8F041FFF7F5BE0B4A13700B4B65
:109D000010225A83BDE8F08102180020D4070020F9
:109D1000D8070020EE0A0020BC120020D90700203E
:109D2000921700209E0B0020D50700200000024063
:109D300070B50646B6FBF2F40846154614B1204647
:109D4000FFF7F6FF05FB1464024B1B5D00F8013BB7
:109D500070BD00BF8468010810B50278202A034650
:109D600000F10100F9D0092AF7D02D2A03D10346CA
:109D7000BFEE000A04E02B2A08BF0346B7EE000A34
:109D80009FED377A1A46134612F8011BA1F13000F5
:109D9000C4B2092C0AD805EE900AF8EEE57AF2EE84
:109DA000046AE7EE267AB0EE677AECE72E2915D141
:109DB000F2EE047AF0EE676A134612F8011B3039AE
:109DC000C8B209280AD805EE901AB8EEE56A86EE00
:109DD000276A67EEA67A37EE067AEDE71A7802F080
:109DE000DF02452A34D15A782D2A02D102330122CA
:109DF00004E02B2A14BF013302330022013B00216F
:109E000013F8010F3038C4B2092C03D80A2404FB1C
:109E10000101F5E7B1F59A7F34BF0B464FF49A7311
:109E20001946F7EE007A072905D9DFED0E6A0839E1
:109E300067EEA67AF7E703F007032BB1F2EE046AA8
:109E400067EEA67A013BF8E722B1C7EE277A03E076
:109E5000F7EE007A67EE277A20EE270A10BD00BFE2
:109E60000000000020BCBE4C10B5441E14F8011FB9
:109E700021B1034B186909F015FCF7E710BD00BFCD
:109E8000681700200148FFF7EFBF00BFA96801086D
:109E900010B50748FFF7E8FF0024064B0648E158D5
:109EA0001A190C34526806F00DF9C02CF5D110BD0A
:109EB000D7680108A8670108ED68010838B5FFF701
:109EC000BFFA1F4B1A881F4B4FF47A7190FBF1F1C8
:109ED0001B781D4806F0F6F801F062F81B4B196874
:109EE0001B4B0546B1FBF3F11A4806F0EBF80024D2
:109EF000E3B2194A52F8231049B1012202FA03F3DE
:109F00002B4202D0154806F0DDF80134F0E70220BC
:109F100001F02CF838B1124B12481A78124B53F852
:109F2000221006F0CFF81148FFF79EFF104B1148A2
:109F300019884FF45A72BDE8384006F0C3B800BF24
:109F4000EA17002018000020F56801083C010020F5
:109F500040420F0033690108DC76010851690108AD
:109F6000B80E00205569010868680108006C0108F6
:109F70009C0B00205F69010838B50C680546204637
:109F80000CF0D9F9214602462868BDE838400CF0AB
:109F9000DBB9000008B50948FFF766FF0121002082
:109FA00000F0D6FF0648FFF75FFF0A20FFF759FAD7
:109FB0000020BDE80840FFF723BB00BF816901080E
:109FC0008B6901087FB504460CF0B5F9082824D147
:109FD00000231F49E25C09681144497801F003013C
:109FE000022908BF203AE2540133082BF1D10025A1
:109FF000665D184831460CF091F928B101356019B9
:10A0000031460CF08BF918B11348FFF72DFF1CE017
:10A01000082DEDD1204600F087FE1048FFF724FF01
:10A0200000230F4A1A4404A992F8CD200A44094992
:10A03000595C02F80C1C0133082BF2D100230948AB
:10A040008DF80C3001A906F03DF804B070BD00BFDA
:10A0500078020020D07F01089A690108BA690108D6
:10A060008C130020F068010808B501F05DFB013099
:10A070000CBF03480348BDE80840FFF7F5BE00BF2A
:10A08000CF690108F56901082DE9F04105460CF09A
:10A0900052F9044601F030F906468CB92948FFF719
:10A0A000E3FE294B53F8241041B10123A34033426E
:10A0B00002D0264806F006F80134F2E7244821E0F1
:10A0C0002846244922460CF03FF958B92248234C2F
:10A0D000FFF7CAFE54F8041F0029EFD01B4805F013
:10A0E000F1FFF7E72B782D2B03BF013504F1FF3487
:10A0F0004FF001084FF000080026134B53F826706C
:10A1000027B91748BDE8F041FFF7AEBE28463946EB
:10A1100022460CF019F998B90120B040B8F1000FAF
:10A1200003D001F0E1F80F4802E000F049FF0E48CB
:10A13000FFF79AFE39460D48BDE8F04105F0C2BF71
:10A140000136DAE7136A010804670108516901085A
:10A15000006C0108DE740108266A01080067010826
:10A160003B6A0108556A01085F6A0108F068010846
:10A1700010B504460848FFF777FE084A002313701D
:10A18000074A1360074A137004F0D8FA2046BDE866
:10A190001040FFF7FFBE00BF686A0108E10700201A
:10A1A00014080020E007002008B50848FFF75CFE0F
:10A1B000012000F00DFF0648FFF756FE0A20FFF7CA
:10A1C00050F90020BDE80840FFF71ABA806A01087C
:10A1D0008D690108F8B507460CF0ADF8044638B9AA
:10A1E0001A4B1B485A791B4B013A53F8221028E0AE
:10A1F0003846194922460CF0A7F860B91748184CA0
:10A20000FFF732FE54F8041F19B1164805F05AFF43
:10A21000F8E7154805E000250E4B53F8256026B9F0
:10A220001248BDE8F840FFF71FBE384631462246C7
:10A230000CF08AF801350028EED1044B0C485D7112
:10A240003146BDE8F84005F03DBF00BF8C1300204B
:10A250009B6A01084C670108DE740108AF6A0108B7
:10A260004867010851690108006C0108C26A0108C9
:10A27000DA6A010810B5044620460CF05CF810F0CC
:10A28000FF0F07D10B4B0C4893F86413BDE8104047
:10A2900005F018BF20460BF0F7FF022808D8054B41
:10A2A000064C83F864030020014600F051FEE3E70A
:10A2B00010BD00BF8C130020EC6A0108106E01086D
:10A2C00070B504460CF037F808B9204830E0204655
:10A2D0001F490CF087F800242646254678B12CB19A
:10A2E000012C06D10BF0D0FF064602E00BF0CCFFAC
:10A2F00005461749002001340CF074F8EEE7072DED
:10A3000005D914480821BDE8704005F0DBBE012CDA
:10A3100008DC114B114833F915202946BDE870407F
:10A3200005F0D0BEA6F57A73B3F57A7F04D90C4850
:10A33000BDE8704005F0C6BE0A482946324605F021
:10A34000C1FE054B23F8156070BD00BF026B01080C
:10A35000DA6D01083C6B0108A6180020626B010849
:10A360007A6B01089C6B010838B505460BF0E3FFDA
:10A37000C0B268B90446124B124803EB44032146AD
:10A38000B3F84620013405F09DFE152CF3D138BDFD
:10A3900028460BF079FF142804460BDC20212846C0
:10A3A0000BF0BCFF0BF070FF054B03EB4404A4F86B
:10A3B000460038BD04481521BDE8384005F082BE8E
:10A3C000BC120020B56B0108C16B0108931E232B42
:10A3D00028BF0A22031E10B50C4603DA2D2001F80F
:10A3E000010B5842FFF7A4FC00230370204610BD68
:10A3F00030B52DED028B87B0B0EE408A00210C22E3
:10A40000044603A80BF075FFB5EEC08ADFED2B7A8A
:10A41000F1EE10FACCBF38EE278A38EE678ADFED0E
:10A42000287A28EE278A6946BDEEC88A0A2218EEE5
:10A43000105A85EAE570A0EBE570FFF7C7FF002D25
:10A44000ACBF20232D2368468DF80C300BF073FF32
:10A45000012807D130238DF80D308DF80E308DF89E
:10A460000F300CE0022805D130238DF80D308DF827
:10A470000E3004E0032804BF30238DF80D30694608
:10A4800003A80BF03EFF03A80BF055FF0338C5B23D
:10A490002A4603A920460BF079FF00236355204686
:10A4A00008490BF02EFF03A9204629440BF029FF91
:10A4B000204607B0BDEC028B30BD00BF6F12033ADF
:10A4C00000007A449869010837B5037904460D46BF
:10A4D000052B37D8DFE803F003060A0D1114836853
:10A4E000197830E0836893F900102CE083681988AC
:10A4F00029E08368B3F9001025E08368196822E039
:10A500008368684693ED000AFFF772FF014613481F
:10A5100005F0D8FD05B3D4ED037A6846B8EEE70A36
:10A52000FFF766FF01460E4805F0CCFD94ED040AE6
:10A530006846B8EEC00AFFF75BFF0146084805F021
:10A54000C1FD09E00021074805F0BCFD25B1064822
:10A55000E168226905F0B6FD03B030BD5C69010811
:10A560005B690108EB6B0108E76B01082DE9F84313
:10A570002DED028B05460BF0DEFE4F4E074620B157
:10A58000012817D12B782A2B14D14C48FFF76CFCEB
:10A59000002431594A4805F095FD30193946FFF736
:10A5A00093FF4848FFF760FC143440F6D4039C4204
:10A5B000EFD17DE028463D210BF0B0FE00285FD0B2
:10A5C000441C20460BF060FE81462046FFF7C4FB8A
:10A5D0000027B0EE408A14247C4356F8048040469D
:10A5E0000BF0A9FE4146024628460BF0ADFE0028BE
:10A5F0003CD1314B1C4494ED037AF8EEC77AB4EEAB
:10A60000E78AF1EE10FA2FDB94ED047AF8EEC77AC0
:10A61000B4EEE78AF1EE10FA26D82279052A18BF9F
:10A6200008EE109A18EE103A052A11D8DFE802F069
:10A6300003030606090DA268137009E0A2681380DF
:10A6400006E0A26882ED008A02E0A36883ED008A3A
:10A6500041461D4805F036FDBDEC028B2046002129
:10A66000BDE8F843FFF730BF184803E00137712F0A
:10A67000B1D11748BDEC028BBDE8F843FFF7F4BB3E
:10A6800004463759294638460BF092FE58B10C481B
:10A69000394605F017FD084800212044FFF714FF54
:10A6A0000848FFF7E1FB143440F6D4039C42E8D19C
:10A6B000BDEC028BBDE8F883FC760108EE6B010867
:10A6C000CD6C0108006C0108036C01080E6C0108D8
:10A6D000336C010870B52DED048B5C4C5C4884B084
:10A6E00005F0F0FC5B48FFF73FFE62795A4B5B4890
:10A6F000013A264653F8221005F0E4FCD4ED047A22
:10A70000F5EE407AF1EE10FA5FD01834002514ED22
:10A71000028AB5EE408AF1EE10FA52D00135504867
:10A7200054ED019A94ED009AD4ED018A294605F082
:10A73000C9FCB5EEC08AF1EE10FA02D5494805F021
:10A74000C1FCB0EE480A6846FFF752FE0146464893
:10A7500005F0B8FCF5EEC09AF1EE10FA02D54148CA
:10A7600005F0B0FCB0EE690A6846FFF741FE01460D
:10A770003D4805F0A7FCB5EEC09AF1EE10FA02D5FF
:10A78000384805F09FFCB0EE490A6846FFF730FEF6
:10A790000146354805F096FCF5EEC08AF1EE10FA58
:10A7A00002D5304805F08EFCB0EE680A6846FFF727
:10A7B0001FFE01462D4805F085FC082D04F110040C
:10A7C000A5D12B48691C05F07DFC00F095FD294CB6
:10A7D000054654F8041F19B1274805F073FCF8E743
:10A7E0000C46264B53F8241041B10123A3402B42C1
:10A7F00002D0234805F066FC0134F2E7731804AA7E
:10A8000093F8CD3013441F4A8A5C03F8102C0131B1
:10A810000829F3D100241C488DF80840694605F04A
:10A8200051FC1A4D1A48615905F04CFC28190021B9
:10A83000FFF74AFE1748FFF717FB143440F6D4031E
:10A840009C42EED104B0BDEC048B70BD8C13002093
:10A85000506C0108106E01084C670108806C0108FB
:10A860008B6C0108DA6D01085C690108F068010869
:10A87000936C010800670108A56C010804670108D2
:10A88000B36C0108D07F0108C06C0108FC76010898
:10A89000C96C0108006C0108F0B589B004460BF0E2
:10A8A0004AFDC5B2002D72D17F48804CFFF7DCFA1B
:10A8B00054ED027AF5EE407AF1EE10FA2CD0013523
:10A8C00029467B4805F0FEFB14ED020A04A8FFF7B9
:10A8D0008FFD0146774805F0F5FB14ED010A04A849
:10A8E000FFF786FD0146734805F0ECFB94ED000A86
:10A8F00004A8FFF77DFD01466E4805F0E3FB94EDEB
:10A90000010A04A8FFF774FD01466B4805F0DAFB65
:10A91000082D04F11004CBD1DFED687A684BB0EE5E
:10A92000677AF0EE676A0022AA4203F110030DDA9B
:10A9300013ED045A53ED035A13ED026A013276EE19
:10A94000856A77EEA57A37EE067AEDE75D48CDEDBC
:10A95000016ACDED027A8DED037AFFF785FA0024C6
:10A9600008AB234413ED077ADFED577A574B58486D
:10A97000B0EEC77AB4EEE77AF1EE10FAD8BF184617
:10A980000434FFF771FA0C2CEAD1524874E02046E7
:10A99000514905220BF0D8FC38B9504B0344103014
:10A9A000002280281A61F8D17BE020464C4904221D
:10A9B0000BF0CAFC0546204605BB20210BF0AEFC7F
:10A9C00000286ED0461C30460BF0B5FC2C460746DE
:10A9D000444B53F824500DB943484DE030462946C6
:10A9E000FAB20BF0B1FC38B9204603F04BFF3F48F8
:10A9F000294605F067FB4CE00134E9E70BF044FC25
:10AA0000461E072E074648DC204620210BF086FC18
:10AA1000054650B1451C2846FFF79EF92F4B03EB26
:10AA2000071787ED000A012400E00446284620218C
:10AA30000BF074FC054648B1451C2846FFF78CF91D
:10AA4000264B03EB061383ED050A0134284620212B
:10AA50000BF064FC054648B1451C2846FFF77CF91D
:10AA60001E4B03EB061383ED060A01342846202112
:10AA70000BF054FC18B91E48FFF7F6F911E001304D
:10AA8000FFF76AF9154B032C03EB061686ED070A50
:10AA9000F1D11848FFF700FF03E01748082105F03F
:10AAA00011FB09B0F0BD00BFDB6C0108A41300204E
:10AAB000066D01080C6D0108F06801080000000037
:10AAC000A0130020106D01080AD7233CD76C0108A1
:10AAD000D36C0108006C01081F6D01088C13002065
:10AAE000256D01084C670108C26A01082A6D01083A
:10AAF0003D6D0108106E0108776D01082DE9F047E2
:10AB0000694B1A7886B0984642B90123674888F89D
:10AB10000030FFF7A9F96648FFF7A6F9654D2869E7
:10AB200008F0D0FDA946002800F0BB802869624CDF
:10AB300008F0CEFD0928014601D03F2853D1002757
:10AB4000D4F800A05D4E3D46BAF1000F05D05C4838
:10AB5000316852460BF0F8FB10B9374605B9354657
:10AB6000584B0C369E42EFD3CDB1D5F800E0D7F864
:10AB700000C053461EF803601CF80300B04201D029
:10AB800023600CE05A1C4E4930B92D2B04D82026E6
:10AB9000CE542260885402E0CE541346EAE723687C
:10ABA0001BB1BD4201D1554612E04748FFF75CF9A1
:10ABB000BD4209D855F80C0BFFF756F9D9F810002B
:10ABC000092108F06FFDF3E73948FFF74DF900253B
:10ABD00023689D42A2DA3A4BD9F81000595D08F07B
:10ABE00061FD0135F4E723682BB9042836D13448D8
:10ABF000FFF7BEFA55E00C2801D1344889E70A294D
:10AC000001D00D2944D132482D4DFFF72DF922688E
:10AC10002A4903950023AB5404932E4B009303A8B9
:10AC200010220C230BF034FB064638B100680BF001
:10AC300082FB0130B3682844984702E02648FFF7BA
:10AC400013F91F48002130220BF053FB002323602F
:10AC500098F80030002B7FF45EAF22E00C28CCD0B7
:10AC60007F2903D15AE72F2B3FF658AFA1F12002DD
:10AC7000D2B25E2A3FF652AF13B920293FF44EAF4D
:10AC80005A1C22600E4A2869D15408F00BFD45E792
:10AC90007F29E8D1013B0A4A23600021D1540F48A3
:10ACA0003AE706B0BDE8F087E00700209F6D010895
:10ACB000D76D01086817002014080020A867010854
:10ACC000E107002068680108DC6D0108E16D0108FA
:10ACD000006C0108799F0008EC6D01080D6E0108F9
:10ACE0000F4B1A78412A17D15A88B2F55A7F13D1DF
:10ACF0001A79BE2A10D193F86623EF2A4FF000008C
:10AD00000CD113F8012B5040064A9342F9D1D0F1EF
:10AD1000010038BF0020704700207047704700BF17
:10AD200000000E0868030E0870B50546441E14F8AE
:10AD3000011F61B1064E30460BF0F0FA0028F6D044
:10AD4000861B04483044631B80F8CD30EFE770BDAC
:10AD5000D07F01088C13002008B5FFF7C1FF10B9A0
:10AD60000A20FEF731FC0C4B0C4918464FF45A727E
:10AD70000BF0B6FA90F86423022A84BF002280F810
:10AD8000642390F86413D02202FB0101F4310448DB
:10AD90000BF0A6FA08BD00BF8C13002000000E08BF
:10ADA000BC1200202DE9F0472E4890F82050C47FB7
:10ADB000002303FB03F11939694301F6C411594318
:10ADC00040F6C412614391FBF2F1274A22F81310B6
:10ADD0000133072BEDD1254A90F82130B2F890606D
:10ADE000B2F892A090F822E0C3F1640903EB830C5F
:10ADF0005C425FFA89F94FEA4C0CCEF16408C6EB6D
:10AE00000A0AA4B20022A1B20FB2002F04DC00296A
:10AE100014BF1D46012500E04D4611FB01F101FB69
:10AE20000EF115FB05F591FBF5F545440A217D432F
:10AE300095FBF1F565442DB24FF47A7105FB0AF5E7
:10AE400095FBF1F50A493544555202320A34182A65
:10AE5000A4B2D8D1007802F00FFFBDE8F04700F0AF
:10AE6000C5BB00BFBC120020881800208C13002036
:10AE7000B017002008B5FFF76FFFBDE80840FFF7E7
:10AE800091BF0000F8B52E4B41221A704FF45A7250
:10AE90005A80BE221A71EF2283F8662300220746E9
:10AEA00083F867231E4641B193F864032549D022F5
:10AEB00002FB0030F4300BF013FA00221346B15CB1
:10AEC0000132B2F55A7F83EA0103F8D11C4A00250A
:10AED00082F8673306F0A0FEF32006F0B3FE582098
:10AEE000022106F0E1FE082815D1174C331903F1B1
:10AEF000774303F572032046196806F00BFF082814
:10AF000005D0013506F096FE032DE3D103E00F4B8B
:10AF100004349C42EAD106F08DFE032D02D0FFF7E7
:10AF2000DFFE10B90A20FEF74FFBFFF7A3FF37B192
:10AF30000F2014210122BDE8F84002F01BBCF8BD2F
:10AF40008C130020BC12002000000E0868030E08BD
:10AF500038B505460C46FEF766FB28462146FFF746
:10AF600091FFBDE83840FEF75BBB0000034B1B6858
:10AF700018420CBF00200120704700BF18080020B5
:10AF8000024B1A6810431860704700BF1808002071
:10AF9000024B1A6822EA0000186070471808002067
:10AFA000014B1868704700BF18080020034B9B68CE
:10AFB00018420CBF00200120704700BF8C130020F6
:10AFC000024B9A6810439860704700BF8C130020B2
:10AFD0002DE9F3470446FFF783FE10B1002C00F083
:10AFE0007081B94AB94D10685168B94C6B4603C3BA
:10AFF0004FF45A72002128460BF07BF90021D02231
:10B0000020460BF076F94FF0410A032302206B71C2
:10B0100085F800A0FFF7D4FF0820FFF7D1FF4FF419
:10B020001673A5F8B030FA23A5F8B2302A23A5F894
:10B03000AE304FF4FA73A5F8B630202385F8B4305B
:10B040006E2385F8C9302B2385F8CA30212385F873
:10B05000CB3040F24C43A5F8D83040F26C73A5F8E1
:10B06000DA3040F27E43A5F8903040F23A73002681
:10B070004FF0010840F2DC51A5F892304FF4C8724D
:10B080004FF47A73A5F8D61085F86463A5F8B86014
:10B09000A5F8BA60A5F8BC6085F8A26085F8A36041
:10B0A00085F8A460A5F8A660A5F8A860A5F8AA6030
:10B0B00085F8AD6085F8AC8085F8CC6085F8D56002
:10B0C00085F8EE6085F8EF6085F8F06085F8DC6063
:10B0D00085F8DD6085F8DE80A5F89430A5F89E201F
:10B0E0004FF4E132C5F8E4204FF4165240F27E539B
:10B0F000C5F8E82040F6AC521E20A5F89630AA818B
:10B1000040F2EA531722A5F89830E07240F2B453A7
:10B1100062752073A2750B2055222827A5F89A3056
:10B12000E27032232D2260714FF0080E1420A5F832
:10B130009C30A5F8A03062732371A07184F810E0F0
:10B1400085F8E06085F8E16085F8EC6085F8ED60F1
:10B15000AE7385F8DF6026706770A770E675A6731A
:10B160002676E6736676A27684F82130042384F886
:10B170002E30152384F83130564B6363564B607480
:10B180004FF00E0E5020A363544B84F807E0E07696
:10B190004FF0640E5A20E363514B20724FF00A09BE
:10B1A00084F81CE0E0774FF0780E23644D4884F873
:10B1B0001290192384F84530677284F80AE02275EA
:10B1C00084F81E8084F820A084F8236084F824602A
:10B1D00084F82560E18484F822606685A68526854A
:10B1E00084F82F7084F8307084F84480FFF79CFD59
:10B1F0004FF44873A4F87430C82384F8B9304FF47E
:10B200009663A4F8BA3040F2D933A4F8BC3084F87D
:10B21000706084F8716084F8727084F8738084F8C8
:10B22000766084F8B89023464FF47F72A4F87820B3
:10B230004FF4FA62A4F87A2040F2DC52A4F87C20A1
:10B240001DF8062084F87E200136082E04F108043B
:10B25000EAD1012283F8BE2083F8BF2083F8C02002
:10B26000C82183F8C6206422A3F8C210A3F8C8201E
:10B2700014214FF4967283F8C410A3F8CA201E213B
:10B28000282283F8C510A3F8CC20522385F8653313
:10B290000023EA1810330021802B1161F9D100241A
:10B2A0002819F4300A49D022D0340BF019F8B4F53B
:10B2B0001C7FF5D10020014602B0BDE8F047FFF742
:10B2C00047BE02B0BDE8F087E46601088C13002099
:10B2D000BC1200209A99193FF6287C3F3D0A773F1F
:10B2E0000000A040D97F0108024B9A6822EA0000C2
:10B2F000986070478C130020014B9868704700BF1E
:10B300008C13002010B5044C002320702361FEF73D
:10B3100097F8606110BD00BFF816002007EE100A14
:10B32000F8EEC77A9FED0A0A9FED0A7AF5EEC07A29
:10B33000F1EE10FAD8BFF1EE677A87EE800A08B511
:10B3400020EE070A09F008F8034B83ED000A08BD58
:10B350008096184B35FA8E3C0400002010B5121A66
:10B3600007EE902A5B1A2DED028BF8EEE78A07EEC6
:10B37000903A184B059CB8EEE78AD3ED007A28EE98
:10B38000278A28EE080AA8EEA80A09F0ADFADFED30
:10B39000127A049B20EE270AF0EE480AFCEEC07AEF
:10B3A000B1EE680AC3ED007A09F0F8F8DFED0B7A28
:10B3B0009FED0B7AE0EE077ABDEC028BFDEEE77AAB
:10B3C00017EE903A002BBCBF03F50C43A03323606B
:10B3D00010BD00BF040000202C7D8E3F00A00C4655
:10B3E000A00CB34507EE900AB8EEE77AD2ED017AE9
:10B3F00027EE277AD1ED007AE7EE007A10B5C1ED9D
:10B40000007A92ED037AF1EE476AFDEEE77AFDEEFF
:10B41000E66ABDEEC77A0C4617EE102A17EE900AC0
:10B4200016EE901A05F09EFB07EE100AF8EEC77AAA
:10B43000C4ED007AFDEEE77A17EE900A10BD000029
:10B4400030B5002213460E49CC5C0D469CB12E2C23
:10B4500004D1013378B11D4400242C54C95C0A2462
:10B460006243A1F13004092C9CBF303A52180E2BD4
:10B4700003D80133E7E7104630BD002030BD00BFE0
:10B48000BF080020F8B52C4B2C4C93F8E03013B1DA
:10B49000012B0AD04CE06278294B03EB0213294AB6
:10B4A0005968506808F019F93FE0264D686808F0BF
:10B4B00019F92E4600283BD02378012B1ED1FDF729
:10B4C000BFFF6369C31A632B064633D92369042B74
:10B4D00012D81B4F686807EB0313596808F0FDF892
:10B4E0006378686807EB0317B96808F0E0F8236928
:10B4F0006661013323611BE0022017E023693BB939
:10B5000062780F4B686803EB0213596808F0E5F89E
:10B5100023690A4D8B2B08D80B4A7068D15C08F060
:10B52000C1F82B6901332B6102E00320FFF7EAFE2B
:10B5300000236360F8BD00BF8C130020F8160020C4
:10B540004881010868170020BC80010810B50B4C29
:10B55000E37A8BB10A4B1B78042B0DD9094A0A4BAD
:10B56000106852685A601860FFF7D8FE074B1A88B7
:10B57000074B1A800123237310BD00BF92170020D0
:10B580004618002028180020F81700206417002013
:10B59000E608002010B5002213460E480E4C00218C
:10B5A00019520E4819520E481444195200202060B6
:10B5B0006160A0600B4C1444023320606160A060A5
:10B5C000094C1444042B20606160A06002F1140255
:10B5D000E3D110BD0C0B002094080020AC17002014
:10B5E000C8170020480800201C0900202B4BDFED65
:10B5F0002C7A58792B4AD97B07EE100AB8EE477A95
:10B60000987987EE277AF2EE046A82ED007A07EEE7
:10B61000101AB8EE477A2449D16087EE277A82ED76
:10B62000017A07EE100AB8EE477A204A187CD160FA
:10B6300087EE267A82ED007A07EE100AB8EE477A96
:10B64000987E87EE277A06EE100A82ED017AB8EE30
:10B65000466A9FED177AD87986EE076A82ED026A0C
:10B6600006EE100AB8EE466A124A587CDB7ED160BC
:10B67000C6EE266AC2ED006A06EE900AF8EE666A29
:10B68000C6EEA77AC2ED017A07EE903AF8EE677A35
:10B6900087EE877A82ED027A704700BFBC120020E5
:10B6A0000000C842D00800200000FA44FC08002036
:10B6B00000007A4484080020F7B5074600200E46B3
:10B6C000FFF720FE4FF48070FFF770FC08B3124DB7
:10B6D0006E70FDF7B5FE114BA86093F8E0300024C2
:10B6E000A3426C600CBF01250325FFF77FFF0C4BC5
:10B6F000009403EB061638462B462146726808F084
:10B70000D9FD084B5860012003B0BDE8F040FFF7B9
:10B71000F9BD03B0F0BD00BFF81600208C13002067
:10B720004881010868170020F8B5194B1B78032BD6
:10B730002AD1184C4FF4005363834FF48043638342
:10B74000154D686807F0BEFF58B14FF400562683C8
:10B7500068682F6807F0BCFF0146384607F0A2FF73
:10B76000668328680C4E07F0ADFF0028E8D04FF440
:10B77000804596E88100258307F0AAFF01463846F8
:10B7800007F090FF6583DBE74FF0FF30F8BD00BFA7
:10B79000F8160020000802406817002073B51A4C04
:10B7A000036823600B686360184D0068184EFFF74C
:10B7B000B5FD184B009395E8030094E80C00019642
:10B7C000FFF7CCFD60686968134A33681360411A5B
:10B7D00007EE901A1149206891ED007A2968104A05
:10B7E000F8EEE77A411A67EE877A1160FDEEE77AA4
:10B7F000C2ED017A0B4A13600B4BB3F8C8200B4B18
:10B800001A8002B070BD00BFEC080020281800208C
:10B810004409002050090020E8080020040000200E
:10B820008009002058090020BC1200207C0900205B
:10B8300044F25063984203DDA0F50C40A0387047F5
:10B84000034B9842BCBF00F50C40A030704700BFCE
:10B85000B0B9FFFF264BF0B51D68024600F1100796
:10B8600014782B1911465E7806F00406013206F0B2
:10B87000FF036EB1BA42F3D10020F0BD1BB103EB60
:10B8800083035B00DBB210F8012B303A1344DBB2C8
:10B890000A1A022AF2DC002281420AD91AB102EB0A
:10B8A00082025200D2B210F8016B303E3244D2B262
:10B8B000F2E72E2C0FD14C1C042000210A267143E4
:10B8C0002678AF197F787F0702D5303901343144AB
:10B8D0000138F3D100E0002106484243642000FB18
:10B8E000012106240448B1FBF4F100FB0310F0BD74
:10B8F0007802002040420F00809698002DE9F04F1A
:10B90000994B2DED028B5A6889B0CAB9974C2378B0
:10B91000013B032B00F2C385DFE813F087058705A1
:10B92000A1058A05904B586807F0D2FE904B93F81A
:10B93000E030012B044600F0D98008D3022B06D05A
:10B940008949486807F0BEFE0028EBD1DEE7242CC9
:10B9500007D1884A00231370874A1370874A1370EF
:10B96000C0E02C2C01D02A2C7FD1834E814F32781D
:10B97000834B3D7800209854824AB5B919781570E8
:10B98000472968D15978502965D19978472940F0DD
:10B990007585D978472940F071851979412940F09A
:10B9A0006D850121117000F069BD1278012A3AD12C
:10B9B000022D05D11846FFF74DFF734B18604AE082
:10B9C000032D07D11B78532B45D16F4B1A68524278
:10B9D0001A6040E0042D05D11846FFF73BFF6A4B83
:10B9E000586038E0052D07D11B78572B33D1664BB3
:10B9F0005A6852425A602EE0062D07D11A78634BDE
:10BA0000302A94BF00220122DA7224E0072D04D1EB
:10BA1000FFF716FD5E4B18701DE0092D1BD1FFF7D7
:10BA20000FFD5C4B16E0022A15D1072D0CD1012029
:10BA3000FFF706FD41F218434FF47A725843B0FB0A
:10BA4000F2F3554A138006E0082D04D10120FFF7D8
:10BA5000F7FC524B1880013500232A2C3D703370BF
:10BA600037D14F4B01221A703CE00D2C4C4B01D0CA
:10BA70000A2C24D11A78F2B1414908784978A0F10A
:10BA80003002D2B2092A84BFA0F13702D2B202F04A
:10BA90000F021001A1F13002D2B2092A84BFA1F134
:10BAA0003702D2B2354902F00F0202440978D2B20D
:10BAB0008C1A62426241002119707AB912E02E4953
:10BAC0000A780E2A03D8501C08702D498C541B7814
:10BAD00043B92A4B1A7854401C7003E0294B1B7859
:10BAE000012B00D0002303F0010358E12D4B1978FE
:10BAF0000022082900F25281DFE801F00A0511193D
:10BB000027607D96A100622801D1022205E01A700B
:10BB1000B52C40F043811A7801321A703EE10322BD
:10BB20001A70214B1870214B1870214B0BE01F49E4
:10BB300004221A701E4B0A7818782244D2B20A7076
:10BB400002441A701B4B1C7028E1184905221A7018
:10BB5000174B0A7818782244D2B20A7002441A703D
:10BB6000154B1C801AE100BF68170020F816002052
:10BB70008C130020E308002054090020BE08002098
:10BB8000BF080020890900202818002092170020F3
:10BB900046180020A4170020CC170020D80B002046
:10BBA000F4080020E40800205C090020E0080020E0
:10BBB000E108002044080020820800206249062293
:10BBC0001A70624B0A7818782244D2B20A70024482
:10BBD0001A705F4B1A8802EB0424A4B2B4F5007FFC
:10BBE00001D81C8003E000221A805A4B1A705A4A6E
:10BBF00000231380D3E05448544A01781578214437
:10BC0000C9B201702944117053490A88C72A9CBFE0
:10BC100052488454013292B20A804D4909889142B7
:10BC200040F0BC80072278E708221A70464B1B7848
:10BC3000834200F0B380474A00231370AFE01A70CC
:10BC4000424B1B78834240F0A980454B1B78062B62
:10BC500039D004D8022B12D0032B24D09EE0122B13
:10BC600044D0302B40F09A803C4B1A793D4B102A3F
:10BC700088BF10221A701978384A002344E0374BE5
:10BC8000394A59685160996811601A694FF47A739A
:10BC900092FBF3F2354B1A80354B1A78354BDA723A
:10BCA0000122354B20E02D4A537913F0010303D0D4
:10BCB0001379D81E434243412D4A1370002B38D1CB
:10BCC0002C4AD37235E0254BDA7A12F0010203D008
:10BCD0009A7AD11E4A424A4125490A700AB9254931
:10BCE000CA7293F82F20254B1A7022E01B4B24496F
:10BCF0005A690A809A6942F2107392FBF3F2214B5F
:10BD00001A800122204BEFE78B4202F10C0210DA7D
:10BD10001E4812F8044C1C541D4812F8034C1C54C5
:10BD20001C4812F8014C1C541B4814781C54013355
:10BD3000EAE711490B788BB3134B1A7872B30022E0
:10BD40001A700A7001232AE0E0080020E1080020B0
:10BD500082080020E4080020BC0800208C09002094
:10BD6000440800204718002028180020A4170020AD
:10BD70007409002092170020E208002046180020D5
:10BD8000CC170020D80B002062090020801700206B
:10BD90001718002030180020781800200023002BEE
:10BDA0003FF4CEAD954CA368E360FDF749FBA0607E
:10BDB0002020FFF7E5F8924B1A78012A0CBF0022E9
:10BDC00001221A708F4BDA7A002A3FF4B9AD8E4AFD
:10BDD0001278042A7FF6B4AD5A7802B91A731B7B25
:10BDE00013B90AB1FFF7B2FB884B894C1A780525C5
:10BDF000013292FBF5F505EB8505551B1D70854B52
:10BE000093F800A0844B03EB85050023834A844903
:10BE10009858DFF84CC2834E585090FBFCF1995172
:10BE200003EB8309804EDFF83C829F1806FB01007C
:10BE3000029753F8086055F8097045F80900C7EBF8
:10BE4000060B42F2107E90FBFEFE0526584443F896
:10BE5000080090FBF6F00CFB010174481FFA8EFEFF
:10BE6000BAF1010F24F802EF1950164606D1AEF1CF
:10BE7000020EBEF5797F9CBF029801600433082B47
:10BE8000C4D16B4D6B4CFDF7DBFA2B689FED6A7AE2
:10BE9000C01A05EE100AF8EE457A2746C7EE877AF3
:10BEA000C4ED007AFDF7CCFAD4ED007A2860FDEEFF
:10BEB000E77A04AA17EE903A012BA8BF012307EEF8
:10BEC000103AF8EEC77A5D4BC4ED007A009205AAED
:10BED000019296E803000CCBFFF740FA049A584908
:10BEE0000598484D6423B2FBF3F20A80554A90FB53
:10BEF000F3F313802B7B0BB90B8013805248534B09
:10BF00000278002A3FD0D4ED007A31681A68DFF851
:10BF100058C1B7EE007AC7EE277A8A1A71684FF0D7
:10BF2000020807EE102AB8EEC77A5A6827EE277A79
:10BF30008A1ABDEEC77A17EE109A07EE102A444A05
:10BF4000B8EEC77AD2ED006A424A27EE267AB2F9F5
:10BF5000021067EE277AFDEEE77A17EE90EA01FA13
:10BF60008EFEB2F9001001FA89F19EFBF8FE91FBFA
:10BF7000F8F11FFA8EFE89B2ACF802E0ACF80010BE
:10BF8000A2F802E0118001220270716830685960E5
:10BF900018602B7A23B91B4BDB79002B3FF4D0AC14
:10BFA0002D4DDFF8C880DFF8C8A0CDF80080CDF8AF
:10BFB00004A095E80C00FFF7D1F969687268274B77
:10BFC000DFF850908A1A07EE902A214A296892EDEC
:10BFD000007A3268F8EEE77A8A1A67EE877A1A6092
:10BFE00099F90020FDEEE77A012AC3ED017A9B461C
:10BFF00040D0022A00F0CA80A2E400BFF816002058
:10C00000A80B002092170020461800208809002065
:10C01000F4080020950B00201C08002028180020A0
:10C020006C09002010090020806967FF7808002053
:10C03000780900200C09002000007A44F81700203D
:10C04000F417002000180020700800206409002068
:10C05000040000205E090020EC0800208009002078
:10C0600080969800480900201809002050090020F7
:10C0700044090020764D00245BF81400754BDFF86E
:10C080000C92D3ED007A34F80930DFF8048297ED92
:10C09000000A714E05EE100AB8EEC57A15EE101AB8
:10C0A00067EE277A4246FDEEE77A17EE900AC01A4D
:10C0B0006A4B80B2E05200B207EE900AB8EEE77A1F
:10C0C000D8ED007A67EE277A0844FDEEE77A294634
:10C0D00017EE90AAFFF786F9614ADFED625A92F8EF
:10C0E000C4205BF8143097ED007AD5ED027AD8EDD4
:10C0F000026A5D4906EE102AB8EE466A6A686B600D
:10C1000026EE256AF7EE005A85EE866A9A1A1FFA1D
:10C110008AFA5044A05305EE102A36EE076AF8EE6C
:10C12000C55A87EE066A4FF4FA6285EE877A37EED3
:10C13000677AE6EE077AC5ED047AC5ED027A66EE17
:10C14000A77AFDEEE77A17EE900A04F00BFD34F8BB
:10C150000930464931339BB2622BA35B98BF002064
:10C16000184480B2A05340F6B83200B204F0FAFC92
:10C170003F4B30530A2202FB0433023455F8142B90
:10C180001A60042C7FF478AFFFF7DABB344BD8F891
:10C1900000B0B3F9CA604FEA5B039E42A8BF1E46D7
:10C1A000344B1A88B6B230B211B288420CDD94ED2D
:10C1B000007ADFED317A67EE277AFDEEE77A17EE47
:10C1C000906A1644B6B21E802C4BDAF800401B6809
:10C1D000C3EB040A5046FFF72BFB002841F29312F1
:10C1E00001DD904201E043429342CCBF0023012392
:10C1F0009FED238A234D002B4CD007EE10AAB8EEFA
:10C20000C70A20EE080A08F02DF905EE10BAF8EE7C
:10C21000457A1D4B154920EE270A40F6B832BDEE8F
:10C22000C00A10EE100A80B2188000B204F09AFC26
:10C2300048F6A0432044984203DDA0F50C40A03806
:10C2400004E00028BCBF00F50C40A030286022E0CC
:10C2500048080020D0080020C817002072080020DD
:10C26000BC120020DB0FC94030F8FFFF48F4FFFF8D
:10C270001C0900207C0900200000C8425809002049
:10C28000D3023739E8080020800800201809002070
:10C29000FC0800202C602B68834DC3F50C53283319
:10C2A00007EE103AF8EEC77A002427EE888AB0EE3F
:10C2B000480A08F051F88DED070AB0EE480A08F078
:10C2C000D1F88DED060A794ADFF814A2A25EDFF8F4
:10C2D00014B231B208A807EE902A07EE101A00EB4C
:10C2E000440353ED026A7249B8EEC77AF8EEE77A72
:10C2F0004FF47A72D6EE877AFDEEE77A17EE900A5F
:10C3000080B224F80A0000B204F02CFC80B224F8B9
:10C310000A0000B205EE100ADBED007A97ED000A84
:10C32000B8EEC57A294667EE277A5A46FDEEE77AD7
:10C3300017EE903A9BB20393FFF754F834F90A20B2
:10C34000DFF8A4A1DFED5B5A9AF8C41097ED007AEC
:10C35000D5ED027ADBED026A039BDFF890B106EEC1
:10C36000101AB8EE466A69686A6026EE256AF7EE2A
:10C37000005A85EE866A511A034440F6B83205EE3B
:10C38000101A36EE076AF8EEC55A87EE066A4A4971
:10C3900085EE877A37EE677AE6EE077AC5ED047A9E
:10C3A000C5ED027A66EEA77AFDEEE77A17EE900AFF
:10C3B000184480B224F80B0000B204F0D3FB3F4BCA
:10C3C0002BF804000A2202FB0433023455F8142B24
:10C3D0001A60042C53467FF476AF93F8C62032B12E
:10C3E000374A1168642291FBF2F1364A1180B3F8A2
:10C3F000C230D8F800209A420ED9334B1868334B1C
:10C400001B68C01AFFF714FA42F210730028B8BF75
:10C41000404298427FF794AA012389F800302C4BC0
:10C420001A88284B1A80FFF78BBAFFF72BF836E0F3
:10C4300063680133636063780133DBB20522B3FBC9
:10C44000F2F202EB82029B1A6370FCF7F9FF214AB9
:10C45000A06000231370204A0120D3720BE0FCF788
:10C46000EFFFA36840F6C412C01A904217D92020EB
:10C47000FEF78EFD0420FEF745FF10E09B7817497C
:10C48000522B7FF4E8AACB784D2B7FF4E4AA0B79EA
:10C49000432B7FF4E0AA02231370FFF7DCBA09B044
:10C4A000BDEC028BBDE8F08F1C09002018090020AC
:10C4B00018FCFFFFDB0FC94048F4FFFF48080020CD
:10C4C000E8080020E0170020440900205809002057
:10C4D000E60800204618002092170020BF08002020
:10C4E0007208002084080020BC120020C817002019
:10C4F00038B5294D2DED048BD5ED008AB0EE680AD4
:10C50000044607F029FFB0EE408AB0EE680A07F053
:10C51000A9FF95ED019AF0EE408AB0EE490A07F0C6
:10C520001BFFF0EE409AB0EE490A07F09BFFD4EDF6
:10C53000017AD4ED026A67EEA80AB0EE407A60EEA6
:10C54000870A28EEE60A66EE876A94ED007AE7EE3F
:10C55000290AA7EE880AE6EE880A08F01FF8DFED40
:10C560000F7A9FED0F7A0F4B20EE270A80EE070A15
:10C5700093ED007A30EE070AB2EE047A80EE070AF5
:10C5800007F026FFBDEC048B83B21A0444BF00F50C
:10C59000B4739BB218B238BDC40A00200000E14455
:10C5A000DB0F49408C0A002038B5354C0820258D1A
:10C5B000FEF7DCFC334BC8B129B2642291FBF2F0E8
:10C5C00002FB101212B207EE102AF8EEC76A07EE4D
:10C5D000100AF8EEC77A9FED2C7AE6EE877AB2EE73
:10C5E000047A67EE877AC3ED007A01E000221A60D0
:10C5F00094F84530DFED257A254D00EE103AB8EE7F
:10C60000C00A20EE270A07F0A7FE2B8807EE903A13
:10C61000F8EEE77A27EE800A07F0DAFE2D889FED24
:10C620001D7A1D4B07EE905AF8EEE77A1880C7EE98
:10C63000277A1A4B9FED1A7AC7EE877A9FED197AFF
:10C64000C3ED007AB4F8743007EE903AF8EEE77A6A
:10C65000154BC7EE277A9FED157A67EE877A94ED32
:10C66000107AC3ED007ADFED127A124B67EE277A6B
:10C67000B6EE007AC7EE277AC3ED007A38BD00BF68
:10C68000BC1200208C0A00208988883C35FA8E3C38
:10C69000380100200AE81C41EC0A0020281700207D
:10C6A00000401C46000061444C1700204C3D0F44E4
:10C6B000DB0F49405417002090ED010A90ED007AFD
:10C6C000D0ED027A20EE000A38B5A7EE070A04463C
:10C6D0000D46A7EEA70A08F007F9B5EE400AF1EEFD
:10C6E00010FA11D0D4ED007AC7EE807AC5ED007A49
:10C6F000D4ED017AC7EE807AC5ED017AD4ED027AE5
:10C7000087EE800A85ED020A38BD38B52DED0A8B1B
:10C7100091ED008A90ED00AAD0ED01AA90ED029A69
:10C72000B0EE480A04460D4607F016FEF0EE409AB9
:10C73000B0EE480A07F096FE95ED018AB0EE40BAD9
:10C74000B0EE480A07F008FEF0EE408AB0EE480A64
:10C7500007F088FE95ED02CAB0EE408AB0EE4C0AB2
:10C7600007F0FAFDF0EE40BAB0EE4C0A07F07AFEA0
:10C770006BEE005A2BEEA97AB0EE655AA7EE485A36
:10C78000A5EEC87A20EE296A6BEE2B7A2AEE877A1C
:10C7900028EEC00AF0EE466AE7EE886AAAEE007A52
:10C7A000E6EE087A6BEEA8BAA9EE277A6BEE687A05
:10C7B0006AEEA66A6AEEA77AEAEE2B6AEAEE087AD1
:10C7C00068EEA98AE9EE056AE9EE287ABDEC0A8BE3
:10C7D000C4ED006A84ED017AC4ED027A38BD000030
:10C7E0002DE9F04106EE900A2DED028B574BDFED5F
:10C7F000587A9FED587A584DB8EE668A86B028EE82
:10C80000278AD3ED007AF1EE677ACDED007AD3ED89
:10C81000017A524BB3F90030F1EE677ACDED017A2F
:10C8200007EE903A4E4BF8EEE77AB3F9002067EE48
:10C83000C77A0746CDED027A07EE902AB3F90220B7
:10C84000B3F90430F8EEE77A03A8CDED037A07EEEA
:10C85000902AF8EEE77A6946CDED047A07EE903A31
:10C86000F8EEE77ACDED057AFFF74FFF95F8443003
:10C87000DDED057A012B1BD13A4B5A783A4B72B950
:10C880001A68402192FBF1F1511A07EE101AB8EE26
:10C89000C77A37EE277ABDEEC77A83ED007A1A6839
:10C8A000402392FBF3F306EE903AB8EEE67A05E009
:10C8B0002E4B1B8807EE103AB8EEC77A2C4B2D4E44
:10C8C0002D4C9DED030AD4F8008077EEC77A93EDE6
:10C8D000007ACDED057A38EE077AD6ED007A88EE4B
:10C8E000078A9DED057A37EE677AE8EE077AC6ED9E
:10C8F000007A07F06DFD95F8301004F03BF99DEDDE
:10C90000040A40442060D4F8048007F061FD95F8E3
:10C91000301004F02FF996ED000A40446060D4F81E
:10C92000088007F055FD95F82F1004F023F9134BFC
:10C930001A6817441F60124B1A6840440132A06005
:10C940001A6006B0BDEC028BBDE8F081C40A00207D
:10C95000BD37863535FA8E3CBC12002064170020A6
:10C960004417002092170020540A002038010020AC
:10C97000541700206C0A00201C170020E00A002039
:10C98000BC0A00202DE9F0472DED028B84B004F0A5
:10C9900035F80220FEF7EAFAB54DB64C002800F053
:10C9A000468103F00DFFFCF731FDB34BB34F19681F
:10C9B000B34A1860C1EB000A07EE90AAB14997F894
:10C9C0002E00B8EE676AD1ED037A002326EE276ABF
:10C9D00019460DF1040E0EEB430635F903E007EEA0
:10C9E00090EAF8EEE77A67EE867AC6ED007AA64E10
:10C9F000E0B107EE900AB8EEE77AF7EE006A86EE4D
:10CA0000877A34F903E007EE90EAF8EEE77A67EE0A
:10CA1000877A36EEC77AD2ED006AE6EE877AC2ED03
:10CA2000007AFDEEE77A17EE90EA01E034F803E0D1
:10CA300026F803E036F803E00233062B1EFB0E1146
:10CA400002F10402C5D1914B91481B88DFF8748232
:10CA5000642461435B4391FBF3F4493CA4B201A914
:10CA6000FFF753FE3B2C8A4C5AD98A4BD4ED020A6D
:10CA7000B3F9003094ED010A874EDFF8549207EEC7
:10CA8000903AF8EEE77A854BF4EEE70AF1EE10FA09
:10CA9000D4BF002201225A7307F080FD94ED027A80
:10CAA000D4ED017A86ED000A27EE070A94ED008A9C
:10CAB000A7EEA70A07F018FFB1EE488AF0EE400A89
:10CAC000B0EE480A07F06AFD9FED758A86ED010A0F
:10CAD00096ED000A20EE080A07F07AFC96ED010AAE
:10CAE000A9F8000020EE080A07F072FCA9F802007D
:10CAF0000820FEF73BFA002845D06A4801A9FFF755
:10CB000004FEB8F8B280674A07EE108AB8EE477A9A
:10CB1000F7EE007A37EE276A002387EE866A1FE079
:10CB2000B8F8B01007EE101AB8EE477AF7EE007AB0
:10CB300037EE276A224687EE866A002336F903E03D
:10CB40000233062B07EE90EAD2ED006AF8EEE77AA0
:10CB5000E6EE877A67EE866AE2EC016AEED184E758
:10CB60005149D2ED006A595E07EE901AF8EEE77A65
:10CB70000233E6EE877A062B67EE866AE2EC016AFC
:10CB8000EED1484808E0494801A9FFF7BEFD4748F3
:10CB90000146FFF791FD4548FFF7AAFC444B18807A
:10CBA0005046FFF71DFE97F87630002B42D094EDEB
:10CBB000010AD4ED007A94ED028A3E4C20EE000A80
:10CBC000A7EEA70AA8EE080A07F08EFE88EE000A74
:10CBD000DFED397AB4EEE70AF1EE10FA02D800235D
:10CBE000238027E007F07CFC344BD3ED007A20EE65
:10CBF000270A07F0EDFBB0F5617FA8BF4FF4617025
:10CC000007EE900AB8EEE70ADFED2D7A80EE270AEC
:10CC100007F028FC194B93F8763007EE903AF8EEBF
:10CC2000E77A27EE800A07F0D3FB208002E020801D
:10CC30006080A080234B5B79012B234B0DD1234ACD
:10CC4000B5F904001488022114FB0101032091FBB3
:10CC5000F0F189B29980118001E0AA889A802A882F
:10CC60001A806A885A8004B0BDEC028BBDE8F08758
:10CC7000141700202C170020640A0020BC1200208A
:10CC8000AC0A0020D81800204417002038010020EA
:10CC900058170020EC0A0020C40A00209217002038
:10CCA0004C3D0F44800A0020381700200800002067
:10CCB000641700207A0A00208FC2753C4C170020B0
:10CCC000EFB6B0448C130020740A00205C0A0020E8
:10CCD000700A0020044A0023136053609360034AE3
:10CCE0001360034A136070471C170020BC0A002021
:10CCF000E00A00202DE9F0472DED048BFCF786FBC0
:10CD0000BE4B1A68C2EB000A46F2A712924540F2E7
:10CD1000FC81BB4E18603388DFF86093B94C9FEDFF
:10CD2000BA9ADFF85C83DFEDB98AB94DB94FB7EE37
:10CD3000008A4BB3B84994F83130D9F800000A683A
:10CD4000DFEDB60A013BB0FBF3F0082392FBF3FEE4
:10CD5000CEEB0202024492FBF3F306EE103AB8EE79
:10CD6000C60A0A6080EE090A07F01AFC00232B604D
:10CD70003B603388013B338038EE400A20EE280ABE
:10CD8000BDEEC00A88ED000A94F83130D9F80020D1
:10CD9000DFEDA20AA24E013BB2FBF3F306EE903A9E
:10CDA000B8EE660A80EE090A07F0FAFB38EE400A90
:10CDB00020EE280A07F00CFBD8F80030D4ED0D7AED
:10CDC00096ED006AC01A06EE900AB8EEE60A78EE12
:10CDD000676AB8EEC67A20EE260AA7EE270A07F0A1
:10CDE000F7FA904BB3F90010B3F902200029B8BF4D
:10CDF0004942002AB8BF52429142A8BF0A468A4916
:10CE000092B20A8012B2FA2A9846884B03DD4FF09C
:10CE1000FF321A6013E093ED007A07EE902AF8EEE5
:10CE2000C76AB8EEE77ADFED827A37EEC77A26EE88
:10CE3000877AC7EE277AFDEEE77AC3ED007A1B68A2
:10CE40007C495A1EC62A03D8C01A0860336025E000
:10CE50000968002BC1EB000030601FDDC3F596713F
:10CE600007EE101ADFED747A7449B8EEC77A06EE51
:10CE7000103A87EE277A6A4BF8EEC66A06EE100A79
:10CE8000F8EEC67A38EE476A81ED007A67EE867A68
:10CE9000E6EE877AFDEEE77AC3ED007A684BDFEDC8
:10CEA000695AD3ED007A684B94ED0F6AD3ED026AAC
:10CEB000664B93ED007A664BF8EEE66AB8EEC77AF9
:10CEC000F8EE677AC6EE878AC62A93ED007AD5ED2A
:10CED000006A336828EE877A67EEA55A27EE277A2C
:10CEE000B6EE005A66EEA57A27EE055A36EE877A38
:10CEF000E5EE257AD7ED005A85ED007A77EEA55A52
:10CF000007EE903AB8EEE75A78EE467A65EE277A61
:10CF1000E5EE867AC7ED007A88BFFDEEE77A4D4FE1
:10CF200094BF3B60C7ED007AFFF7D4FE4A4A3368EE
:10CF300011689FED4A7A1360591A07EE901A06EEAF
:10CF400010AAF8EEE77A40F2DC5267EE877AB8EE84
:10CF5000467A4349C7EE877AFDEEE77A17EE900AE4
:10CF600003F000FE0A2103F005FED4ED0E7A95EDE4
:10CF7000007A06EE900A38EE678AB8EEE60A20EEEE
:10CF8000080AA7EE270A85ED000A07F021FA052115
:10CF9000064603F0EFFDB8F80020324B324D186022
:10CFA00002F21F3292B240F23E639A42DFF8D4801E
:10CFB00000F2A5801B4A528802F21F3292B29A42B6
:10CFC00000F29D80294B1B78002B5DD1284B29490D
:10CFD00018683B684FF4FA72C01A03F0C3FD0A21C7
:10CFE00003F0C8FD074B24491B798022584390FB6E
:10CFF000F2F04FF4967203F0B5FD47E0680A0020A6
:10D00000620E0020BC12002080E6C547D048874A47
:10D01000A80A0020DC0A00207C0A0020B1DC423E85
:10D02000940A0020700A00205017002014000020ED
:10D0300000006144D80A00200000C842E40A002031
:10D04000E00A0020BD3786351C170020BC0A0020EE
:10D050002817002034170020D00A0020002474492B
:10D0600024FAFFFFCC0A0020E80A0020B80A0020BA
:10D07000401700200CFEFFFFD4FEFFFFD40A002063
:10D08000C00A0020980A0020224B1868871BA07A4B
:10D090002149224E2023784390FBF3F04FF49672FF
:10D0A00003F060FD33682860207D1D491D4A07FBA1
:10D0B0000030306003F056FDA47F98ED007A3060B8
:10D0C00007EE904A38EE877AF8EEE77A2B6867EE3B
:10D0D000877A9FED157A67EE877A42F20406FDEEB5
:10D0E000E77A90FBF6F61E4417EE900A6FF0950172
:10D0F00096222E6003F036FD301A286001E00023EE
:10D100002B60C8ED008A012000E00020BDEC048BFC
:10D11000BDE8F087600A0020D4FEFFFF900A0020DF
:10D12000E0FCE6FF200319000000003B30B5864C10
:10D13000864D87B00020FDF74BFFFDF79BFEA07BDF
:10D14000003018BF0120FCF797F9FCF7B5FB0F2062
:10D15000FDF716FF06F016F8286003F0FFF901202E
:10D16000FDF704FF10B90320FCF72EFA0023784ADC
:10D1700040F2DE5199520233242BF8D1754B764A96
:10D180001A6008202875FDF711FFB8B194F8D53062
:10D19000042B13D8DFE803F00303070B0F006D48DF
:10D1A00003F00EF90AE06B4802F0FEFF06E0694862
:10D1B00003F084F902E0674802F0B4FF4FF4006026
:10D1C000FDF7F4FE10B1654803F0BAFC4FF480702F
:10D1D000FDF7ECFE78B1AB68604A614894F8E11065
:10D1E000002B08BF1046EB6802F54C42002B18BF1D
:10D1F0001046FEF761FA02F02DF801F0B7FAFFF7DA
:10D20000D3F994F8CC3033B103F0F702012A02D1FC
:10D210008DF8043004E000238DF8043084F8CC301D
:10D2200001A8FBF78FFB63790E2B01D0082B01D1EE
:10D23000012300E000234FF480708DF80C30FDF7DF
:10D24000B5FE08B9002308E00820FDF7AFFE00286E
:10D25000F8D0AB68003318BF01234FF480308DF84D
:10D260000730FDF7A3FE8DF808000120FDF79EFEB4
:10D2700018B90820FDF79AFE00E0012000F0010037
:10D280008DF805000820FDF791FE8DF806004FF49B
:10D290000040FDF78BFE8DF804002020FDF786FE90
:10D2A00020B96379591F4B424B4100E001238DF8AF
:10D2B0000930AB7D8DF80B3063795A1E53425341D0
:10D2C0008DF80A30B4F89E30ADF80E30B4F8A030C6
:10D2D000ADF810304FF480404FF47A73ADF812304F
:10D2E000FDF764FE20B1184BB3F89A30ADF8123058
:10D2F000BDF80E30B3F5FA7F84BF0023ADF81230CD
:10D30000B4F8D630ADF81430164B01A8B3F8BC30E1
:10D31000ADF8163006F0F6F8FCF778F8124B186006
:10D320006379052B03D1114B4FF4C8721A80104B4F
:10D330004FF47A721A800F4BC8221A800E4B0122CA
:10D340005A7300F0A7FCFCE78C130020681700203C
:10D350004E180020A00B0020B5DB00080044004060
:10D3600000480040BC120020B40B0020600E0020DA
:10D370007A0E0020620E00209217002008B5074B9D
:10D38000B3F9940001F02AFB054B4FF400521A83C5
:10D39000A3F5006310221A83FEE700BF8C13002060
:10D3A00000080240024B5A780AB100225A707047B6
:10D3B000921700202DE9F04F854BB3F90220B3F905
:10D3C000003087B0002AB8BF5242002BB8BF5B4282
:10D3D00000249A42B8BF1A4604922546A046274622
:10D3E0000394A2462646DFF800B29BF803301BB92F
:10D3F0009BF80430002B3FD0022E3DD0754B744972
:10D40000B3F8B620744B485F5B5FDFF8E0915142A0
:10D4100003EB400003F0A6FB704B99F81C2035F994
:10D4200003C005EB0903CCEB0000B3F92A3000EB95
:10D43000030C99F80800CDF808C000FB0CF0642339
:10D440006FF00401514390FBF3F002EB820203F012
:10D4500089FB634BDDF808C062498246E0580293BD
:10D46000604442F2107203F07DFB029BE05099F899
:10D4700012305843001303909BF8033023B15A4BEA
:10D480001B790BB9022E3CD1584BDFF844B1DFF8C1
:10D4900070813BF90570564906EB030907EB8700DD
:10D4A00099F80130000190FBF3F0524BEA5E801ACC
:10D4B00054F80820029310444FF47A5203F052FBC0
:10D4C000029B48F80400EB5E002BB8BF5B42B3F54B
:10D4D000207F08DC022E09D1BBF90430002BB8BF35
:10D4E0005B42642B02DD002348F8043058F8042026
:10D4F0007D2392FBF3F899F80B3003FB08F84FEA11
:10D50000A818394B1A79B2B1022E14D0049BDDF859
:10D510001090DDF80CC0C3F5FA7209FB08F07B43EC
:10D5200002FB0A334FF4FA7102FB0C0293FBF1F396
:10D5300092FBF1F208E0DB780BB1022E02D14246F9
:10D540003B4601E0039A53462A49DFF8B8B0685ACF
:10D55000294935F90BC0715C25F80B000FFA80F9E9
:10D560000591DFF8A4B0CCEB0901DFF8A0C0009171
:10D5700054F80B9054F80C1089440099894454F8DD
:10D580000C1044F80B10009944F80C10DFF880C020
:10D5900016F80CC00CFB09F14FF0200CDDF81490CC
:10D5A00091FBFCF1521A10FB09F06FF04F0190FB58
:10D5B000F1F00344013611481344032E2B5204F1B9
:10D5C000040405F102057FF40EAF07B0BDE8F08F4B
:10D5D000E21700208C1300200C0B0020700A0020A2
:10D5E000BC0B0020F0D8FFFF92170020BC120020D7
:10D5F00080C1FFFF740A002075180020EE1700207C
:10D60000F00A0020AA0B0020100B0020C80B0020FD
:10D61000721800202DE9F84F002425462746022FD6
:10D62000464EDFF8408107D196F82430B8F904203F
:10D630001B3353435B1130E0414B38F90500EB5E7F
:10D64000404918444FF4FA7203F08CFA3E4B7219B9
:10D65000EB5EB2F92A20C01A831807EE103AF8EEF2
:10D66000C77AB2EE047AC7EE877A384AD378FDEEED
:10D67000E77A17EE901A6BB996F8233038F905005F
:10D6800012791B3343431B113AB1B27C514303EB74
:10D69000212302E0337A4B431B112D4ADFF8C8A047
:10D6A00035F90280DFF8C490BAF8000029493E44F9
:10D6B000C8EB0308F27A54F8093096F801B000FB81
:10D6C00008F0C01202FB00304FF4001244F80900C9
:10D6D00003F048FA204BDFF898C0E15844F8038083
:10D6E000BAF8003044F809004FF6FF721B09B2FB8C
:10D6F000F3F3C1EB08015943184B54F80C200BFB12
:10D7000008FB54F8038044F80C804FEAEB1B8911A6
:10D710000BEB603B4244707DE1500A445043104B98
:10D7200001370BEB2020032FE85204F1040405F12C
:10D7300002057FF474AFBDE8F88F00BFBC12002073
:10D740000C0B00200CFEFFFF700A00209217002037
:10D75000740A00200000E0FF780B0020FC0A002083
:10D76000EE170020E21700209C0B0020F00A00209A
:10D77000280B00202DE9F047804689469246002577
:10D78000EBB2534516D20024E3B243450DD20A4B07
:10D790000A4E5A69102782F400525A61484637836C
:10D7A000FBF75FFE01347783EEE73C20FBF759FE81
:10D7B0000135E5E7BDE8F0870008024000000240BF
:10D7C0000B4B1A880B4B52B99A7842B15A786AB906
:10D7D00001225A70084B1A88084B1A8070475B78F0
:10D7E00023B90220FF210122FFF7C4BF704700BF09
:10D7F0007A0E002092170020641700204C18002099
:10D800002DE9F04FB94BB3F90600B94B2DED028B62
:10D81000DA8C904285B00FDBB0F5FA6F93F82540B3
:10D8200007DA811A4C43A2F5FA6294FBF2F46434ED
:10D8300003E0C4F1640400E06424AE4A93F823706A
:10D84000B2F8D61092F9AC200091524292B293F8FD
:10D85000705093F8716093F8243002920021019780
:10D8600003930A46A14BDDF8008031F903C0C8EBF1
:10D870000C0303F2F31E40F2E637BE4503D8002B3B
:10D88000B8BF5B4201E04FF4FA73022ADFF87082FE
:10D890002CD025B1AB42CCBFC5EB030300236427DA
:10D8A00093FBF7FEDFF8A0A26FF0630B3AF81E902F
:10D8B0000BFB0E3B0EF1010E3AF91EA00FFA89FE8A
:10D8C000CEEB0A0E0EFB0BFE9EFBF7FECE4428F8B5
:10D8D00001E0DDF8048003FB08FE874B9EFBF3F3B9
:10D8E0003B449BB2634393FBF7F714E026B1B3428A
:10D8F000CCBFC6EB03030023DDF808E003FB0EF703
:10D90000A8F80470039F002BB8BF5B427B437A4F9B
:10D9100093FBF7F76437764BDFF8308202EB030EA8
:10D9200064239EF8019007FB09F999FBF3F902F8CB
:10D9300008909EF80B90DFF818829EF815E007FB20
:10D9400009F999FBF3F907FB0EF702F80890DDF8E7
