:020000040800F2
:1000000000A0002081A70008F5BE0008F1520008FA
:10001000F7BE0008F9BE0008FBBE000800000000A3
:10002000000000000000000000000000FDBE00080D
:10003000FFBE00080000000001BF00089912000880
:10004000F5A70008F5A70008F5A70008F5A7000820
:10005000F5A70008F5A70008F5A70008F5A7000810
:10006000F5A70008F5A70008F5A70008F5A7000800
:10007000F5A70008F5A7000885160008A9160008CE
:10008000CD160008F1160008F5A70008F5A700082E
:1000900003BF0008F5A70008F5A70008F5A70008AA
:1000A000A5AF0008B1AF0008BDAF00086DAF0008F4
:1000B00079AF000881AF00088DAF0008F5A70008F0
:1000C000F5A70008F5A70008F5A70008F5A70008A0
:1000D000F5A70008211800082D1800083918000895
:1000E000C9AF0008F5A7000807BF0008F5A700087A
:1000F000F5A70008F5A7000899AF0008F5A70008C4
:10010000000000000000000000000000F5A700084B
:10011000F5A70008F5A70008F5A70008F5A700084F
:10012000F5A70008F5A70008F5A70008F5A700083F
:10013000F5A70008F5A70008000000000000000077
:10014000F5A70008F5A70008F5A7000800000000C3
:10015000000000000000000000000000000000009F
:100160000000000000000000F5A70008F5A7000847
:10017000F5A70008000000000000000000000000DB
:0801800000000000F5A70008D3
:1001880081F0004102E000BF83F0004330B54FEA40
:1001980041044FEA430594EA050F08BF90EA020FAD
:1001A8001FBF54EA000C55EA020C7FEA645C7FEA40
:1001B800655C00F0E2804FEA5454D4EB5555B8BF63
:1001C8006D420CDD2C4480EA020281EA030382EAD4
:1001D800000083EA010180EA020281EA0303362D66
:1001E80088BF30BD11F0004F4FEA01314FF4801C39
:1001F8004CEA113102D0404261EB410113F0004F4B
:100208004FEA03334CEA133302D0524263EB430301
:1002180094EA050F00F0A780A4F10104D5F1200E9F
:100228000DDB02FA0EFC22FA05F2801841F10001FA
:1002380003FA0EF2801843FA05F359410EE0A5F1CE
:1002480020050EF1200E012A03FA0EFC28BF4CF0FF
:10025800020C43FA05F3C01851EBE37101F00045B5
:1002680007D54FF0000EDCF1000C7EEB00006EEBC2
:100278000101B1F5801F1BD3B1F5001F0CD349084C
:100288005FEA30004FEA3C0C04F101044FEA4452A3
:1002980012F5800F80F09A80BCF1004F08BF5FEA2A
:1002A800500C50F1000041EB045141EA050130BD0A
:1002B8005FEA4C0C404141EB010111F4801FA4F1AD
:1002C8000104E9D191F0000F04BF01460020B1FA02
:1002D80081F308BF2033A3F10B03B3F120020CDA3A
:1002E8000C3208DD02F1140CC2F10C0201FA0CF018
:1002F80021FA02F10CE002F11402D8BFC2F1200C7D
:1003080001FA02F120FA0CFCDCBF41EA0C01904032
:10031800E41AA2BF01EB0451294330BD6FEA04047B
:100328001F3C1CDA0C340EDC04F11404C4F1200266
:1003380020FA04F001FA02F340EA030021FA04F378
:1003480045EA030130BDC4F10C04C4F1200220FACF
:1003580002F001FA04F340EA0300294630BD21FA0D
:1003680004F0294630BD94F0000F83F4801306BFD3
:1003780081F480110134013D4EE77FEA645C18BFC7
:100388007FEA655C29D094EA050F08BF90EA020F5E
:1003980005D054EA000C04BF1946104630BD91EA56
:1003A800030F1EBF0021002030BD5FEA545C05D159
:1003B8004000494128BF41F0004130BD14F5800498
:1003C8003CBF01F5801130BD01F0004545F0FE410C
:1003D80041F470014FF0000030BD7FEA645C1ABF41
:1003E800194610467FEA655C1CBF0B46024650EA78
:1003F800013406BF52EA033591EA030F41F40021A4
:1004080030BD00BF90F0000F04BF0021704730B529
:100418004FF4806404F132044FF000054FF00001FE
:1004280050E700BF90F0000F04BF0021704730B5BF
:100438004FF4806404F1320410F0004548BF404294
:100448004FF000013EE700BF42004FEAE2014FEAE9
:1004580031014FEA02701FBF12F07F4393F07F4FC4
:1004680081F06051704792F0000F14BF93F07F4FF6
:10047800704730B54FF4607401F0004521F0004139
:1004880020E700BF50EA010208BF704730B54FF0BF
:1004980000050AE050EA010208BF704730B511F0C4
:1004A800004502D5404261EB41014FF4806404F1FC
:1004B80032045FEA915C3FF4DCAE4FF003025FEA7E
:1004C800DC0C18BF03325FEADC0C18BF033202EB06
:1004D800DC02C2F1200300FA03FC20FA02F001FA60
:1004E80003FE40EA0E0021FA02F11444C1E600BFFF
:1004F80070B54FF0FF0C4CF4E06C1CEA11541DBFB2
:100508001CEA135594EA0C0F95EA0C0F00F0DEF87C
:100518002C4481EA030621EA4C5123EA4C5350EA61
:10052800013518BF52EA033541F4801143F48013B2
:1005380038D0A0FB02CE4FF00005E1FB02E506F043
:100548000042E0FB03E54FF00006E1FB03569CF098
:10055800000F18BF4EF0010EA4F1FF04B6F5007F9E
:1005680064F5407404D25FEA4E0E6D4146EB060610
:1005780042EAC62141EA55514FEAC52040EA5E5099
:100588004FEACE2EB4F1FD0C88BFBCF5E06F1ED843
:10059800BEF1004F08BF5FEA500E50F1000041EB7A
:1005A800045170BD06F0004646EA010140EA020027
:1005B80081EA0301B4EB5C04C2BFD4EB0C0541EA49
:1005C800045170BD41F480114FF0000E013C00F35E
:1005D800AB8014F1360FDEBF002001F0004170BD82
:1005E800C4F10004203C35DA0C341BDC04F114049B
:1005F800C4F1200500FA05F320FA04F001FA05F227
:1006080040EA020001F0004221F0004110EBD370F3
:1006180021FA04F642EB06015EEA430E08BF20EA1F
:10062800D37070BDC4F10C04C4F1200500FA04F3C2
:1006380020FA05F001FA04F240EA020001F0004154
:1006480010EBD37041F100015EEA430E08BF20EAC7
:10065800D37070BDC4F1200500FA05F24EEA020E0F
:1006680020FA04F301FA05F243EA020321FA04F03E
:1006780001F0004121FA04F220EA020000EBD370F5
:100688005EEA430E08BF20EAD37070BD94F0000FF5
:100698000FD101F00046400041EB010111F4801F29
:1006A80008BF013CF7D041EA060195F0000F18BFDA
:1006B800704703F00046520043EB030313F4801F16
:1006C80008BF013DF7D043EA0603704794EA0C0FD0
:1006D8000CEA135518BF95EA0C0F0CD050EA4106E6
:1006E80018BF52EA4306D1D181EA030101F0004163
:1006F8004FF0000070BD50EA410606BF104619468B
:1007080052EA430619D094EA0C0F02D150EA013696
:1007180013D195EA0C0F05D152EA03361CBF1046D7
:1007280019460AD181EA030101F0004141F0FE4176
:1007380041F470014FF0000070BD41F0FE4141F4FA
:10074800780170BD70B54FF0FF0C4CF4E06C1CEAFA
:1007580011541DBF1CEA135594EA0C0F95EA0C0FAF
:1007680000F0A7F8A4EB050481EA030E52EA03356A
:100778004FEA013100F088804FEA03334FF080558B
:1007880045EA131343EA12634FEA022245EA1115B8
:1007980045EA10654FEA00260EF000419D4208BF69
:1007A800964244F1FD0404F5407402D25B084FEA16
:1007B8003202B61A65EB03055B084FEA32024FF4C2
:1007C80080104FF4002CB6EB020E75EB030E22BF1F
:1007D800B61A754640EA0C005B084FEA3202B6EBDF
:1007E800020E75EB030E22BFB61A754640EA5C008E
:1007F8005B084FEA3202B6EB020E75EB030E22BF1E
:10080800B61A754640EA9C005B084FEA3202B6EB1E
:10081800020E75EB030E22BFB61A754640EADC00DD
:1008280055EA060E18D04FEA051545EA16754FEA3F
:1008380006164FEAC30343EA52734FEAC2025FEA5D
:100848001C1CC0D111F4801F0BD141EA00014FF0EC
:1008580000004FF0004CB6E711F4801F04BF0143BD
:100868000020B4F1FD0C88BFBCF5E06F3FF6AFAED9
:10087800B5EB030C04BFB6EB020C5FEA500C50F169
:10088800000041EB045170BD0EF0004E4EEA1131EC
:1008980014EB5C04C2BFD4EB0C0541EA045170BDF3
:1008A80041F480114FF0000E013C90E645EA060E37
:1008B8008DE60CEA135594EA0C0F08BF95EA0C0F65
:1008C8003FF43BAF94EA0C0F0AD150EA01347FF4AD
:1008D80034AF95EA0C0F7FF425AF104619462CE784
:1008E80095EA0C0F06D152EA03353FF4FDAE1046E7
:1008F800194622E750EA410618BF52EA43067FF438
:10090800C5AE50EA41047FF40DAF52EA43057FF4C7
:10091800EBAE12E74FF0FF3C06E000BF4FF0010CD2
:1009280002E000BF4FF0010C4DF804CD4FEA410C36
:100938007FEA6C5C4FEA430C18BF7FEA6C5C1BD003
:1009480001B050EA410C0CBF52EA430C91EA030F84
:1009580002BF90EA020F0020704710F1000F91EAE1
:10096800030F58BF994208BF90422CBFD8176FEAAF
:10097800E37040F0010070474FEA410C7FEA6C5C7D
:1009880002D150EA013C07D14FEA430C7FEA6C5C84
:10099800D6D152EA033CD3D05DF8040B704700BFB0
:1009A8008446104662468C461946634600E000BFFE
:1009B80001B5FFF7B7FF002848BF10F1000F01BDD0
:1009C8004DF808EDFFF7F4FF0CBF012000205DF89B
:1009D80008FB00BF4DF808EDFFF7EAFF34BF012020
:1009E80000205DF808FB00BF4DF808EDFFF7E0FFB9
:1009F80094BF012000205DF808FB00BF4DF808ED0A
:100A0800FFF7CEFF94BF012000205DF808FB00BF70
:100A18004DF808EDFFF7C4FF34BF012000205DF852
:100A280008FB00BF4FEA4102B2F1E04324BFB3F52F
:100A3800001CDCF1FE5C0DD901F0004C4FEAC0024D
:100A48004CEA5070B2F1004F40EB830008BF20F031
:100A58000100704711F0804F21D113F13872BCBFEB
:100A680001F00040704741F480114FEA5252C2F140
:100A78001802C2F1200C10FA0CF320FA02F018BF89
:100A880040F001004FEAC1234FEAD32303FA0CFCDC
:100A980040EA0C0023FA02F34FEA4303CCE77FEA6B
:100AA800625307D150EA01331EBF4FF0FE4040F4B5
:100AB8004000704701F0004040F0FE4040F4000064
:100AC800704700BF30B54FF4D8709BB009F0BAF842
:100AD800564808F091FE564B0F93564B1093082337
:100AE800ADF84830802314934FF4807315934FF476
:100AF800806316932023002417934C4811944FF4D5
:100B080000530FA918931394199408F0EDFE474861
:100B1800012108F014FF3023009303238DF80430DB
:100B28004FF09040022369468DF805308DF8064055
:100B38008DF8074009F0C9FD01213F4809F0A1FCE3
:100B48000A2000F0D8FB3C48214609F08FFC3A48BF
:100B580009F087FC384809F091FC04460028F9D1CF
:100B68000A2000F0C8FB02253348029402A9039426
:100B780004948DF81840059509F03CFC4FF4005397
:100B8800089409940A940B940C940D942A4807939A
:100B9800082407A98DF8384009F00EFC01210A46FF
:100BA8002548062309F07AFC234801212A46062312
:100BB80009F074FC204801210322062309F06EFC89
:100BC8001D4801210422062309F068FC1A48294619
:100BD8000522062309F062FC062213461648294618
:100BE80009F05CFC144829460722062309F056FC44
:100BF800114829462246062309F050FC0E480121D7
:100C080009F026FC0C48012109F0BAFC0028F9D0AB
:100C18000948022109F0ACFC0121074809F09FFCB2
:100C2800054809F097FC1BB030BD00BF080402401E
:100C380040010050CC02002000010050074B1A88E8
:100C4800598811449A8812FA81F1DA8812FA81F3E4
:100C58009BB200EE103ABBEECF0A7047CC020020E0
:100C680073B506460D4600242B880122A2401A427D
:100C780018D00093EB78AA788DF80420012B03D0C4
:100C8800022B0CBF0223032392088DF8053002F0D3
:100C98000C020023304669468DF806308DF807208F
:100CA80009F013FD0134102CDED102B070BD000034
:100CB80070B53C4C86B041F6FF73032501A94FF08F
:100CC8009040ADF804308DF80650FFF7C9FF4FF695
:100CD800FF73204601A9ADF80430FFF7C1FF01A951
:100CE8003148FFF7BDFF314B0FCB06AE06E90F00C9
:100CF80003A90298FFF7B4FF049805A9FFF7B0FF0E
:100D08004FF090400021012209F024FD01210A46FC
:100D18004FF0904009F01EFD4FF09040022109224B
:100D280009F018FD29464FF09040092209F012FDFC
:100D38004FF090400621012209F00CFD4FF0904041
:100D48000721012209F006FD4FF0904008210622F4
:100D580009F000FD4FF090400921062209F0FAFC45
:100D68004FF090400A21062209F0F4FC20460421A5
:100D7800022209F0EFFC20460621022209F0EAFCD3
:100D880020460721022209F0E5FC2046082102221C
:100D980009F0E0FC20460921022209F0DBFC06B03C
:100DA80070BD00BF000400480008004854E900086E
:100DB8002DE9F043494C89B04FF48020012108F017
:100DC80057FF20460D21052209F0C4FC20460E21BC
:100DD800052209F0BFFC052220460F2109F0BAFCC4
:100DE80000264FF460434FF0040802274FF0030930
:100DF800204601A9019301258DF808708DF8099006
:100E08008DF80A608DF80B6009F05FFC0DEB0801A6
:100E18002046CDF804808DF808508DF809908DF89B
:100E28000A608DF80B5009F050FC2046414604F545
:100E3800806409F08BFC4FF48048204601A9CDF866
:100E4800048009F042FC2046414609F07FFC4FF43B
:100E58000048204601A9CDF8048009F036FC204658
:100E6800414609F073FC4FF40058204601A9CDF81B
:100E7800048009F02AFC2046194C414609F066FC1A
:100E8800204609F083FB4FF48273ADF80E304FF41F
:100E9800E063ADF810304FF40073ADF81630282336
:100EA800ADF818302046072303A9ADF81C30ADF87B
:100EB8000C60ADF81270ADF81450ADF81A6009F076
:100EC80097FB20464FF4805109F0EAFB204629465B
:100ED80009F0DAFB284609B0BDE8F08300040048B1
:100EE80000380040034B1A88013292B21A804FF042
:100EF800FF307047DC02002038B5054640F2E9347F
:100F08001048022109F0DBFB20B9013CA4B2002CF7
:100F1800F6D10EE00B48294609F0CDFB40F2E93442
:100F28000848012109F0CBFB38B9013CA4B2002CD8
:100F3800F6D1FFF7D7FFC0B238BD0248BDE8384048
:100F480009F0BBBB003800402DE9F04104460D46CE
:100F5800164676B31DB195F80080013501E04FF0D3
:100F6800FF0840F2E9371448022109F0A8FB20B92C
:100F7800013FBFB2002FF6D10EE00F48414609F0FD
:100F88009AFB40F2E9370C48012109F098FB40B977
:100F9800013FBFB2002FF6D1FFF7A4FFC0B2BDE8F2
:100FA800F081054809F089FB0CB120700134013E3D
:100FB800CFE70120BDE8F0810038004038B5274D63
:100FC80004460021284609F05FFB2B88102C9BB2B1
:100FD8002CD009D8042C1DD0082C21D0022C36D1B5
:100FE80023F038039BB232E0402C25D007D8202CC0
:100FF8002DD123F038039BB243F0200327E0802C47
:1010080020D0B4F5807F22D123F038039BB243F07F
:1010180038031CE023F038039BB243F0080316E0C2
:1010280023F038039BB243F0100310E023F0380399
:101038009BB243F018030AE023F038039BB243F055
:10104800280304E023F038039BB243F0300303483D
:1010580001210380BDE8384009F016BB0038004084
:10106800014B188880B27047DC020020014B002237
:101078001A807047DC020020054B98420CBF054BD4
:10108800054B1A88013292B21A800020704700BFBF
:1010980000540040E0020020DE0200202DE9F34168
:1010A800394D1F464FF4204304460E4690462B60A8
:1010B80020464FF4004108F07FFC28B12868431E01
:1010C8002B600028F4D151E04FF4005300932046E0
:1010D8004FF080733146012208F054FC4FF420434E
:1010E8002B602046022108F067FC28B92868431EB7
:1010F8002B600028F5D139E02046414608F057FC1E
:101108004FF420432B602046802108F055FC28B975
:101118002A68531E2B60002AF5D127E0002300938C
:1011280020464FF000733146012208F02BFC4FF4A3
:1011380020432B602046022108F03EFC28B92A688B
:10114800531E2B60002AF5D110E02046394608F0DE
:101158002EFC4FF420432B602046202108F02CFC65
:1011680050B92B685A1E2A60002BF5D1204602B0D0
:10117800BDE8F041FFF780BF2046202108F022FC9F
:10118800012002B0BDE8F081E40200202DE9F74318
:101198003E4DDDF828901F464FF42043044688460C
:1011A80016462B6020464FF4004108F005FC034624
:1011B80028B12B685A1E2A60002BF3D158E04FF44F
:1011C8000052009220464146012208F0DBFB4FF412
:1011D80020432B602046022108F0EEFB28B92B683B
:1011E8005A1E2A60002BF5D142E0012F88BF46F035
:1011F80080062046314608F0DAFB4FF420432B6086
:101208002046402108F0D8FB28B92B685A1E2A60CE
:10121800002BF5D12CE04FF41053009320464146A3
:101228003A464FF0007308F0ADFB0026F3B29F4238
:101238004FF420432B6011D02046042108F0BCFB5A
:1012480028B92B685A1E2A60002BF5D110E02046D9
:1012580008F0AFFB09F806000136E7E72046202131
:1012680008F0AAFB50B92B685A1E2A60002BF5D14A
:10127800204603B0BDE8F043FFF7FEBE204620211C
:1012880008F0A0FB012003B0BDE8F083E4020020D1
:10129800024B1A6801321A60704700BFE80200204A
:1012A80010B5094A094913688C6812689342F8D145
:1012B800074A106811684FF47A725043001BB0FB5C
:1012C800F1F002FB030010BDE802002010E000E08E
:1012D800EC020020014B1868704700BFE8020020AC
:1012E80038B50446FFF7DCFF0546FFF7D9FF401B7A
:1012F800A042FAD338BD10B504462CB14FF47A7029
:10130800FFF7EEFF013CF8E710BD000070B54A4C4E
:1013180090B04FF47003C4F8883001A808F054FB6B
:10132800019B464AB3FBF2F3454A1360454B1A68E2
:101338004FF47A73B2FBF3F2434B013A5A60F0224E
:1013480084F8232000229A6007221A604FF4D8708C
:1013580008F078FC4FF08050012108F089FC01204A
:10136800014608F085FC0220012108F081FC4FF4B9
:101378000030012108F07CFC4FF48020012108F0A6
:1013880077FC4FF40020012108F072FC4FF48040F4
:10139800012108F085FC0120014608F081FC0220AB
:1013A800012108F07DFC0420012108F079FC4FF4AC
:1013B8000060012108F068FC4FF48030012108F03A
:1013C80063FC4FF40030012108F05EFC4FF48020EC
:1013D800012108F059FC4FF48040012108F054FC29
:1013E8004FF40030012108F05BFC01214FF480200C
:1013F80008F056FC08F078FC4FF4A06008F0BEF93D
:10140800FFF756FCFFF7D4FC0A25104CA38A9BB2C1
:1014180083F48053A38219204FF48066FFF76BFF93
:1014280026851920FFF767FF013DA661EDD14FF42E
:101438008053A36110B070BD00ED00E040420F0082
:10144800EC0200204001002010E000E00004004809
:1014580008B540F2DB160B4B4FF4805270439A618B
:10146800861E084CA38A9BB283F48053A38230461D
:101478004FF48065FFF73FFF25851920FFF73BFFF5
:10148800A561EEE70004004810B1034B034A1A6057
:10149800034B044ADA60FEE7FC9F0020EFBEADDE96
:1014A80000ED00E00400FA0503200AF063BF032002
:1014B8000AF04EBF10B504460021406B08F03FFA11
:1014C800626AA36A9A4204D02046BDE810400BF035
:1014D8004CB8012384F8443010BD00002C4B2D4A31
:1014E80030B51A602C4A5A612C4A9A614FF48072BE
:1014F800DA601A612A4A1A63143A5A63294A1A6541
:10150800243285B0DA6404329A64986002238DF834
:101518000C3003238DF80D3000238DF80E308A0728
:101528004FF001030D468DF80F300FD504AC4FF482
:10153800007344F8083D4FF090400921072209F054
:1015480009F94FF09040214609F0BFF8EB070FD595
:1015580004AC4FF4806344F8083D4FF090400A21F2
:10156800072209F0F7F84FF09040214609F0ADF84E
:101578000E238DF8043001A801238DF805308DF86D
:1015880006308DF8073008F003F9014805B030BD82
:10159800B0060020900C010870030020B005002060
:1015A80058000240003801402E4B2F4A30B51A60CF
:1015B8008022DA601A612D4A5A612D4A9A612D4AB1
:1015C8001A6502F5DE326C321A63A2F5DE32483A49
:1015D800DA6402F5DE325C325A63A2F5DE3285B097
:1015E800583A9A64986002230D468DF80C3000230F
:1015F80003218DF80E30AA074FF001038DF80D1066
:101608008DF80F300BD504AC082344F8083D1A4870
:10161800072209F09FF81848214609F056F8EB0709
:101628000FD504AC4FF4004344F8083D4FF0904008
:101638000F21072209F08EF84FF09040214609F05B
:1016480044F811238DF804300022012301A88DF8F5
:1016580005308DF806208DF8073008F099F8014814
:1016680005B030BD04070020900C0108F0020020EE
:10167800F0040020004400400004004808B54FF47E
:10168800005008F075F90448002108F058F903489B
:10169800BDE80840FFF70EBF44000240B006002036
:1016A80008B54FF4003008F063F90448002108F049
:1016B80046F90348BDE80840FFF7FCBE5800024061
:1016C800B006002008B54FF4001008F051F904489E
:1016D800002108F034F90348BDE80840FFF7EABEE6
:1016E8006C0002400407002008B54FF0007008F0B5
:1016F8003FF90448002108F022F90348BDE80840F2
:10170800FFF7D8BE800002400407002038B5026BFE
:10171800036D0446DD69A2B9A80612D5E26A1AB1BA
:10172800988CC0B290470CE09B8CE2696169DBB28F
:101738008B54E269E3680132B2FBF3F103FB112336
:10174800E361626BBAB9290615D5A36A616A8B424F
:101758000DD0A269206DD15C08F0D5FBA26A23697F
:101768000132B2FBF3F103FB1123A36203E0206D06
:10177800054908F0D4FB2B0705D5206D0349BDE8C2
:10178800384008F0E2BB38BD07010700000303003A
:101798007FB51B4C1B4B23608023E36040232361F0
:1017A800194B6361194BA361194E1A4BA0600125AF
:1017B800236501A827238DF804308DF805508DF88E
:1017C80006508DF8075007F0E3FF304607220B213B
:1017D80008F0C0FF4FF40063029302238DF80C3029
:1017E80003238DF80D303046002302A98DF80E3002
:1017F8008DF80F5008F069FF204604B070BD00BF97
:1018080058070020900C0108700400207005002083
:1018180000040048004800400148FFF777BF00BFB8
:10182800B00600200148FFF771BF00BF0407002081
:101838000148FFF76BBF00BF5807002000000000F9
:1018480010B54D4CB4F8A6002DED068B20B9D4F890
:10185800A830002B00F08680484B00221A7000B296
:10186800FEF7E0FD42A3D3E90023FEF741FE002284
:10187800434BFEF767FFFFF7D5F808EE900AB4F977
:10188800A800FEF7CFFD3AA3D3E90023FEF730FE08
:1018980000223B4BFEF756FFFFF7C4F808EE100A8C
:1018A800B4F9AA00FEF7BEFD31A3D3E90023FEF781
:1018B8001FFE334B0022FEF745FFFFF7B3F8B0EEEB
:1018C800680A0AEE900A0AF089FEB0EE409AB0EE75
:1018D800680A0AF009FFF0EE409AB0EE480A0AF0EA
:1018E8007DFEF0EE408AB0EE480A0AF0FDFEB0EE4A
:1018F800408AB0EE6A0A0AF071FEB0EE40AAB0EE75
:101908006A0A0AF0F1FE20EE097A69EE8A7AF0EEA8
:10191800475AE7EE885A1B4B2AEE096A69EE806A35
:10192800C3ED035AF0EE465AE6EEC85AE7EE087AD7
:10193800E6EE486A2AEE28AA28EEC00A69EEE89A76
:1019480068EE898A83ED00AA83ED010A83ED028A95
:10195800C3ED045AC3ED059AC3ED066AC3ED077AD1
:10196800C3ED088ABDEC068B10BD00BFAFF3008045
:10197800182D4454FB210940F412002000000020D7
:1019880000806640AC07002038B5B0F90030224C22
:101998002DED048B08EE903AB0F9023094ED030A6D
:1019A800D4ED007A09EE103AB8EEC99AF8EEE88A52
:1019B800B0F9043029EE000A08EE103AA7EEA80A9A
:1019C8000546B8EEC88AD4ED067AA7EE880A0AF06A
:1019D80041FE94ED040AD4ED017A288029EE000A2C
:1019E800A7EEA80AD4ED077AA7EE880A0AF032FE15
:1019F80094ED050AD4ED027A688029EE000AA7EE74
:101A0800A80AD4ED087AA7EE880A0AF023FEBDECEE
:101A1800048BA88038BD00BFAC070020013A072A14
:101A280030D8DFE802F004080F14191E22260388B4
:101A38000B80438803E043880B8003885B424B801C
:101A480083881EE003885B420B804388F6E743885F
:101A58005B420B800388F2E703885B420B80438874
:101A68000CE043880B80038808E003880B804388D8
:101A780003E043885B420B8003885B424B8083888A
:101A88005B428B80034B1B7813B90846FFF77CBF7A
:101A9800704700BF00000020F8B5194C23780646AF
:101AA800274683B9174DFFF715FC2A683232904252
:101AB80009D301232370144B4FF480621A85FFF772
:101AC80009FC2860F8BD3B78C3B10E4CFFF702FC57
:101AD80023683344984211D3094B00221A700A4BE9
:101AE8004FF480629A61FFF7F5FB084B20601A7883
:101AF8000AB1013A1A70064B01221A70F8BD00BFEC
:101B0800D1070020D8070020000400482E0B002031
:101B1800D207002073B5234D8DF807302B788DF848
:101B2800062002AA1A448DF804008DF8051012F850
:101B3800042C443AD2B20A2A2CD81B49022B31F879
:101B4800124003D814B12046FFF7A6FF2B78022BCA
:101B58000BD9164B1E68FFF7BDFB001B864204D24B
:101B6800104A00231370124A1370124B1A78012A74
:101B78001A4600D09CB92B78022B02D809490133A8
:101B88000B70002313700C4A13700C4B4FF48062D7
:101B98009A6104E0022B4FF03204D4D9D6E702B0A0
:101BA80070BD00BFD40700206CE90008D8070020EA
:101BB8002E0B0020D2070020D10700200004004887
:101BC8002DE9F041404F414D7B7B064603B101238F
:101BD8004FF400702B7001F0E1F83D4CF8B13D4B2B
:101BE8003D481B8890F8B82019B202EB820E714567
:101BF80013DDDFF8ECE09EF801E0BEF1000F0AD03B
:101C080090F8B900024402EB82024FF0010E9142B3
:101C180084F800E001DD0222227003B9237020203D
:101C280001F09CF860B1BA7A2C4B12B9264AD27AE4
:101C380022B12B4AD27A0AB9012200E000221A7096
:101C48002378022B02D14C204E211DE0012B07D115
:101C58004D2153204C220B46BDE8F041FFF75ABFF7
:101C68001E4B1B78012B03D1532001464E2205E061
:101C78002B78012B04D15320014602464D23EBE774
:101C8800042E03D153204D210A460AE0022E03D127
:101C9800532001464D2204E0012E04D153204D214A
:101CA8004E224423D8E70F4B1B7823B13220BDE8DE
:101CB800F041FFF7F1BE0C4A13700C4B4FF48062F1
:101CC8009A61BDE8F08100BF6A170020D3070020A1
:101CD800D5070020E40A002024120020D0070020A5
:101CE800FA1600202E0B0020D1070020000400481F
:101CF80070B50646B6FBF2F40846154614B1204600
:101D0800FFF7F6FF05FB1464024B1B5D00F8013B6F
:101D180070BD00BF04EB000810B50278202A034606
:101D280000F10100F9D0092AF7D02D2A03D1034682
:101D3800BFEE000A04E02B2A08BF0346B7EE000AEC
:101D48009FED377A1A46134612F8011BA1F13000AD
:101D5800C4B2092C0AD805EE900AF8EEE57AF2EE3C
:101D6800046AE7EE267AB0EE677AECE72E2915D1F9
:101D7800F2EE047AF0EE676A134612F8011B303966
:101D8800C8B209280AD805EE901AB8EEE56A86EEB8
:101D9800276A67EEA67A37EE067AEDE71A7802F038
:101DA800DF02452A34D15A782D2A02D10233012282
:101DB80004E02B2A14BF013302330022013B002127
:101DC80013F8010F3038C4B2092C03D80A2404FBD5
:101DD8000101F5E7B1F59A7F34BF0B464FF49A73CA
:101DE8001946F7EE007A072905D9DFED0E6A08399A
:101DF80067EEA67AF7E703F007032BB1F2EE046A61
:101E080067EEA67A013BF8E722B1C7EE277A03E02E
:101E1800F7EE007A67EE277A20EE270A10BD00BF9A
:101E28000000000020BCBE4C10B5441E14F8011F71
:101E380021B1034B186908F06FFFF7E710BD00BF29
:101E4800D01600200148FFF7EFBF00BF29EB0008BC
:101E580010B50748FFF7E8FF0024064B0648E1588D
:101E68001A190C34526806F03DF8C02CF5D110BD93
:101E780057EB000828EA00086DEB000838B5FFF7B3
:101E880029FA254B1A88254B4FF47A7190FBF1F10A
:101E98001B78234806F026F800F07AFF214B1968D2
:101EA800214B0546B1FBF3F1204806F01BF800244E
:101EB800E3B21F4A52F8231049B1012202FA03F390
:101EC8002B4202D01B4806F00DF80134F0E702203F
:101ED80000F044FF98B1184C184B2278184853F872
:101EE800221005F0FFFF2378022B08D1154B164866
:101EF8001B7D002B0CBF6E216F2105F0F3FF1348EB
:101F0800FFF792FF124B134819884FF45A72BDE835
:101F1800384005F0E7BF00BF521700201800002026
:101F280075EB00084001002040420F00B3EB0008A9
:101F380060F90008D1EB0008890E0020E8EA0008E3
:101F4800D5EB0008D0160020DFEB000884EE00086F
:101F58002C0B0020E3EB000838B50C68054620463A
:101F68000CF029FB214602462868BDE838400CF0F1
:101F78002BBB000008B50948FFF756FF01210020D8
:101F880000F0E0FE0648FFF74FFF0A20FFF7B3F91D
:101F98000020BDE80840FFF777BA00BF05EC00084D
:101FA8000FEC00087FB504460CF005FB082824D187
:101FB80000231F49E25C09681144497801F00301D4
:101FC800022908BF203AE2540133082BF1D1002539
:101FD800665D184831460CF0E1FA28B10135601900
:101FE80031460CF0DBFA18B11348FFF71DFF1CE06F
:101FF800082DEDD1204600F08DFE1048FFF714FFA4
:1020080000230F4A1A4404A992F8CD200A4409492A
:10201800595C02F80C1C0133082BF2D10023094843
:102028008DF80C3001A905F05DFF04B070BD00BF4C
:1020380064020020540201081EEC00083EEC00086F
:10204800F412002070EB000808B501F065FA0130C1
:102058000CBF03480348BDE80840FFF7E5BE00BFD2
:1020680053EC000879EC00082DE9F04105460CF026
:10207800A2FA044601F038F806468CB92948FFF759
:10208800D3FE294B53F8241041B10123A340334216
:1020980002D0264805F026FF0134F2E7244821E063
:1020A8002846244922460CF08FFA58B92248234C76
:1020B800FFF7BAFE54F8041F0029EFD01B4805F0BB
:1020C80011FFF7E72B782D2B03BF013504F1FF34FF
:1020D8004FF001084FF000080026134B53F8267004
:1020E80027B91748BDE8F041FFF79EBE2846394694
:1020F80022460CF069FA98B90120B040B8F1000FF7
:1021080003D000F0E9FF0F4802E000F051FE0E484E
:10211800FFF78AFE39460D48BDE8F04105F0E2BEFA
:102128000136DAE797EC000884E90008D1EB0008EB
:1021380084EE000862F70008AAEC000880E90008AD
:10214800BFEC0008D9EC0008E3EC000870EB0008CD
:1021580010B504460848FFF767FE084A00231370C5
:10216800074A1360074A137004F0F8F92046BDE8DF
:102178001040FFF7FFBE00BFECEC0008DD070020B1
:1021880010080020DC07002008B50848FFF74CFEBF
:10219800012000F015FE0648FFF746FE0A20FFF76B
:1021A800AAF80020BDE80840FFF76EB904ED000862
:1021B80011EC0008F8B507460CF0FDF9044638B9EB
:1021C8001A4B1B485A791B4B013A53F8221028E046
:1021D8003846194922460CF0F7F960B91748184CE7
:1021E800FFF722FE54F8041F19B1164805F07AFECD
:1021F800F8E7154805E000250E4B53F8256026B989
:102208001248BDE8F840FFF70FBE3846314622466F
:102218000CF0DAF901350028EED1044B0C485D7159
:102228003146BDE8F84005F05DBE00BFF41200205D
:102238001FED0008CCE9000862F7000833ED00083C
:10224800C8E90008D1EB000884EE000846ED000854
:102258005EED000810B5044620460CF0ACF910F00D
:10226800FF0F07D10B4B0C4893F86413BDE81040DF
:1022780005F038BE20460CF047F9022808D8054B6F
:10228800064C83F864030020014600F05BFDE3E799
:1022980010BD00BFF412002070ED000894F0000893
:1022A80070B504460CF087F908B9204830E020469C
:1022B8001F490CF0D7F900242646254678B12CB1E1
:1022C800012C06D10CF020F9064602E00CF01CF9AE
:1022D80005461749002001340CF0C4F9EEE7072D34
:1022E80005D914480821BDE8704005F0FBBD012C54
:1022F80008DC114B114833F915202946BDE8704018
:1023080005F0F0BDA6F57A73B3F57A7F04D90C48C9
:10231800BDE8704005F0E6BD0A482946324605F09A
:10232800E1FD054B23F8156070BD00BF86ED000880
:102338005EF00008C0ED00080E180020E6ED000869
:10234800FEED000820EE000838B505460CF033F91C
:10235800C0B268B90446124B124803EB4403214645
:10236800B3F84620013405F0BDFD152CF3D138BD76
:1023780028460CF0C9F8142804460BDC202128460E
:102388000CF00CF90CF0C0F8054B03EB4404A4F86E
:10239800460038BD04481521BDE8384005F0A2BD07
:1023A8002412002039EE000845EE0008931E232B66
:1023B80028BF0A22031E10B50C4603DA2D2001F8A7
:1023C800010B5842FFF794FC00230370204610BD10
:1023D80030B52DED028B87B0B0EE408A00210C227B
:1023E800044603A80CF0C5F8B5EEC08ADFED2B7AD9
:1023F800F1EE10FACCBF38EE278A38EE678ADFEDA7
:10240800287A28EE278A6946BDEEC88A0A2218EE7D
:10241800105A85EAE570A0EBE570FFF7C7FF002DBD
:10242800ACBF20232D2368468DF80C300CF0C3F880
:10243800012807D130238DF80D308DF80E308DF836
:102448000F300CE0022805D130238DF80D308DF8BF
:102458000E3004E0032804BF30238DF80D306946A0
:1024680003A80CF08EF803A80CF0A5F80338C5B241
:102478002A4603A920460CF0C9F8002363552046D4
:1024880008490CF07EF803A9204629440CF079F895
:10249800204607B0BDEC028B30BD00BF6F12033A77
:1024A80000007A441CEC000837B5037904460D4651
:1024B800052B37D8DFE803F003060A0D11148368EB
:1024C800197830E0836893F900102CE08368198844
:1024D80029E08368B3F9001025E08368196822E0D1
:1024E8008368684693ED000AFFF772FF01461348B8
:1024F80005F0F8FC05B3D4ED037A6846B8EEE70AB0
:10250800FFF766FF01460E4805F0ECFC94ED040A5F
:102518006846B8EEC00AFFF75BFF0146084805F0B9
:10252800E1FC09E00021074805F0DCFC25B106487C
:10253800E168226905F0D6FC03B030BDDCEB000889
:10254800DBEB00086FEE00086BEE00082DE9F8439E
:102558002DED028B05460CF02EF84F4E074620B1A4
:10256800012817D12B782A2B14D14C48FFF75CFC93
:10257800002431594A4805F0B5FC30193946FFF7AF
:1025880093FF4848FFF750FC143440F6D4039C42AC
:10259800EFD17DE028463D210CF000F800285FD0FF
:1025A800441C20460BF0B0FF81462046FFF7B4FBE1
:1025B8000027B0EE408A14247C4356F80480404635
:1025C8000BF0F9FF4146024628460BF0FDFF0028B4
:1025D8003CD1314B1C4494ED037AF8EEC77AB4EE43
:1025E800E78AF1EE10FA2FDB94ED047AF8EEC77A59
:1025F800B4EEE78AF1EE10FA26D82279052A18BF38
:1026080008EE109A18EE103A052A11D8DFE802F001
:1026180003030606090DA268137009E0A268138077
:1026280006E0A26882ED008A02E0A36883ED008AD2
:1026380041461D4805F056FCBDEC028B20460021A2
:10264800BDE8F843FFF730BF184803E00137712FA2
:10265800B1D11748BDEC028BBDE8F843FFF7E4BBE6
:1026680004463759294638460BF0E2FF58B10C4862
:10267800394605F037FC084800212044FFF714FFCD
:102688000848FFF7D1FB143440F6D4039C42E8D144
:10269800BDEC028BBDE8F88380F9000872EE0008F3
:1026A80051EF000884EE000887EE000892EE00085B
:1026B800B7EE000870B52DED048B5C4C5C4884B017
:1026C80005F010FC5B48FFF73FFE62795A4B5B4808
:1026D800013A264653F8221005F004FCD4ED047A9A
:1026E800F5EE407AF1EE10FA5FD01834002514EDBB
:1026F800028AB5EE408AF1EE10FA52D00135504800
:1027080054ED019A94ED009AD4ED018A294605F01A
:10271800E9FBB5EEC08AF1EE10FA02D5494805F09A
:10272800E1FBB0EE480A6846FFF752FE014646480C
:1027380005F0D8FBF5EEC09AF1EE10FA02D5414843
:1027480005F0D0FBB0EE690A6846FFF741FE014686
:102758003D4805F0C7FBB5EEC09AF1EE10FA02D578
:10276800384805F0BFFBB0EE490A6846FFF730FE6F
:102778000146354805F0B6FBF5EEC08AF1EE10FAD1
:1027880002D5304805F0AEFBB0EE680A6846FFF7A0
:102798001FFE01462D4805F0A5FB082D04F1100485
:1027A800A5D12B48691C05F09DFB00F09DFC294C28
:1027B800054654F8041F19B1274805F093FBF8E7BC
:1027C8000C46264B53F8241041B10123A3402B4259
:1027D80002D0234805F086FB0134F2E7731804AAF7
:1027E80093F8CD3013441F4A8A5C03F8102C01314A
:1027F8000829F3D100241C488DF80840694605F0E3
:1028080071FB1A4D1A48615905F06CFB2819002113
:10281800FFF74AFE1748FFF707FB143440F6D403C6
:102828009C42EED104B0BDEC048B70BDF4120020C4
:10283800D4EE000894F00008CCE9000804EF000882
:102848000FEF00085EF00008DCEB000870EB0008F2
:1028580017EF000880E9000829EF000884E900085C
:1028680037EF00085402010844EF000880F9000817
:102878004DEF000884EE0008F0B589B004460BF06F
:102888009AFEC5B2002D72D17F48804CFFF7CCFA72
:1028980054ED027AF5EE407AF1EE10FA2CD00135BB
:1028A80029467B4805F01EFB14ED020A04A8FFF731
:1028B8008FFD0146774805F015FB14ED010A04A8C1
:1028C800FFF786FD0146734805F00CFB94ED000AFE
:1028D80004A8FFF77DFD01466E4805F003FB94ED63
:1028E800010A04A8FFF774FD01466B4805F0FAFADF
:1028F800082D04F11004CBD1DFED687A684BB0EEF7
:10290800677AF0EE676A0022AA4203F110030DDA33
:1029180013ED045A53ED035A13ED026A013276EEB1
:10292800856A77EEA57A37EE067AEDE75D48CDED54
:10293800016ACDED027A8DED037AFFF775FA00246E
:1029480008AB234413ED077ADFED577A574B584805
:10295800B0EEC77AB4EEE77AF1EE10FAD8BF1846AF
:102968000434FFF761FA0C2CEAD1524874E020468F
:10297800514905220BF028FE38B9504B034410305A
:10298800002280281A61F8D17BE020464C490422B5
:102998000BF01AFE0546204605BB20210BF0FEFD74
:1029A80000286ED0461C30460BF005FE2C46074624
:1029B800444B53F824500DB943484DE0304629465E
:1029C800FAB20BF001FE38B9204603F06BFE3F481F
:1029D800294605F087FA4CE00134E9E70BF094FD4D
:1029E800461E072E074648DC204620210BF0D6FD60
:1029F800054650B1451C2846FFF78EF92F4B03EBCF
:102A0800071787ED000A012400E004462846202124
:102A18000BF0C4FD054648B1451C2846FFF77CF974
:102A2800264B03EB061383ED050A013428462021C3
:102A38000BF0B4FD054648B1451C2846FFF76CF974
:102A48001E4B03EB061383ED060A013428462021AA
:102A58000BF0A4FD18B91E48FFF7E6F911E00130A4
:102A6800FFF75AF9154B032C03EB061686ED070AF8
:102A7800F1D11848FFF700FF03E01748082105F0D7
:102A880031FA09B0F0BD00BF5FEF00080C13002059
:102A98008AEF000890EF000870EB000800000000C3
:102AA8000813002094EF00080AD7233C5BEF0008C6
:102AB80057EF000884EE0008A3EF0008F412002086
:102AC800A9EF0008CCE9000846ED0008AEEF0008C1
:102AD800C1EF000894F00008FBEF00082DE9F0476B
:102AE800694B1A7886B0984642B90123674888F836
:102AF8000030FFF799F96648FFF796F9654D2869A0
:102B080008F01AF9A946002800F0BB802869624C31
:102B180008F018F90928014601D03F2853D10027A9
:102B2800D4F800A05D4E3D46BAF1000F05D05C48D0
:102B3800316852460BF048FD10B9374605B935469D
:102B4800584B0C369E42EFD3CDB1D5F800E0D7F8FC
:102B580000C053461EF803601CF80300B04201D0C1
:102B680023600CE05A1C4E4930B92D2B04D820267E
:102B7800CE542260885402E0CE541346EAE7236814
:102B88001BB1BD4201D1554612E04748FFF74CF949
:102B9800BD4209D855F80C0BFFF746F9D9F81000D3
:102BA800092108F0B9F8F3E73948FFF73DF900259E
:102BB80023689D42A2D23A4BD9F81000595D08F01B
:102BC800ABF80135F4E723682BB9042836D134482B
:102BD800FFF7BEFA55E00C2801D1344889E70A29E5
:102BE80001D00D2944D132482D4DFFF71DF9226837
:102BF8002A4903950023AB5404932E4B009303A852
:102C080010220C230BF084FC064638B100680BF048
:102C1800D2FC0130B3682844984702E02648FFF701
:102C280003F91F48002130220BF0A3FC0023236086
:102C380098F80030002B7FF45EAF22E00C28CCD04F
:102C48007F2903D15AE72F2B3FF658AFA1F1200275
:102C5800D2B25E2A3FF652AF13B920293FF44EAFE5
:102C68005A1C22600E4A2869D15408F055F845E7E5
:102C78007F29E8D1013B0A4A23600021D1540F483B
:102C88003AE706B0BDE8F087DC07002023F000082B
:102C98005BF00008D01600201008002028EA000881
:102CA800DD070020E8EA000860F0000865F0000889
:102CB80084EE0008611F000870F0000891F0000819
:102CC8000F4B1A78402A17D15A88B2F55A7F13D178
:102CD8001A79BE2A10D193F86623EF2A4FF0000024
:102CE8000CD113F8012B5040064A9342F9D1D0F188
:102CF800010038BF0020704700207047704700BFB0
:102D080000F8030868FB03080F201421012202F0D1
:102D180035BC000070B50546441E14F8011F61B1AA
:102D2800064E30460BF03AFC0028F6D0861B0448C5
:102D38003044631B80F8CD30EFE770BD54020108C2
:102D4800F412002010B50446FEF7B1FB0CB1FFF7F2
:102D5800DBFFBDE81040FEF7A7BB0000034B1B6874
:102D680018420CBF00200120704700BF1408002043
:102D7800024B1A6810431860704700BF14080020FF
:102D8800024B1A6822EA00001860704714080020F5
:102D9800014B1868704700BF14080020034B9B685C
:102DA80018420CBF00200120704700BFF412002019
:102DB800024B9A6810439860704700BFF4120020D5
:102DC8002DE9F7430446FFF77BFF10B1002C00F014
:102DD8006F81B94AB94D10685168B94C6B4603C345
:102DE8004FF45A72002128460BF0C3FB0021D02271
:102DF80020460BF0BEFB40232B70022003236B718F
:102E0800FFF7D6FF0820FFF7D3FF4FF41673A5F896
:102E1800B030FA23A5F8B2302A23A5F8AE304FF423
:102E2800FA73A5F8B630202385F8B4306E2385F8F8
:102E3800C9302B2385F8CA30212385F8CB3040F2DE
:102E48004C43A5F8D83040F26C73A5F8DA3040F25C
:102E58007E43A5F8903040F23A7300264FF00108FF
:102E680040F2DC51A5F892304FF4C8724FF47A73EF
:102E7800A5F8D61085F86463A5F8B860A5F8BA6017
:102E8800A5F8BC6085F8A26085F8A36085F8A46001
:102E9800A5F8A660A5F8A860A5F8AA6085F8AD60B1
:102EA80085F8AC8085F8CC6085F8D56085F8EE604B
:102EB80085F8EF6085F8F06085F8DC6085F8DD60FE
:102EC80085F8DE80A5F89430A5F89E204FF4E1320D
:102ED800C5F8E4204FF4165240F27E53C5F8E820B6
:102EE80040F6AC521E20A5F89630AA8140F2EA536B
:102EF8001722A5F89830E07240F2B4536275207337
:102F0800A2750B2055222827A5F89A30E2703223A3
:102F18002D2260714FF0080E1420A5F89C30A5F8FA
:102F2800A03062732371A07184F810E085F8E06026
:102F380085F8E16085F8EC6085F8ED60AE7385F89A
:102F4800DF6026706770A770E675A6732676E6734D
:102F58006676A27684F82130042384F82E3015236F
:102F680084F83130574B6363574B60744FF00E0E43
:102F78005020A363554B84F807E0E0764FF0640EC9
:102F88005A20E363524B20724FF00A0984F81CE080
:102F980022754FF0780EE077412223644D4884F87B
:102FA8001290192384F84530677284F80AE084F88F
:102FB8001E8084F8202084F8236084F8246084F834
:102FC8002560E18484F822606685A685268584F8D4
:102FD8002F7084F8307084F84480FFF79BFE4FF41C
:102FE8004873A4F87430C82384F8B9304FF4966352
:102FF800A4F8BA3040F2D933A4F8BC3084F8706031
:1030080084F8716084F8727084F8738084F876604C
:1030180084F8B89023464FF47F72A4F878204FF4D0
:10302800FA62A4F87A2040F2DC52A4F87C201DF859
:10303800062084F87E200136082E04F10804EAD11F
:10304800012283F8BE2083F8BF2083F8C020C8215E
:1030580083F8C6206422A3F8C210A3F8C82014215C
:103068004FF4967283F8C410A3F8CA201E212822B0
:1030780083F8C510A3F8CC20522385F865330023C4
:10308800EA1810330021802B1161F9D10024281986
:10309800F4300B49D022D0340BF062FAB4F51C7F1F
:1030A800F5D1FEF704FA03B0BDE8F043FEF7FCB92A
:1030B80003B0BDE8F08300BF64E90008F412002003
:1030C800241200209A99193FF6287C3F3D0A773F41
:1030D8000000A0405D020108024B9A6822EA000045
:1030E80098607047F4120020014B9868704700BF41
:1030F800F412002010B5044C002320702361FEF761
:10310800E9F8606110BD00BF6016002007EE100AE4
:10311800F8EEC77A9FED0A0A9FED0A7AF5EEC07AB3
:10312800F1EE10FAD8BFF1EE677A87EE800A08B59B
:1031380020EE070A09F052FA034B83ED000A08BD96
:103148008096184B35FA8E3C0400002010B5121AF0
:1031580007EE902A5B1A2DED028BF8EEE78A07EE50
:10316800903A184B059CB8EEE78AD3ED007A28EE22
:10317800278A28EE080AA8EEA80A09F0F7FCDFED6E
:10318800127A049B20EE270AF0EE480AFCEEC07A79
:10319800B1EE680AC3ED007A09F042FBDFED0B7A65
:1031A8009FED0B7AE0EE077ABDEC028BFDEEE77A35
:1031B80017EE903A002BBCBF03F50C43A0332360F5
:1031C80010BD00BF040000202C7D8E3F00A00C46DF
:1031D800A00CB34507EE900AB8EEE77AD2ED017A73
:1031E80027EE277AD1ED007AE7EE007A10B5C1ED27
:1031F800007A92ED037AF1EE476AFDEEE77AFDEE8A
:10320800E66ABDEEC77A0C4617EE102A17EE900A4A
:1032180016EE901A05F0C8FB07EE100AF8EEC77A0A
:10322800C4ED007AFDEEE77A17EE900A10BD0000B3
:1032380030B5002213460E49CC5C0D469CB12E2CAD
:1032480004D1013378B11D4400242C54C95C0A24EC
:103258006243A1F13004092C9CBF303A52180E2B5E
:1032680003D80133E7E7104630BD002030BD00BF6A
:1032780066090020F8B52C4B2C4C93F8E03013B1BC
:10328800012B0AD04CE06278294B03EB0213294A40
:103298005968506807F05BFD3FE0264D686807F005
:1032A8005BFD2E4600283BD02378012B1ED1FEF76C
:1032B80011F86369C31A632B064633D92369042BB3
:1032C80012D81B4F686807EB0313596807F03FFDD6
:1032D8006378686807EB0317B96807F022FD23696C
:1032E8006661013323611BE0022017E023693BB9C3
:1032F80062780F4B686803EB0213596807F027FDE3
:1033080023690A4D8B2B08D80B4A7068D15C07F0EB
:1033180003FD2B6901332B6102E00320FFF7EAFE6E
:1033280000236360F8BD00BFF4120020601600207F
:10333800CC030108D01600204003010810B50B4C3F
:10334800E37A8BB10A4B1B78042B0DD9094A0A4B37
:10335800106852685A601860FFF7D8FE074B1A8841
:10336800074B1A800123237310BD00BFFA160020F3
:10337800AE1700209017002060170020CC16002000
:10338800D208002010B5002213460E480E4C00212A
:1033980019520E4819520E48144419520020206040
:1033A8006160A0600B4C1444023320606160A0602F
:1033B800094C1444042B20606160A06002F11402DF
:1033C800E3D110BD3C0B002090080020141700200A
:1033D8003017002048080020180900202B4BDFED8B
:1033E8002C7A58792B4AD97B07EE100AB8EE477A1F
:1033F800987987EE277AF2EE046A82ED007A07EE72
:10340800101AB8EE477A2449D16087EE277A82ED00
:10341800017A07EE100AB8EE477A204A187CD16084
:1034280087EE267A82ED007A07EE100AB8EE477A20
:10343800987E87EE277A06EE100A82ED017AB8EEBA
:10344800466A9FED177AD87986EE076A82ED026A96
:1034580006EE100AB8EE466A124A587CDB7ED16046
:10346800C6EE266AC2ED006A06EE900AF8EE666AB3
:10347800C6EEA77AC2ED017A07EE903AF8EE677ABF
:1034880087EE877A82ED027A704700BF2412002007
:103498000000C842BC0800200000FA44F4080020DC
:1034A80000007A4480080020F7B5074600200E4641
:1034B800FFF720FE4FF48070FFF770FC08B3124D41
:1034C8006E70FDF707FF114BA86093F8E0300024F9
:1034D800A3426C600CBF01250325FFF77FFF0C4B4F
:1034E800009403EB061638462B462146726808F00E
:1034F80053FF084B5860012003B0BDE8F040FFF7C8
:10350800F9BD03B0F0BD00BF60160020F412002022
:10351800CC030108D0160020F8B5194B1B78032BF3
:103528002AD1184B4FF480529A619A61164C606800
:1035380007F002FC60B1134D606827684FF48056AD
:103548002E8507F0FFFB0146384607F0E5FBAE6124
:1035580020680D4E07F0F0FB0028E7D0094C4FF427
:10356800805596E88100258507F0ECFB0146384632
:1035780007F0D2FBA561D9E74FF0FF30F8BD00BFD7
:103588006016002000040048D016002073B51A4CBD
:10359800036823600B686360184D0068184EFFF7D6
:1035A800B5FD184B009395E8030094E80C000196CC
:1035B800FFF7CCFD60686968134A33681360411AE5
:1035C80007EE901A1149206891ED007A2968104A8F
:1035D800F8EEE77A411A67EE877A1160FDEEE77A2E
:1035E800C2ED017A0B4A13600B4BB3F8C8200B4BA2
:1035F8001A8002B070BD00BFE008002090170020BC
:1036080040090020E8080020D40800200400002019
:103618007809002050090020241200207609002093
:1036280044F25063984203DDA0F50C40A03870477F
:10363800034B9842BCBF00F50C40A030704700BF58
:10364800B0B9FFFF264BF0B51D68024600F1100720
:1036580014782B1911465E7806F00406013206F03C
:10366800FF036EB1BA42F3D10020F0BD1BB103EBEA
:1036780083035B00DBB210F8012B303A1344DBB252
:103688000A1A022AF2DC002281420AD91AB102EB94
:1036980082025200D2B210F8016B303E3244D2B2EC
:1036A800F2E72E2C0FD14C1C042000210A2671436E
:1036B8002678AF197F787F0702D530390134314435
:1036C8000138F3D100E0002106484243642000FBA2
:1036D800012106240448B1FBF4F100FB0310F0BDFE
:1036E8006402002040420F0080969800000000000D
:1036F8002DE9F04F984B2DED048B5B688BB0C3B967
:10370800964C2378013B032B00F22286DFE813F066
:10371800E605E6050006E905606807F013FB904B2F
:1037280093F8E030012B044600F0D98008D3022B2F
:1037380006D0894C606807F0FFFA0028ECD1DFE773
:10374800242C07D1874A00231370874A1370874AAD
:103758001370C0E02C2C01D02A2C7FD1824E814FCF
:103768003278834B3D7800209854824AB5B919784D
:103778001570472968D15978502965D19978472912
:1037880040F0D585D978472940F0D1851979412964
:1037980040F0CD850121117000F0C9BD1278012AD1
:1037A8003AD1022D05D11846FFF74CFF724B18602D
:1037B8004AE0032D07D11B78532B45D16E4B1A686D
:1037C80052421A6040E0042D05D11846FFF73AFF2F
:1037D800694B586038E0052D07D11B78572B33D13A
:1037E800654B5A6852425A602EE0062D07D11A7866
:1037F800624B302A94BF00220122DA7224E0072D9E
:1038080004D1FFF715FD5E4B18701DE0092D1BD183
:10381800FFF70EFD5B4B16E0022A15D1072D0CD1E0
:103828000120FFF705FD41F218434FF47A7258431F
:10383800B0FBF2F3544A138006E0082D04D10120AE
:10384800FFF7F6FC514B1880013500232A2C3D70F8
:10385800337037D14E4B01221A703CE00D2C4C4B83
:1038680001D00A2C24D11A78F2B141490878497854
:10387800A0F13002D2B2092A84BFA0F13702D2B235
:1038880002F00F021001A1F13002D2B2092A84BF5E
:10389800A1F13702D2B2354902F00F020244097889
:1038A800D2B28C1A62426241002119707AB912E0D0
:1038B8002D490A780E2A03D8501C08702C498C54BC
:1038C8001B7843B9294B1A7854401C7003E0294BE4
:1038D8001B78012B00D0002303F0010357E12D4B87
:1038E80019780022082900F25181DFE801F00A0561
:1038F8001119275F7C95A000622801D1022205E0FA
:103908001A70B52C40F042811A7801321A703DE1E4
:1039180003221A70204B1870204B1870204B0BE0B4
:103928001E4904221A701E4B0A7818782244D2B213
:103938000A7002441A701B4B1C7027E117490522B4
:103948001A70174B0A7818782244D2B20A700244C7
:103958001A70154B1C8019E1D01600206016002043
:10396800F41200207509002056090020650900207E
:1039780066090020F008002090170020FA160020A1
:10398800AE1700200C17002034170020AC0B0020C5
:103998004C0900201409002054090020CC080020FC
:1039A800CD08002044080020D008002062490622E3
:1039B8001A70624B0A7818782244D2B20A7002440C
:1039C8001A705F4B1A8802EB0424A4B2B4F5007F86
:1039D80001D81C8003E000221A805A4B1A705A4AF8
:1039E80000231380D3E05448544A017815782144C1
:1039F800C9B201702944117053490A88C72A9CBF6B
:103A080052488454013292B20A804D490988914241
:103A180040F0BC80072279E708221A70464B1B78D1
:103A2800834200F0B380474A00231370AFE01A7056
:103A3800424B1B78834240F0A980454B1B78062BEC
:103A480039D004D8022B12D0032B24D09EE0122B9D
:103A580044D0302B40F09A803C4B1A793D4B102AC9
:103A680088BF10221A701978384A002344E0374B6F
:103A7800394A59685160996811601A694FF47A7324
:103A880092FBF3F2354B1A80354B1A78354BDA72C4
:103A98000122354B20E02D4A537913F0010303D05E
:103AA8001379D81E434243412D4A1370002B38D155
:103AB8002C4AD37235E0254BDA7A12F0010203D092
:103AC8009A7AD11E4A424A4125490A700AB92549BB
:103AD800CA7293F82F20254B1A7022E01B4B2449F9
:103AE8005A690A809A6942F2107392FBF3F2214BE9
:103AF8001A800122204BEFE78B4202F10C0210DA08
:103B08001E4812F8044C1C541D4812F8034C1C544F
:103B18001C4812F8014C1C541B4814781C540133DF
:103B2800EAE711490B788BB3134B1A7872B300226A
:103B38001A700A7001232AE0CC080020CD08002062
:103B4800D008002014090020B808002084090020AB
:103B580044080020AF170020901700200C17002001
:103B680064090020FA160020CE080020AE170020B5
:103B780034170020AC0B002057090020E81600205D
:103B88007F17002098170020E01700200023002B43
:103B98003FF4CFAD914CA368E360FDF79BFBA060B9
:103BA8002020FFF7E5F88E4B8E4C1A78012A0CBFBF
:103BB800002201221A70E37A002B3FF4BAAD8A4B37
:103BC8001B78042B7FF6B5AD637803B92373227B8A
:103BD80012B90BB1FFF7B2FB844B854D1A784FF041
:103BE800050E013292FBFEFE0EEB8E0ECEEB020EA0
:103BF80083F800E07F4B1B7802937F4B03EB8E0E1C
:103C080000237E4A7E499858DFF838827D4E585006
:103C180090FBF8F1995103EB830A7B4EDFF8289269
:103C280006FB010053F809705EF80A604EF80A00B6
:103C3800BF1B42F2107C90FBFCFC0526384443F87D
:103C4800090090FBF6F008FB010170481950029832
:103C58001FFA8CFC012803EB020B25F802CF16464D
:103C680006D1ACF1020CBCF5797F98BFCBF80010F7
:103C78000433082BC5D1664F664DFDF72BFB3B6817
:103C8800C01A07EE100AF8EE477A9FED637AC7EE7E
:103C9800877AA846B7EE008AC5ED007AFDF71AFBC9
:103CA800D5ED007A3860F4EEC87AF1EE10FA58BF14
:103CB800F0EE487A06AAC5ED007A584B009207AA9A
:103CC800019296E803000CCBFFF740FA069A544994
:103CD80007986423B2FBF3F20A80524A90FBF3F38D
:103CE8001380237B0BB90B8013804F494F4B0A7805
:103CF800002A3BD0D5ED007A30681A687768DFF87B
:103D08004CE188EE278A821A4FF0020C07EE902ABF
:103D1800F8EEE77A5A6867EE887ABA1AFDEEE77A1B
:103D280017EE909A07EE902A414AF8EEE77A92ED5C
:103D3800007A404A67EE877AB2F9020027EE888A4D
:103D4800BDEEC88A18EE107A00FA87F7B2F90000BB
:103D580000FA89F097FBFCF790FBFCF0BFB280B249
:103D6800AEF80270AEF800005780108001220A7089
:103D78003068716859601860237A23B9194BDB7968
:103D8800002B3FF4D6AC2C4CDFF8C4A02B4FCDF859
:103D980000A0019794E80C00FFF7D8F961687268F1
:103DA800274B8A1A07EE902A214A216892ED007A59
:103DB8003268F8EEE77A8A1A1A600E4A67EE877A4E
:103DC80092F90020FDEEE77A012AC3ED017A9946BF
:103DD80040D0022A00F0FE80ABE400BF601600204D
:103DE800060B0020FA160020AE17002080090020DC
:103DF800EA080020FD0A002018080020901700207B
:103E08005C09002008090020806967FF7408002009
:103E1800400800200409002000007A4460170020B0
:103E28005C1700206817002055090020D8080020DA
:103E38000400002058090020E00800204009002064
:103E48007809002080969800440900201009002075
:103E5800E8080020944F002659F81600934BDFF825
:103E680084C2934C59F8162098ED000ADFF878A21E
:103E780007EE900AB8EEE77AD3ED007A36F80C3000
:103E880067EE277A3946FDEEE77A17EE900AC01AF0
:103E9800884B80B2F05200B207EE900AB8EEE77A8B
:103EA800D4ED007ACDF80CC067EE277A1044FDEE09
:103EB800E77A224617EE905AFFF78CF9ADB2D8EDA3
:103EC800008A97ED028A94ED029A59F816B02844B0
:103ED80026F80A0018EE900AFCF7B6FA044618EE1F
:103EE800100A0D46FCF7B0FA734BCDE9040193F8BC
:103EF800C40007EE100AB8EE477A17EE100AFCF76E
:103F0800A3FA67A3D3E90023FCF7F2FA02460B46AB
:103F180000206A49FCF716FC22462B46FCF736F9C6
:103F280002460B4620462946FCF70CFC7B68C3EB8F
:103F38000B0307EE103AF8EEC77A0446C7EEA88AD4
:103F48000D4678EEC88A18EE900AFCF77DFA02460C
:103F58000B4620462946FCF7CBFA0B460246DDE91C
:103F68000401FCF713F9FCF75DFD07EE900A69EE12
:103F7800277A3861FDEEE77AB860C7F804B017EE23
:103F8800900A4F494FF4FA6204F00EFDDDF80CC0B8
:103F98004C4936F80C3031339BB2622B36F80A3074
:103FA80098BF0020184480B226F80A0040F6B832BC
:103FB80000B204F0F9FC444B2AF806000A2202FB7E
:103FC8000633023657F8142B1A60042E7FF444AFD8
:103FD800FFF7AFBB384BDAF80060B3F9CA80730853
:103FE800984528BF9846394B1A881FFA88F80FFA5F
:103FF80088F011B288420EDD95ED007ADFED347A53
:1040080067EE277AFDEEE77A17EE908A90441FFA5A
:1040180088F8A3F800802F4B3C681F68E71B3846D8
:10402800FFF7FEFA002841F2931201DD904201E009
:1040380043429342CCBF002301239FED278A274D9B
:10404800002B53D007EE907AB8EEE70A20EE080A64
:1040580008F04AFB07EE106AF8EE477A204B194938
:1040680020EE270A40F6B832BDEEC00A10EE100A5C
:1040780080B2188000B204F097FC48F6A0432044B0
:10408800984203DDA0F50C40A03804E00028BCBF2E
:1040980000F50C40A030286029E000BFAFF3008095
:1040A800182D4454FB21194048080020BC08002062
:1040B800F408002070080020241200200000F03FBF
:1040C80030F8FFFF48F4FFFF1809002076090020A8
:1040D8000000C84250090020D3023739D408002014
:1040E8007C08002010090020301700202C602B6865
:1040F8009D4FC3F50C53283307EE103AF8EEC77AF4
:10410800002627EE888AB0EE480A08F067FA8DED97
:10411800090AB0EE480A08F0E7FA8DED080A934A52
:10412800934CB25E9349944DDFF888A207EE902A2B
:104138000FFA88F20AA807EE102A00EB460353ED9F
:10414800026AB8EEC77AF8EEE77A4FF47A72D6EEDA
:10415800877AFDEEE77A17EE900A80B2305300B204
:1041680004F022FC80B2305300B207EE900AB8EE99
:10417800E77AD5ED007A9AED000A67EE277A2A46A3
:10418800FDEEE77A394617EE90CA1FFA8CFCCDF897
:104198000CC0FFF71FF8DAED008A97ED028A36F9AE
:1041A800049095ED029ADFF810A2834618EE900A63
:1041B800FCF74AF9044618EE100A0D46FCF744F9D4
:1041C800CDE904019AF8C40007EE100AB8EE477A60
:1041D80017EE100AFCF738F961A3D3E90023FCF7BE
:1041E80087F902460B4600206449FCF7ABFA2246E1
:1041F8002B46FBF7CBFF02460B4620462946FCF729
:10420800A1FA7B68C3EB090307EE103AF8EEC77A08
:104218000446C7EEA88A0D4678EEC88A18EE900ABA
:10422800FCF712F902460B4620462946FCF760F9CE
:104238000B460246DDE90401FBF7A8FFFCF7F2FB99
:1042480007EE900A69EE277ADDF80CC03861FDEEBA
:10425800E77AB86017EE900AE344494CC7F804902F
:10426800584480B2305340F6B83200B2454904F0A1
:104278009BFB454BA0530A2202FB0633023657F834
:10428800142B1A60042E53467FF449AF93F8C620C6
:1042980032B13E4A1168642291FBF2F13C4A118026
:1042A8003C4AB3F8C23012689A420ED93A4B1868A1
:1042B8003A4B1B68C01AFFF7B3F942F21073002893
:1042C800B8BF404298427FF734AA354B01221A7092
:1042D800344B1A882E4B1A80FFF72BBAFEF7CAFF09
:1042E80036E063680133636063780133DBB205222B
:1042F800B3FBF2F202EB82029B1A6370FCF7EAFF4F
:10430800294AA06000231370284A0120D3720BE0C9
:10431800FCF7E0FFA36840F6C412C01A904217D910
:104328002020FEF72DFD0420FEF7E4FE10E09B7828
:104338001F49522B7FF488AACB784D2B7FF484AA8F
:104348000B79432B7FF480AA02231370FFF77CBA02
:104358000BB0BDEC048BBDE8F08F00BFAFF300805D
:10436800182D4454FB211940180900201009002079
:104378007008002018FCFFFF800800200000F03FB4
:104388003017002048F4FFFF48080020D408002018
:1043980048170020E80800204009002050090020A4
:1043A800FD0A0020D2080020AE170020FA160020CF
:1043B800660900200409002024120020AFF30080C1
:1043C80038B5334D2DED048BD5ED008AB0EE680A73
:1043D800044608F003F9B0EE408AB0EE680A08F027
:1043E80083F995ED019AF0EE408AB0EE490A08F09B
:1043F800F5F8F0EE409AB0EE490A08F075F9D4EDF8
:10440800017AD4ED026A67EEA80AB0EE407A60EE4F
:10441800870A28EEE60A66EE876A94ED007AE7EEE8
:10442800290AA7EE880AE6EE880A08F0F9F9DFED0E
:10443800197A60EE277A17EE900AFCF705F812A3AE
:10444800D3E90023FCF77EF9134B044618680D46A0
:10445800FBF7FAFF02460B4620462946FBF796FE75
:1044680000220E4BFCF76EF9FCF7DCFA00EE100A9E
:1044780008F0F0F8BDEC048B83B21A0444BF00F5D1
:10448800B4739BB218B238BD182D4454FB210940AF
:10449800B80A00200000E1448C0A002000002440F3
:1044A80038B5434C0820258DFEF758FC414BC8B160
:1044B80029B2642291FBF2F002FB101212B207EE4D
:1044C800102AF8EEC76A07EE100AF8EEC77A9FEDD1
:1044D8003A7AE6EE877AB2EE047A67EE877AC3ED27
:1044E800007A01E000221A6094F84500334DFBF78A
:1044F80099FF29A3D3E90023FBF7FAFFFCF792FA07
:1045080000EE100A08F06AF82B8807EE903AF8EEE9
:10451800E77A27EE800A08F09DF82D889FED287A23
:10452800284B07EE905AF8EEE77A1880C7EE277AFC
:10453800254B9FED267AC7EE877A9FED257AC3ED46
:10454800007AB4F8743007EE903AF8EEE77A87EE1E
:10455800277A17EE100AFBF777FF11A3D3E9002398
:10456800FBF7C6FFFCF75EFA1A4B1860206CFBF7E6
:104578006BFF0DA3D3E90023FBF7BAFF0B460246F6
:1045880015490020FCF7DEF8FCF74CFA134B1860CD
:1045980038BD00BFAFF30080399D52A246DF913F7E
:1045A8003B597E90A9E78140182D4454FB210940CE
:1045B800241200208C0A00208988883C3C010020B5
:1045C8000AE81C41E00A00209016002000401C4622
:1045D80000006144B41600200000E03FBC16002033
:1045E80090ED010A90ED007AD0ED027A20EE000AF3
:1045F80038B5A7EE070A04460D46A7EEA70A08F045
:10460800B5FAB5EE400AF1EE10FA11D0D4ED007A01
:10461800C7EE807AC5ED007AD4ED017AC7EE807ACC
:10462800C5ED017AD4ED027A87EE800A85ED020A9B
:1046380038BD38B52DED0A8B91ED008A90ED00AAB2
:10464800D0ED01AA90ED029AB0EE480A04460D4654
:1046580007F0C4FFF0EE409AB0EE480A08F044F8BC
:1046680095ED018AB0EE40BAB0EE480A07F0B6FF01
:10467800F0EE408AB0EE480A08F036F895ED02CA26
:10468800B0EE408AB0EE4C0A07F0A8FFF0EE40BA50
:10469800B0EE4C0A08F028F86BEE005A2BEEA97A17
:1046A800B0EE655AA7EE485AA5EEC87A20EE296AF8
:1046B8006BEE2B7A2AEE877A28EEC00AF0EE466A6D
:1046C800E7EE886AAAEE007AE6EE087A6BEEA8BAF8
:1046D800A9EE277A6BEE687A6AEEA66A6AEEA77A7E
:1046E800EAEE2B6AEAEE087A68EEA98AE9EE056A2C
:1046F800E9EE287ABDEC0A8BC4ED006A84ED017AF4
:10470800C4ED027A38BD00002DE9F04106EE900AAA
:104718002DED028B5E4BDFED5F7A5F4DB8EE668A5A
:1047280086B028EE278AD3ED007AF1EE677ACDEDD0
:10473800007AD3ED017A594BB3F90030F1EE677A7C
:10474800CDED017A07EE903AF8EEE77A0746F1EEFA
:10475800677A17EE900AFBF777FE4BA3D3E900239D
:10476800FBF7C6FEFCF75EF94D4B0290B3F900204B
:1047780007EE902AB3F90220B3F90430F8EEE77A8D
:1047880003A8CDED037A07EE902AF8EEE77A69469A
:10479800CDED047A07EE903AF8EEE77ACDED057A9A
:1047A800FFF747FF95F84430DDED057A012B1BD163
:1047B8003C4B5A783C4B72B91A68402192FBF1F194
:1047C800511A07EE101AB8EEC77A37EE277ABDEEFF
:1047D800C77A83ED007A1A68402392FBF3F306EE5A
:1047E800903AB8EEE67A05E0304B1B8807EE103AAF
:1047F800B8EEC77A2E4B2F4E2F4C9DED030AD4F8F6
:10480800008077EEC77A93ED007ACDED057A38EE21
:10481800077AD6ED007A88EE078A9DED057A37EE9D
:10482800677AE8EE077AC6ED007A07F013FF95F885
:10483800301004F0C1F89DED040A40442060D4F81B
:10484800048007F007FF95F8301004F0B5F896EDEE
:10485800000A40446060D4F8088007F0FBFE95F831
:104868002F1004F0A9F8154B1A6817441F60144B51
:104878001A6840440132A0601A6006B0BDEC028B91
:10488800BDE8F081AFF30080399D52A246DF913F29
:10489800B80A0020BD37863524120020CC16002027
:1048A800AC160020FA1600206C0A00203C010020FB
:1048B800BC160020D80A002084160020D40A002044
:1048C800AC0A0020AFF300802DE9F0472DED028BF4
:1048D80084B003F0B3FF0220FEF740FAC24DC34C88
:1048E800002800F0578103F08BFEFCF7D9FCC04B81
:1048F800C04F1968C04A1860C1EB000A07EE90AAB9
:10490800BE4997F82E00B8EE676AD1ED037A002306
:1049180026EE276A19460DF1040E0EEB430635F90B
:1049280003E007EE90EAF8EEE77A67EE867AC6EDDE
:10493800007AB34EE0B107EE900AB8EEE77AF7EEE8
:10494800006A86EE877A34F903E007EE90EAF8EE1B
:10495800E77A67EE877A36EEC77AD2ED006AE6EE36
:10496800877AC2ED007AFDEEE77A17EE90EA01E069
:1049780034F803E026F803E036F803E00233062BA8
:104988001EFB0E1102F10402C5D19E4B9E481B88E6
:10499800DFF8A082642461435B4391FBF3F4493C54
:1049A800A4B201A9FFF745FE3B2C974C68D9974B59
:1049B800D4ED020AB3F9003094ED010A944EDFF801
:1049C800809207EE903AF8EEE77A924BF4EEE70A17
:1049D800F1EE10FAD4BF002201225A7307F020FF2B
:1049E80094ED027AD4ED017A86ED000A27EE070AE3
:1049F80094ED008AA7EEA70A08F0B8F8B1EE488A45
:104A0800F0EE400AB0EE480A07F00AFF306886ED7B
:104A1800010AFBF719FD70A3D3E90023FBF768FD32
:104A2800FCF700F800EE100A07F014FEA9F80000E1
:104A38007068FBF709FD68A3D3E90023FBF758FD6D
:104A4800FBF7F0FF00EE100A07F004FEA9F80200D9
:104A58000820FEF783F9002845D06F4801A9FFF721
:104A6800E8FDB8F8B2806C4A07EE108AB8EE477ACB
:104A7800F7EE007A37EE276A002387EE866A1FE092
:104A8800B8F8B01007EE101AB8EE477AF7EE007AC9
:104A980037EE276A224687EE866A002336F903E056
:104AA8000233062B07EE90EAD2ED006AF8EEE77AB9
:104AB800E6EE877A67EE866AE2EC016AEED176E77F
:104AC8005649D2ED006A595E07EE901AF8EEE77A79
:104AD8000233E6EE877A062B67EE866AE2EC016A15
:104AE800EED14D4808E04E4801A9FFF7A2FD4C4819
:104AF8000146FFF775FD4A48FFF762FC494B1880ED
:104B08005046FFF701FE97F87630002B45D094ED1C
:104B1800010AD4ED007A94ED028A434C20EE000A93
:104B2800A7EEA70AA8EE080A08F020F888EE000AFF
:104B3800DFED3E7AB4EEE70AF1EE10FA02D8002370
:104B480023802AE007F00EFE394BD3ED007A20EEE1
:104B5800270A07F07FFDB0F5617FA8BF4FF46170A9
:104B6800FBF760FC1EA3D3E90023FBF7EBFDFBF783
:104B780059FF00EE100A07F0B7FD1E4B93F8763088
:104B880007EE903AF8EEE77A27EE800A07F062FD22
:104B9800208002E020806080A080264B5B79012B7A
:104BA800254B0DD1254AB5F904001488022114FBC0
:104BB8000101032091FBF0F189B29980118001E095
:104BC800AA889A802A881A806A885A8004B0BDEC1C
:104BD800028BBDE8F08700BF3B597E90A9E7814072
:104BE800A2EB0FE5DD1696407C16002094160020F7
:104BF800B00A002024120020700A00205C1800204F
:104C0800AC1600203C010020C0160020E00A00205D
:104C1800B80A0020FA1600204C0A0020A01600202E
:104C28000C000020CC160020860A00208FC2753C9C
:104C3800B4160020F4120020800A0020B40A0020D4
:104C48007C0A0020AFF30080044A002313605360FD
:104C58009360034A1360034A136070478416002068
:104C6800AC0A0020D40A00202DE9F0472DED048B72
:104C7800FCF716FBBE4B1A68C2EB000A46F2A712F5
:104C8800924540F2FC81BB4E18603388DFF8609390
:104C9800B94C9FEDBA9ADFF85C83DFEDB98AB94D5C
:104CA800B94FB7EE008A4BB3B84994F83130D9F808
:104CB80000000A68DFEDB60A013BB0FBF3F00823F9
:104CC80092FBF3FECEEB0202024492FBF3F306EEF4
:104CD800103AB8EEC60A0A6080EE090A07F0A2FD8B
:104CE80000232B603B603388013B338038EE400A59
:104CF80020EE280ABDEEC00A88ED000A94F831308B
:104D0800D9F80020DFEDA20AA24E013BB2FBF3F373
:104D180006EE903AB8EE660A80EE090A07F082FDC0
:104D280038EE400A20EE280A07F094FCD8F8003044
:104D3800D4ED0D7A96ED006AC01A06EE900AB8EE28
:104D4800E60A78EE676AB8EEC67A20EE260AA7EE7B
:104D5800270A07F07FFC904BB3F90010B3F9022043
:104D68000029B8BF4942002AB8BF52429142A8BFA1
:104D78000A468A4992B20A8012B2FA2A9846884BA1
:104D880003DD4FF0FF321A6013E093ED007A07EE6F
:104D9800902AF8EEC76AB8EEE77ADFED827A37EE46
:104DA800C77A26EE877AC7EE277AFDEEE77AC3ED53
:104DB800007A1B687C495A1EC62A03D8C01A0860A4
:104DC800336025E00968002BC1EB000030601FDD6F
:104DD800C3F5967107EE101ADFED747A7449B8EED0
:104DE800C77A06EE103A87EE277A6A4BF8EEC66A5B
:104DF80006EE100AF8EEC67A38EE476A81ED007AB8
:104E080067EE867AE6EE877AFDEEE77AC3ED007AFA
:104E1800684BDFED695AD3ED007A684B94ED0F6A61
:104E2800D3ED026A664B93ED007A664BF8EEE66ABC
:104E3800B8EEC77AF8EE677AC6EE878AC62A93ED87
:104E4800007AD5ED006A336828EE877A67EEA55AAE
:104E580027EE277AB6EE005A66EEA57A27EE055AAF
:104E680036EE877AE5EE257AD7ED005A85ED007A99
:104E780077EEA55A07EE903AB8EEE75A78EE467AFA
:104E880065EE277AE5EE867AC7ED007A88BFFDEEF3
:104E9800E77A4D4F94BF3B60C7ED007AFFF7D4FE29
:104EA8004A4A336811689FED4A7A1360591A07EE27
:104EB800901A06EE10AAF8EEE77A40F2DC5267EE96
:104EC800877AB8EE467A4349C7EE877AFDEEE77AE5
:104ED80017EE900A03F068FD0A2103F06DFDD4ED8A
:104EE8000E7A95ED007A06EE900A38EE678AB8EEEB
:104EF800E60A20EE080AA7EE270A85ED000A07F061
:104F0800A9FB0521064603F057FDB8F80020324BEF
:104F1800324D186002F21F3292B240F23E639A425A
:104F2800DFF8D48000F2A5801B4A528802F21F32B3
:104F380092B29A4200F29D80294B1B78002B5DD1DA
:104F4800284B294918683B684FF4FA72C01A03F0D5
:104F58002BFD0A2103F030FD074B24491B798022E1
:104F6800584390FBF2F04FF4967203F01DFD47E0B2
:104F7800D00A0020A20D00202412002080E6C54798
:104F8800D048874A680A0020900A0020A00A00201A
:104F9800B1DC423E940A00207C0A0020B8160020AA
:104FA8000800002000006144C80A00200000C84230
:104FB800640A0020D40A0020BD37863584160020F4
:104FC800AC0A0020901600209C1600209C0A0020A5
:104FD8000024744924FAFFFFCC0A0020DC0A0020D0
:104FE800AA0A0020A81600200CFEFFFFD4FEFFFF2F
:104FF800C40A0020880A0020600A0020224B186892
:10500800871BA07A2149224E2023784390FBF3F096
:105018004FF4967203F0C8FC33682860207D1D4960
:105028001D4A07FB0030306003F0BEFCA47F98EDFA
:10503800007A306007EE904A38EE877AF8EEE77A21
:105048002B6867EE877A9FED157A67EE877A42F2CA
:105058000406FDEEE77A90FBF6F61E4417EE900A7A
:105068006FF0950196222E6003F09EFC301A28609E
:1050780001E000232B60C8ED008A012000E0002039
:10508800BDEC048BBDE8F087C00A0020D4FEFFFF0A
:105098005C0A0020E0FCE6FF200319000000003B4A
:1050A80030B5844C844D87B00020FDF789FEA07B85
:1050B800003018BF0120FCF729F9FCF7C1FB0F20CD
:1050C800FDF756FE05F0C6FB286003F057F90120EE
:1050D800FDF744FE10B90320FCF7BAF90023774A1C
:1050E80040F2DE5199520233242BF8D1744B754AA1
:1050F8001A6008206875FDF751FEB8B194F8D530EC
:10510800042B13D8DFE803F00303070B0F006C48E8
:1051180003F066F80AE06A4802F056FF06E06848BD
:1051280003F0DCF802E0664802F00CFF4FF4006080
:10513800FDF734FE10B1644803F024FC4FF480708E
:10514800FDF72CFE78B1AB685F4A604894F8E1102F
:10515800002B08BF1046EB6802F57442002B18BFFD
:105168001046FEF7A1F901F085FF01F00FFAFFF7ED
:1051780097F994F8CC3033B103F0F702012A02D141
:105188008DF8043004E000238DF8043084F8CC3026
:1051980001A8FBF797FC63790E2B01D0082B01D1EE
:1051A800012300E000234FF480708DF80C30FDF7E8
:1051B800F5FD08B9002308E00820FDF7EFFD0028F9
:1051C800F8D0AB68003318BF01234FF480308DF856
:1051D8000730FDF7E3FD8DF808000120FDF7DEFD3F
:1051E80018B90820FDF7DAFD00E0012000F0010001
:1051F8008DF805000820FDF7D1FD00238DF8060085
:1052080020208DF80430FDF7C9FD20B96379591FB6
:105218004B424B4100E001238DF80930EB7D8DF8BE
:105228000B3063795A1E534253418DF80A30B4F853
:105238009E30ADF80E30B4F8A030ADF810304FF411
:1052480080404FF47A73ADF81230FDF7A7FD20B116
:10525800184BB3F89A30ADF81230BDF80E30B3F5EC
:10526800FA7F84BF0023ADF81230B4F8D630ADF819
:105278001430174B01A8B3F8BC30ADF8163005F060
:105288007BFCFCF70DF8134B18606379052B03D1F1
:10529800114B4FF4C8721A80104B4FF47A721A806F
:1052A8000F4BC8221A800F4B01225A7300F002FCE0
:1052B800FCE700BFF4120020D0160020B61700202B
:1052C800300B0020F9590008004400400048004015
:1052D80024120020000B0020A00D0020960E0020B4
:1052E800A20D0020FA16002008B5064BB3F9940069
:1052F80001F084FA044B4FF480521A854FF480620F
:105308001A85FEE7F412002000040048024B5A7880
:105318000AB100225A707047FA1600202DE9F04FA2
:10532800854BB3F90220B3F9003087B0002AB8BF23
:105338005242002BB8BF5B4200249A42B8BF1A46BB
:1053480004922546A04627460394A2462646DFF83F
:1053580000B29BF803301BB99BF80430002B3FD0F8
:10536800022E3DD0754B7449B3F8B620744B485F94
:105378005B5FDFF8E091514203EB400003F014FB60
:10538800704B99F81C2035F903C005EB0903CCEBE9
:105398000000B3F92A3000EB030C99F80800CDF8A7
:1053A80008C000FB0CF064236FF00401514390FB2C
:1053B800F3F002EB820203F0F7FA634BDDF808C062
:1053C80062498246E0580293604442F2107203F048
:1053D800EBFA029BE05099F81230584300130390FF
:1053E8009BF8033023B15A4B1B790BB9022E3CD1E1
:1053F800584BDFF844B1DFF870813BF90570564926
:1054080006EB030907EB870099F80130000190FBD0
:10541800F3F0524BEA5E801A54F8082002931044C5
:105428004FF47A5203F0C0FA029B48F80400EB5E8E
:10543800002BB8BF5B42B3F5207F08DC022E09D1F0
:10544800BBF90430002BB8BF5B42642B02DD00239C
:1054580048F8043058F804207D2392FBF3F899F8B3
:105468000B3003FB08F84FEAA818394B1A79B2B188
:10547800022E14D0049BDDF81090DDF80CC0C3F5A3
:10548800FA7209FB08F07B4302FB0A334FF4FA7106
:1054980002FB0C0293FBF1F392FBF1F208E0DB78DC
:1054A8000BB1022E02D142463B4601E0039A534615
:1054B8002A49DFF8B8B0685A294935F90BC0715C38
:1054C80025F80B000FFA80F90591DFF8A4B0CCEBB2
:1054D8000901DFF8A0C0009154F80B9054F80C10A3
:1054E80089440099894454F80C1044F80B10009929
:1054F80044F80C10DFF880C016F80CC00CFB09F15A
:105508004FF0200CDDF8149091FBFCF1521A10FBBF
:1055180009F06FF04F0190FBF1F003440136114898
:105528001344032E2B5204F1040405F102057FF401
:105538000EAF07B0BDE8F08F4A170020F412002024
:105548003C0B00207C0A0020580B0020F0D8FFFFFD
:10555800FA1600202412002080C1FFFF800A0020D4
:10556800DD17002056170020E80A0020080B00204D
:10557800400B00201C0B0020DA1700202DE9F04713
:105588008046894692460026F3B2534517D2002535
:10559800EBB243450ED20B4CA38A9BB283F48053E3
:1055A8004FF48067A38248462785FBF7A4FE0135A0
:1055B800A761EDE73C20FBF79EFE0136E4E7BDE876
:1055C800F08700BF000400480B4B1A880B4B52B9F8
:1055D8009A7842B15A786AB901225A70084B1A88E7
:1055E800084B1A8070475B7823B90220FF210122FB
:1055F800FFF7C4BF704700BF960E0020FA160020C0
:10560800CC160020B41700202DE9F04FB24BB3F9A7
:105618000600B24B2DED028BDA8C904285B00FDB81
:10562800B0F5FA6F93F8254007DA811A4C43A2F5D2
:10563800FA6294FBF2F4643403E0C4F1640400E019
:105648006424A74A93F82370B2F8D61092F9AC20D4
:105658000091524292B293F8705093F8716093F8A7
:10566800243002920021019703930A469A4BDDF8F1
:10567800008031F903C0C8EB0C0303F2F31E40F2BB
:10568800E637BE4503D8002BB8BF5B4201E04FF4B4
:10569800FA73022ADFF854822CD025B1AB42CCBF72
:1056A800C5EB03030023642793FBF7FEDFF878A21A
:1056B8006FF0630B3AF81E900BFB0E3B0EF1010ED8
:1056C8003AF91EA00FFA89FECEEB0A0E0EFB0BFE6E
:1056D8009EFBF7FECE4428F801E0DDF8048003FBCA
:1056E80008FE804B9EFBF3F33B449BB2634393FB62
:1056F800F7F714E026B1B342CCBFC6EB030300238F
:10570800DDF808E003FB0EF7A8F80470039F002BF0
:10571800B8BF5B427B43734F93FBF7F764376F4B1C
:10572800DFF8088202EB030E64239EF8019007FB62
:1057380009F999FBF3F902F808909EF80B90DFF845
:10574800F0819EF815E007FB09F999FBF3F907FBCF
:105758000EF702F80890DDF8008097FBF3F3624F2C
:10576800C445D355614F02DA7B5A5B427B52013202
:10577800032A01F102017FF479AF594E5B4CB6F868
:10578800D8104FF4FA6203F00FF9B6F8D8304FF496
:105798007A75C01A4543C3F5FA63B5FBF3F564217E
:1057A80095FBF1F352486FF0630E30F813200EFBAF
:1057B8000355013330F9130013B2C31A5D4395FB47
:1057C800F1F14C4D6B7A0A44FA80002B3DD04A4BDC
:1057D800B3F90000494BB3F90030C01AFAF722FEBA
:1057E8003BA3D3E90023FAF783FE454B0022FAF7DF
:1057F800A9FFFBF717F900EE100A08EE900A06F069
:10580800EDFEB0EE408AB0EE680A06F06DFFB4F91E
:1058180002E0B4F9001006EE90EA07EE901AF8EEEE
:10582800E66AF8EEE77A20EE667AA7EE887A67EEFF
:10583800807ABDEEC77AE6EE887A17EE103AFDEE6A
:10584800E77A238017EE903A63800220FDF7A6FAE4
:105858002C4C38B32C4B2D4A2D4F11881A680A440A
:105868001A602C4A13780133DBB213700622B3FB9B
:10587800F2F102FB113313F0FF0F06D1FBF7DEF94B
:10588800BCEEC00A10EE103A3B80234A3B881288CF
:105898009A4203D396F8CB209A4201D9002300E01C
:1058A800042323702078FCF78BF91C4B1B881BB949
:1058B8001B4B1B882BB93DE00220FDF74FFA00284F
:1058C800F6D0184B9A8A92B282F480529A823FE0BC
:1058D800182D4454FB210940B6170020241200203B
:1058E800F41200200CFEFFFFDA1700204A170020F0
:1058F80018170020FA160020CC160020B417002034
:1059080000806640FE0A0020540B00202C0B00206B
:1059180052170020340B002054170020A00D00203F
:10592800960E002000040048F0170020DD17002024
:10593800A8170020AB781BB1254B4FF480529A6111
:105948006B781BB1224B4FF480521A8503F018F87C
:10595800204A214913680868181A0028144611DBE0
:10596800687B1E4A60B99070194A908A03F5F4233F
:1059780080B280F4805003F5907390820B6001E050
:105988000123937002F050F92020FDF7E7F9A0B148
:10599800134A23681168591A00290EDB114909783E
:1059A80004290AD903F5123303F5F8731360084B79
:1059B8009A8A92B282F480529A820B4B9B680BB1FE
:1059C8000A48984705B0BDEC028BBDE8F08F00BFD0
:1059D80000040048A80B0020640B0020FA160020E1
:1059E800140B0020AE1700205C180020F8160020C9
:1059F800024B184490F8CD0005F088B9F412002045
:105A08002DE9F0410820FDF7C9F9DFF8A480234FFC
:105A1800002837D1224C06460546D8F80030E8B2AF
:105A28009847A0F2EE2240F2DC5392B29A4288BF25
:105A38001C4B1D4988BFB3F8D6000A681B4B13409E
:105A4800002B03DA013B63F00303013303EB850CFE
:105A5800134B23F81C00208863880344A088034460
:105A6800E08803441BB20420013593FBF0F3082DB2
:105A7800BB5304F1080406F10206CED101320A60D4
:105A8800BDE8F0810024E0B2D8F80030984727F844
:105A980014000134082CF6D1BDE8F081B6170020B7
:105AA800680B0020F4120020100B00200300008077
:105AB800300B00202DE9F84F08202DED048BFDF761
:105AC8006DF9A64DA8B195F8D530042B10D8DFE8AC
